{
  "abi": [
    {
      "inputs": [
        {
          "internalType": "string",
          "name": "_ipfsHash",
          "type": "string"
        },
        {
          "internalType": "address",
          "name": "_ownerAddress",
          "type": "address"
        },
        {
          "internalType": "string",
          "name": "_documentName",
          "type": "string"
        }
      ],
      "stateMutability": "nonpayable",
      "type": "constructor"
    },
    {
      "inputs": [
        {
          "internalType": "address",
          "name": "ownerAddress",
          "type": "address"
        }
      ],
      "name": "deleteOwner",
      "outputs": [],
      "stateMutability": "nonpayable",
      "type": "function"
    },
    {
      "inputs": [],
      "name": "documentName",
      "outputs": [
        {
          "internalType": "string",
          "name": "",
          "type": "string"
        }
      ],
      "stateMutability": "view",
      "type": "function"
    },
    {
      "inputs": [],
      "name": "getOwners",
      "outputs": [
        {
          "internalType": "address[]",
          "name": "",
          "type": "address[]"
        }
      ],
      "stateMutability": "view",
      "type": "function"
    },
    {
      "inputs": [],
      "name": "ipfsHash",
      "outputs": [
        {
          "internalType": "string",
          "name": "",
          "type": "string"
        }
      ],
      "stateMutability": "view",
      "type": "function"
    },
    {
      "inputs": [
        {
          "internalType": "uint256",
          "name": "",
          "type": "uint256"
        }
      ],
      "name": "ownerAddresses",
      "outputs": [
        {
          "internalType": "address",
          "name": "",
          "type": "address"
        }
      ],
      "stateMutability": "view",
      "type": "function"
    },
    {
      "inputs": [
        {
          "internalType": "uint256",
          "name": "",
          "type": "uint256"
        }
      ],
      "name": "revisions",
      "outputs": [
        {
          "internalType": "string",
          "name": "name",
          "type": "string"
        },
        {
          "internalType": "string",
          "name": "ipfsHash",
          "type": "string"
        }
      ],
      "stateMutability": "view",
      "type": "function"
    },
    {
      "inputs": [
        {
          "internalType": "string",
          "name": "newIpfsHash",
          "type": "string"
        },
        {
          "internalType": "string",
          "name": "newName",
          "type": "string"
        }
      ],
      "name": "updateDocument",
      "outputs": [],
      "stateMutability": "nonpayable",
      "type": "function"
    }
  ],
  "devdoc": {
    "kind": "dev",
    "methods": {},
    "version": 1
  },
  "evm": {
    "assembly": "    /* \"DocumentContract.sol\":34:1333  contract DocumentContract {... */\n  mstore(0x40, 0x80)\n    /* \"DocumentContract.sol\":346:560  constructor(string memory _ipfsHash, address _ownerAddress, string memory _documentName) public{... */\n  callvalue\n  dup1\n  iszero\n  tag_1\n  jumpi\n  0x00\n  dup1\n  revert\ntag_1:\n  pop\n  mload(0x40)\n  sub(codesize, bytecodeSize)\n  dup1\n  bytecodeSize\n  dup4\n  codecopy\n  dup2\n  dup2\n  add\n  0x40\n  mstore\n  dup2\n  add\n  swap1\n  tag_2\n  swap2\n  swap1\n  tag_3\n  jump\t// in\ntag_2:\n    /* \"DocumentContract.sol\":462:471  _ipfsHash */\n  dup3\n    /* \"DocumentContract.sol\":451:459  ipfsHash */\n  0x00\n    /* \"DocumentContract.sol\":451:471  ipfsHash = _ipfsHash */\n  swap1\n  dup1\n  mload\n  swap1\n  0x20\n  add\n  swap1\n  tag_6\n  swap3\n  swap2\n  swap1\n  tag_7\n  jump\t// in\ntag_6:\n  pop\n    /* \"DocumentContract.sol\":481:495  ownerAddresses */\n  0x01\n    /* \"DocumentContract.sol\":501:514  _ownerAddress */\n  dup3\n    /* \"DocumentContract.sol\":481:515  ownerAddresses.push(_ownerAddress) */\n  swap1\n  dup1\n  0x01\n  dup2\n  sload\n  add\n  dup1\n  dup3\n  sstore\n  dup1\n  swap2\n  pop\n  pop\n  0x01\n  swap1\n  sub\n  swap1\n  0x00\n  mstore\n  keccak256(0x00, 0x20)\n  add\n  0x00\n  swap1\n  swap2\n  swap1\n  swap2\n  swap1\n  swap2\n  0x0100\n  exp\n  dup2\n  sload\n  dup2\n  0xffffffffffffffffffffffffffffffffffffffff\n  mul\n  not\n  and\n  swap1\n  dup4\n  0xffffffffffffffffffffffffffffffffffffffff\n  and\n  mul\n  or\n  swap1\n  sstore\n  pop\n    /* \"DocumentContract.sol\":540:553  _documentName */\n  dup1\n    /* \"DocumentContract.sol\":525:537  documentName */\n  0x02\n    /* \"DocumentContract.sol\":525:553  documentName = _documentName */\n  swap1\n  dup1\n  mload\n  swap1\n  0x20\n  add\n  swap1\n  tag_9\n  swap3\n  swap2\n  swap1\n  tag_7\n  jump\t// in\ntag_9:\n  pop\n    /* \"DocumentContract.sol\":346:560  constructor(string memory _ipfsHash, address _ownerAddress, string memory _documentName) public{... */\n  pop\n  pop\n  pop\n    /* \"DocumentContract.sol\":34:1333  contract DocumentContract {... */\n  jump(tag_10)\ntag_7:\n  dup3\n  dup1\n  sload\n  tag_11\n  swap1\n  tag_12\n  jump\t// in\ntag_11:\n  swap1\n  0x00\n  mstore\n  keccak256(0x00, 0x20)\n  swap1\n  0x1f\n  add\n  0x20\n  swap1\n  div\n  dup2\n  add\n  swap3\n  dup3\n  tag_14\n  jumpi\n  0x00\n  dup6\n  sstore\n  jump(tag_13)\ntag_14:\n  dup3\n  0x1f\n  lt\n  tag_15\n  jumpi\n  dup1\n  mload\n  not(0xff)\n  and\n  dup4\n  dup1\n  add\n  or\n  dup6\n  sstore\n  jump(tag_13)\ntag_15:\n  dup3\n  dup1\n  add\n  0x01\n  add\n  dup6\n  sstore\n  dup3\n  iszero\n  tag_13\n  jumpi\n  swap2\n  dup3\n  add\ntag_16:\n  dup3\n  dup2\n  gt\n  iszero\n  tag_17\n  jumpi\n  dup3\n  mload\n  dup3\n  sstore\n  swap2\n  0x20\n  add\n  swap2\n  swap1\n  0x01\n  add\n  swap1\n  jump(tag_16)\ntag_17:\ntag_13:\n  pop\n  swap1\n  pop\n  tag_18\n  swap2\n  swap1\n  tag_19\n  jump\t// in\ntag_18:\n  pop\n  swap1\n  jump\t// out\ntag_19:\ntag_20:\n  dup1\n  dup3\n  gt\n  iszero\n  tag_21\n  jumpi\n  0x00\n  dup2\n  0x00\n  swap1\n  sstore\n  pop\n  0x01\n  add\n  jump(tag_20)\ntag_21:\n  pop\n  swap1\n  jump\t// out\n    /* \"#utility.yul\":7:82   */\ntag_22:\n    /* \"#utility.yul\":40:46   */\n  0x00\n    /* \"#utility.yul\":73:75   */\n  0x40\n    /* \"#utility.yul\":67:76   */\n  mload\n    /* \"#utility.yul\":57:76   */\n  swap1\n  pop\n    /* \"#utility.yul\":7:82   */\n  swap1\n  jump\t// out\n    /* \"#utility.yul\":88:205   */\ntag_23:\n    /* \"#utility.yul\":197:198   */\n  0x00\n    /* \"#utility.yul\":194:195   */\n  dup1\n    /* \"#utility.yul\":187:199   */\n  revert\n    /* \"#utility.yul\":211:328   */\ntag_24:\n    /* \"#utility.yul\":320:321   */\n  0x00\n    /* \"#utility.yul\":317:318   */\n  dup1\n    /* \"#utility.yul\":310:322   */\n  revert\n    /* \"#utility.yul\":334:451   */\ntag_25:\n    /* \"#utility.yul\":443:444   */\n  0x00\n    /* \"#utility.yul\":440:441   */\n  dup1\n    /* \"#utility.yul\":433:445   */\n  revert\n    /* \"#utility.yul\":457:574   */\ntag_26:\n    /* \"#utility.yul\":566:567   */\n  0x00\n    /* \"#utility.yul\":563:564   */\n  dup1\n    /* \"#utility.yul\":556:568   */\n  revert\n    /* \"#utility.yul\":580:682   */\ntag_27:\n    /* \"#utility.yul\":621:627   */\n  0x00\n    /* \"#utility.yul\":672:674   */\n  0x1f\n    /* \"#utility.yul\":668:675   */\n  not\n    /* \"#utility.yul\":663:665   */\n  0x1f\n    /* \"#utility.yul\":656:661   */\n  dup4\n    /* \"#utility.yul\":652:666   */\n  add\n    /* \"#utility.yul\":648:676   */\n  and\n    /* \"#utility.yul\":638:676   */\n  swap1\n  pop\n    /* \"#utility.yul\":580:682   */\n  swap2\n  swap1\n  pop\n  jump\t// out\n    /* \"#utility.yul\":688:868   */\ntag_28:\n    /* \"#utility.yul\":736:813   */\n  0x4e487b7100000000000000000000000000000000000000000000000000000000\n    /* \"#utility.yul\":733:734   */\n  0x00\n    /* \"#utility.yul\":726:814   */\n  mstore\n    /* \"#utility.yul\":833:837   */\n  0x41\n    /* \"#utility.yul\":830:831   */\n  0x04\n    /* \"#utility.yul\":823:838   */\n  mstore\n    /* \"#utility.yul\":857:861   */\n  0x24\n    /* \"#utility.yul\":854:855   */\n  0x00\n    /* \"#utility.yul\":847:862   */\n  revert\n    /* \"#utility.yul\":874:1155   */\ntag_29:\n    /* \"#utility.yul\":957:984   */\n  tag_49\n    /* \"#utility.yul\":979:983   */\n  dup3\n    /* \"#utility.yul\":957:984   */\n  tag_27\n  jump\t// in\ntag_49:\n    /* \"#utility.yul\":949:955   */\n  dup2\n    /* \"#utility.yul\":945:985   */\n  add\n    /* \"#utility.yul\":1087:1093   */\n  dup2\n    /* \"#utility.yul\":1075:1085   */\n  dup2\n    /* \"#utility.yul\":1072:1094   */\n  lt\n    /* \"#utility.yul\":1051:1069   */\n  0xffffffffffffffff\n    /* \"#utility.yul\":1039:1049   */\n  dup3\n    /* \"#utility.yul\":1036:1070   */\n  gt\n    /* \"#utility.yul\":1033:1095   */\n  or\n    /* \"#utility.yul\":1030:1118   */\n  iszero\n  tag_50\n  jumpi\n    /* \"#utility.yul\":1098:1116   */\n  tag_51\n  tag_28\n  jump\t// in\ntag_51:\n    /* \"#utility.yul\":1030:1118   */\ntag_50:\n    /* \"#utility.yul\":1138:1148   */\n  dup1\n    /* \"#utility.yul\":1134:1136   */\n  0x40\n    /* \"#utility.yul\":1127:1149   */\n  mstore\n    /* \"#utility.yul\":917:1155   */\n  pop\n    /* \"#utility.yul\":874:1155   */\n  pop\n  pop\n  jump\t// out\n    /* \"#utility.yul\":1161:1290   */\ntag_30:\n    /* \"#utility.yul\":1195:1201   */\n  0x00\n    /* \"#utility.yul\":1222:1242   */\n  tag_53\n  tag_22\n  jump\t// in\ntag_53:\n    /* \"#utility.yul\":1212:1242   */\n  swap1\n  pop\n    /* \"#utility.yul\":1251:1284   */\n  tag_54\n    /* \"#utility.yul\":1279:1283   */\n  dup3\n    /* \"#utility.yul\":1271:1277   */\n  dup3\n    /* \"#utility.yul\":1251:1284   */\n  tag_29\n  jump\t// in\ntag_54:\n    /* \"#utility.yul\":1161:1290   */\n  swap2\n  swap1\n  pop\n  jump\t// out\n    /* \"#utility.yul\":1296:1604   */\ntag_31:\n    /* \"#utility.yul\":1358:1362   */\n  0x00\n    /* \"#utility.yul\":1448:1466   */\n  0xffffffffffffffff\n    /* \"#utility.yul\":1440:1446   */\n  dup3\n    /* \"#utility.yul\":1437:1467   */\n  gt\n    /* \"#utility.yul\":1434:1490   */\n  iszero\n  tag_56\n  jumpi\n    /* \"#utility.yul\":1470:1488   */\n  tag_57\n  tag_28\n  jump\t// in\ntag_57:\n    /* \"#utility.yul\":1434:1490   */\ntag_56:\n    /* \"#utility.yul\":1508:1537   */\n  tag_58\n    /* \"#utility.yul\":1530:1536   */\n  dup3\n    /* \"#utility.yul\":1508:1537   */\n  tag_27\n  jump\t// in\ntag_58:\n    /* \"#utility.yul\":1500:1537   */\n  swap1\n  pop\n    /* \"#utility.yul\":1592:1596   */\n  0x20\n    /* \"#utility.yul\":1586:1590   */\n  dup2\n    /* \"#utility.yul\":1582:1597   */\n  add\n    /* \"#utility.yul\":1574:1597   */\n  swap1\n  pop\n    /* \"#utility.yul\":1296:1604   */\n  swap2\n  swap1\n  pop\n  jump\t// out\n    /* \"#utility.yul\":1610:1917   */\ntag_32:\n    /* \"#utility.yul\":1678:1679   */\n  0x00\n    /* \"#utility.yul\":1688:1801   */\ntag_60:\n    /* \"#utility.yul\":1702:1708   */\n  dup4\n    /* \"#utility.yul\":1699:1700   */\n  dup2\n    /* \"#utility.yul\":1696:1709   */\n  lt\n    /* \"#utility.yul\":1688:1801   */\n  iszero\n  tag_62\n  jumpi\n    /* \"#utility.yul\":1787:1788   */\n  dup1\n    /* \"#utility.yul\":1782:1785   */\n  dup3\n    /* \"#utility.yul\":1778:1789   */\n  add\n    /* \"#utility.yul\":1772:1790   */\n  mload\n    /* \"#utility.yul\":1768:1769   */\n  dup2\n    /* \"#utility.yul\":1763:1766   */\n  dup5\n    /* \"#utility.yul\":1759:1770   */\n  add\n    /* \"#utility.yul\":1752:1791   */\n  mstore\n    /* \"#utility.yul\":1724:1726   */\n  0x20\n    /* \"#utility.yul\":1721:1722   */\n  dup2\n    /* \"#utility.yul\":1717:1727   */\n  add\n    /* \"#utility.yul\":1712:1727   */\n  swap1\n  pop\n    /* \"#utility.yul\":1688:1801   */\n  jump(tag_60)\ntag_62:\n    /* \"#utility.yul\":1819:1825   */\n  dup4\n    /* \"#utility.yul\":1816:1817   */\n  dup2\n    /* \"#utility.yul\":1813:1826   */\n  gt\n    /* \"#utility.yul\":1810:1911   */\n  iszero\n  tag_63\n  jumpi\n    /* \"#utility.yul\":1899:1900   */\n  0x00\n    /* \"#utility.yul\":1890:1896   */\n  dup5\n    /* \"#utility.yul\":1885:1888   */\n  dup5\n    /* \"#utility.yul\":1881:1897   */\n  add\n    /* \"#utility.yul\":1874:1901   */\n  mstore\n    /* \"#utility.yul\":1810:1911   */\ntag_63:\n    /* \"#utility.yul\":1659:1917   */\n  pop\n    /* \"#utility.yul\":1610:1917   */\n  pop\n  pop\n  pop\n  jump\t// out\n    /* \"#utility.yul\":1923:2344   */\ntag_33:\n    /* \"#utility.yul\":2012:2017   */\n  0x00\n    /* \"#utility.yul\":2037:2103   */\n  tag_65\n    /* \"#utility.yul\":2053:2102   */\n  tag_66\n    /* \"#utility.yul\":2095:2101   */\n  dup5\n    /* \"#utility.yul\":2053:2102   */\n  tag_31\n  jump\t// in\ntag_66:\n    /* \"#utility.yul\":2037:2103   */\n  tag_30\n  jump\t// in\ntag_65:\n    /* \"#utility.yul\":2028:2103   */\n  swap1\n  pop\n    /* \"#utility.yul\":2126:2132   */\n  dup3\n    /* \"#utility.yul\":2119:2124   */\n  dup2\n    /* \"#utility.yul\":2112:2133   */\n  mstore\n    /* \"#utility.yul\":2164:2168   */\n  0x20\n    /* \"#utility.yul\":2157:2162   */\n  dup2\n    /* \"#utility.yul\":2153:2169   */\n  add\n    /* \"#utility.yul\":2202:2205   */\n  dup5\n    /* \"#utility.yul\":2193:2199   */\n  dup5\n    /* \"#utility.yul\":2188:2191   */\n  dup5\n    /* \"#utility.yul\":2184:2200   */\n  add\n    /* \"#utility.yul\":2181:2206   */\n  gt\n    /* \"#utility.yul\":2178:2290   */\n  iszero\n  tag_67\n  jumpi\n    /* \"#utility.yul\":2209:2288   */\n  tag_68\n  tag_26\n  jump\t// in\ntag_68:\n    /* \"#utility.yul\":2178:2290   */\ntag_67:\n    /* \"#utility.yul\":2299:2338   */\n  tag_69\n    /* \"#utility.yul\":2331:2337   */\n  dup5\n    /* \"#utility.yul\":2326:2329   */\n  dup3\n    /* \"#utility.yul\":2321:2324   */\n  dup6\n    /* \"#utility.yul\":2299:2338   */\n  tag_32\n  jump\t// in\ntag_69:\n    /* \"#utility.yul\":2018:2344   */\n  pop\n    /* \"#utility.yul\":1923:2344   */\n  swap4\n  swap3\n  pop\n  pop\n  pop\n  jump\t// out\n    /* \"#utility.yul\":2364:2719   */\ntag_34:\n    /* \"#utility.yul\":2431:2436   */\n  0x00\n    /* \"#utility.yul\":2480:2483   */\n  dup3\n    /* \"#utility.yul\":2473:2477   */\n  0x1f\n    /* \"#utility.yul\":2465:2471   */\n  dup4\n    /* \"#utility.yul\":2461:2478   */\n  add\n    /* \"#utility.yul\":2457:2484   */\n  slt\n    /* \"#utility.yul\":2447:2569   */\n  tag_71\n  jumpi\n    /* \"#utility.yul\":2488:2567   */\n  tag_72\n  tag_25\n  jump\t// in\ntag_72:\n    /* \"#utility.yul\":2447:2569   */\ntag_71:\n    /* \"#utility.yul\":2598:2604   */\n  dup2\n    /* \"#utility.yul\":2592:2605   */\n  mload\n    /* \"#utility.yul\":2623:2713   */\n  tag_73\n    /* \"#utility.yul\":2709:2712   */\n  dup5\n    /* \"#utility.yul\":2701:2707   */\n  dup3\n    /* \"#utility.yul\":2694:2698   */\n  0x20\n    /* \"#utility.yul\":2686:2692   */\n  dup7\n    /* \"#utility.yul\":2682:2699   */\n  add\n    /* \"#utility.yul\":2623:2713   */\n  tag_33\n  jump\t// in\ntag_73:\n    /* \"#utility.yul\":2614:2713   */\n  swap2\n  pop\n    /* \"#utility.yul\":2437:2719   */\n  pop\n    /* \"#utility.yul\":2364:2719   */\n  swap3\n  swap2\n  pop\n  pop\n  jump\t// out\n    /* \"#utility.yul\":2725:2851   */\ntag_35:\n    /* \"#utility.yul\":2762:2769   */\n  0x00\n    /* \"#utility.yul\":2802:2844   */\n  0xffffffffffffffffffffffffffffffffffffffff\n    /* \"#utility.yul\":2795:2800   */\n  dup3\n    /* \"#utility.yul\":2791:2845   */\n  and\n    /* \"#utility.yul\":2780:2845   */\n  swap1\n  pop\n    /* \"#utility.yul\":2725:2851   */\n  swap2\n  swap1\n  pop\n  jump\t// out\n    /* \"#utility.yul\":2857:2953   */\ntag_36:\n    /* \"#utility.yul\":2894:2901   */\n  0x00\n    /* \"#utility.yul\":2923:2947   */\n  tag_76\n    /* \"#utility.yul\":2941:2946   */\n  dup3\n    /* \"#utility.yul\":2923:2947   */\n  tag_35\n  jump\t// in\ntag_76:\n    /* \"#utility.yul\":2912:2947   */\n  swap1\n  pop\n    /* \"#utility.yul\":2857:2953   */\n  swap2\n  swap1\n  pop\n  jump\t// out\n    /* \"#utility.yul\":2959:3081   */\ntag_37:\n    /* \"#utility.yul\":3032:3056   */\n  tag_78\n    /* \"#utility.yul\":3050:3055   */\n  dup2\n    /* \"#utility.yul\":3032:3056   */\n  tag_36\n  jump\t// in\ntag_78:\n    /* \"#utility.yul\":3025:3030   */\n  dup2\n    /* \"#utility.yul\":3022:3057   */\n  eq\n    /* \"#utility.yul\":3012:3075   */\n  tag_79\n  jumpi\n    /* \"#utility.yul\":3071:3072   */\n  0x00\n    /* \"#utility.yul\":3068:3069   */\n  dup1\n    /* \"#utility.yul\":3061:3073   */\n  revert\n    /* \"#utility.yul\":3012:3075   */\ntag_79:\n    /* \"#utility.yul\":2959:3081   */\n  pop\n  jump\t// out\n    /* \"#utility.yul\":3087:3230   */\ntag_38:\n    /* \"#utility.yul\":3144:3149   */\n  0x00\n    /* \"#utility.yul\":3175:3181   */\n  dup2\n    /* \"#utility.yul\":3169:3182   */\n  mload\n    /* \"#utility.yul\":3160:3182   */\n  swap1\n  pop\n    /* \"#utility.yul\":3191:3224   */\n  tag_81\n    /* \"#utility.yul\":3218:3223   */\n  dup2\n    /* \"#utility.yul\":3191:3224   */\n  tag_37\n  jump\t// in\ntag_81:\n    /* \"#utility.yul\":3087:3230   */\n  swap3\n  swap2\n  pop\n  pop\n  jump\t// out\n    /* \"#utility.yul\":3236:4245   */\ntag_3:\n    /* \"#utility.yul\":3344:3350   */\n  0x00\n    /* \"#utility.yul\":3352:3358   */\n  dup1\n    /* \"#utility.yul\":3360:3366   */\n  0x00\n    /* \"#utility.yul\":3409:3411   */\n  0x60\n    /* \"#utility.yul\":3397:3406   */\n  dup5\n    /* \"#utility.yul\":3388:3395   */\n  dup7\n    /* \"#utility.yul\":3384:3407   */\n  sub\n    /* \"#utility.yul\":3380:3412   */\n  slt\n    /* \"#utility.yul\":3377:3496   */\n  iszero\n  tag_83\n  jumpi\n    /* \"#utility.yul\":3415:3494   */\n  tag_84\n  tag_23\n  jump\t// in\ntag_84:\n    /* \"#utility.yul\":3377:3496   */\ntag_83:\n    /* \"#utility.yul\":3556:3557   */\n  0x00\n    /* \"#utility.yul\":3545:3554   */\n  dup5\n    /* \"#utility.yul\":3541:3558   */\n  add\n    /* \"#utility.yul\":3535:3559   */\n  mload\n    /* \"#utility.yul\":3586:3604   */\n  0xffffffffffffffff\n    /* \"#utility.yul\":3578:3584   */\n  dup2\n    /* \"#utility.yul\":3575:3605   */\n  gt\n    /* \"#utility.yul\":3572:3689   */\n  iszero\n  tag_85\n  jumpi\n    /* \"#utility.yul\":3608:3687   */\n  tag_86\n  tag_24\n  jump\t// in\ntag_86:\n    /* \"#utility.yul\":3572:3689   */\ntag_85:\n    /* \"#utility.yul\":3713:3787   */\n  tag_87\n    /* \"#utility.yul\":3779:3786   */\n  dup7\n    /* \"#utility.yul\":3770:3776   */\n  dup3\n    /* \"#utility.yul\":3759:3768   */\n  dup8\n    /* \"#utility.yul\":3755:3777   */\n  add\n    /* \"#utility.yul\":3713:3787   */\n  tag_34\n  jump\t// in\ntag_87:\n    /* \"#utility.yul\":3703:3787   */\n  swap4\n  pop\n    /* \"#utility.yul\":3506:3797   */\n  pop\n    /* \"#utility.yul\":3836:3838   */\n  0x20\n    /* \"#utility.yul\":3862:3926   */\n  tag_88\n    /* \"#utility.yul\":3918:3925   */\n  dup7\n    /* \"#utility.yul\":3909:3915   */\n  dup3\n    /* \"#utility.yul\":3898:3907   */\n  dup8\n    /* \"#utility.yul\":3894:3916   */\n  add\n    /* \"#utility.yul\":3862:3926   */\n  tag_38\n  jump\t// in\ntag_88:\n    /* \"#utility.yul\":3852:3926   */\n  swap3\n  pop\n    /* \"#utility.yul\":3807:3936   */\n  pop\n    /* \"#utility.yul\":3996:3998   */\n  0x40\n    /* \"#utility.yul\":3985:3994   */\n  dup5\n    /* \"#utility.yul\":3981:3999   */\n  add\n    /* \"#utility.yul\":3975:4000   */\n  mload\n    /* \"#utility.yul\":4027:4045   */\n  0xffffffffffffffff\n    /* \"#utility.yul\":4019:4025   */\n  dup2\n    /* \"#utility.yul\":4016:4046   */\n  gt\n    /* \"#utility.yul\":4013:4130   */\n  iszero\n  tag_89\n  jumpi\n    /* \"#utility.yul\":4049:4128   */\n  tag_90\n  tag_24\n  jump\t// in\ntag_90:\n    /* \"#utility.yul\":4013:4130   */\ntag_89:\n    /* \"#utility.yul\":4154:4228   */\n  tag_91\n    /* \"#utility.yul\":4220:4227   */\n  dup7\n    /* \"#utility.yul\":4211:4217   */\n  dup3\n    /* \"#utility.yul\":4200:4209   */\n  dup8\n    /* \"#utility.yul\":4196:4218   */\n  add\n    /* \"#utility.yul\":4154:4228   */\n  tag_34\n  jump\t// in\ntag_91:\n    /* \"#utility.yul\":4144:4228   */\n  swap2\n  pop\n    /* \"#utility.yul\":3946:4238   */\n  pop\n    /* \"#utility.yul\":3236:4245   */\n  swap3\n  pop\n  swap3\n  pop\n  swap3\n  jump\t// out\n    /* \"#utility.yul\":4251:4431   */\ntag_39:\n    /* \"#utility.yul\":4299:4376   */\n  0x4e487b7100000000000000000000000000000000000000000000000000000000\n    /* \"#utility.yul\":4296:4297   */\n  0x00\n    /* \"#utility.yul\":4289:4377   */\n  mstore\n    /* \"#utility.yul\":4396:4400   */\n  0x22\n    /* \"#utility.yul\":4393:4394   */\n  0x04\n    /* \"#utility.yul\":4386:4401   */\n  mstore\n    /* \"#utility.yul\":4420:4424   */\n  0x24\n    /* \"#utility.yul\":4417:4418   */\n  0x00\n    /* \"#utility.yul\":4410:4425   */\n  revert\n    /* \"#utility.yul\":4437:4757   */\ntag_12:\n    /* \"#utility.yul\":4481:4487   */\n  0x00\n    /* \"#utility.yul\":4518:4519   */\n  0x02\n    /* \"#utility.yul\":4512:4516   */\n  dup3\n    /* \"#utility.yul\":4508:4520   */\n  div\n    /* \"#utility.yul\":4498:4520   */\n  swap1\n  pop\n    /* \"#utility.yul\":4565:4566   */\n  0x01\n    /* \"#utility.yul\":4559:4563   */\n  dup3\n    /* \"#utility.yul\":4555:4567   */\n  and\n    /* \"#utility.yul\":4586:4604   */\n  dup1\n    /* \"#utility.yul\":4576:4657   */\n  tag_94\n  jumpi\n    /* \"#utility.yul\":4642:4646   */\n  0x7f\n    /* \"#utility.yul\":4634:4640   */\n  dup3\n    /* \"#utility.yul\":4630:4647   */\n  and\n    /* \"#utility.yul\":4620:4647   */\n  swap2\n  pop\n    /* \"#utility.yul\":4576:4657   */\ntag_94:\n    /* \"#utility.yul\":4704:4706   */\n  0x20\n    /* \"#utility.yul\":4696:4702   */\n  dup3\n    /* \"#utility.yul\":4693:4707   */\n  lt\n    /* \"#utility.yul\":4673:4691   */\n  dup2\n    /* \"#utility.yul\":4670:4708   */\n  sub\n    /* \"#utility.yul\":4667:4751   */\n  tag_95\n  jumpi\n    /* \"#utility.yul\":4723:4741   */\n  tag_96\n  tag_39\n  jump\t// in\ntag_96:\n    /* \"#utility.yul\":4667:4751   */\ntag_95:\n    /* \"#utility.yul\":4488:4757   */\n  pop\n    /* \"#utility.yul\":4437:4757   */\n  swap2\n  swap1\n  pop\n  jump\t// out\n    /* \"DocumentContract.sol\":34:1333  contract DocumentContract {... */\ntag_10:\n  dataSize(sub_0)\n  dup1\n  dataOffset(sub_0)\n  0x00\n  codecopy\n  0x00\n  return\nstop\n\nsub_0: assembly {\n        /* \"DocumentContract.sol\":34:1333  contract DocumentContract {... */\n      mstore(0x40, 0x80)\n      callvalue\n      dup1\n      iszero\n      tag_1\n      jumpi\n      0x00\n      dup1\n      revert\n    tag_1:\n      pop\n      jumpi(tag_2, lt(calldatasize, 0x04))\n      shr(0xe0, calldataload(0x00))\n      dup1\n      0x6b465601\n      gt\n      tag_10\n      jumpi\n      dup1\n      0x6b465601\n      eq\n      tag_6\n      jumpi\n      dup1\n      0xa0e67e2b\n      eq\n      tag_7\n      jumpi\n      dup1\n      0xc623674f\n      eq\n      tag_8\n      jumpi\n      dup1\n      0xcd5c4c70\n      eq\n      tag_9\n      jumpi\n      jump(tag_2)\n    tag_10:\n      dup1\n      0x0ef486d1\n      eq\n      tag_3\n      jumpi\n      dup1\n      0x0f310b17\n      eq\n      tag_4\n      jumpi\n      dup1\n      0x4d300e0c\n      eq\n      tag_5\n      jumpi\n    tag_2:\n      0x00\n      dup1\n      revert\n        /* \"DocumentContract.sol\":616:651  RevisionDocument[] public revisions */\n    tag_3:\n      tag_11\n      0x04\n      dup1\n      calldatasize\n      sub\n      dup2\n      add\n      swap1\n      tag_12\n      swap2\n      swap1\n      tag_13\n      jump\t// in\n    tag_12:\n      tag_14\n      jump\t// in\n    tag_11:\n      mload(0x40)\n      tag_15\n      swap3\n      swap2\n      swap1\n      tag_16\n      jump\t// in\n    tag_15:\n      mload(0x40)\n      dup1\n      swap2\n      sub\n      swap1\n      return\n        /* \"DocumentContract.sol\":275:306  address[] public ownerAddresses */\n    tag_4:\n      tag_17\n      0x04\n      dup1\n      calldatasize\n      sub\n      dup2\n      add\n      swap1\n      tag_18\n      swap2\n      swap1\n      tag_13\n      jump\t// in\n    tag_18:\n      tag_19\n      jump\t// in\n    tag_17:\n      mload(0x40)\n      tag_20\n      swap2\n      swap1\n      tag_21\n      jump\t// in\n    tag_20:\n      mload(0x40)\n      dup1\n      swap2\n      sub\n      swap1\n      return\n        /* \"DocumentContract.sol\":760:997  function updateDocument(string memory newIpfsHash, string  memory newName) public{... */\n    tag_5:\n      tag_22\n      0x04\n      dup1\n      calldatasize\n      sub\n      dup2\n      add\n      swap1\n      tag_23\n      swap2\n      swap1\n      tag_24\n      jump\t// in\n    tag_23:\n      tag_25\n      jump\t// in\n    tag_22:\n      stop\n        /* \"DocumentContract.sol\":313:339  string public documentName */\n    tag_6:\n      tag_26\n      tag_27\n      jump\t// in\n    tag_26:\n      mload(0x40)\n      tag_28\n      swap2\n      swap1\n      tag_29\n      jump\t// in\n    tag_28:\n      mload(0x40)\n      dup1\n      swap2\n      sub\n      swap1\n      return\n        /* \"DocumentContract.sol\":658:754  function getOwners() public view returns(address[] memory){... */\n    tag_7:\n      tag_30\n      tag_31\n      jump\t// in\n    tag_30:\n      mload(0x40)\n      tag_32\n      swap2\n      swap1\n      tag_33\n      jump\t// in\n    tag_32:\n      mload(0x40)\n      dup1\n      swap2\n      sub\n      swap1\n      return\n        /* \"DocumentContract.sol\":247:269  string public ipfsHash */\n    tag_8:\n      tag_34\n      tag_35\n      jump\t// in\n    tag_34:\n      mload(0x40)\n      tag_36\n      swap2\n      swap1\n      tag_29\n      jump\t// in\n    tag_36:\n      mload(0x40)\n      dup1\n      swap2\n      sub\n      swap1\n      return\n        /* \"DocumentContract.sol\":1003:1331  function deleteOwner(address ownerAddress) public{... */\n    tag_9:\n      tag_37\n      0x04\n      dup1\n      calldatasize\n      sub\n      dup2\n      add\n      swap1\n      tag_38\n      swap2\n      swap1\n      tag_39\n      jump\t// in\n    tag_38:\n      tag_40\n      jump\t// in\n    tag_37:\n      stop\n        /* \"DocumentContract.sol\":616:651  RevisionDocument[] public revisions */\n    tag_14:\n      0x03\n      dup2\n      dup2\n      sload\n      dup2\n      lt\n      tag_41\n      jumpi\n      0x00\n      dup1\n      revert\n    tag_41:\n      swap1\n      0x00\n      mstore\n      keccak256(0x00, 0x20)\n      swap1\n      0x02\n      mul\n      add\n      0x00\n      swap2\n      pop\n      swap1\n      pop\n      dup1\n      0x00\n      add\n      dup1\n      sload\n      tag_43\n      swap1\n      tag_44\n      jump\t// in\n    tag_43:\n      dup1\n      0x1f\n      add\n      0x20\n      dup1\n      swap2\n      div\n      mul\n      0x20\n      add\n      mload(0x40)\n      swap1\n      dup2\n      add\n      0x40\n      mstore\n      dup1\n      swap3\n      swap2\n      swap1\n      dup2\n      dup2\n      mstore\n      0x20\n      add\n      dup3\n      dup1\n      sload\n      tag_45\n      swap1\n      tag_44\n      jump\t// in\n    tag_45:\n      dup1\n      iszero\n      tag_46\n      jumpi\n      dup1\n      0x1f\n      lt\n      tag_47\n      jumpi\n      0x0100\n      dup1\n      dup4\n      sload\n      div\n      mul\n      dup4\n      mstore\n      swap2\n      0x20\n      add\n      swap2\n      jump(tag_46)\n    tag_47:\n      dup3\n      add\n      swap2\n      swap1\n      0x00\n      mstore\n      keccak256(0x00, 0x20)\n      swap1\n    tag_48:\n      dup2\n      sload\n      dup2\n      mstore\n      swap1\n      0x01\n      add\n      swap1\n      0x20\n      add\n      dup1\n      dup4\n      gt\n      tag_48\n      jumpi\n      dup3\n      swap1\n      sub\n      0x1f\n      and\n      dup3\n      add\n      swap2\n    tag_46:\n      pop\n      pop\n      pop\n      pop\n      pop\n      swap1\n      dup1\n      0x01\n      add\n      dup1\n      sload\n      tag_49\n      swap1\n      tag_44\n      jump\t// in\n    tag_49:\n      dup1\n      0x1f\n      add\n      0x20\n      dup1\n      swap2\n      div\n      mul\n      0x20\n      add\n      mload(0x40)\n      swap1\n      dup2\n      add\n      0x40\n      mstore\n      dup1\n      swap3\n      swap2\n      swap1\n      dup2\n      dup2\n      mstore\n      0x20\n      add\n      dup3\n      dup1\n      sload\n      tag_50\n      swap1\n      tag_44\n      jump\t// in\n    tag_50:\n      dup1\n      iszero\n      tag_51\n      jumpi\n      dup1\n      0x1f\n      lt\n      tag_52\n      jumpi\n      0x0100\n      dup1\n      dup4\n      sload\n      div\n      mul\n      dup4\n      mstore\n      swap2\n      0x20\n      add\n      swap2\n      jump(tag_51)\n    tag_52:\n      dup3\n      add\n      swap2\n      swap1\n      0x00\n      mstore\n      keccak256(0x00, 0x20)\n      swap1\n    tag_53:\n      dup2\n      sload\n      dup2\n      mstore\n      swap1\n      0x01\n      add\n      swap1\n      0x20\n      add\n      dup1\n      dup4\n      gt\n      tag_53\n      jumpi\n      dup3\n      swap1\n      sub\n      0x1f\n      and\n      dup3\n      add\n      swap2\n    tag_51:\n      pop\n      pop\n      pop\n      pop\n      pop\n      swap1\n      pop\n      dup3\n      jump\t// out\n        /* \"DocumentContract.sol\":275:306  address[] public ownerAddresses */\n    tag_19:\n      0x01\n      dup2\n      dup2\n      sload\n      dup2\n      lt\n      tag_54\n      jumpi\n      0x00\n      dup1\n      revert\n    tag_54:\n      swap1\n      0x00\n      mstore\n      keccak256(0x00, 0x20)\n      add\n      0x00\n      swap2\n      pop\n      sload\n      swap1\n      0x0100\n      exp\n      swap1\n      div\n      0xffffffffffffffffffffffffffffffffffffffff\n      and\n      dup2\n      jump\t// out\n        /* \"DocumentContract.sol\":760:997  function updateDocument(string memory newIpfsHash, string  memory newName) public{... */\n    tag_25:\n        /* \"DocumentContract.sol\":851:860  revisions */\n      0x03\n        /* \"DocumentContract.sol\":866:924  RevisionDocument({ipfsHash: ipfsHash, name: documentName}) */\n      mload(0x40)\n      dup1\n      0x40\n      add\n      0x40\n      mstore\n      dup1\n        /* \"DocumentContract.sol\":910:922  documentName */\n      0x02\n        /* \"DocumentContract.sol\":866:924  RevisionDocument({ipfsHash: ipfsHash, name: documentName}) */\n      dup1\n      sload\n      tag_57\n      swap1\n      tag_44\n      jump\t// in\n    tag_57:\n      dup1\n      0x1f\n      add\n      0x20\n      dup1\n      swap2\n      div\n      mul\n      0x20\n      add\n      mload(0x40)\n      swap1\n      dup2\n      add\n      0x40\n      mstore\n      dup1\n      swap3\n      swap2\n      swap1\n      dup2\n      dup2\n      mstore\n      0x20\n      add\n      dup3\n      dup1\n      sload\n      tag_58\n      swap1\n      tag_44\n      jump\t// in\n    tag_58:\n      dup1\n      iszero\n      tag_59\n      jumpi\n      dup1\n      0x1f\n      lt\n      tag_60\n      jumpi\n      0x0100\n      dup1\n      dup4\n      sload\n      div\n      mul\n      dup4\n      mstore\n      swap2\n      0x20\n      add\n      swap2\n      jump(tag_59)\n    tag_60:\n      dup3\n      add\n      swap2\n      swap1\n      0x00\n      mstore\n      keccak256(0x00, 0x20)\n      swap1\n    tag_61:\n      dup2\n      sload\n      dup2\n      mstore\n      swap1\n      0x01\n      add\n      swap1\n      0x20\n      add\n      dup1\n      dup4\n      gt\n      tag_61\n      jumpi\n      dup3\n      swap1\n      sub\n      0x1f\n      and\n      dup3\n      add\n      swap2\n    tag_59:\n      pop\n      pop\n      pop\n      pop\n      pop\n      dup2\n      mstore\n      0x20\n      add\n        /* \"DocumentContract.sol\":894:902  ipfsHash */\n      0x00\n        /* \"DocumentContract.sol\":866:924  RevisionDocument({ipfsHash: ipfsHash, name: documentName}) */\n      dup1\n      sload\n      tag_62\n      swap1\n      tag_44\n      jump\t// in\n    tag_62:\n      dup1\n      0x1f\n      add\n      0x20\n      dup1\n      swap2\n      div\n      mul\n      0x20\n      add\n      mload(0x40)\n      swap1\n      dup2\n      add\n      0x40\n      mstore\n      dup1\n      swap3\n      swap2\n      swap1\n      dup2\n      dup2\n      mstore\n      0x20\n      add\n      dup3\n      dup1\n      sload\n      tag_63\n      swap1\n      tag_44\n      jump\t// in\n    tag_63:\n      dup1\n      iszero\n      tag_64\n      jumpi\n      dup1\n      0x1f\n      lt\n      tag_65\n      jumpi\n      0x0100\n      dup1\n      dup4\n      sload\n      div\n      mul\n      dup4\n      mstore\n      swap2\n      0x20\n      add\n      swap2\n      jump(tag_64)\n    tag_65:\n      dup3\n      add\n      swap2\n      swap1\n      0x00\n      mstore\n      keccak256(0x00, 0x20)\n      swap1\n    tag_66:\n      dup2\n      sload\n      dup2\n      mstore\n      swap1\n      0x01\n      add\n      swap1\n      0x20\n      add\n      dup1\n      dup4\n      gt\n      tag_66\n      jumpi\n      dup3\n      swap1\n      sub\n      0x1f\n      and\n      dup3\n      add\n      swap2\n    tag_64:\n      pop\n      pop\n      pop\n      pop\n      pop\n      dup2\n      mstore\n      pop\n        /* \"DocumentContract.sol\":851:925  revisions.push(RevisionDocument({ipfsHash: ipfsHash, name: documentName})) */\n      swap1\n      dup1\n      0x01\n      dup2\n      sload\n      add\n      dup1\n      dup3\n      sstore\n      dup1\n      swap2\n      pop\n      pop\n      0x01\n      swap1\n      sub\n      swap1\n      0x00\n      mstore\n      keccak256(0x00, 0x20)\n      swap1\n      0x02\n      mul\n      add\n      0x00\n      swap1\n      swap2\n      swap1\n      swap2\n      swap1\n      swap2\n      pop\n      0x00\n      dup3\n      add\n      mload\n      dup2\n      0x00\n      add\n      swap1\n      dup1\n      mload\n      swap1\n      0x20\n      add\n      swap1\n      tag_68\n      swap3\n      swap2\n      swap1\n      tag_69\n      jump\t// in\n    tag_68:\n      pop\n      0x20\n      dup3\n      add\n      mload\n      dup2\n      0x01\n      add\n      swap1\n      dup1\n      mload\n      swap1\n      0x20\n      add\n      swap1\n      tag_70\n      swap3\n      swap2\n      swap1\n      tag_69\n      jump\t// in\n    tag_70:\n      pop\n      pop\n      pop\n        /* \"DocumentContract.sol\":947:958  newIpfsHash */\n      dup2\n        /* \"DocumentContract.sol\":936:944  ipfsHash */\n      0x00\n        /* \"DocumentContract.sol\":936:958  ipfsHash = newIpfsHash */\n      swap1\n      dup1\n      mload\n      swap1\n      0x20\n      add\n      swap1\n      tag_71\n      swap3\n      swap2\n      swap1\n      tag_69\n      jump\t// in\n    tag_71:\n      pop\n        /* \"DocumentContract.sol\":983:990  newName */\n      dup1\n        /* \"DocumentContract.sol\":968:980  documentName */\n      0x02\n        /* \"DocumentContract.sol\":968:990  documentName = newName */\n      swap1\n      dup1\n      mload\n      swap1\n      0x20\n      add\n      swap1\n      tag_72\n      swap3\n      swap2\n      swap1\n      tag_69\n      jump\t// in\n    tag_72:\n      pop\n        /* \"DocumentContract.sol\":760:997  function updateDocument(string memory newIpfsHash, string  memory newName) public{... */\n      pop\n      pop\n      jump\t// out\n        /* \"DocumentContract.sol\":313:339  string public documentName */\n    tag_27:\n      0x02\n      dup1\n      sload\n      tag_73\n      swap1\n      tag_44\n      jump\t// in\n    tag_73:\n      dup1\n      0x1f\n      add\n      0x20\n      dup1\n      swap2\n      div\n      mul\n      0x20\n      add\n      mload(0x40)\n      swap1\n      dup2\n      add\n      0x40\n      mstore\n      dup1\n      swap3\n      swap2\n      swap1\n      dup2\n      dup2\n      mstore\n      0x20\n      add\n      dup3\n      dup1\n      sload\n      tag_74\n      swap1\n      tag_44\n      jump\t// in\n    tag_74:\n      dup1\n      iszero\n      tag_75\n      jumpi\n      dup1\n      0x1f\n      lt\n      tag_76\n      jumpi\n      0x0100\n      dup1\n      dup4\n      sload\n      div\n      mul\n      dup4\n      mstore\n      swap2\n      0x20\n      add\n      swap2\n      jump(tag_75)\n    tag_76:\n      dup3\n      add\n      swap2\n      swap1\n      0x00\n      mstore\n      keccak256(0x00, 0x20)\n      swap1\n    tag_77:\n      dup2\n      sload\n      dup2\n      mstore\n      swap1\n      0x01\n      add\n      swap1\n      0x20\n      add\n      dup1\n      dup4\n      gt\n      tag_77\n      jumpi\n      dup3\n      swap1\n      sub\n      0x1f\n      and\n      dup3\n      add\n      swap2\n    tag_75:\n      pop\n      pop\n      pop\n      pop\n      pop\n      dup2\n      jump\t// out\n        /* \"DocumentContract.sol\":658:754  function getOwners() public view returns(address[] memory){... */\n    tag_31:\n        /* \"DocumentContract.sol\":699:715  address[] memory */\n      0x60\n        /* \"DocumentContract.sol\":733:747  ownerAddresses */\n      0x01\n        /* \"DocumentContract.sol\":726:747  return ownerAddresses */\n      dup1\n      sload\n      dup1\n      0x20\n      mul\n      0x20\n      add\n      mload(0x40)\n      swap1\n      dup2\n      add\n      0x40\n      mstore\n      dup1\n      swap3\n      swap2\n      swap1\n      dup2\n      dup2\n      mstore\n      0x20\n      add\n      dup3\n      dup1\n      sload\n      dup1\n      iszero\n      tag_79\n      jumpi\n      0x20\n      mul\n      dup3\n      add\n      swap2\n      swap1\n      0x00\n      mstore\n      keccak256(0x00, 0x20)\n      swap1\n    tag_80:\n      dup2\n      0x00\n      swap1\n      sload\n      swap1\n      0x0100\n      exp\n      swap1\n      div\n      0xffffffffffffffffffffffffffffffffffffffff\n      and\n      0xffffffffffffffffffffffffffffffffffffffff\n      and\n      dup2\n      mstore\n      0x20\n      add\n      swap1\n      0x01\n      add\n      swap1\n      dup1\n      dup4\n      gt\n      tag_80\n      jumpi\n    tag_79:\n      pop\n      pop\n      pop\n      pop\n      pop\n      swap1\n      pop\n        /* \"DocumentContract.sol\":658:754  function getOwners() public view returns(address[] memory){... */\n      swap1\n      jump\t// out\n        /* \"DocumentContract.sol\":247:269  string public ipfsHash */\n    tag_35:\n      0x00\n      dup1\n      sload\n      tag_81\n      swap1\n      tag_44\n      jump\t// in\n    tag_81:\n      dup1\n      0x1f\n      add\n      0x20\n      dup1\n      swap2\n      div\n      mul\n      0x20\n      add\n      mload(0x40)\n      swap1\n      dup2\n      add\n      0x40\n      mstore\n      dup1\n      swap3\n      swap2\n      swap1\n      dup2\n      dup2\n      mstore\n      0x20\n      add\n      dup3\n      dup1\n      sload\n      tag_82\n      swap1\n      tag_44\n      jump\t// in\n    tag_82:\n      dup1\n      iszero\n      tag_83\n      jumpi\n      dup1\n      0x1f\n      lt\n      tag_84\n      jumpi\n      0x0100\n      dup1\n      dup4\n      sload\n      div\n      mul\n      dup4\n      mstore\n      swap2\n      0x20\n      add\n      swap2\n      jump(tag_83)\n    tag_84:\n      dup3\n      add\n      swap2\n      swap1\n      0x00\n      mstore\n      keccak256(0x00, 0x20)\n      swap1\n    tag_85:\n      dup2\n      sload\n      dup2\n      mstore\n      swap1\n      0x01\n      add\n      swap1\n      0x20\n      add\n      dup1\n      dup4\n      gt\n      tag_85\n      jumpi\n      dup3\n      swap1\n      sub\n      0x1f\n      and\n      dup3\n      add\n      swap2\n    tag_83:\n      pop\n      pop\n      pop\n      pop\n      pop\n      dup2\n      jump\t// out\n        /* \"DocumentContract.sol\":1003:1331  function deleteOwner(address ownerAddress) public{... */\n    tag_40:\n        /* \"DocumentContract.sol\":1066:1072  uint i */\n      0x00\n        /* \"DocumentContract.sol\":1062:1325  for(uint i = 0; i < ownerAddresses.length; i++){... */\n    tag_87:\n        /* \"DocumentContract.sol\":1082:1096  ownerAddresses */\n      0x01\n        /* \"DocumentContract.sol\":1082:1103  ownerAddresses.length */\n      dup1\n      sload\n      swap1\n      pop\n        /* \"DocumentContract.sol\":1078:1079  i */\n      dup2\n        /* \"DocumentContract.sol\":1078:1103  i < ownerAddresses.length */\n      lt\n        /* \"DocumentContract.sol\":1062:1325  for(uint i = 0; i < ownerAddresses.length; i++){... */\n      iszero\n      tag_88\n      jumpi\n        /* \"DocumentContract.sol\":1142:1156  ownerAddresses */\n      0x01\n        /* \"DocumentContract.sol\":1157:1158  i */\n      dup2\n        /* \"DocumentContract.sol\":1142:1159  ownerAddresses[i] */\n      dup2\n      sload\n      dup2\n      lt\n      tag_90\n      jumpi\n      tag_91\n      tag_92\n      jump\t// in\n    tag_91:\n    tag_90:\n      swap1\n      0x00\n      mstore\n      keccak256(0x00, 0x20)\n      add\n      0x00\n      swap1\n      sload\n      swap1\n      0x0100\n      exp\n      swap1\n      div\n      0xffffffffffffffffffffffffffffffffffffffff\n      and\n        /* \"DocumentContract.sol\":1126:1159  ownerAddress == ownerAddresses[i] */\n      0xffffffffffffffffffffffffffffffffffffffff\n      and\n        /* \"DocumentContract.sol\":1126:1138  ownerAddress */\n      dup3\n        /* \"DocumentContract.sol\":1126:1159  ownerAddress == ownerAddresses[i] */\n      0xffffffffffffffffffffffffffffffffffffffff\n      and\n      sub\n        /* \"DocumentContract.sol\":1123:1315  if(ownerAddress == ownerAddresses[i]){... */\n      tag_94\n      jumpi\n        /* \"DocumentContract.sol\":1198:1212  ownerAddresses */\n      0x01\n        /* \"DocumentContract.sol\":1237:1238  1 */\n      dup1\n        /* \"DocumentContract.sol\":1213:1227  ownerAddresses */\n      dup1\n        /* \"DocumentContract.sol\":1213:1234  ownerAddresses.length */\n      dup1\n      sload\n      swap1\n      pop\n        /* \"DocumentContract.sol\":1213:1238  ownerAddresses.length - 1 */\n      tag_95\n      swap2\n      swap1\n      tag_96\n      jump\t// in\n    tag_95:\n        /* \"DocumentContract.sol\":1198:1239  ownerAddresses[ownerAddresses.length - 1] */\n      dup2\n      sload\n      dup2\n      lt\n      tag_97\n      jumpi\n      tag_98\n      tag_92\n      jump\t// in\n    tag_98:\n    tag_97:\n      swap1\n      0x00\n      mstore\n      keccak256(0x00, 0x20)\n      add\n      0x00\n      swap1\n      sload\n      swap1\n      0x0100\n      exp\n      swap1\n      div\n      0xffffffffffffffffffffffffffffffffffffffff\n      and\n        /* \"DocumentContract.sol\":1178:1192  ownerAddresses */\n      0x01\n        /* \"DocumentContract.sol\":1193:1194  i */\n      dup3\n        /* \"DocumentContract.sol\":1178:1195  ownerAddresses[i] */\n      dup2\n      sload\n      dup2\n      lt\n      tag_100\n      jumpi\n      tag_101\n      tag_92\n      jump\t// in\n    tag_101:\n    tag_100:\n      swap1\n      0x00\n      mstore\n      keccak256(0x00, 0x20)\n      add\n      0x00\n        /* \"DocumentContract.sol\":1178:1239  ownerAddresses[i] = ownerAddresses[ownerAddresses.length - 1] */\n      0x0100\n      exp\n      dup2\n      sload\n      dup2\n      0xffffffffffffffffffffffffffffffffffffffff\n      mul\n      not\n      and\n      swap1\n      dup4\n      0xffffffffffffffffffffffffffffffffffffffff\n      and\n      mul\n      or\n      swap1\n      sstore\n      pop\n        /* \"DocumentContract.sol\":1257:1271  ownerAddresses */\n      0x01\n        /* \"DocumentContract.sol\":1257:1277  ownerAddresses.pop() */\n      dup1\n      sload\n      dup1\n      tag_103\n      jumpi\n      tag_104\n      tag_105\n      jump\t// in\n    tag_104:\n    tag_103:\n      0x01\n      swap1\n      sub\n      dup2\n      dup2\n      swap1\n      0x00\n      mstore\n      keccak256(0x00, 0x20)\n      add\n      exp(0x0100, 0x00)\n      dup2\n      sload\n      swap1\n      0xffffffffffffffffffffffffffffffffffffffff\n      mul\n      not\n      and\n      swap1\n      sstore\n      swap1\n      sstore\n        /* \"DocumentContract.sol\":1295:1300  break */\n      jump(tag_88)\n        /* \"DocumentContract.sol\":1123:1315  if(ownerAddress == ownerAddresses[i]){... */\n    tag_94:\n        /* \"DocumentContract.sol\":1105:1108  i++ */\n      dup1\n      dup1\n      tag_107\n      swap1\n      tag_108\n      jump\t// in\n    tag_107:\n      swap2\n      pop\n      pop\n        /* \"DocumentContract.sol\":1062:1325  for(uint i = 0; i < ownerAddresses.length; i++){... */\n      jump(tag_87)\n    tag_88:\n      pop\n        /* \"DocumentContract.sol\":1003:1331  function deleteOwner(address ownerAddress) public{... */\n      pop\n      jump\t// out\n    tag_69:\n      dup3\n      dup1\n      sload\n      tag_109\n      swap1\n      tag_44\n      jump\t// in\n    tag_109:\n      swap1\n      0x00\n      mstore\n      keccak256(0x00, 0x20)\n      swap1\n      0x1f\n      add\n      0x20\n      swap1\n      div\n      dup2\n      add\n      swap3\n      dup3\n      tag_111\n      jumpi\n      0x00\n      dup6\n      sstore\n      jump(tag_110)\n    tag_111:\n      dup3\n      0x1f\n      lt\n      tag_112\n      jumpi\n      dup1\n      mload\n      not(0xff)\n      and\n      dup4\n      dup1\n      add\n      or\n      dup6\n      sstore\n      jump(tag_110)\n    tag_112:\n      dup3\n      dup1\n      add\n      0x01\n      add\n      dup6\n      sstore\n      dup3\n      iszero\n      tag_110\n      jumpi\n      swap2\n      dup3\n      add\n    tag_113:\n      dup3\n      dup2\n      gt\n      iszero\n      tag_114\n      jumpi\n      dup3\n      mload\n      dup3\n      sstore\n      swap2\n      0x20\n      add\n      swap2\n      swap1\n      0x01\n      add\n      swap1\n      jump(tag_113)\n    tag_114:\n    tag_110:\n      pop\n      swap1\n      pop\n      tag_115\n      swap2\n      swap1\n      tag_116\n      jump\t// in\n    tag_115:\n      pop\n      swap1\n      jump\t// out\n    tag_116:\n    tag_117:\n      dup1\n      dup3\n      gt\n      iszero\n      tag_118\n      jumpi\n      0x00\n      dup2\n      0x00\n      swap1\n      sstore\n      pop\n      0x01\n      add\n      jump(tag_117)\n    tag_118:\n      pop\n      swap1\n      jump\t// out\n        /* \"#utility.yul\":7:82   */\n    tag_119:\n        /* \"#utility.yul\":40:46   */\n      0x00\n        /* \"#utility.yul\":73:75   */\n      0x40\n        /* \"#utility.yul\":67:76   */\n      mload\n        /* \"#utility.yul\":57:76   */\n      swap1\n      pop\n        /* \"#utility.yul\":7:82   */\n      swap1\n      jump\t// out\n        /* \"#utility.yul\":88:205   */\n    tag_120:\n        /* \"#utility.yul\":197:198   */\n      0x00\n        /* \"#utility.yul\":194:195   */\n      dup1\n        /* \"#utility.yul\":187:199   */\n      revert\n        /* \"#utility.yul\":211:328   */\n    tag_121:\n        /* \"#utility.yul\":320:321   */\n      0x00\n        /* \"#utility.yul\":317:318   */\n      dup1\n        /* \"#utility.yul\":310:322   */\n      revert\n        /* \"#utility.yul\":334:411   */\n    tag_122:\n        /* \"#utility.yul\":371:378   */\n      0x00\n        /* \"#utility.yul\":400:405   */\n      dup2\n        /* \"#utility.yul\":389:405   */\n      swap1\n      pop\n        /* \"#utility.yul\":334:411   */\n      swap2\n      swap1\n      pop\n      jump\t// out\n        /* \"#utility.yul\":417:539   */\n    tag_123:\n        /* \"#utility.yul\":490:514   */\n      tag_159\n        /* \"#utility.yul\":508:513   */\n      dup2\n        /* \"#utility.yul\":490:514   */\n      tag_122\n      jump\t// in\n    tag_159:\n        /* \"#utility.yul\":483:488   */\n      dup2\n        /* \"#utility.yul\":480:515   */\n      eq\n        /* \"#utility.yul\":470:533   */\n      tag_160\n      jumpi\n        /* \"#utility.yul\":529:530   */\n      0x00\n        /* \"#utility.yul\":526:527   */\n      dup1\n        /* \"#utility.yul\":519:531   */\n      revert\n        /* \"#utility.yul\":470:533   */\n    tag_160:\n        /* \"#utility.yul\":417:539   */\n      pop\n      jump\t// out\n        /* \"#utility.yul\":545:684   */\n    tag_124:\n        /* \"#utility.yul\":591:596   */\n      0x00\n        /* \"#utility.yul\":629:635   */\n      dup2\n        /* \"#utility.yul\":616:636   */\n      calldataload\n        /* \"#utility.yul\":607:636   */\n      swap1\n      pop\n        /* \"#utility.yul\":645:678   */\n      tag_162\n        /* \"#utility.yul\":672:677   */\n      dup2\n        /* \"#utility.yul\":645:678   */\n      tag_123\n      jump\t// in\n    tag_162:\n        /* \"#utility.yul\":545:684   */\n      swap3\n      swap2\n      pop\n      pop\n      jump\t// out\n        /* \"#utility.yul\":690:1019   */\n    tag_13:\n        /* \"#utility.yul\":749:755   */\n      0x00\n        /* \"#utility.yul\":798:800   */\n      0x20\n        /* \"#utility.yul\":786:795   */\n      dup3\n        /* \"#utility.yul\":777:784   */\n      dup5\n        /* \"#utility.yul\":773:796   */\n      sub\n        /* \"#utility.yul\":769:801   */\n      slt\n        /* \"#utility.yul\":766:885   */\n      iszero\n      tag_164\n      jumpi\n        /* \"#utility.yul\":804:883   */\n      tag_165\n      tag_120\n      jump\t// in\n    tag_165:\n        /* \"#utility.yul\":766:885   */\n    tag_164:\n        /* \"#utility.yul\":924:925   */\n      0x00\n        /* \"#utility.yul\":949:1002   */\n      tag_166\n        /* \"#utility.yul\":994:1001   */\n      dup5\n        /* \"#utility.yul\":985:991   */\n      dup3\n        /* \"#utility.yul\":974:983   */\n      dup6\n        /* \"#utility.yul\":970:992   */\n      add\n        /* \"#utility.yul\":949:1002   */\n      tag_124\n      jump\t// in\n    tag_166:\n        /* \"#utility.yul\":939:1002   */\n      swap2\n      pop\n        /* \"#utility.yul\":895:1012   */\n      pop\n        /* \"#utility.yul\":690:1019   */\n      swap3\n      swap2\n      pop\n      pop\n      jump\t// out\n        /* \"#utility.yul\":1025:1124   */\n    tag_125:\n        /* \"#utility.yul\":1077:1083   */\n      0x00\n        /* \"#utility.yul\":1111:1116   */\n      dup2\n        /* \"#utility.yul\":1105:1117   */\n      mload\n        /* \"#utility.yul\":1095:1117   */\n      swap1\n      pop\n        /* \"#utility.yul\":1025:1124   */\n      swap2\n      swap1\n      pop\n      jump\t// out\n        /* \"#utility.yul\":1130:1299   */\n    tag_126:\n        /* \"#utility.yul\":1214:1225   */\n      0x00\n        /* \"#utility.yul\":1248:1254   */\n      dup3\n        /* \"#utility.yul\":1243:1246   */\n      dup3\n        /* \"#utility.yul\":1236:1255   */\n      mstore\n        /* \"#utility.yul\":1288:1292   */\n      0x20\n        /* \"#utility.yul\":1283:1286   */\n      dup3\n        /* \"#utility.yul\":1279:1293   */\n      add\n        /* \"#utility.yul\":1264:1293   */\n      swap1\n      pop\n        /* \"#utility.yul\":1130:1299   */\n      swap3\n      swap2\n      pop\n      pop\n      jump\t// out\n        /* \"#utility.yul\":1305:1612   */\n    tag_127:\n        /* \"#utility.yul\":1373:1374   */\n      0x00\n        /* \"#utility.yul\":1383:1496   */\n    tag_170:\n        /* \"#utility.yul\":1397:1403   */\n      dup4\n        /* \"#utility.yul\":1394:1395   */\n      dup2\n        /* \"#utility.yul\":1391:1404   */\n      lt\n        /* \"#utility.yul\":1383:1496   */\n      iszero\n      tag_172\n      jumpi\n        /* \"#utility.yul\":1482:1483   */\n      dup1\n        /* \"#utility.yul\":1477:1480   */\n      dup3\n        /* \"#utility.yul\":1473:1484   */\n      add\n        /* \"#utility.yul\":1467:1485   */\n      mload\n        /* \"#utility.yul\":1463:1464   */\n      dup2\n        /* \"#utility.yul\":1458:1461   */\n      dup5\n        /* \"#utility.yul\":1454:1465   */\n      add\n        /* \"#utility.yul\":1447:1486   */\n      mstore\n        /* \"#utility.yul\":1419:1421   */\n      0x20\n        /* \"#utility.yul\":1416:1417   */\n      dup2\n        /* \"#utility.yul\":1412:1422   */\n      add\n        /* \"#utility.yul\":1407:1422   */\n      swap1\n      pop\n        /* \"#utility.yul\":1383:1496   */\n      jump(tag_170)\n    tag_172:\n        /* \"#utility.yul\":1514:1520   */\n      dup4\n        /* \"#utility.yul\":1511:1512   */\n      dup2\n        /* \"#utility.yul\":1508:1521   */\n      gt\n        /* \"#utility.yul\":1505:1606   */\n      iszero\n      tag_173\n      jumpi\n        /* \"#utility.yul\":1594:1595   */\n      0x00\n        /* \"#utility.yul\":1585:1591   */\n      dup5\n        /* \"#utility.yul\":1580:1583   */\n      dup5\n        /* \"#utility.yul\":1576:1592   */\n      add\n        /* \"#utility.yul\":1569:1596   */\n      mstore\n        /* \"#utility.yul\":1505:1606   */\n    tag_173:\n        /* \"#utility.yul\":1354:1612   */\n      pop\n        /* \"#utility.yul\":1305:1612   */\n      pop\n      pop\n      pop\n      jump\t// out\n        /* \"#utility.yul\":1618:1720   */\n    tag_128:\n        /* \"#utility.yul\":1659:1665   */\n      0x00\n        /* \"#utility.yul\":1710:1712   */\n      0x1f\n        /* \"#utility.yul\":1706:1713   */\n      not\n        /* \"#utility.yul\":1701:1703   */\n      0x1f\n        /* \"#utility.yul\":1694:1699   */\n      dup4\n        /* \"#utility.yul\":1690:1704   */\n      add\n        /* \"#utility.yul\":1686:1714   */\n      and\n        /* \"#utility.yul\":1676:1714   */\n      swap1\n      pop\n        /* \"#utility.yul\":1618:1720   */\n      swap2\n      swap1\n      pop\n      jump\t// out\n        /* \"#utility.yul\":1726:2090   */\n    tag_129:\n        /* \"#utility.yul\":1814:1817   */\n      0x00\n        /* \"#utility.yul\":1842:1881   */\n      tag_176\n        /* \"#utility.yul\":1875:1880   */\n      dup3\n        /* \"#utility.yul\":1842:1881   */\n      tag_125\n      jump\t// in\n    tag_176:\n        /* \"#utility.yul\":1897:1968   */\n      tag_177\n        /* \"#utility.yul\":1961:1967   */\n      dup2\n        /* \"#utility.yul\":1956:1959   */\n      dup6\n        /* \"#utility.yul\":1897:1968   */\n      tag_126\n      jump\t// in\n    tag_177:\n        /* \"#utility.yul\":1890:1968   */\n      swap4\n      pop\n        /* \"#utility.yul\":1977:2029   */\n      tag_178\n        /* \"#utility.yul\":2022:2028   */\n      dup2\n        /* \"#utility.yul\":2017:2020   */\n      dup6\n        /* \"#utility.yul\":2010:2014   */\n      0x20\n        /* \"#utility.yul\":2003:2008   */\n      dup7\n        /* \"#utility.yul\":1999:2015   */\n      add\n        /* \"#utility.yul\":1977:2029   */\n      tag_127\n      jump\t// in\n    tag_178:\n        /* \"#utility.yul\":2054:2083   */\n      tag_179\n        /* \"#utility.yul\":2076:2082   */\n      dup2\n        /* \"#utility.yul\":2054:2083   */\n      tag_128\n      jump\t// in\n    tag_179:\n        /* \"#utility.yul\":2049:2052   */\n      dup5\n        /* \"#utility.yul\":2045:2084   */\n      add\n        /* \"#utility.yul\":2038:2084   */\n      swap2\n      pop\n        /* \"#utility.yul\":1818:2090   */\n      pop\n        /* \"#utility.yul\":1726:2090   */\n      swap3\n      swap2\n      pop\n      pop\n      jump\t// out\n        /* \"#utility.yul\":2096:2610   */\n    tag_16:\n        /* \"#utility.yul\":2257:2261   */\n      0x00\n        /* \"#utility.yul\":2295:2297   */\n      0x40\n        /* \"#utility.yul\":2284:2293   */\n      dup3\n        /* \"#utility.yul\":2280:2298   */\n      add\n        /* \"#utility.yul\":2272:2298   */\n      swap1\n      pop\n        /* \"#utility.yul\":2344:2353   */\n      dup2\n        /* \"#utility.yul\":2338:2342   */\n      dup2\n        /* \"#utility.yul\":2334:2354   */\n      sub\n        /* \"#utility.yul\":2330:2331   */\n      0x00\n        /* \"#utility.yul\":2319:2328   */\n      dup4\n        /* \"#utility.yul\":2315:2332   */\n      add\n        /* \"#utility.yul\":2308:2355   */\n      mstore\n        /* \"#utility.yul\":2372:2450   */\n      tag_181\n        /* \"#utility.yul\":2445:2449   */\n      dup2\n        /* \"#utility.yul\":2436:2442   */\n      dup6\n        /* \"#utility.yul\":2372:2450   */\n      tag_129\n      jump\t// in\n    tag_181:\n        /* \"#utility.yul\":2364:2450   */\n      swap1\n      pop\n        /* \"#utility.yul\":2497:2506   */\n      dup2\n        /* \"#utility.yul\":2491:2495   */\n      dup2\n        /* \"#utility.yul\":2487:2507   */\n      sub\n        /* \"#utility.yul\":2482:2484   */\n      0x20\n        /* \"#utility.yul\":2471:2480   */\n      dup4\n        /* \"#utility.yul\":2467:2485   */\n      add\n        /* \"#utility.yul\":2460:2508   */\n      mstore\n        /* \"#utility.yul\":2525:2603   */\n      tag_182\n        /* \"#utility.yul\":2598:2602   */\n      dup2\n        /* \"#utility.yul\":2589:2595   */\n      dup5\n        /* \"#utility.yul\":2525:2603   */\n      tag_129\n      jump\t// in\n    tag_182:\n        /* \"#utility.yul\":2517:2603   */\n      swap1\n      pop\n        /* \"#utility.yul\":2096:2610   */\n      swap4\n      swap3\n      pop\n      pop\n      pop\n      jump\t// out\n        /* \"#utility.yul\":2616:2742   */\n    tag_130:\n        /* \"#utility.yul\":2653:2660   */\n      0x00\n        /* \"#utility.yul\":2693:2735   */\n      0xffffffffffffffffffffffffffffffffffffffff\n        /* \"#utility.yul\":2686:2691   */\n      dup3\n        /* \"#utility.yul\":2682:2736   */\n      and\n        /* \"#utility.yul\":2671:2736   */\n      swap1\n      pop\n        /* \"#utility.yul\":2616:2742   */\n      swap2\n      swap1\n      pop\n      jump\t// out\n        /* \"#utility.yul\":2748:2844   */\n    tag_131:\n        /* \"#utility.yul\":2785:2792   */\n      0x00\n        /* \"#utility.yul\":2814:2838   */\n      tag_185\n        /* \"#utility.yul\":2832:2837   */\n      dup3\n        /* \"#utility.yul\":2814:2838   */\n      tag_130\n      jump\t// in\n    tag_185:\n        /* \"#utility.yul\":2803:2838   */\n      swap1\n      pop\n        /* \"#utility.yul\":2748:2844   */\n      swap2\n      swap1\n      pop\n      jump\t// out\n        /* \"#utility.yul\":2850:2968   */\n    tag_132:\n        /* \"#utility.yul\":2937:2961   */\n      tag_187\n        /* \"#utility.yul\":2955:2960   */\n      dup2\n        /* \"#utility.yul\":2937:2961   */\n      tag_131\n      jump\t// in\n    tag_187:\n        /* \"#utility.yul\":2932:2935   */\n      dup3\n        /* \"#utility.yul\":2925:2962   */\n      mstore\n        /* \"#utility.yul\":2850:2968   */\n      pop\n      pop\n      jump\t// out\n        /* \"#utility.yul\":2974:3196   */\n    tag_21:\n        /* \"#utility.yul\":3067:3071   */\n      0x00\n        /* \"#utility.yul\":3105:3107   */\n      0x20\n        /* \"#utility.yul\":3094:3103   */\n      dup3\n        /* \"#utility.yul\":3090:3108   */\n      add\n        /* \"#utility.yul\":3082:3108   */\n      swap1\n      pop\n        /* \"#utility.yul\":3118:3189   */\n      tag_189\n        /* \"#utility.yul\":3186:3187   */\n      0x00\n        /* \"#utility.yul\":3175:3184   */\n      dup4\n        /* \"#utility.yul\":3171:3188   */\n      add\n        /* \"#utility.yul\":3162:3168   */\n      dup5\n        /* \"#utility.yul\":3118:3189   */\n      tag_132\n      jump\t// in\n    tag_189:\n        /* \"#utility.yul\":2974:3196   */\n      swap3\n      swap2\n      pop\n      pop\n      jump\t// out\n        /* \"#utility.yul\":3202:3319   */\n    tag_133:\n        /* \"#utility.yul\":3311:3312   */\n      0x00\n        /* \"#utility.yul\":3308:3309   */\n      dup1\n        /* \"#utility.yul\":3301:3313   */\n      revert\n        /* \"#utility.yul\":3325:3442   */\n    tag_134:\n        /* \"#utility.yul\":3434:3435   */\n      0x00\n        /* \"#utility.yul\":3431:3432   */\n      dup1\n        /* \"#utility.yul\":3424:3436   */\n      revert\n        /* \"#utility.yul\":3448:3628   */\n    tag_135:\n        /* \"#utility.yul\":3496:3573   */\n      0x4e487b7100000000000000000000000000000000000000000000000000000000\n        /* \"#utility.yul\":3493:3494   */\n      0x00\n        /* \"#utility.yul\":3486:3574   */\n      mstore\n        /* \"#utility.yul\":3593:3597   */\n      0x41\n        /* \"#utility.yul\":3590:3591   */\n      0x04\n        /* \"#utility.yul\":3583:3598   */\n      mstore\n        /* \"#utility.yul\":3617:3621   */\n      0x24\n        /* \"#utility.yul\":3614:3615   */\n      0x00\n        /* \"#utility.yul\":3607:3622   */\n      revert\n        /* \"#utility.yul\":3634:3915   */\n    tag_136:\n        /* \"#utility.yul\":3717:3744   */\n      tag_194\n        /* \"#utility.yul\":3739:3743   */\n      dup3\n        /* \"#utility.yul\":3717:3744   */\n      tag_128\n      jump\t// in\n    tag_194:\n        /* \"#utility.yul\":3709:3715   */\n      dup2\n        /* \"#utility.yul\":3705:3745   */\n      add\n        /* \"#utility.yul\":3847:3853   */\n      dup2\n        /* \"#utility.yul\":3835:3845   */\n      dup2\n        /* \"#utility.yul\":3832:3854   */\n      lt\n        /* \"#utility.yul\":3811:3829   */\n      0xffffffffffffffff\n        /* \"#utility.yul\":3799:3809   */\n      dup3\n        /* \"#utility.yul\":3796:3830   */\n      gt\n        /* \"#utility.yul\":3793:3855   */\n      or\n        /* \"#utility.yul\":3790:3878   */\n      iszero\n      tag_195\n      jumpi\n        /* \"#utility.yul\":3858:3876   */\n      tag_196\n      tag_135\n      jump\t// in\n    tag_196:\n        /* \"#utility.yul\":3790:3878   */\n    tag_195:\n        /* \"#utility.yul\":3898:3908   */\n      dup1\n        /* \"#utility.yul\":3894:3896   */\n      0x40\n        /* \"#utility.yul\":3887:3909   */\n      mstore\n        /* \"#utility.yul\":3677:3915   */\n      pop\n        /* \"#utility.yul\":3634:3915   */\n      pop\n      pop\n      jump\t// out\n        /* \"#utility.yul\":3921:4050   */\n    tag_137:\n        /* \"#utility.yul\":3955:3961   */\n      0x00\n        /* \"#utility.yul\":3982:4002   */\n      tag_198\n      tag_119\n      jump\t// in\n    tag_198:\n        /* \"#utility.yul\":3972:4002   */\n      swap1\n      pop\n        /* \"#utility.yul\":4011:4044   */\n      tag_199\n        /* \"#utility.yul\":4039:4043   */\n      dup3\n        /* \"#utility.yul\":4031:4037   */\n      dup3\n        /* \"#utility.yul\":4011:4044   */\n      tag_136\n      jump\t// in\n    tag_199:\n        /* \"#utility.yul\":3921:4050   */\n      swap2\n      swap1\n      pop\n      jump\t// out\n        /* \"#utility.yul\":4056:4364   */\n    tag_138:\n        /* \"#utility.yul\":4118:4122   */\n      0x00\n        /* \"#utility.yul\":4208:4226   */\n      0xffffffffffffffff\n        /* \"#utility.yul\":4200:4206   */\n      dup3\n        /* \"#utility.yul\":4197:4227   */\n      gt\n        /* \"#utility.yul\":4194:4250   */\n      iszero\n      tag_201\n      jumpi\n        /* \"#utility.yul\":4230:4248   */\n      tag_202\n      tag_135\n      jump\t// in\n    tag_202:\n        /* \"#utility.yul\":4194:4250   */\n    tag_201:\n        /* \"#utility.yul\":4268:4297   */\n      tag_203\n        /* \"#utility.yul\":4290:4296   */\n      dup3\n        /* \"#utility.yul\":4268:4297   */\n      tag_128\n      jump\t// in\n    tag_203:\n        /* \"#utility.yul\":4260:4297   */\n      swap1\n      pop\n        /* \"#utility.yul\":4352:4356   */\n      0x20\n        /* \"#utility.yul\":4346:4350   */\n      dup2\n        /* \"#utility.yul\":4342:4357   */\n      add\n        /* \"#utility.yul\":4334:4357   */\n      swap1\n      pop\n        /* \"#utility.yul\":4056:4364   */\n      swap2\n      swap1\n      pop\n      jump\t// out\n        /* \"#utility.yul\":4370:4524   */\n    tag_139:\n        /* \"#utility.yul\":4454:4460   */\n      dup3\n        /* \"#utility.yul\":4449:4452   */\n      dup2\n        /* \"#utility.yul\":4444:4447   */\n      dup4\n        /* \"#utility.yul\":4431:4461   */\n      calldatacopy\n        /* \"#utility.yul\":4516:4517   */\n      0x00\n        /* \"#utility.yul\":4507:4513   */\n      dup4\n        /* \"#utility.yul\":4502:4505   */\n      dup4\n        /* \"#utility.yul\":4498:4514   */\n      add\n        /* \"#utility.yul\":4491:4518   */\n      mstore\n        /* \"#utility.yul\":4370:4524   */\n      pop\n      pop\n      pop\n      jump\t// out\n        /* \"#utility.yul\":4530:4942   */\n    tag_140:\n        /* \"#utility.yul\":4608:4613   */\n      0x00\n        /* \"#utility.yul\":4633:4699   */\n      tag_206\n        /* \"#utility.yul\":4649:4698   */\n      tag_207\n        /* \"#utility.yul\":4691:4697   */\n      dup5\n        /* \"#utility.yul\":4649:4698   */\n      tag_138\n      jump\t// in\n    tag_207:\n        /* \"#utility.yul\":4633:4699   */\n      tag_137\n      jump\t// in\n    tag_206:\n        /* \"#utility.yul\":4624:4699   */\n      swap1\n      pop\n        /* \"#utility.yul\":4722:4728   */\n      dup3\n        /* \"#utility.yul\":4715:4720   */\n      dup2\n        /* \"#utility.yul\":4708:4729   */\n      mstore\n        /* \"#utility.yul\":4760:4764   */\n      0x20\n        /* \"#utility.yul\":4753:4758   */\n      dup2\n        /* \"#utility.yul\":4749:4765   */\n      add\n        /* \"#utility.yul\":4798:4801   */\n      dup5\n        /* \"#utility.yul\":4789:4795   */\n      dup5\n        /* \"#utility.yul\":4784:4787   */\n      dup5\n        /* \"#utility.yul\":4780:4796   */\n      add\n        /* \"#utility.yul\":4777:4802   */\n      gt\n        /* \"#utility.yul\":4774:4886   */\n      iszero\n      tag_208\n      jumpi\n        /* \"#utility.yul\":4805:4884   */\n      tag_209\n      tag_134\n      jump\t// in\n    tag_209:\n        /* \"#utility.yul\":4774:4886   */\n    tag_208:\n        /* \"#utility.yul\":4895:4936   */\n      tag_210\n        /* \"#utility.yul\":4929:4935   */\n      dup5\n        /* \"#utility.yul\":4924:4927   */\n      dup3\n        /* \"#utility.yul\":4919:4922   */\n      dup6\n        /* \"#utility.yul\":4895:4936   */\n      tag_139\n      jump\t// in\n    tag_210:\n        /* \"#utility.yul\":4614:4942   */\n      pop\n        /* \"#utility.yul\":4530:4942   */\n      swap4\n      swap3\n      pop\n      pop\n      pop\n      jump\t// out\n        /* \"#utility.yul\":4962:5302   */\n    tag_141:\n        /* \"#utility.yul\":5018:5023   */\n      0x00\n        /* \"#utility.yul\":5067:5070   */\n      dup3\n        /* \"#utility.yul\":5060:5064   */\n      0x1f\n        /* \"#utility.yul\":5052:5058   */\n      dup4\n        /* \"#utility.yul\":5048:5065   */\n      add\n        /* \"#utility.yul\":5044:5071   */\n      slt\n        /* \"#utility.yul\":5034:5156   */\n      tag_212\n      jumpi\n        /* \"#utility.yul\":5075:5154   */\n      tag_213\n      tag_133\n      jump\t// in\n    tag_213:\n        /* \"#utility.yul\":5034:5156   */\n    tag_212:\n        /* \"#utility.yul\":5192:5198   */\n      dup2\n        /* \"#utility.yul\":5179:5199   */\n      calldataload\n        /* \"#utility.yul\":5217:5296   */\n      tag_214\n        /* \"#utility.yul\":5292:5295   */\n      dup5\n        /* \"#utility.yul\":5284:5290   */\n      dup3\n        /* \"#utility.yul\":5277:5281   */\n      0x20\n        /* \"#utility.yul\":5269:5275   */\n      dup7\n        /* \"#utility.yul\":5265:5282   */\n      add\n        /* \"#utility.yul\":5217:5296   */\n      tag_140\n      jump\t// in\n    tag_214:\n        /* \"#utility.yul\":5208:5296   */\n      swap2\n      pop\n        /* \"#utility.yul\":5024:5302   */\n      pop\n        /* \"#utility.yul\":4962:5302   */\n      swap3\n      swap2\n      pop\n      pop\n      jump\t// out\n        /* \"#utility.yul\":5308:6142   */\n    tag_24:\n        /* \"#utility.yul\":5396:5402   */\n      0x00\n        /* \"#utility.yul\":5404:5410   */\n      dup1\n        /* \"#utility.yul\":5453:5455   */\n      0x40\n        /* \"#utility.yul\":5441:5450   */\n      dup4\n        /* \"#utility.yul\":5432:5439   */\n      dup6\n        /* \"#utility.yul\":5428:5451   */\n      sub\n        /* \"#utility.yul\":5424:5456   */\n      slt\n        /* \"#utility.yul\":5421:5540   */\n      iszero\n      tag_216\n      jumpi\n        /* \"#utility.yul\":5459:5538   */\n      tag_217\n      tag_120\n      jump\t// in\n    tag_217:\n        /* \"#utility.yul\":5421:5540   */\n    tag_216:\n        /* \"#utility.yul\":5607:5608   */\n      0x00\n        /* \"#utility.yul\":5596:5605   */\n      dup4\n        /* \"#utility.yul\":5592:5609   */\n      add\n        /* \"#utility.yul\":5579:5610   */\n      calldataload\n        /* \"#utility.yul\":5637:5655   */\n      0xffffffffffffffff\n        /* \"#utility.yul\":5629:5635   */\n      dup2\n        /* \"#utility.yul\":5626:5656   */\n      gt\n        /* \"#utility.yul\":5623:5740   */\n      iszero\n      tag_218\n      jumpi\n        /* \"#utility.yul\":5659:5738   */\n      tag_219\n      tag_121\n      jump\t// in\n    tag_219:\n        /* \"#utility.yul\":5623:5740   */\n    tag_218:\n        /* \"#utility.yul\":5764:5827   */\n      tag_220\n        /* \"#utility.yul\":5819:5826   */\n      dup6\n        /* \"#utility.yul\":5810:5816   */\n      dup3\n        /* \"#utility.yul\":5799:5808   */\n      dup7\n        /* \"#utility.yul\":5795:5817   */\n      add\n        /* \"#utility.yul\":5764:5827   */\n      tag_141\n      jump\t// in\n    tag_220:\n        /* \"#utility.yul\":5754:5827   */\n      swap3\n      pop\n        /* \"#utility.yul\":5550:5837   */\n      pop\n        /* \"#utility.yul\":5904:5906   */\n      0x20\n        /* \"#utility.yul\":5893:5902   */\n      dup4\n        /* \"#utility.yul\":5889:5907   */\n      add\n        /* \"#utility.yul\":5876:5908   */\n      calldataload\n        /* \"#utility.yul\":5935:5953   */\n      0xffffffffffffffff\n        /* \"#utility.yul\":5927:5933   */\n      dup2\n        /* \"#utility.yul\":5924:5954   */\n      gt\n        /* \"#utility.yul\":5921:6038   */\n      iszero\n      tag_221\n      jumpi\n        /* \"#utility.yul\":5957:6036   */\n      tag_222\n      tag_121\n      jump\t// in\n    tag_222:\n        /* \"#utility.yul\":5921:6038   */\n    tag_221:\n        /* \"#utility.yul\":6062:6125   */\n      tag_223\n        /* \"#utility.yul\":6117:6124   */\n      dup6\n        /* \"#utility.yul\":6108:6114   */\n      dup3\n        /* \"#utility.yul\":6097:6106   */\n      dup7\n        /* \"#utility.yul\":6093:6115   */\n      add\n        /* \"#utility.yul\":6062:6125   */\n      tag_141\n      jump\t// in\n    tag_223:\n        /* \"#utility.yul\":6052:6125   */\n      swap2\n      pop\n        /* \"#utility.yul\":5847:6135   */\n      pop\n        /* \"#utility.yul\":5308:6142   */\n      swap3\n      pop\n      swap3\n      swap1\n      pop\n      jump\t// out\n        /* \"#utility.yul\":6148:6461   */\n    tag_29:\n        /* \"#utility.yul\":6261:6265   */\n      0x00\n        /* \"#utility.yul\":6299:6301   */\n      0x20\n        /* \"#utility.yul\":6288:6297   */\n      dup3\n        /* \"#utility.yul\":6284:6302   */\n      add\n        /* \"#utility.yul\":6276:6302   */\n      swap1\n      pop\n        /* \"#utility.yul\":6348:6357   */\n      dup2\n        /* \"#utility.yul\":6342:6346   */\n      dup2\n        /* \"#utility.yul\":6338:6358   */\n      sub\n        /* \"#utility.yul\":6334:6335   */\n      0x00\n        /* \"#utility.yul\":6323:6332   */\n      dup4\n        /* \"#utility.yul\":6319:6336   */\n      add\n        /* \"#utility.yul\":6312:6359   */\n      mstore\n        /* \"#utility.yul\":6376:6454   */\n      tag_225\n        /* \"#utility.yul\":6449:6453   */\n      dup2\n        /* \"#utility.yul\":6440:6446   */\n      dup5\n        /* \"#utility.yul\":6376:6454   */\n      tag_129\n      jump\t// in\n    tag_225:\n        /* \"#utility.yul\":6368:6454   */\n      swap1\n      pop\n        /* \"#utility.yul\":6148:6461   */\n      swap3\n      swap2\n      pop\n      pop\n      jump\t// out\n        /* \"#utility.yul\":6467:6581   */\n    tag_142:\n        /* \"#utility.yul\":6534:6540   */\n      0x00\n        /* \"#utility.yul\":6568:6573   */\n      dup2\n        /* \"#utility.yul\":6562:6574   */\n      mload\n        /* \"#utility.yul\":6552:6574   */\n      swap1\n      pop\n        /* \"#utility.yul\":6467:6581   */\n      swap2\n      swap1\n      pop\n      jump\t// out\n        /* \"#utility.yul\":6587:6771   */\n    tag_143:\n        /* \"#utility.yul\":6686:6697   */\n      0x00\n        /* \"#utility.yul\":6720:6726   */\n      dup3\n        /* \"#utility.yul\":6715:6718   */\n      dup3\n        /* \"#utility.yul\":6708:6727   */\n      mstore\n        /* \"#utility.yul\":6760:6764   */\n      0x20\n        /* \"#utility.yul\":6755:6758   */\n      dup3\n        /* \"#utility.yul\":6751:6765   */\n      add\n        /* \"#utility.yul\":6736:6765   */\n      swap1\n      pop\n        /* \"#utility.yul\":6587:6771   */\n      swap3\n      swap2\n      pop\n      pop\n      jump\t// out\n        /* \"#utility.yul\":6777:6909   */\n    tag_144:\n        /* \"#utility.yul\":6844:6848   */\n      0x00\n        /* \"#utility.yul\":6867:6870   */\n      dup2\n        /* \"#utility.yul\":6859:6870   */\n      swap1\n      pop\n        /* \"#utility.yul\":6897:6901   */\n      0x20\n        /* \"#utility.yul\":6892:6895   */\n      dup3\n        /* \"#utility.yul\":6888:6902   */\n      add\n        /* \"#utility.yul\":6880:6902   */\n      swap1\n      pop\n        /* \"#utility.yul\":6777:6909   */\n      swap2\n      swap1\n      pop\n      jump\t// out\n        /* \"#utility.yul\":6915:7023   */\n    tag_145:\n        /* \"#utility.yul\":6992:7016   */\n      tag_230\n        /* \"#utility.yul\":7010:7015   */\n      dup2\n        /* \"#utility.yul\":6992:7016   */\n      tag_131\n      jump\t// in\n    tag_230:\n        /* \"#utility.yul\":6987:6990   */\n      dup3\n        /* \"#utility.yul\":6980:7017   */\n      mstore\n        /* \"#utility.yul\":6915:7023   */\n      pop\n      pop\n      jump\t// out\n        /* \"#utility.yul\":7029:7208   */\n    tag_146:\n        /* \"#utility.yul\":7098:7108   */\n      0x00\n        /* \"#utility.yul\":7119:7165   */\n      tag_232\n        /* \"#utility.yul\":7161:7164   */\n      dup4\n        /* \"#utility.yul\":7153:7159   */\n      dup4\n        /* \"#utility.yul\":7119:7165   */\n      tag_145\n      jump\t// in\n    tag_232:\n        /* \"#utility.yul\":7197:7201   */\n      0x20\n        /* \"#utility.yul\":7192:7195   */\n      dup4\n        /* \"#utility.yul\":7188:7202   */\n      add\n        /* \"#utility.yul\":7174:7202   */\n      swap1\n      pop\n        /* \"#utility.yul\":7029:7208   */\n      swap3\n      swap2\n      pop\n      pop\n      jump\t// out\n        /* \"#utility.yul\":7214:7327   */\n    tag_147:\n        /* \"#utility.yul\":7284:7288   */\n      0x00\n        /* \"#utility.yul\":7316:7320   */\n      0x20\n        /* \"#utility.yul\":7311:7314   */\n      dup3\n        /* \"#utility.yul\":7307:7321   */\n      add\n        /* \"#utility.yul\":7299:7321   */\n      swap1\n      pop\n        /* \"#utility.yul\":7214:7327   */\n      swap2\n      swap1\n      pop\n      jump\t// out\n        /* \"#utility.yul\":7363:8095   */\n    tag_148:\n        /* \"#utility.yul\":7482:7485   */\n      0x00\n        /* \"#utility.yul\":7511:7565   */\n      tag_235\n        /* \"#utility.yul\":7559:7564   */\n      dup3\n        /* \"#utility.yul\":7511:7565   */\n      tag_142\n      jump\t// in\n    tag_235:\n        /* \"#utility.yul\":7581:7667   */\n      tag_236\n        /* \"#utility.yul\":7660:7666   */\n      dup2\n        /* \"#utility.yul\":7655:7658   */\n      dup6\n        /* \"#utility.yul\":7581:7667   */\n      tag_143\n      jump\t// in\n    tag_236:\n        /* \"#utility.yul\":7574:7667   */\n      swap4\n      pop\n        /* \"#utility.yul\":7691:7747   */\n      tag_237\n        /* \"#utility.yul\":7741:7746   */\n      dup4\n        /* \"#utility.yul\":7691:7747   */\n      tag_144\n      jump\t// in\n    tag_237:\n        /* \"#utility.yul\":7770:7777   */\n      dup1\n        /* \"#utility.yul\":7801:7802   */\n      0x00\n        /* \"#utility.yul\":7786:8070   */\n    tag_238:\n        /* \"#utility.yul\":7811:7817   */\n      dup4\n        /* \"#utility.yul\":7808:7809   */\n      dup2\n        /* \"#utility.yul\":7805:7818   */\n      lt\n        /* \"#utility.yul\":7786:8070   */\n      iszero\n      tag_240\n      jumpi\n        /* \"#utility.yul\":7887:7893   */\n      dup2\n        /* \"#utility.yul\":7881:7894   */\n      mload\n        /* \"#utility.yul\":7914:7977   */\n      tag_241\n        /* \"#utility.yul\":7973:7976   */\n      dup9\n        /* \"#utility.yul\":7958:7971   */\n      dup3\n        /* \"#utility.yul\":7914:7977   */\n      tag_146\n      jump\t// in\n    tag_241:\n        /* \"#utility.yul\":7907:7977   */\n      swap8\n      pop\n        /* \"#utility.yul\":8000:8060   */\n      tag_242\n        /* \"#utility.yul\":8053:8059   */\n      dup4\n        /* \"#utility.yul\":8000:8060   */\n      tag_147\n      jump\t// in\n    tag_242:\n        /* \"#utility.yul\":7990:8060   */\n      swap3\n      pop\n        /* \"#utility.yul\":7846:8070   */\n      pop\n        /* \"#utility.yul\":7833:7834   */\n      0x01\n        /* \"#utility.yul\":7830:7831   */\n      dup2\n        /* \"#utility.yul\":7826:7835   */\n      add\n        /* \"#utility.yul\":7821:7835   */\n      swap1\n      pop\n        /* \"#utility.yul\":7786:8070   */\n      jump(tag_238)\n    tag_240:\n        /* \"#utility.yul\":7790:7804   */\n      pop\n        /* \"#utility.yul\":8086:8089   */\n      dup6\n        /* \"#utility.yul\":8079:8089   */\n      swap4\n      pop\n        /* \"#utility.yul\":7487:8095   */\n      pop\n      pop\n      pop\n        /* \"#utility.yul\":7363:8095   */\n      swap3\n      swap2\n      pop\n      pop\n      jump\t// out\n        /* \"#utility.yul\":8101:8474   */\n    tag_33:\n        /* \"#utility.yul\":8244:8248   */\n      0x00\n        /* \"#utility.yul\":8282:8284   */\n      0x20\n        /* \"#utility.yul\":8271:8280   */\n      dup3\n        /* \"#utility.yul\":8267:8285   */\n      add\n        /* \"#utility.yul\":8259:8285   */\n      swap1\n      pop\n        /* \"#utility.yul\":8331:8340   */\n      dup2\n        /* \"#utility.yul\":8325:8329   */\n      dup2\n        /* \"#utility.yul\":8321:8341   */\n      sub\n        /* \"#utility.yul\":8317:8318   */\n      0x00\n        /* \"#utility.yul\":8306:8315   */\n      dup4\n        /* \"#utility.yul\":8302:8319   */\n      add\n        /* \"#utility.yul\":8295:8342   */\n      mstore\n        /* \"#utility.yul\":8359:8467   */\n      tag_244\n        /* \"#utility.yul\":8462:8466   */\n      dup2\n        /* \"#utility.yul\":8453:8459   */\n      dup5\n        /* \"#utility.yul\":8359:8467   */\n      tag_148\n      jump\t// in\n    tag_244:\n        /* \"#utility.yul\":8351:8467   */\n      swap1\n      pop\n        /* \"#utility.yul\":8101:8474   */\n      swap3\n      swap2\n      pop\n      pop\n      jump\t// out\n        /* \"#utility.yul\":8480:8602   */\n    tag_149:\n        /* \"#utility.yul\":8553:8577   */\n      tag_246\n        /* \"#utility.yul\":8571:8576   */\n      dup2\n        /* \"#utility.yul\":8553:8577   */\n      tag_131\n      jump\t// in\n    tag_246:\n        /* \"#utility.yul\":8546:8551   */\n      dup2\n        /* \"#utility.yul\":8543:8578   */\n      eq\n        /* \"#utility.yul\":8533:8596   */\n      tag_247\n      jumpi\n        /* \"#utility.yul\":8592:8593   */\n      0x00\n        /* \"#utility.yul\":8589:8590   */\n      dup1\n        /* \"#utility.yul\":8582:8594   */\n      revert\n        /* \"#utility.yul\":8533:8596   */\n    tag_247:\n        /* \"#utility.yul\":8480:8602   */\n      pop\n      jump\t// out\n        /* \"#utility.yul\":8608:8747   */\n    tag_150:\n        /* \"#utility.yul\":8654:8659   */\n      0x00\n        /* \"#utility.yul\":8692:8698   */\n      dup2\n        /* \"#utility.yul\":8679:8699   */\n      calldataload\n        /* \"#utility.yul\":8670:8699   */\n      swap1\n      pop\n        /* \"#utility.yul\":8708:8741   */\n      tag_249\n        /* \"#utility.yul\":8735:8740   */\n      dup2\n        /* \"#utility.yul\":8708:8741   */\n      tag_149\n      jump\t// in\n    tag_249:\n        /* \"#utility.yul\":8608:8747   */\n      swap3\n      swap2\n      pop\n      pop\n      jump\t// out\n        /* \"#utility.yul\":8753:9082   */\n    tag_39:\n        /* \"#utility.yul\":8812:8818   */\n      0x00\n        /* \"#utility.yul\":8861:8863   */\n      0x20\n        /* \"#utility.yul\":8849:8858   */\n      dup3\n        /* \"#utility.yul\":8840:8847   */\n      dup5\n        /* \"#utility.yul\":8836:8859   */\n      sub\n        /* \"#utility.yul\":8832:8864   */\n      slt\n        /* \"#utility.yul\":8829:8948   */\n      iszero\n      tag_251\n      jumpi\n        /* \"#utility.yul\":8867:8946   */\n      tag_252\n      tag_120\n      jump\t// in\n    tag_252:\n        /* \"#utility.yul\":8829:8948   */\n    tag_251:\n        /* \"#utility.yul\":8987:8988   */\n      0x00\n        /* \"#utility.yul\":9012:9065   */\n      tag_253\n        /* \"#utility.yul\":9057:9064   */\n      dup5\n        /* \"#utility.yul\":9048:9054   */\n      dup3\n        /* \"#utility.yul\":9037:9046   */\n      dup6\n        /* \"#utility.yul\":9033:9055   */\n      add\n        /* \"#utility.yul\":9012:9065   */\n      tag_150\n      jump\t// in\n    tag_253:\n        /* \"#utility.yul\":9002:9065   */\n      swap2\n      pop\n        /* \"#utility.yul\":8958:9075   */\n      pop\n        /* \"#utility.yul\":8753:9082   */\n      swap3\n      swap2\n      pop\n      pop\n      jump\t// out\n        /* \"#utility.yul\":9088:9268   */\n    tag_151:\n        /* \"#utility.yul\":9136:9213   */\n      0x4e487b7100000000000000000000000000000000000000000000000000000000\n        /* \"#utility.yul\":9133:9134   */\n      0x00\n        /* \"#utility.yul\":9126:9214   */\n      mstore\n        /* \"#utility.yul\":9233:9237   */\n      0x22\n        /* \"#utility.yul\":9230:9231   */\n      0x04\n        /* \"#utility.yul\":9223:9238   */\n      mstore\n        /* \"#utility.yul\":9257:9261   */\n      0x24\n        /* \"#utility.yul\":9254:9255   */\n      0x00\n        /* \"#utility.yul\":9247:9262   */\n      revert\n        /* \"#utility.yul\":9274:9594   */\n    tag_44:\n        /* \"#utility.yul\":9318:9324   */\n      0x00\n        /* \"#utility.yul\":9355:9356   */\n      0x02\n        /* \"#utility.yul\":9349:9353   */\n      dup3\n        /* \"#utility.yul\":9345:9357   */\n      div\n        /* \"#utility.yul\":9335:9357   */\n      swap1\n      pop\n        /* \"#utility.yul\":9402:9403   */\n      0x01\n        /* \"#utility.yul\":9396:9400   */\n      dup3\n        /* \"#utility.yul\":9392:9404   */\n      and\n        /* \"#utility.yul\":9423:9441   */\n      dup1\n        /* \"#utility.yul\":9413:9494   */\n      tag_256\n      jumpi\n        /* \"#utility.yul\":9479:9483   */\n      0x7f\n        /* \"#utility.yul\":9471:9477   */\n      dup3\n        /* \"#utility.yul\":9467:9484   */\n      and\n        /* \"#utility.yul\":9457:9484   */\n      swap2\n      pop\n        /* \"#utility.yul\":9413:9494   */\n    tag_256:\n        /* \"#utility.yul\":9541:9543   */\n      0x20\n        /* \"#utility.yul\":9533:9539   */\n      dup3\n        /* \"#utility.yul\":9530:9544   */\n      lt\n        /* \"#utility.yul\":9510:9528   */\n      dup2\n        /* \"#utility.yul\":9507:9545   */\n      sub\n        /* \"#utility.yul\":9504:9588   */\n      tag_257\n      jumpi\n        /* \"#utility.yul\":9560:9578   */\n      tag_258\n      tag_151\n      jump\t// in\n    tag_258:\n        /* \"#utility.yul\":9504:9588   */\n    tag_257:\n        /* \"#utility.yul\":9325:9594   */\n      pop\n        /* \"#utility.yul\":9274:9594   */\n      swap2\n      swap1\n      pop\n      jump\t// out\n        /* \"#utility.yul\":9600:9780   */\n    tag_92:\n        /* \"#utility.yul\":9648:9725   */\n      0x4e487b7100000000000000000000000000000000000000000000000000000000\n        /* \"#utility.yul\":9645:9646   */\n      0x00\n        /* \"#utility.yul\":9638:9726   */\n      mstore\n        /* \"#utility.yul\":9745:9749   */\n      0x32\n        /* \"#utility.yul\":9742:9743   */\n      0x04\n        /* \"#utility.yul\":9735:9750   */\n      mstore\n        /* \"#utility.yul\":9769:9773   */\n      0x24\n        /* \"#utility.yul\":9766:9767   */\n      0x00\n        /* \"#utility.yul\":9759:9774   */\n      revert\n        /* \"#utility.yul\":9786:9966   */\n    tag_152:\n        /* \"#utility.yul\":9834:9911   */\n      0x4e487b7100000000000000000000000000000000000000000000000000000000\n        /* \"#utility.yul\":9831:9832   */\n      0x00\n        /* \"#utility.yul\":9824:9912   */\n      mstore\n        /* \"#utility.yul\":9931:9935   */\n      0x11\n        /* \"#utility.yul\":9928:9929   */\n      0x04\n        /* \"#utility.yul\":9921:9936   */\n      mstore\n        /* \"#utility.yul\":9955:9959   */\n      0x24\n        /* \"#utility.yul\":9952:9953   */\n      0x00\n        /* \"#utility.yul\":9945:9960   */\n      revert\n        /* \"#utility.yul\":9972:10163   */\n    tag_96:\n        /* \"#utility.yul\":10012:10016   */\n      0x00\n        /* \"#utility.yul\":10032:10052   */\n      tag_262\n        /* \"#utility.yul\":10050:10051   */\n      dup3\n        /* \"#utility.yul\":10032:10052   */\n      tag_122\n      jump\t// in\n    tag_262:\n        /* \"#utility.yul\":10027:10052   */\n      swap2\n      pop\n        /* \"#utility.yul\":10066:10086   */\n      tag_263\n        /* \"#utility.yul\":10084:10085   */\n      dup4\n        /* \"#utility.yul\":10066:10086   */\n      tag_122\n      jump\t// in\n    tag_263:\n        /* \"#utility.yul\":10061:10086   */\n      swap3\n      pop\n        /* \"#utility.yul\":10105:10106   */\n      dup3\n        /* \"#utility.yul\":10102:10103   */\n      dup3\n        /* \"#utility.yul\":10099:10107   */\n      lt\n        /* \"#utility.yul\":10096:10130   */\n      iszero\n      tag_264\n      jumpi\n        /* \"#utility.yul\":10110:10128   */\n      tag_265\n      tag_152\n      jump\t// in\n    tag_265:\n        /* \"#utility.yul\":10096:10130   */\n    tag_264:\n        /* \"#utility.yul\":10155:10156   */\n      dup3\n        /* \"#utility.yul\":10152:10153   */\n      dup3\n        /* \"#utility.yul\":10148:10157   */\n      sub\n        /* \"#utility.yul\":10140:10157   */\n      swap1\n      pop\n        /* \"#utility.yul\":9972:10163   */\n      swap3\n      swap2\n      pop\n      pop\n      jump\t// out\n        /* \"#utility.yul\":10169:10349   */\n    tag_105:\n        /* \"#utility.yul\":10217:10294   */\n      0x4e487b7100000000000000000000000000000000000000000000000000000000\n        /* \"#utility.yul\":10214:10215   */\n      0x00\n        /* \"#utility.yul\":10207:10295   */\n      mstore\n        /* \"#utility.yul\":10314:10318   */\n      0x31\n        /* \"#utility.yul\":10311:10312   */\n      0x04\n        /* \"#utility.yul\":10304:10319   */\n      mstore\n        /* \"#utility.yul\":10338:10342   */\n      0x24\n        /* \"#utility.yul\":10335:10336   */\n      0x00\n        /* \"#utility.yul\":10328:10343   */\n      revert\n        /* \"#utility.yul\":10355:10588   */\n    tag_108:\n        /* \"#utility.yul\":10394:10397   */\n      0x00\n        /* \"#utility.yul\":10417:10441   */\n      tag_268\n        /* \"#utility.yul\":10435:10440   */\n      dup3\n        /* \"#utility.yul\":10417:10441   */\n      tag_122\n      jump\t// in\n    tag_268:\n        /* \"#utility.yul\":10408:10441   */\n      swap2\n      pop\n        /* \"#utility.yul\":10463:10529   */\n      0xffffffffffffffffffffffffffffffffffffffffffffffffffffffffffffffff\n        /* \"#utility.yul\":10456:10461   */\n      dup3\n        /* \"#utility.yul\":10453:10530   */\n      sub\n        /* \"#utility.yul\":10450:10553   */\n      tag_269\n      jumpi\n        /* \"#utility.yul\":10533:10551   */\n      tag_270\n      tag_152\n      jump\t// in\n    tag_270:\n        /* \"#utility.yul\":10450:10553   */\n    tag_269:\n        /* \"#utility.yul\":10580:10581   */\n      0x01\n        /* \"#utility.yul\":10573:10578   */\n      dup3\n        /* \"#utility.yul\":10569:10582   */\n      add\n        /* \"#utility.yul\":10562:10582   */\n      swap1\n      pop\n        /* \"#utility.yul\":10355:10588   */\n      swap2\n      swap1\n      pop\n      jump\t// out\n\n    auxdata: 0xa26469706673582212201adb8df45a0e497ba17430c5283a7582e8ac3aa2495aacb09926eb1a87f90cbd64736f6c634300080d0033\n}\n",
    "bytecode": {
      "linkReferences": {},
      "object": "60806040523480156200001157600080fd5b506040516200137438038062001374833981810160405281019062000037919062000387565b82600090805190602001906200004f929190620000d5565b506001829080600181540180825580915050600190039060005260206000200160009091909190916101000a81548173ffffffffffffffffffffffffffffffffffffffff021916908373ffffffffffffffffffffffffffffffffffffffff1602179055508060029080519060200190620000cb929190620000d5565b5050505062000485565b828054620000e39062000450565b90600052602060002090601f01602090048101928262000107576000855562000153565b82601f106200012257805160ff191683800117855562000153565b8280016001018555821562000153579182015b828111156200015257825182559160200191906001019062000135565b5b50905062000162919062000166565b5090565b5b808211156200018157600081600090555060010162000167565b5090565b6000604051905090565b600080fd5b600080fd5b600080fd5b600080fd5b6000601f19601f8301169050919050565b7f4e487b7100000000000000000000000000000000000000000000000000000000600052604160045260246000fd5b620001ee82620001a3565b810181811067ffffffffffffffff8211171562000210576200020f620001b4565b5b80604052505050565b60006200022562000185565b9050620002338282620001e3565b919050565b600067ffffffffffffffff821115620002565762000255620001b4565b5b6200026182620001a3565b9050602081019050919050565b60005b838110156200028e57808201518184015260208101905062000271565b838111156200029e576000848401525b50505050565b6000620002bb620002b58462000238565b62000219565b905082815260208101848484011115620002da57620002d96200019e565b5b620002e78482856200026e565b509392505050565b600082601f83011262000307576200030662000199565b5b815162000319848260208601620002a4565b91505092915050565b600073ffffffffffffffffffffffffffffffffffffffff82169050919050565b60006200034f8262000322565b9050919050565b620003618162000342565b81146200036d57600080fd5b50565b600081519050620003818162000356565b92915050565b600080600060608486031215620003a357620003a26200018f565b5b600084015167ffffffffffffffff811115620003c457620003c362000194565b5b620003d286828701620002ef565b9350506020620003e58682870162000370565b925050604084015167ffffffffffffffff81111562000409576200040862000194565b5b6200041786828701620002ef565b9150509250925092565b7f4e487b7100000000000000000000000000000000000000000000000000000000600052602260045260246000fd5b600060028204905060018216806200046957607f821691505b6020821081036200047f576200047e62000421565b5b50919050565b610edf80620004956000396000f3fe608060405234801561001057600080fd5b506004361061007d5760003560e01c80636b4656011161005b5780636b465601146100ff578063a0e67e2b1461011d578063c623674f1461013b578063cd5c4c70146101595761007d565b80630ef486d1146100825780630f310b17146100b35780634d300e0c146100e3575b600080fd5b61009c600480360381019061009791906108df565b610175565b6040516100aa9291906109a5565b60405180910390f35b6100cd60048036038101906100c891906108df565b6102b9565b6040516100da9190610a1d565b60405180910390f35b6100fd60048036038101906100f89190610b6d565b6102f8565b005b6101076104ba565b6040516101149190610be5565b60405180910390f35b610125610548565b6040516101329190610cc5565b60405180910390f35b6101436105d6565b6040516101509190610be5565b60405180910390f35b610173600480360381019061016e9190610d13565b610664565b005b6003818154811061018557600080fd5b90600052602060002090600202016000915090508060000180546101a890610d6f565b80601f01602080910402602001604051908101604052809291908181526020018280546101d490610d6f565b80156102215780601f106101f657610100808354040283529160200191610221565b820191906000526020600020905b81548152906001019060200180831161020457829003601f168201915b50505050509080600101805461023690610d6f565b80601f016020809104026020016040519081016040528092919081815260200182805461026290610d6f565b80156102af5780601f10610284576101008083540402835291602001916102af565b820191906000526020600020905b81548152906001019060200180831161029257829003601f168201915b5050505050905082565b600181815481106102c957600080fd5b906000526020600020016000915054906101000a900473ffffffffffffffffffffffffffffffffffffffff1681565b600360405180604001604052806002805461031290610d6f565b80601f016020809104026020016040519081016040528092919081815260200182805461033e90610d6f565b801561038b5780601f106103605761010080835404028352916020019161038b565b820191906000526020600020905b81548152906001019060200180831161036e57829003601f168201915b50505050508152602001600080546103a290610d6f565b80601f01602080910402602001604051908101604052809291908181526020018280546103ce90610d6f565b801561041b5780601f106103f05761010080835404028352916020019161041b565b820191906000526020600020905b8154815290600101906020018083116103fe57829003601f168201915b5050505050815250908060018154018082558091505060019003906000526020600020906002020160009091909190915060008201518160000190805190602001906104689291906107f2565b5060208201518160010190805190602001906104859291906107f2565b505050816000908051906020019061049e9291906107f2565b5080600290805190602001906104b59291906107f2565b505050565b600280546104c790610d6f565b80601f01602080910402602001604051908101604052809291908181526020018280546104f390610d6f565b80156105405780601f1061051557610100808354040283529160200191610540565b820191906000526020600020905b81548152906001019060200180831161052357829003601f168201915b505050505081565b606060018054806020026020016040519081016040528092919081815260200182805480156105cc57602002820191906000526020600020905b8160009054906101000a900473ffffffffffffffffffffffffffffffffffffffff1673ffffffffffffffffffffffffffffffffffffffff1681526020019060010190808311610582575b5050505050905090565b600080546105e390610d6f565b80601f016020809104026020016040519081016040528092919081815260200182805461060f90610d6f565b801561065c5780601f106106315761010080835404028352916020019161065c565b820191906000526020600020905b81548152906001019060200180831161063f57829003601f168201915b505050505081565b60005b6001805490508110156107ee576001818154811061068857610687610da0565b5b9060005260206000200160009054906101000a900473ffffffffffffffffffffffffffffffffffffffff1673ffffffffffffffffffffffffffffffffffffffff168273ffffffffffffffffffffffffffffffffffffffff16036107db5760018080805490506106f79190610dfe565b8154811061070857610707610da0565b5b9060005260206000200160009054906101000a900473ffffffffffffffffffffffffffffffffffffffff166001828154811061074757610746610da0565b5b9060005260206000200160006101000a81548173ffffffffffffffffffffffffffffffffffffffff021916908373ffffffffffffffffffffffffffffffffffffffff16021790555060018054806107a1576107a0610e32565b5b6001900381819060005260206000200160006101000a81549073ffffffffffffffffffffffffffffffffffffffff021916905590556107ee565b80806107e690610e61565b915050610667565b5050565b8280546107fe90610d6f565b90600052602060002090601f0160209004810192826108205760008555610867565b82601f1061083957805160ff1916838001178555610867565b82800160010185558215610867579182015b8281111561086657825182559160200191906001019061084b565b5b5090506108749190610878565b5090565b5b80821115610891576000816000905550600101610879565b5090565b6000604051905090565b600080fd5b600080fd5b6000819050919050565b6108bc816108a9565b81146108c757600080fd5b50565b6000813590506108d9816108b3565b92915050565b6000602082840312156108f5576108f461089f565b5b6000610903848285016108ca565b91505092915050565b600081519050919050565b600082825260208201905092915050565b60005b8381101561094657808201518184015260208101905061092b565b83811115610955576000848401525b50505050565b6000601f19601f8301169050919050565b60006109778261090c565b6109818185610917565b9350610991818560208601610928565b61099a8161095b565b840191505092915050565b600060408201905081810360008301526109bf818561096c565b905081810360208301526109d3818461096c565b90509392505050565b600073ffffffffffffffffffffffffffffffffffffffff82169050919050565b6000610a07826109dc565b9050919050565b610a17816109fc565b82525050565b6000602082019050610a326000830184610a0e565b92915050565b600080fd5b600080fd5b7f4e487b7100000000000000000000000000000000000000000000000000000000600052604160045260246000fd5b610a7a8261095b565b810181811067ffffffffffffffff82111715610a9957610a98610a42565b5b80604052505050565b6000610aac610895565b9050610ab88282610a71565b919050565b600067ffffffffffffffff821115610ad857610ad7610a42565b5b610ae18261095b565b9050602081019050919050565b82818337600083830152505050565b6000610b10610b0b84610abd565b610aa2565b905082815260208101848484011115610b2c57610b2b610a3d565b5b610b37848285610aee565b509392505050565b600082601f830112610b5457610b53610a38565b5b8135610b64848260208601610afd565b91505092915050565b60008060408385031215610b8457610b8361089f565b5b600083013567ffffffffffffffff811115610ba257610ba16108a4565b5b610bae85828601610b3f565b925050602083013567ffffffffffffffff811115610bcf57610bce6108a4565b5b610bdb85828601610b3f565b9150509250929050565b60006020820190508181036000830152610bff818461096c565b905092915050565b600081519050919050565b600082825260208201905092915050565b6000819050602082019050919050565b610c3c816109fc565b82525050565b6000610c4e8383610c33565b60208301905092915050565b6000602082019050919050565b6000610c7282610c07565b610c7c8185610c12565b9350610c8783610c23565b8060005b83811015610cb8578151610c9f8882610c42565b9750610caa83610c5a565b925050600181019050610c8b565b5085935050505092915050565b60006020820190508181036000830152610cdf8184610c67565b905092915050565b610cf0816109fc565b8114610cfb57600080fd5b50565b600081359050610d0d81610ce7565b92915050565b600060208284031215610d2957610d2861089f565b5b6000610d3784828501610cfe565b91505092915050565b7f4e487b7100000000000000000000000000000000000000000000000000000000600052602260045260246000fd5b60006002820490506001821680610d8757607f821691505b602082108103610d9a57610d99610d40565b5b50919050565b7f4e487b7100000000000000000000000000000000000000000000000000000000600052603260045260246000fd5b7f4e487b7100000000000000000000000000000000000000000000000000000000600052601160045260246000fd5b6000610e09826108a9565b9150610e14836108a9565b925082821015610e2757610e26610dcf565b5b828203905092915050565b7f4e487b7100000000000000000000000000000000000000000000000000000000600052603160045260246000fd5b6000610e6c826108a9565b91507fffffffffffffffffffffffffffffffffffffffffffffffffffffffffffffffff8203610e9e57610e9d610dcf565b5b60018201905091905056fea26469706673582212201adb8df45a0e497ba17430c5283a7582e8ac3aa2495aacb09926eb1a87f90cbd64736f6c634300080d0033",
      "opcodes": "PUSH1 0x80 PUSH1 0x40 MSTORE CALLVALUE DUP1 ISZERO PUSH3 0x11 JUMPI PUSH1 0x0 DUP1 REVERT JUMPDEST POP PUSH1 0x40 MLOAD PUSH3 0x1374 CODESIZE SUB DUP1 PUSH3 0x1374 DUP4 CODECOPY DUP2 DUP2 ADD PUSH1 0x40 MSTORE DUP2 ADD SWAP1 PUSH3 0x37 SWAP2 SWAP1 PUSH3 0x387 JUMP JUMPDEST DUP3 PUSH1 0x0 SWAP1 DUP1 MLOAD SWAP1 PUSH1 0x20 ADD SWAP1 PUSH3 0x4F SWAP3 SWAP2 SWAP1 PUSH3 0xD5 JUMP JUMPDEST POP PUSH1 0x1 DUP3 SWAP1 DUP1 PUSH1 0x1 DUP2 SLOAD ADD DUP1 DUP3 SSTORE DUP1 SWAP2 POP POP PUSH1 0x1 SWAP1 SUB SWAP1 PUSH1 0x0 MSTORE PUSH1 0x20 PUSH1 0x0 KECCAK256 ADD PUSH1 0x0 SWAP1 SWAP2 SWAP1 SWAP2 SWAP1 SWAP2 PUSH2 0x100 EXP DUP2 SLOAD DUP2 PUSH20 0xFFFFFFFFFFFFFFFFFFFFFFFFFFFFFFFFFFFFFFFF MUL NOT AND SWAP1 DUP4 PUSH20 0xFFFFFFFFFFFFFFFFFFFFFFFFFFFFFFFFFFFFFFFF AND MUL OR SWAP1 SSTORE POP DUP1 PUSH1 0x2 SWAP1 DUP1 MLOAD SWAP1 PUSH1 0x20 ADD SWAP1 PUSH3 0xCB SWAP3 SWAP2 SWAP1 PUSH3 0xD5 JUMP JUMPDEST POP POP POP POP PUSH3 0x485 JUMP JUMPDEST DUP3 DUP1 SLOAD PUSH3 0xE3 SWAP1 PUSH3 0x450 JUMP JUMPDEST SWAP1 PUSH1 0x0 MSTORE PUSH1 0x20 PUSH1 0x0 KECCAK256 SWAP1 PUSH1 0x1F ADD PUSH1 0x20 SWAP1 DIV DUP2 ADD SWAP3 DUP3 PUSH3 0x107 JUMPI PUSH1 0x0 DUP6 SSTORE PUSH3 0x153 JUMP JUMPDEST DUP3 PUSH1 0x1F LT PUSH3 0x122 JUMPI DUP1 MLOAD PUSH1 0xFF NOT AND DUP4 DUP1 ADD OR DUP6 SSTORE PUSH3 0x153 JUMP JUMPDEST DUP3 DUP1 ADD PUSH1 0x1 ADD DUP6 SSTORE DUP3 ISZERO PUSH3 0x153 JUMPI SWAP2 DUP3 ADD JUMPDEST DUP3 DUP2 GT ISZERO PUSH3 0x152 JUMPI DUP3 MLOAD DUP3 SSTORE SWAP2 PUSH1 0x20 ADD SWAP2 SWAP1 PUSH1 0x1 ADD SWAP1 PUSH3 0x135 JUMP JUMPDEST JUMPDEST POP SWAP1 POP PUSH3 0x162 SWAP2 SWAP1 PUSH3 0x166 JUMP JUMPDEST POP SWAP1 JUMP JUMPDEST JUMPDEST DUP1 DUP3 GT ISZERO PUSH3 0x181 JUMPI PUSH1 0x0 DUP2 PUSH1 0x0 SWAP1 SSTORE POP PUSH1 0x1 ADD PUSH3 0x167 JUMP JUMPDEST POP SWAP1 JUMP JUMPDEST PUSH1 0x0 PUSH1 0x40 MLOAD SWAP1 POP SWAP1 JUMP JUMPDEST PUSH1 0x0 DUP1 REVERT JUMPDEST PUSH1 0x0 DUP1 REVERT JUMPDEST PUSH1 0x0 DUP1 REVERT JUMPDEST PUSH1 0x0 DUP1 REVERT JUMPDEST PUSH1 0x0 PUSH1 0x1F NOT PUSH1 0x1F DUP4 ADD AND SWAP1 POP SWAP2 SWAP1 POP JUMP JUMPDEST PUSH32 0x4E487B7100000000000000000000000000000000000000000000000000000000 PUSH1 0x0 MSTORE PUSH1 0x41 PUSH1 0x4 MSTORE PUSH1 0x24 PUSH1 0x0 REVERT JUMPDEST PUSH3 0x1EE DUP3 PUSH3 0x1A3 JUMP JUMPDEST DUP2 ADD DUP2 DUP2 LT PUSH8 0xFFFFFFFFFFFFFFFF DUP3 GT OR ISZERO PUSH3 0x210 JUMPI PUSH3 0x20F PUSH3 0x1B4 JUMP JUMPDEST JUMPDEST DUP1 PUSH1 0x40 MSTORE POP POP POP JUMP JUMPDEST PUSH1 0x0 PUSH3 0x225 PUSH3 0x185 JUMP JUMPDEST SWAP1 POP PUSH3 0x233 DUP3 DUP3 PUSH3 0x1E3 JUMP JUMPDEST SWAP2 SWAP1 POP JUMP JUMPDEST PUSH1 0x0 PUSH8 0xFFFFFFFFFFFFFFFF DUP3 GT ISZERO PUSH3 0x256 JUMPI PUSH3 0x255 PUSH3 0x1B4 JUMP JUMPDEST JUMPDEST PUSH3 0x261 DUP3 PUSH3 0x1A3 JUMP JUMPDEST SWAP1 POP PUSH1 0x20 DUP2 ADD SWAP1 POP SWAP2 SWAP1 POP JUMP JUMPDEST PUSH1 0x0 JUMPDEST DUP4 DUP2 LT ISZERO PUSH3 0x28E JUMPI DUP1 DUP3 ADD MLOAD DUP2 DUP5 ADD MSTORE PUSH1 0x20 DUP2 ADD SWAP1 POP PUSH3 0x271 JUMP JUMPDEST DUP4 DUP2 GT ISZERO PUSH3 0x29E JUMPI PUSH1 0x0 DUP5 DUP5 ADD MSTORE JUMPDEST POP POP POP POP JUMP JUMPDEST PUSH1 0x0 PUSH3 0x2BB PUSH3 0x2B5 DUP5 PUSH3 0x238 JUMP JUMPDEST PUSH3 0x219 JUMP JUMPDEST SWAP1 POP DUP3 DUP2 MSTORE PUSH1 0x20 DUP2 ADD DUP5 DUP5 DUP5 ADD GT ISZERO PUSH3 0x2DA JUMPI PUSH3 0x2D9 PUSH3 0x19E JUMP JUMPDEST JUMPDEST PUSH3 0x2E7 DUP5 DUP3 DUP6 PUSH3 0x26E JUMP JUMPDEST POP SWAP4 SWAP3 POP POP POP JUMP JUMPDEST PUSH1 0x0 DUP3 PUSH1 0x1F DUP4 ADD SLT PUSH3 0x307 JUMPI PUSH3 0x306 PUSH3 0x199 JUMP JUMPDEST JUMPDEST DUP2 MLOAD PUSH3 0x319 DUP5 DUP3 PUSH1 0x20 DUP7 ADD PUSH3 0x2A4 JUMP JUMPDEST SWAP2 POP POP SWAP3 SWAP2 POP POP JUMP JUMPDEST PUSH1 0x0 PUSH20 0xFFFFFFFFFFFFFFFFFFFFFFFFFFFFFFFFFFFFFFFF DUP3 AND SWAP1 POP SWAP2 SWAP1 POP JUMP JUMPDEST PUSH1 0x0 PUSH3 0x34F DUP3 PUSH3 0x322 JUMP JUMPDEST SWAP1 POP SWAP2 SWAP1 POP JUMP JUMPDEST PUSH3 0x361 DUP2 PUSH3 0x342 JUMP JUMPDEST DUP2 EQ PUSH3 0x36D JUMPI PUSH1 0x0 DUP1 REVERT JUMPDEST POP JUMP JUMPDEST PUSH1 0x0 DUP2 MLOAD SWAP1 POP PUSH3 0x381 DUP2 PUSH3 0x356 JUMP JUMPDEST SWAP3 SWAP2 POP POP JUMP JUMPDEST PUSH1 0x0 DUP1 PUSH1 0x0 PUSH1 0x60 DUP5 DUP7 SUB SLT ISZERO PUSH3 0x3A3 JUMPI PUSH3 0x3A2 PUSH3 0x18F JUMP JUMPDEST JUMPDEST PUSH1 0x0 DUP5 ADD MLOAD PUSH8 0xFFFFFFFFFFFFFFFF DUP2 GT ISZERO PUSH3 0x3C4 JUMPI PUSH3 0x3C3 PUSH3 0x194 JUMP JUMPDEST JUMPDEST PUSH3 0x3D2 DUP7 DUP3 DUP8 ADD PUSH3 0x2EF JUMP JUMPDEST SWAP4 POP POP PUSH1 0x20 PUSH3 0x3E5 DUP7 DUP3 DUP8 ADD PUSH3 0x370 JUMP JUMPDEST SWAP3 POP POP PUSH1 0x40 DUP5 ADD MLOAD PUSH8 0xFFFFFFFFFFFFFFFF DUP2 GT ISZERO PUSH3 0x409 JUMPI PUSH3 0x408 PUSH3 0x194 JUMP JUMPDEST JUMPDEST PUSH3 0x417 DUP7 DUP3 DUP8 ADD PUSH3 0x2EF JUMP JUMPDEST SWAP2 POP POP SWAP3 POP SWAP3 POP SWAP3 JUMP JUMPDEST PUSH32 0x4E487B7100000000000000000000000000000000000000000000000000000000 PUSH1 0x0 MSTORE PUSH1 0x22 PUSH1 0x4 MSTORE PUSH1 0x24 PUSH1 0x0 REVERT JUMPDEST PUSH1 0x0 PUSH1 0x2 DUP3 DIV SWAP1 POP PUSH1 0x1 DUP3 AND DUP1 PUSH3 0x469 JUMPI PUSH1 0x7F DUP3 AND SWAP2 POP JUMPDEST PUSH1 0x20 DUP3 LT DUP2 SUB PUSH3 0x47F JUMPI PUSH3 0x47E PUSH3 0x421 JUMP JUMPDEST JUMPDEST POP SWAP2 SWAP1 POP JUMP JUMPDEST PUSH2 0xEDF DUP1 PUSH3 0x495 PUSH1 0x0 CODECOPY PUSH1 0x0 RETURN INVALID PUSH1 0x80 PUSH1 0x40 MSTORE CALLVALUE DUP1 ISZERO PUSH2 0x10 JUMPI PUSH1 0x0 DUP1 REVERT JUMPDEST POP PUSH1 0x4 CALLDATASIZE LT PUSH2 0x7D JUMPI PUSH1 0x0 CALLDATALOAD PUSH1 0xE0 SHR DUP1 PUSH4 0x6B465601 GT PUSH2 0x5B JUMPI DUP1 PUSH4 0x6B465601 EQ PUSH2 0xFF JUMPI DUP1 PUSH4 0xA0E67E2B EQ PUSH2 0x11D JUMPI DUP1 PUSH4 0xC623674F EQ PUSH2 0x13B JUMPI DUP1 PUSH4 0xCD5C4C70 EQ PUSH2 0x159 JUMPI PUSH2 0x7D JUMP JUMPDEST DUP1 PUSH4 0xEF486D1 EQ PUSH2 0x82 JUMPI DUP1 PUSH4 0xF310B17 EQ PUSH2 0xB3 JUMPI DUP1 PUSH4 0x4D300E0C EQ PUSH2 0xE3 JUMPI JUMPDEST PUSH1 0x0 DUP1 REVERT JUMPDEST PUSH2 0x9C PUSH1 0x4 DUP1 CALLDATASIZE SUB DUP2 ADD SWAP1 PUSH2 0x97 SWAP2 SWAP1 PUSH2 0x8DF JUMP JUMPDEST PUSH2 0x175 JUMP JUMPDEST PUSH1 0x40 MLOAD PUSH2 0xAA SWAP3 SWAP2 SWAP1 PUSH2 0x9A5 JUMP JUMPDEST PUSH1 0x40 MLOAD DUP1 SWAP2 SUB SWAP1 RETURN JUMPDEST PUSH2 0xCD PUSH1 0x4 DUP1 CALLDATASIZE SUB DUP2 ADD SWAP1 PUSH2 0xC8 SWAP2 SWAP1 PUSH2 0x8DF JUMP JUMPDEST PUSH2 0x2B9 JUMP JUMPDEST PUSH1 0x40 MLOAD PUSH2 0xDA SWAP2 SWAP1 PUSH2 0xA1D JUMP JUMPDEST PUSH1 0x40 MLOAD DUP1 SWAP2 SUB SWAP1 RETURN JUMPDEST PUSH2 0xFD PUSH1 0x4 DUP1 CALLDATASIZE SUB DUP2 ADD SWAP1 PUSH2 0xF8 SWAP2 SWAP1 PUSH2 0xB6D JUMP JUMPDEST PUSH2 0x2F8 JUMP JUMPDEST STOP JUMPDEST PUSH2 0x107 PUSH2 0x4BA JUMP JUMPDEST PUSH1 0x40 MLOAD PUSH2 0x114 SWAP2 SWAP1 PUSH2 0xBE5 JUMP JUMPDEST PUSH1 0x40 MLOAD DUP1 SWAP2 SUB SWAP1 RETURN JUMPDEST PUSH2 0x125 PUSH2 0x548 JUMP JUMPDEST PUSH1 0x40 MLOAD PUSH2 0x132 SWAP2 SWAP1 PUSH2 0xCC5 JUMP JUMPDEST PUSH1 0x40 MLOAD DUP1 SWAP2 SUB SWAP1 RETURN JUMPDEST PUSH2 0x143 PUSH2 0x5D6 JUMP JUMPDEST PUSH1 0x40 MLOAD PUSH2 0x150 SWAP2 SWAP1 PUSH2 0xBE5 JUMP JUMPDEST PUSH1 0x40 MLOAD DUP1 SWAP2 SUB SWAP1 RETURN JUMPDEST PUSH2 0x173 PUSH1 0x4 DUP1 CALLDATASIZE SUB DUP2 ADD SWAP1 PUSH2 0x16E SWAP2 SWAP1 PUSH2 0xD13 JUMP JUMPDEST PUSH2 0x664 JUMP JUMPDEST STOP JUMPDEST PUSH1 0x3 DUP2 DUP2 SLOAD DUP2 LT PUSH2 0x185 JUMPI PUSH1 0x0 DUP1 REVERT JUMPDEST SWAP1 PUSH1 0x0 MSTORE PUSH1 0x20 PUSH1 0x0 KECCAK256 SWAP1 PUSH1 0x2 MUL ADD PUSH1 0x0 SWAP2 POP SWAP1 POP DUP1 PUSH1 0x0 ADD DUP1 SLOAD PUSH2 0x1A8 SWAP1 PUSH2 0xD6F JUMP JUMPDEST DUP1 PUSH1 0x1F ADD PUSH1 0x20 DUP1 SWAP2 DIV MUL PUSH1 0x20 ADD PUSH1 0x40 MLOAD SWAP1 DUP2 ADD PUSH1 0x40 MSTORE DUP1 SWAP3 SWAP2 SWAP1 DUP2 DUP2 MSTORE PUSH1 0x20 ADD DUP3 DUP1 SLOAD PUSH2 0x1D4 SWAP1 PUSH2 0xD6F JUMP JUMPDEST DUP1 ISZERO PUSH2 0x221 JUMPI DUP1 PUSH1 0x1F LT PUSH2 0x1F6 JUMPI PUSH2 0x100 DUP1 DUP4 SLOAD DIV MUL DUP4 MSTORE SWAP2 PUSH1 0x20 ADD SWAP2 PUSH2 0x221 JUMP JUMPDEST DUP3 ADD SWAP2 SWAP1 PUSH1 0x0 MSTORE PUSH1 0x20 PUSH1 0x0 KECCAK256 SWAP1 JUMPDEST DUP2 SLOAD DUP2 MSTORE SWAP1 PUSH1 0x1 ADD SWAP1 PUSH1 0x20 ADD DUP1 DUP4 GT PUSH2 0x204 JUMPI DUP3 SWAP1 SUB PUSH1 0x1F AND DUP3 ADD SWAP2 JUMPDEST POP POP POP POP POP SWAP1 DUP1 PUSH1 0x1 ADD DUP1 SLOAD PUSH2 0x236 SWAP1 PUSH2 0xD6F JUMP JUMPDEST DUP1 PUSH1 0x1F ADD PUSH1 0x20 DUP1 SWAP2 DIV MUL PUSH1 0x20 ADD PUSH1 0x40 MLOAD SWAP1 DUP2 ADD PUSH1 0x40 MSTORE DUP1 SWAP3 SWAP2 SWAP1 DUP2 DUP2 MSTORE PUSH1 0x20 ADD DUP3 DUP1 SLOAD PUSH2 0x262 SWAP1 PUSH2 0xD6F JUMP JUMPDEST DUP1 ISZERO PUSH2 0x2AF JUMPI DUP1 PUSH1 0x1F LT PUSH2 0x284 JUMPI PUSH2 0x100 DUP1 DUP4 SLOAD DIV MUL DUP4 MSTORE SWAP2 PUSH1 0x20 ADD SWAP2 PUSH2 0x2AF JUMP JUMPDEST DUP3 ADD SWAP2 SWAP1 PUSH1 0x0 MSTORE PUSH1 0x20 PUSH1 0x0 KECCAK256 SWAP1 JUMPDEST DUP2 SLOAD DUP2 MSTORE SWAP1 PUSH1 0x1 ADD SWAP1 PUSH1 0x20 ADD DUP1 DUP4 GT PUSH2 0x292 JUMPI DUP3 SWAP1 SUB PUSH1 0x1F AND DUP3 ADD SWAP2 JUMPDEST POP POP POP POP POP SWAP1 POP DUP3 JUMP JUMPDEST PUSH1 0x1 DUP2 DUP2 SLOAD DUP2 LT PUSH2 0x2C9 JUMPI PUSH1 0x0 DUP1 REVERT JUMPDEST SWAP1 PUSH1 0x0 MSTORE PUSH1 0x20 PUSH1 0x0 KECCAK256 ADD PUSH1 0x0 SWAP2 POP SLOAD SWAP1 PUSH2 0x100 EXP SWAP1 DIV PUSH20 0xFFFFFFFFFFFFFFFFFFFFFFFFFFFFFFFFFFFFFFFF AND DUP2 JUMP JUMPDEST PUSH1 0x3 PUSH1 0x40 MLOAD DUP1 PUSH1 0x40 ADD PUSH1 0x40 MSTORE DUP1 PUSH1 0x2 DUP1 SLOAD PUSH2 0x312 SWAP1 PUSH2 0xD6F JUMP JUMPDEST DUP1 PUSH1 0x1F ADD PUSH1 0x20 DUP1 SWAP2 DIV MUL PUSH1 0x20 ADD PUSH1 0x40 MLOAD SWAP1 DUP2 ADD PUSH1 0x40 MSTORE DUP1 SWAP3 SWAP2 SWAP1 DUP2 DUP2 MSTORE PUSH1 0x20 ADD DUP3 DUP1 SLOAD PUSH2 0x33E SWAP1 PUSH2 0xD6F JUMP JUMPDEST DUP1 ISZERO PUSH2 0x38B JUMPI DUP1 PUSH1 0x1F LT PUSH2 0x360 JUMPI PUSH2 0x100 DUP1 DUP4 SLOAD DIV MUL DUP4 MSTORE SWAP2 PUSH1 0x20 ADD SWAP2 PUSH2 0x38B JUMP JUMPDEST DUP3 ADD SWAP2 SWAP1 PUSH1 0x0 MSTORE PUSH1 0x20 PUSH1 0x0 KECCAK256 SWAP1 JUMPDEST DUP2 SLOAD DUP2 MSTORE SWAP1 PUSH1 0x1 ADD SWAP1 PUSH1 0x20 ADD DUP1 DUP4 GT PUSH2 0x36E JUMPI DUP3 SWAP1 SUB PUSH1 0x1F AND DUP3 ADD SWAP2 JUMPDEST POP POP POP POP POP DUP2 MSTORE PUSH1 0x20 ADD PUSH1 0x0 DUP1 SLOAD PUSH2 0x3A2 SWAP1 PUSH2 0xD6F JUMP JUMPDEST DUP1 PUSH1 0x1F ADD PUSH1 0x20 DUP1 SWAP2 DIV MUL PUSH1 0x20 ADD PUSH1 0x40 MLOAD SWAP1 DUP2 ADD PUSH1 0x40 MSTORE DUP1 SWAP3 SWAP2 SWAP1 DUP2 DUP2 MSTORE PUSH1 0x20 ADD DUP3 DUP1 SLOAD PUSH2 0x3CE SWAP1 PUSH2 0xD6F JUMP JUMPDEST DUP1 ISZERO PUSH2 0x41B JUMPI DUP1 PUSH1 0x1F LT PUSH2 0x3F0 JUMPI PUSH2 0x100 DUP1 DUP4 SLOAD DIV MUL DUP4 MSTORE SWAP2 PUSH1 0x20 ADD SWAP2 PUSH2 0x41B JUMP JUMPDEST DUP3 ADD SWAP2 SWAP1 PUSH1 0x0 MSTORE PUSH1 0x20 PUSH1 0x0 KECCAK256 SWAP1 JUMPDEST DUP2 SLOAD DUP2 MSTORE SWAP1 PUSH1 0x1 ADD SWAP1 PUSH1 0x20 ADD DUP1 DUP4 GT PUSH2 0x3FE JUMPI DUP3 SWAP1 SUB PUSH1 0x1F AND DUP3 ADD SWAP2 JUMPDEST POP POP POP POP POP DUP2 MSTORE POP SWAP1 DUP1 PUSH1 0x1 DUP2 SLOAD ADD DUP1 DUP3 SSTORE DUP1 SWAP2 POP POP PUSH1 0x1 SWAP1 SUB SWAP1 PUSH1 0x0 MSTORE PUSH1 0x20 PUSH1 0x0 KECCAK256 SWAP1 PUSH1 0x2 MUL ADD PUSH1 0x0 SWAP1 SWAP2 SWAP1 SWAP2 SWAP1 SWAP2 POP PUSH1 0x0 DUP3 ADD MLOAD DUP2 PUSH1 0x0 ADD SWAP1 DUP1 MLOAD SWAP1 PUSH1 0x20 ADD SWAP1 PUSH2 0x468 SWAP3 SWAP2 SWAP1 PUSH2 0x7F2 JUMP JUMPDEST POP PUSH1 0x20 DUP3 ADD MLOAD DUP2 PUSH1 0x1 ADD SWAP1 DUP1 MLOAD SWAP1 PUSH1 0x20 ADD SWAP1 PUSH2 0x485 SWAP3 SWAP2 SWAP1 PUSH2 0x7F2 JUMP JUMPDEST POP POP POP DUP2 PUSH1 0x0 SWAP1 DUP1 MLOAD SWAP1 PUSH1 0x20 ADD SWAP1 PUSH2 0x49E SWAP3 SWAP2 SWAP1 PUSH2 0x7F2 JUMP JUMPDEST POP DUP1 PUSH1 0x2 SWAP1 DUP1 MLOAD SWAP1 PUSH1 0x20 ADD SWAP1 PUSH2 0x4B5 SWAP3 SWAP2 SWAP1 PUSH2 0x7F2 JUMP JUMPDEST POP POP POP JUMP JUMPDEST PUSH1 0x2 DUP1 SLOAD PUSH2 0x4C7 SWAP1 PUSH2 0xD6F JUMP JUMPDEST DUP1 PUSH1 0x1F ADD PUSH1 0x20 DUP1 SWAP2 DIV MUL PUSH1 0x20 ADD PUSH1 0x40 MLOAD SWAP1 DUP2 ADD PUSH1 0x40 MSTORE DUP1 SWAP3 SWAP2 SWAP1 DUP2 DUP2 MSTORE PUSH1 0x20 ADD DUP3 DUP1 SLOAD PUSH2 0x4F3 SWAP1 PUSH2 0xD6F JUMP JUMPDEST DUP1 ISZERO PUSH2 0x540 JUMPI DUP1 PUSH1 0x1F LT PUSH2 0x515 JUMPI PUSH2 0x100 DUP1 DUP4 SLOAD DIV MUL DUP4 MSTORE SWAP2 PUSH1 0x20 ADD SWAP2 PUSH2 0x540 JUMP JUMPDEST DUP3 ADD SWAP2 SWAP1 PUSH1 0x0 MSTORE PUSH1 0x20 PUSH1 0x0 KECCAK256 SWAP1 JUMPDEST DUP2 SLOAD DUP2 MSTORE SWAP1 PUSH1 0x1 ADD SWAP1 PUSH1 0x20 ADD DUP1 DUP4 GT PUSH2 0x523 JUMPI DUP3 SWAP1 SUB PUSH1 0x1F AND DUP3 ADD SWAP2 JUMPDEST POP POP POP POP POP DUP2 JUMP JUMPDEST PUSH1 0x60 PUSH1 0x1 DUP1 SLOAD DUP1 PUSH1 0x20 MUL PUSH1 0x20 ADD PUSH1 0x40 MLOAD SWAP1 DUP2 ADD PUSH1 0x40 MSTORE DUP1 SWAP3 SWAP2 SWAP1 DUP2 DUP2 MSTORE PUSH1 0x20 ADD DUP3 DUP1 SLOAD DUP1 ISZERO PUSH2 0x5CC JUMPI PUSH1 0x20 MUL DUP3 ADD SWAP2 SWAP1 PUSH1 0x0 MSTORE PUSH1 0x20 PUSH1 0x0 KECCAK256 SWAP1 JUMPDEST DUP2 PUSH1 0x0 SWAP1 SLOAD SWAP1 PUSH2 0x100 EXP SWAP1 DIV PUSH20 0xFFFFFFFFFFFFFFFFFFFFFFFFFFFFFFFFFFFFFFFF AND PUSH20 0xFFFFFFFFFFFFFFFFFFFFFFFFFFFFFFFFFFFFFFFF AND DUP2 MSTORE PUSH1 0x20 ADD SWAP1 PUSH1 0x1 ADD SWAP1 DUP1 DUP4 GT PUSH2 0x582 JUMPI JUMPDEST POP POP POP POP POP SWAP1 POP SWAP1 JUMP JUMPDEST PUSH1 0x0 DUP1 SLOAD PUSH2 0x5E3 SWAP1 PUSH2 0xD6F JUMP JUMPDEST DUP1 PUSH1 0x1F ADD PUSH1 0x20 DUP1 SWAP2 DIV MUL PUSH1 0x20 ADD PUSH1 0x40 MLOAD SWAP1 DUP2 ADD PUSH1 0x40 MSTORE DUP1 SWAP3 SWAP2 SWAP1 DUP2 DUP2 MSTORE PUSH1 0x20 ADD DUP3 DUP1 SLOAD PUSH2 0x60F SWAP1 PUSH2 0xD6F JUMP JUMPDEST DUP1 ISZERO PUSH2 0x65C JUMPI DUP1 PUSH1 0x1F LT PUSH2 0x631 JUMPI PUSH2 0x100 DUP1 DUP4 SLOAD DIV MUL DUP4 MSTORE SWAP2 PUSH1 0x20 ADD SWAP2 PUSH2 0x65C JUMP JUMPDEST DUP3 ADD SWAP2 SWAP1 PUSH1 0x0 MSTORE PUSH1 0x20 PUSH1 0x0 KECCAK256 SWAP1 JUMPDEST DUP2 SLOAD DUP2 MSTORE SWAP1 PUSH1 0x1 ADD SWAP1 PUSH1 0x20 ADD DUP1 DUP4 GT PUSH2 0x63F JUMPI DUP3 SWAP1 SUB PUSH1 0x1F AND DUP3 ADD SWAP2 JUMPDEST POP POP POP POP POP DUP2 JUMP JUMPDEST PUSH1 0x0 JUMPDEST PUSH1 0x1 DUP1 SLOAD SWAP1 POP DUP2 LT ISZERO PUSH2 0x7EE JUMPI PUSH1 0x1 DUP2 DUP2 SLOAD DUP2 LT PUSH2 0x688 JUMPI PUSH2 0x687 PUSH2 0xDA0 JUMP JUMPDEST JUMPDEST SWAP1 PUSH1 0x0 MSTORE PUSH1 0x20 PUSH1 0x0 KECCAK256 ADD PUSH1 0x0 SWAP1 SLOAD SWAP1 PUSH2 0x100 EXP SWAP1 DIV PUSH20 0xFFFFFFFFFFFFFFFFFFFFFFFFFFFFFFFFFFFFFFFF AND PUSH20 0xFFFFFFFFFFFFFFFFFFFFFFFFFFFFFFFFFFFFFFFF AND DUP3 PUSH20 0xFFFFFFFFFFFFFFFFFFFFFFFFFFFFFFFFFFFFFFFF AND SUB PUSH2 0x7DB JUMPI PUSH1 0x1 DUP1 DUP1 DUP1 SLOAD SWAP1 POP PUSH2 0x6F7 SWAP2 SWAP1 PUSH2 0xDFE JUMP JUMPDEST DUP2 SLOAD DUP2 LT PUSH2 0x708 JUMPI PUSH2 0x707 PUSH2 0xDA0 JUMP JUMPDEST JUMPDEST SWAP1 PUSH1 0x0 MSTORE PUSH1 0x20 PUSH1 0x0 KECCAK256 ADD PUSH1 0x0 SWAP1 SLOAD SWAP1 PUSH2 0x100 EXP SWAP1 DIV PUSH20 0xFFFFFFFFFFFFFFFFFFFFFFFFFFFFFFFFFFFFFFFF AND PUSH1 0x1 DUP3 DUP2 SLOAD DUP2 LT PUSH2 0x747 JUMPI PUSH2 0x746 PUSH2 0xDA0 JUMP JUMPDEST JUMPDEST SWAP1 PUSH1 0x0 MSTORE PUSH1 0x20 PUSH1 0x0 KECCAK256 ADD PUSH1 0x0 PUSH2 0x100 EXP DUP2 SLOAD DUP2 PUSH20 0xFFFFFFFFFFFFFFFFFFFFFFFFFFFFFFFFFFFFFFFF MUL NOT AND SWAP1 DUP4 PUSH20 0xFFFFFFFFFFFFFFFFFFFFFFFFFFFFFFFFFFFFFFFF AND MUL OR SWAP1 SSTORE POP PUSH1 0x1 DUP1 SLOAD DUP1 PUSH2 0x7A1 JUMPI PUSH2 0x7A0 PUSH2 0xE32 JUMP JUMPDEST JUMPDEST PUSH1 0x1 SWAP1 SUB DUP2 DUP2 SWAP1 PUSH1 0x0 MSTORE PUSH1 0x20 PUSH1 0x0 KECCAK256 ADD PUSH1 0x0 PUSH2 0x100 EXP DUP2 SLOAD SWAP1 PUSH20 0xFFFFFFFFFFFFFFFFFFFFFFFFFFFFFFFFFFFFFFFF MUL NOT AND SWAP1 SSTORE SWAP1 SSTORE PUSH2 0x7EE JUMP JUMPDEST DUP1 DUP1 PUSH2 0x7E6 SWAP1 PUSH2 0xE61 JUMP JUMPDEST SWAP2 POP POP PUSH2 0x667 JUMP JUMPDEST POP POP JUMP JUMPDEST DUP3 DUP1 SLOAD PUSH2 0x7FE SWAP1 PUSH2 0xD6F JUMP JUMPDEST SWAP1 PUSH1 0x0 MSTORE PUSH1 0x20 PUSH1 0x0 KECCAK256 SWAP1 PUSH1 0x1F ADD PUSH1 0x20 SWAP1 DIV DUP2 ADD SWAP3 DUP3 PUSH2 0x820 JUMPI PUSH1 0x0 DUP6 SSTORE PUSH2 0x867 JUMP JUMPDEST DUP3 PUSH1 0x1F LT PUSH2 0x839 JUMPI DUP1 MLOAD PUSH1 0xFF NOT AND DUP4 DUP1 ADD OR DUP6 SSTORE PUSH2 0x867 JUMP JUMPDEST DUP3 DUP1 ADD PUSH1 0x1 ADD DUP6 SSTORE DUP3 ISZERO PUSH2 0x867 JUMPI SWAP2 DUP3 ADD JUMPDEST DUP3 DUP2 GT ISZERO PUSH2 0x866 JUMPI DUP3 MLOAD DUP3 SSTORE SWAP2 PUSH1 0x20 ADD SWAP2 SWAP1 PUSH1 0x1 ADD SWAP1 PUSH2 0x84B JUMP JUMPDEST JUMPDEST POP SWAP1 POP PUSH2 0x874 SWAP2 SWAP1 PUSH2 0x878 JUMP JUMPDEST POP SWAP1 JUMP JUMPDEST JUMPDEST DUP1 DUP3 GT ISZERO PUSH2 0x891 JUMPI PUSH1 0x0 DUP2 PUSH1 0x0 SWAP1 SSTORE POP PUSH1 0x1 ADD PUSH2 0x879 JUMP JUMPDEST POP SWAP1 JUMP JUMPDEST PUSH1 0x0 PUSH1 0x40 MLOAD SWAP1 POP SWAP1 JUMP JUMPDEST PUSH1 0x0 DUP1 REVERT JUMPDEST PUSH1 0x0 DUP1 REVERT JUMPDEST PUSH1 0x0 DUP2 SWAP1 POP SWAP2 SWAP1 POP JUMP JUMPDEST PUSH2 0x8BC DUP2 PUSH2 0x8A9 JUMP JUMPDEST DUP2 EQ PUSH2 0x8C7 JUMPI PUSH1 0x0 DUP1 REVERT JUMPDEST POP JUMP JUMPDEST PUSH1 0x0 DUP2 CALLDATALOAD SWAP1 POP PUSH2 0x8D9 DUP2 PUSH2 0x8B3 JUMP JUMPDEST SWAP3 SWAP2 POP POP JUMP JUMPDEST PUSH1 0x0 PUSH1 0x20 DUP3 DUP5 SUB SLT ISZERO PUSH2 0x8F5 JUMPI PUSH2 0x8F4 PUSH2 0x89F JUMP JUMPDEST JUMPDEST PUSH1 0x0 PUSH2 0x903 DUP5 DUP3 DUP6 ADD PUSH2 0x8CA JUMP JUMPDEST SWAP2 POP POP SWAP3 SWAP2 POP POP JUMP JUMPDEST PUSH1 0x0 DUP2 MLOAD SWAP1 POP SWAP2 SWAP1 POP JUMP JUMPDEST PUSH1 0x0 DUP3 DUP3 MSTORE PUSH1 0x20 DUP3 ADD SWAP1 POP SWAP3 SWAP2 POP POP JUMP JUMPDEST PUSH1 0x0 JUMPDEST DUP4 DUP2 LT ISZERO PUSH2 0x946 JUMPI DUP1 DUP3 ADD MLOAD DUP2 DUP5 ADD MSTORE PUSH1 0x20 DUP2 ADD SWAP1 POP PUSH2 0x92B JUMP JUMPDEST DUP4 DUP2 GT ISZERO PUSH2 0x955 JUMPI PUSH1 0x0 DUP5 DUP5 ADD MSTORE JUMPDEST POP POP POP POP JUMP JUMPDEST PUSH1 0x0 PUSH1 0x1F NOT PUSH1 0x1F DUP4 ADD AND SWAP1 POP SWAP2 SWAP1 POP JUMP JUMPDEST PUSH1 0x0 PUSH2 0x977 DUP3 PUSH2 0x90C JUMP JUMPDEST PUSH2 0x981 DUP2 DUP6 PUSH2 0x917 JUMP JUMPDEST SWAP4 POP PUSH2 0x991 DUP2 DUP6 PUSH1 0x20 DUP7 ADD PUSH2 0x928 JUMP JUMPDEST PUSH2 0x99A DUP2 PUSH2 0x95B JUMP JUMPDEST DUP5 ADD SWAP2 POP POP SWAP3 SWAP2 POP POP JUMP JUMPDEST PUSH1 0x0 PUSH1 0x40 DUP3 ADD SWAP1 POP DUP2 DUP2 SUB PUSH1 0x0 DUP4 ADD MSTORE PUSH2 0x9BF DUP2 DUP6 PUSH2 0x96C JUMP JUMPDEST SWAP1 POP DUP2 DUP2 SUB PUSH1 0x20 DUP4 ADD MSTORE PUSH2 0x9D3 DUP2 DUP5 PUSH2 0x96C JUMP JUMPDEST SWAP1 POP SWAP4 SWAP3 POP POP POP JUMP JUMPDEST PUSH1 0x0 PUSH20 0xFFFFFFFFFFFFFFFFFFFFFFFFFFFFFFFFFFFFFFFF DUP3 AND SWAP1 POP SWAP2 SWAP1 POP JUMP JUMPDEST PUSH1 0x0 PUSH2 0xA07 DUP3 PUSH2 0x9DC JUMP JUMPDEST SWAP1 POP SWAP2 SWAP1 POP JUMP JUMPDEST PUSH2 0xA17 DUP2 PUSH2 0x9FC JUMP JUMPDEST DUP3 MSTORE POP POP JUMP JUMPDEST PUSH1 0x0 PUSH1 0x20 DUP3 ADD SWAP1 POP PUSH2 0xA32 PUSH1 0x0 DUP4 ADD DUP5 PUSH2 0xA0E JUMP JUMPDEST SWAP3 SWAP2 POP POP JUMP JUMPDEST PUSH1 0x0 DUP1 REVERT JUMPDEST PUSH1 0x0 DUP1 REVERT JUMPDEST PUSH32 0x4E487B7100000000000000000000000000000000000000000000000000000000 PUSH1 0x0 MSTORE PUSH1 0x41 PUSH1 0x4 MSTORE PUSH1 0x24 PUSH1 0x0 REVERT JUMPDEST PUSH2 0xA7A DUP3 PUSH2 0x95B JUMP JUMPDEST DUP2 ADD DUP2 DUP2 LT PUSH8 0xFFFFFFFFFFFFFFFF DUP3 GT OR ISZERO PUSH2 0xA99 JUMPI PUSH2 0xA98 PUSH2 0xA42 JUMP JUMPDEST JUMPDEST DUP1 PUSH1 0x40 MSTORE POP POP POP JUMP JUMPDEST PUSH1 0x0 PUSH2 0xAAC PUSH2 0x895 JUMP JUMPDEST SWAP1 POP PUSH2 0xAB8 DUP3 DUP3 PUSH2 0xA71 JUMP JUMPDEST SWAP2 SWAP1 POP JUMP JUMPDEST PUSH1 0x0 PUSH8 0xFFFFFFFFFFFFFFFF DUP3 GT ISZERO PUSH2 0xAD8 JUMPI PUSH2 0xAD7 PUSH2 0xA42 JUMP JUMPDEST JUMPDEST PUSH2 0xAE1 DUP3 PUSH2 0x95B JUMP JUMPDEST SWAP1 POP PUSH1 0x20 DUP2 ADD SWAP1 POP SWAP2 SWAP1 POP JUMP JUMPDEST DUP3 DUP2 DUP4 CALLDATACOPY PUSH1 0x0 DUP4 DUP4 ADD MSTORE POP POP POP JUMP JUMPDEST PUSH1 0x0 PUSH2 0xB10 PUSH2 0xB0B DUP5 PUSH2 0xABD JUMP JUMPDEST PUSH2 0xAA2 JUMP JUMPDEST SWAP1 POP DUP3 DUP2 MSTORE PUSH1 0x20 DUP2 ADD DUP5 DUP5 DUP5 ADD GT ISZERO PUSH2 0xB2C JUMPI PUSH2 0xB2B PUSH2 0xA3D JUMP JUMPDEST JUMPDEST PUSH2 0xB37 DUP5 DUP3 DUP6 PUSH2 0xAEE JUMP JUMPDEST POP SWAP4 SWAP3 POP POP POP JUMP JUMPDEST PUSH1 0x0 DUP3 PUSH1 0x1F DUP4 ADD SLT PUSH2 0xB54 JUMPI PUSH2 0xB53 PUSH2 0xA38 JUMP JUMPDEST JUMPDEST DUP2 CALLDATALOAD PUSH2 0xB64 DUP5 DUP3 PUSH1 0x20 DUP7 ADD PUSH2 0xAFD JUMP JUMPDEST SWAP2 POP POP SWAP3 SWAP2 POP POP JUMP JUMPDEST PUSH1 0x0 DUP1 PUSH1 0x40 DUP4 DUP6 SUB SLT ISZERO PUSH2 0xB84 JUMPI PUSH2 0xB83 PUSH2 0x89F JUMP JUMPDEST JUMPDEST PUSH1 0x0 DUP4 ADD CALLDATALOAD PUSH8 0xFFFFFFFFFFFFFFFF DUP2 GT ISZERO PUSH2 0xBA2 JUMPI PUSH2 0xBA1 PUSH2 0x8A4 JUMP JUMPDEST JUMPDEST PUSH2 0xBAE DUP6 DUP3 DUP7 ADD PUSH2 0xB3F JUMP JUMPDEST SWAP3 POP POP PUSH1 0x20 DUP4 ADD CALLDATALOAD PUSH8 0xFFFFFFFFFFFFFFFF DUP2 GT ISZERO PUSH2 0xBCF JUMPI PUSH2 0xBCE PUSH2 0x8A4 JUMP JUMPDEST JUMPDEST PUSH2 0xBDB DUP6 DUP3 DUP7 ADD PUSH2 0xB3F JUMP JUMPDEST SWAP2 POP POP SWAP3 POP SWAP3 SWAP1 POP JUMP JUMPDEST PUSH1 0x0 PUSH1 0x20 DUP3 ADD SWAP1 POP DUP2 DUP2 SUB PUSH1 0x0 DUP4 ADD MSTORE PUSH2 0xBFF DUP2 DUP5 PUSH2 0x96C JUMP JUMPDEST SWAP1 POP SWAP3 SWAP2 POP POP JUMP JUMPDEST PUSH1 0x0 DUP2 MLOAD SWAP1 POP SWAP2 SWAP1 POP JUMP JUMPDEST PUSH1 0x0 DUP3 DUP3 MSTORE PUSH1 0x20 DUP3 ADD SWAP1 POP SWAP3 SWAP2 POP POP JUMP JUMPDEST PUSH1 0x0 DUP2 SWAP1 POP PUSH1 0x20 DUP3 ADD SWAP1 POP SWAP2 SWAP1 POP JUMP JUMPDEST PUSH2 0xC3C DUP2 PUSH2 0x9FC JUMP JUMPDEST DUP3 MSTORE POP POP JUMP JUMPDEST PUSH1 0x0 PUSH2 0xC4E DUP4 DUP4 PUSH2 0xC33 JUMP JUMPDEST PUSH1 0x20 DUP4 ADD SWAP1 POP SWAP3 SWAP2 POP POP JUMP JUMPDEST PUSH1 0x0 PUSH1 0x20 DUP3 ADD SWAP1 POP SWAP2 SWAP1 POP JUMP JUMPDEST PUSH1 0x0 PUSH2 0xC72 DUP3 PUSH2 0xC07 JUMP JUMPDEST PUSH2 0xC7C DUP2 DUP6 PUSH2 0xC12 JUMP JUMPDEST SWAP4 POP PUSH2 0xC87 DUP4 PUSH2 0xC23 JUMP JUMPDEST DUP1 PUSH1 0x0 JUMPDEST DUP4 DUP2 LT ISZERO PUSH2 0xCB8 JUMPI DUP2 MLOAD PUSH2 0xC9F DUP9 DUP3 PUSH2 0xC42 JUMP JUMPDEST SWAP8 POP PUSH2 0xCAA DUP4 PUSH2 0xC5A JUMP JUMPDEST SWAP3 POP POP PUSH1 0x1 DUP2 ADD SWAP1 POP PUSH2 0xC8B JUMP JUMPDEST POP DUP6 SWAP4 POP POP POP POP SWAP3 SWAP2 POP POP JUMP JUMPDEST PUSH1 0x0 PUSH1 0x20 DUP3 ADD SWAP1 POP DUP2 DUP2 SUB PUSH1 0x0 DUP4 ADD MSTORE PUSH2 0xCDF DUP2 DUP5 PUSH2 0xC67 JUMP JUMPDEST SWAP1 POP SWAP3 SWAP2 POP POP JUMP JUMPDEST PUSH2 0xCF0 DUP2 PUSH2 0x9FC JUMP JUMPDEST DUP2 EQ PUSH2 0xCFB JUMPI PUSH1 0x0 DUP1 REVERT JUMPDEST POP JUMP JUMPDEST PUSH1 0x0 DUP2 CALLDATALOAD SWAP1 POP PUSH2 0xD0D DUP2 PUSH2 0xCE7 JUMP JUMPDEST SWAP3 SWAP2 POP POP JUMP JUMPDEST PUSH1 0x0 PUSH1 0x20 DUP3 DUP5 SUB SLT ISZERO PUSH2 0xD29 JUMPI PUSH2 0xD28 PUSH2 0x89F JUMP JUMPDEST JUMPDEST PUSH1 0x0 PUSH2 0xD37 DUP5 DUP3 DUP6 ADD PUSH2 0xCFE JUMP JUMPDEST SWAP2 POP POP SWAP3 SWAP2 POP POP JUMP JUMPDEST PUSH32 0x4E487B7100000000000000000000000000000000000000000000000000000000 PUSH1 0x0 MSTORE PUSH1 0x22 PUSH1 0x4 MSTORE PUSH1 0x24 PUSH1 0x0 REVERT JUMPDEST PUSH1 0x0 PUSH1 0x2 DUP3 DIV SWAP1 POP PUSH1 0x1 DUP3 AND DUP1 PUSH2 0xD87 JUMPI PUSH1 0x7F DUP3 AND SWAP2 POP JUMPDEST PUSH1 0x20 DUP3 LT DUP2 SUB PUSH2 0xD9A JUMPI PUSH2 0xD99 PUSH2 0xD40 JUMP JUMPDEST JUMPDEST POP SWAP2 SWAP1 POP JUMP JUMPDEST PUSH32 0x4E487B7100000000000000000000000000000000000000000000000000000000 PUSH1 0x0 MSTORE PUSH1 0x32 PUSH1 0x4 MSTORE PUSH1 0x24 PUSH1 0x0 REVERT JUMPDEST PUSH32 0x4E487B7100000000000000000000000000000000000000000000000000000000 PUSH1 0x0 MSTORE PUSH1 0x11 PUSH1 0x4 MSTORE PUSH1 0x24 PUSH1 0x0 REVERT JUMPDEST PUSH1 0x0 PUSH2 0xE09 DUP3 PUSH2 0x8A9 JUMP JUMPDEST SWAP2 POP PUSH2 0xE14 DUP4 PUSH2 0x8A9 JUMP JUMPDEST SWAP3 POP DUP3 DUP3 LT ISZERO PUSH2 0xE27 JUMPI PUSH2 0xE26 PUSH2 0xDCF JUMP JUMPDEST JUMPDEST DUP3 DUP3 SUB SWAP1 POP SWAP3 SWAP2 POP POP JUMP JUMPDEST PUSH32 0x4E487B7100000000000000000000000000000000000000000000000000000000 PUSH1 0x0 MSTORE PUSH1 0x31 PUSH1 0x4 MSTORE PUSH1 0x24 PUSH1 0x0 REVERT JUMPDEST PUSH1 0x0 PUSH2 0xE6C DUP3 PUSH2 0x8A9 JUMP JUMPDEST SWAP2 POP PUSH32 0xFFFFFFFFFFFFFFFFFFFFFFFFFFFFFFFFFFFFFFFFFFFFFFFFFFFFFFFFFFFFFFFF DUP3 SUB PUSH2 0xE9E JUMPI PUSH2 0xE9D PUSH2 0xDCF JUMP JUMPDEST JUMPDEST PUSH1 0x1 DUP3 ADD SWAP1 POP SWAP2 SWAP1 POP JUMP INVALID LOG2 PUSH5 0x6970667358 0x22 SLT KECCAK256 BYTE 0xDB DUP14 DELEGATECALL GAS 0xE 0x49 PUSH28 0xA17430C5283A7582E8AC3AA2495AACB09926EB1A87F90CBD64736F6C PUSH4 0x4300080D STOP CALLER "
    },
    "gasEstimates": {
      "creation": {
        "codeDepositCost": "761400",
        "executionCost": "infinite",
        "totalCost": "infinite"
      },
      "external": {
        "deleteOwner(address)": "infinite",
        "documentName()": "infinite",
        "getOwners()": "infinite",
        "ipfsHash()": "infinite",
        "ownerAddresses(uint256)": "4979",
        "revisions(uint256)": "infinite",
        "updateDocument(string,string)": "infinite"
      }
    },
    "methodIdentifiers": {
      "deleteOwner(address)": "cd5c4c70",
      "documentName()": "6b465601",
      "getOwners()": "a0e67e2b",
      "ipfsHash()": "c623674f",
      "ownerAddresses(uint256)": "0f310b17",
      "revisions(uint256)": "0ef486d1",
      "updateDocument(string,string)": "4d300e0c"
    }
  },
  "storageLayout": {
    "storage": [
      {
        "astId": 8,
        "contract": "DocumentContract.sol:DocumentContract",
        "label": "ipfsHash",
        "offset": 0,
        "slot": "0",
        "type": "t_string_storage"
      },
      {
        "astId": 11,
        "contract": "DocumentContract.sol:DocumentContract",
        "label": "ownerAddresses",
        "offset": 0,
        "slot": "1",
        "type": "t_array(t_address)dyn_storage"
      },
      {
        "astId": 13,
        "contract": "DocumentContract.sol:DocumentContract",
        "label": "documentName",
        "offset": 0,
        "slot": "2",
        "type": "t_string_storage"
      },
      {
        "astId": 41,
        "contract": "DocumentContract.sol:DocumentContract",
        "label": "revisions",
        "offset": 0,
        "slot": "3",
        "type": "t_array(t_struct(RevisionDocument)6_storage)dyn_storage"
      }
    ],
    "types": {
      "t_address": {
        "encoding": "inplace",
        "label": "address",
        "numberOfBytes": "20"
      },
      "t_array(t_address)dyn_storage": {
        "base": "t_address",
        "encoding": "dynamic_array",
        "label": "address[]",
        "numberOfBytes": "32"
      },
      "t_array(t_struct(RevisionDocument)6_storage)dyn_storage": {
        "base": "t_struct(RevisionDocument)6_storage",
        "encoding": "dynamic_array",
        "label": "struct DocumentContract.RevisionDocument[]",
        "numberOfBytes": "32"
      },
      "t_string_storage": {
        "encoding": "bytes",
        "label": "string",
        "numberOfBytes": "32"
      },
      "t_struct(RevisionDocument)6_storage": {
        "encoding": "inplace",
        "label": "struct DocumentContract.RevisionDocument",
        "members": [
          {
            "astId": 3,
            "contract": "DocumentContract.sol:DocumentContract",
            "label": "name",
            "offset": 0,
            "slot": "0",
            "type": "t_string_storage"
          },
          {
            "astId": 5,
            "contract": "DocumentContract.sol:DocumentContract",
            "label": "ipfsHash",
            "offset": 0,
            "slot": "1",
            "type": "t_string_storage"
          }
        ],
        "numberOfBytes": "64"
      }
    }
  },
  "userdoc": {
    "kind": "user",
    "methods": {},
    "version": 1
  }
}