{
  "abi": [
    {
      "inputs": [
        {
          "internalType": "address",
          "name": "owner",
          "type": "address"
        },
        {
          "internalType": "contract DocumentContract",
          "name": "document",
          "type": "address"
        }
      ],
      "name": "deleteOwnerFromDocument",
      "outputs": [],
      "stateMutability": "nonpayable",
      "type": "function"
    },
    {
      "inputs": [
        {
          "internalType": "address",
          "name": "owner",
          "type": "address"
        }
      ],
      "name": "getListOfDocuments",
      "outputs": [
        {
          "internalType": "contract DocumentContract[]",
          "name": "",
          "type": "address[]"
        }
      ],
      "stateMutability": "view",
      "type": "function"
    },
    {
      "inputs": [
        {
          "internalType": "address",
          "name": "",
          "type": "address"
        },
        {
          "internalType": "uint256",
          "name": "",
          "type": "uint256"
        }
      ],
      "name": "owners",
      "outputs": [
        {
          "internalType": "contract DocumentContract",
          "name": "",
          "type": "address"
        }
      ],
      "stateMutability": "view",
      "type": "function"
    },
    {
      "inputs": [
        {
          "internalType": "address",
          "name": "newAddress",
          "type": "address"
        }
      ],
      "name": "setServerAddress",
      "outputs": [],
      "stateMutability": "nonpayable",
      "type": "function"
    },
    {
      "inputs": [
        {
          "internalType": "string",
          "name": "ipfsHash",
          "type": "string"
        },
        {
          "internalType": "address",
          "name": "ownerAddress",
          "type": "address"
        },
        {
          "internalType": "string",
          "name": "documentName",
          "type": "string"
        }
      ],
      "name": "uploadDocument",
      "outputs": [],
      "stateMutability": "nonpayable",
      "type": "function"
    }
  ],
  "devdoc": {
    "kind": "dev",
    "methods": {},
    "version": 1
  },
  "evm": {
    "assembly": "    /* \"MasterContract.sol\":67:1257  contract MasterContract {... */\n  mstore(0x40, 0x80)\n    /* \"MasterContract.sol\":129:171  0x21f93e128a6D7926A37DF0c2a94bd0248ea343eF */\n  0x21f93e128a6d7926a37df0c2a94bd0248ea343ef\n    /* \"MasterContract.sol\":97:171  address private serverAddress = 0x21f93e128a6D7926A37DF0c2a94bd0248ea343eF */\n  0x00\n  dup1\n  0x0100\n  exp\n  dup2\n  sload\n  dup2\n  0xffffffffffffffffffffffffffffffffffffffff\n  mul\n  not\n  and\n  swap1\n  dup4\n  0xffffffffffffffffffffffffffffffffffffffff\n  and\n  mul\n  or\n  swap1\n  sstore\n  pop\n    /* \"MasterContract.sol\":67:1257  contract MasterContract {... */\n  callvalue\n  dup1\n  iszero\n  tag_1\n  jumpi\n  0x00\n  dup1\n  revert\ntag_1:\n  pop\n  dataSize(sub_0)\n  dup1\n  dataOffset(sub_0)\n  0x00\n  codecopy\n  0x00\n  return\nstop\n\nsub_0: assembly {\n        /* \"MasterContract.sol\":67:1257  contract MasterContract {... */\n      mstore(0x40, 0x80)\n      callvalue\n      dup1\n      iszero\n      tag_1\n      jumpi\n      0x00\n      dup1\n      revert\n    tag_1:\n      pop\n      jumpi(tag_2, lt(calldatasize, 0x04))\n      shr(0xe0, calldataload(0x00))\n      dup1\n      0x1e3bb6ae\n      eq\n      tag_3\n      jumpi\n      dup1\n      0x42b67595\n      eq\n      tag_4\n      jumpi\n      dup1\n      0x47b64eb0\n      eq\n      tag_5\n      jumpi\n      dup1\n      0x9b3e2787\n      eq\n      tag_6\n      jumpi\n      dup1\n      0xdfc9f2ea\n      eq\n      tag_7\n      jumpi\n    tag_2:\n      0x00\n      dup1\n      revert\n        /* \"MasterContract.sol\":708:1154  function deleteOwnerFromDocument(address owner, DocumentContract document) public{... */\n    tag_3:\n      tag_8\n      0x04\n      dup1\n      calldatasize\n      sub\n      dup2\n      add\n      swap1\n      tag_9\n      swap2\n      swap1\n      tag_10\n      jump\t// in\n    tag_9:\n      tag_11\n      jump\t// in\n    tag_8:\n      stop\n        /* \"MasterContract.sol\":510:702  function uploadDocument(string memory ipfsHash, address ownerAddress, string memory documentName) public{... */\n    tag_4:\n      tag_12\n      0x04\n      dup1\n      calldatasize\n      sub\n      dup2\n      add\n      swap1\n      tag_13\n      swap2\n      swap1\n      tag_14\n      jump\t// in\n    tag_13:\n      tag_15\n      jump\t// in\n    tag_12:\n      stop\n        /* \"MasterContract.sol\":1160:1255  function setServerAddress(address newAddress) public{... */\n    tag_5:\n      tag_16\n      0x04\n      dup1\n      calldatasize\n      sub\n      dup2\n      add\n      swap1\n      tag_17\n      swap2\n      swap1\n      tag_18\n      jump\t// in\n    tag_17:\n      tag_19\n      jump\t// in\n    tag_16:\n      stop\n        /* \"MasterContract.sol\":319:371  mapping(address => DocumentContract[]) public owners */\n    tag_6:\n      tag_20\n      0x04\n      dup1\n      calldatasize\n      sub\n      dup2\n      add\n      swap1\n      tag_21\n      swap2\n      swap1\n      tag_22\n      jump\t// in\n    tag_21:\n      tag_23\n      jump\t// in\n    tag_20:\n      mload(0x40)\n      tag_24\n      swap2\n      swap1\n      tag_25\n      jump\t// in\n    tag_24:\n      mload(0x40)\n      dup1\n      swap2\n      sub\n      swap1\n      return\n        /* \"MasterContract.sol\":378:504  function getListOfDocuments(address owner) public view returns(DocumentContract[] memory){... */\n    tag_7:\n      tag_26\n      0x04\n      dup1\n      calldatasize\n      sub\n      dup2\n      add\n      swap1\n      tag_27\n      swap2\n      swap1\n      tag_18\n      jump\t// in\n    tag_27:\n      tag_28\n      jump\t// in\n    tag_26:\n      mload(0x40)\n      tag_29\n      swap2\n      swap1\n      tag_30\n      jump\t// in\n    tag_29:\n      mload(0x40)\n      dup1\n      swap2\n      sub\n      swap1\n      return\n        /* \"MasterContract.sol\":708:1154  function deleteOwnerFromDocument(address owner, DocumentContract document) public{... */\n    tag_11:\n        /* \"MasterContract.sol\":799:834  DocumentContract[] memory documents */\n      0x00\n        /* \"MasterContract.sol\":837:843  owners */\n      0x01\n        /* \"MasterContract.sol\":837:850  owners[owner] */\n      0x00\n        /* \"MasterContract.sol\":844:849  owner */\n      dup5\n        /* \"MasterContract.sol\":837:850  owners[owner] */\n      0xffffffffffffffffffffffffffffffffffffffff\n      and\n      0xffffffffffffffffffffffffffffffffffffffff\n      and\n      dup2\n      mstore\n      0x20\n      add\n      swap1\n      dup2\n      mstore\n      0x20\n      add\n      0x00\n      keccak256\n        /* \"MasterContract.sol\":799:850  DocumentContract[] memory documents = owners[owner] */\n      dup1\n      sload\n      dup1\n      0x20\n      mul\n      0x20\n      add\n      mload(0x40)\n      swap1\n      dup2\n      add\n      0x40\n      mstore\n      dup1\n      swap3\n      swap2\n      swap1\n      dup2\n      dup2\n      mstore\n      0x20\n      add\n      dup3\n      dup1\n      sload\n      dup1\n      iszero\n      tag_32\n      jumpi\n      0x20\n      mul\n      dup3\n      add\n      swap2\n      swap1\n      0x00\n      mstore\n      keccak256(0x00, 0x20)\n      swap1\n    tag_33:\n      dup2\n      0x00\n      swap1\n      sload\n      swap1\n      0x0100\n      exp\n      swap1\n      div\n      0xffffffffffffffffffffffffffffffffffffffff\n      and\n      0xffffffffffffffffffffffffffffffffffffffff\n      and\n      dup2\n      mstore\n      0x20\n      add\n      swap1\n      0x01\n      add\n      swap1\n      dup1\n      dup4\n      gt\n      tag_33\n      jumpi\n    tag_32:\n      pop\n      pop\n      pop\n      pop\n      pop\n      swap1\n      pop\n        /* \"MasterContract.sol\":864:870  uint i */\n      0x00\n        /* \"MasterContract.sol\":860:1112  for(uint i = 0; i < documents.length; i++){... */\n    tag_34:\n        /* \"MasterContract.sol\":880:889  documents */\n      dup2\n        /* \"MasterContract.sol\":880:896  documents.length */\n      mload\n        /* \"MasterContract.sol\":876:877  i */\n      dup2\n        /* \"MasterContract.sol\":876:896  i < documents.length */\n      lt\n        /* \"MasterContract.sol\":860:1112  for(uint i = 0; i < documents.length; i++){... */\n      iszero\n      tag_35\n      jumpi\n        /* \"MasterContract.sol\":935:943  document */\n      dup3\n        /* \"MasterContract.sol\":919:943  documents[i] == document */\n      0xffffffffffffffffffffffffffffffffffffffff\n      and\n        /* \"MasterContract.sol\":919:928  documents */\n      dup3\n        /* \"MasterContract.sol\":929:930  i */\n      dup3\n        /* \"MasterContract.sol\":919:931  documents[i] */\n      dup2\n      mload\n      dup2\n      lt\n      tag_37\n      jumpi\n      tag_38\n      tag_39\n      jump\t// in\n    tag_38:\n    tag_37:\n      0x20\n      mul\n      0x20\n      add\n      add\n      mload\n        /* \"MasterContract.sol\":919:943  documents[i] == document */\n      0xffffffffffffffffffffffffffffffffffffffff\n      and\n      sub\n        /* \"MasterContract.sol\":916:1102  if(documents[i] == document){... */\n      tag_40\n      jumpi\n        /* \"MasterContract.sol\":977:986  documents */\n      dup2\n        /* \"MasterContract.sol\":1006:1007  1 */\n      0x01\n        /* \"MasterContract.sol\":987:996  documents */\n      dup4\n        /* \"MasterContract.sol\":987:1003  documents.length */\n      mload\n        /* \"MasterContract.sol\":987:1007  documents.length - 1 */\n      tag_41\n      swap2\n      swap1\n      tag_42\n      jump\t// in\n    tag_41:\n        /* \"MasterContract.sol\":977:1008  documents[documents.length - 1] */\n      dup2\n      mload\n      dup2\n      lt\n      tag_43\n      jumpi\n      tag_44\n      tag_39\n      jump\t// in\n    tag_44:\n    tag_43:\n      0x20\n      mul\n      0x20\n      add\n      add\n      mload\n        /* \"MasterContract.sol\":962:971  documents */\n      dup3\n        /* \"MasterContract.sol\":972:973  i */\n      dup3\n        /* \"MasterContract.sol\":962:974  documents[i] */\n      dup2\n      mload\n      dup2\n      lt\n      tag_45\n      jumpi\n      tag_46\n      tag_39\n      jump\t// in\n    tag_46:\n    tag_45:\n      0x20\n      mul\n      0x20\n      add\n      add\n        /* \"MasterContract.sol\":962:1008  documents[i] = documents[documents.length - 1] */\n      swap1\n      0xffffffffffffffffffffffffffffffffffffffff\n      and\n      swap1\n      dup2\n      0xffffffffffffffffffffffffffffffffffffffff\n      and\n      dup2\n      mstore\n      pop\n      pop\n        /* \"MasterContract.sol\":1033:1042  documents */\n      dup2\n        /* \"MasterContract.sol\":1062:1063  1 */\n      0x01\n        /* \"MasterContract.sol\":1043:1052  documents */\n      dup4\n        /* \"MasterContract.sol\":1043:1059  documents.length */\n      mload\n        /* \"MasterContract.sol\":1043:1063  documents.length - 1 */\n      tag_47\n      swap2\n      swap1\n      tag_42\n      jump\t// in\n    tag_47:\n        /* \"MasterContract.sol\":1033:1064  documents[documents.length - 1] */\n      dup2\n      mload\n      dup2\n      lt\n      tag_48\n      jumpi\n      tag_49\n      tag_39\n      jump\t// in\n    tag_49:\n    tag_48:\n      0x20\n      mul\n      0x20\n      add\n      add\n        /* \"MasterContract.sol\":1026:1064  delete documents[documents.length - 1] */\n      and(0xffffffffffffffffffffffffffffffffffffffff, 0x00)\n      dup2\n      mstore\n      pop\n        /* \"MasterContract.sol\":1082:1087  break */\n      jump(tag_35)\n        /* \"MasterContract.sol\":916:1102  if(documents[i] == document){... */\n    tag_40:\n        /* \"MasterContract.sol\":898:901  i++ */\n      dup1\n      dup1\n      tag_50\n      swap1\n      tag_51\n      jump\t// in\n    tag_50:\n      swap2\n      pop\n      pop\n        /* \"MasterContract.sol\":860:1112  for(uint i = 0; i < documents.length; i++){... */\n      jump(tag_34)\n    tag_35:\n      pop\n        /* \"MasterContract.sol\":1138:1147  documents */\n      dup1\n        /* \"MasterContract.sol\":1122:1128  owners */\n      0x01\n        /* \"MasterContract.sol\":1122:1135  owners[owner] */\n      0x00\n        /* \"MasterContract.sol\":1129:1134  owner */\n      dup6\n        /* \"MasterContract.sol\":1122:1135  owners[owner] */\n      0xffffffffffffffffffffffffffffffffffffffff\n      and\n      0xffffffffffffffffffffffffffffffffffffffff\n      and\n      dup2\n      mstore\n      0x20\n      add\n      swap1\n      dup2\n      mstore\n      0x20\n      add\n      0x00\n      keccak256\n        /* \"MasterContract.sol\":1122:1147  owners[owner] = documents */\n      swap1\n      dup1\n      mload\n      swap1\n      0x20\n      add\n      swap1\n      tag_52\n      swap3\n      swap2\n      swap1\n      tag_53\n      jump\t// in\n    tag_52:\n      pop\n        /* \"MasterContract.sol\":789:1154  {... */\n      pop\n        /* \"MasterContract.sol\":708:1154  function deleteOwnerFromDocument(address owner, DocumentContract document) public{... */\n      pop\n      pop\n      jump\t// out\n        /* \"MasterContract.sol\":510:702  function uploadDocument(string memory ipfsHash, address ownerAddress, string memory documentName) public{... */\n    tag_15:\n        /* \"MasterContract.sol\":624:630  owners */\n      0x01\n        /* \"MasterContract.sol\":624:644  owners[ownerAddress] */\n      0x00\n        /* \"MasterContract.sol\":631:643  ownerAddress */\n      dup4\n        /* \"MasterContract.sol\":624:644  owners[ownerAddress] */\n      0xffffffffffffffffffffffffffffffffffffffff\n      and\n      0xffffffffffffffffffffffffffffffffffffffff\n      and\n      dup2\n      mstore\n      0x20\n      add\n      swap1\n      dup2\n      mstore\n      0x20\n      add\n      0x00\n      keccak256\n        /* \"MasterContract.sol\":671:679  ipfsHash */\n      dup4\n        /* \"MasterContract.sol\":681:693  documentName */\n      dup3\n        /* \"MasterContract.sol\":650:694  new DocumentContract(ipfsHash, documentName) */\n      mload(0x40)\n      tag_55\n      swap1\n      tag_56\n      jump\t// in\n    tag_55:\n      tag_57\n      swap3\n      swap2\n      swap1\n      tag_58\n      jump\t// in\n    tag_57:\n      mload(0x40)\n      dup1\n      swap2\n      sub\n      swap1\n      0x00\n      create\n      dup1\n      iszero\n      dup1\n      iszero\n      tag_59\n      jumpi\n      returndatasize\n      0x00\n      dup1\n      returndatacopy\n      revert(0x00, returndatasize)\n    tag_59:\n      pop\n        /* \"MasterContract.sol\":624:695  owners[ownerAddress].push(new DocumentContract(ipfsHash, documentName)) */\n      swap1\n      dup1\n      0x01\n      dup2\n      sload\n      add\n      dup1\n      dup3\n      sstore\n      dup1\n      swap2\n      pop\n      pop\n      0x01\n      swap1\n      sub\n      swap1\n      0x00\n      mstore\n      keccak256(0x00, 0x20)\n      add\n      0x00\n      swap1\n      swap2\n      swap1\n      swap2\n      swap1\n      swap2\n      0x0100\n      exp\n      dup2\n      sload\n      dup2\n      0xffffffffffffffffffffffffffffffffffffffff\n      mul\n      not\n      and\n      swap1\n      dup4\n      0xffffffffffffffffffffffffffffffffffffffff\n      and\n      mul\n      or\n      swap1\n      sstore\n      pop\n        /* \"MasterContract.sol\":510:702  function uploadDocument(string memory ipfsHash, address ownerAddress, string memory documentName) public{... */\n      pop\n      pop\n      pop\n      jump\t// out\n        /* \"MasterContract.sol\":1160:1255  function setServerAddress(address newAddress) public{... */\n    tag_19:\n        /* \"MasterContract.sol\":1238:1248  newAddress */\n      dup1\n        /* \"MasterContract.sol\":1222:1235  serverAddress */\n      0x00\n      dup1\n        /* \"MasterContract.sol\":1222:1248  serverAddress = newAddress */\n      0x0100\n      exp\n      dup2\n      sload\n      dup2\n      0xffffffffffffffffffffffffffffffffffffffff\n      mul\n      not\n      and\n      swap1\n      dup4\n      0xffffffffffffffffffffffffffffffffffffffff\n      and\n      mul\n      or\n      swap1\n      sstore\n      pop\n        /* \"MasterContract.sol\":1160:1255  function setServerAddress(address newAddress) public{... */\n      pop\n      jump\t// out\n        /* \"MasterContract.sol\":319:371  mapping(address => DocumentContract[]) public owners */\n    tag_23:\n      mstore(0x20, 0x01)\n      dup2\n      0x00\n      mstore\n      keccak256(0x00, 0x40)\n      dup2\n      dup2\n      sload\n      dup2\n      lt\n      tag_62\n      jumpi\n      0x00\n      dup1\n      revert\n    tag_62:\n      swap1\n      0x00\n      mstore\n      keccak256(0x00, 0x20)\n      add\n      0x00\n      swap2\n      pop\n      swap2\n      pop\n      swap1\n      sload\n      swap1\n      0x0100\n      exp\n      swap1\n      div\n      0xffffffffffffffffffffffffffffffffffffffff\n      and\n      dup2\n      jump\t// out\n        /* \"MasterContract.sol\":378:504  function getListOfDocuments(address owner) public view returns(DocumentContract[] memory){... */\n    tag_28:\n        /* \"MasterContract.sol\":441:466  DocumentContract[] memory */\n      0x60\n        /* \"MasterContract.sol\":484:490  owners */\n      0x01\n        /* \"MasterContract.sol\":484:497  owners[owner] */\n      0x00\n        /* \"MasterContract.sol\":491:496  owner */\n      dup4\n        /* \"MasterContract.sol\":484:497  owners[owner] */\n      0xffffffffffffffffffffffffffffffffffffffff\n      and\n      0xffffffffffffffffffffffffffffffffffffffff\n      and\n      dup2\n      mstore\n      0x20\n      add\n      swap1\n      dup2\n      mstore\n      0x20\n      add\n      0x00\n      keccak256\n        /* \"MasterContract.sol\":477:497  return owners[owner] */\n      dup1\n      sload\n      dup1\n      0x20\n      mul\n      0x20\n      add\n      mload(0x40)\n      swap1\n      dup2\n      add\n      0x40\n      mstore\n      dup1\n      swap3\n      swap2\n      swap1\n      dup2\n      dup2\n      mstore\n      0x20\n      add\n      dup3\n      dup1\n      sload\n      dup1\n      iszero\n      tag_65\n      jumpi\n      0x20\n      mul\n      dup3\n      add\n      swap2\n      swap1\n      0x00\n      mstore\n      keccak256(0x00, 0x20)\n      swap1\n    tag_66:\n      dup2\n      0x00\n      swap1\n      sload\n      swap1\n      0x0100\n      exp\n      swap1\n      div\n      0xffffffffffffffffffffffffffffffffffffffff\n      and\n      0xffffffffffffffffffffffffffffffffffffffff\n      and\n      dup2\n      mstore\n      0x20\n      add\n      swap1\n      0x01\n      add\n      swap1\n      dup1\n      dup4\n      gt\n      tag_66\n      jumpi\n    tag_65:\n      pop\n      pop\n      pop\n      pop\n      pop\n      swap1\n      pop\n        /* \"MasterContract.sol\":378:504  function getListOfDocuments(address owner) public view returns(DocumentContract[] memory){... */\n      swap2\n      swap1\n      pop\n      jump\t// out\n    tag_53:\n      dup3\n      dup1\n      sload\n      dup3\n      dup3\n      sstore\n      swap1\n      0x00\n      mstore\n      keccak256(0x00, 0x20)\n      swap1\n      dup2\n      add\n      swap3\n      dup3\n      iszero\n      tag_67\n      jumpi\n      swap2\n      0x20\n      mul\n      dup3\n      add\n    tag_68:\n      dup3\n      dup2\n      gt\n      iszero\n      tag_69\n      jumpi\n      dup3\n      mload\n      dup3\n      exp(0x0100, 0x00)\n      dup2\n      sload\n      dup2\n      0xffffffffffffffffffffffffffffffffffffffff\n      mul\n      not\n      and\n      swap1\n      dup4\n      0xffffffffffffffffffffffffffffffffffffffff\n      and\n      mul\n      or\n      swap1\n      sstore\n      pop\n      swap2\n      0x20\n      add\n      swap2\n      swap1\n      0x01\n      add\n      swap1\n      jump(tag_68)\n    tag_69:\n    tag_67:\n      pop\n      swap1\n      pop\n      tag_70\n      swap2\n      swap1\n      tag_71\n      jump\t// in\n    tag_70:\n      pop\n      swap1\n      jump\t// out\n    tag_56:\n      dataSize(sub_0)\n      dup1\n      dataOffset(sub_0)\n      dup4\n      codecopy\n      add\n      swap1\n      jump\t// out\n    tag_71:\n    tag_72:\n      dup1\n      dup3\n      gt\n      iszero\n      tag_73\n      jumpi\n      0x00\n      dup2\n      0x00\n      swap1\n      sstore\n      pop\n      0x01\n      add\n      jump(tag_72)\n    tag_73:\n      pop\n      swap1\n      jump\t// out\n        /* \"#utility.yul\":7:82   */\n    tag_74:\n        /* \"#utility.yul\":40:46   */\n      0x00\n        /* \"#utility.yul\":73:75   */\n      0x40\n        /* \"#utility.yul\":67:76   */\n      mload\n        /* \"#utility.yul\":57:76   */\n      swap1\n      pop\n        /* \"#utility.yul\":7:82   */\n      swap1\n      jump\t// out\n        /* \"#utility.yul\":88:205   */\n    tag_75:\n        /* \"#utility.yul\":197:198   */\n      0x00\n        /* \"#utility.yul\":194:195   */\n      dup1\n        /* \"#utility.yul\":187:199   */\n      revert\n        /* \"#utility.yul\":211:328   */\n    tag_76:\n        /* \"#utility.yul\":320:321   */\n      0x00\n        /* \"#utility.yul\":317:318   */\n      dup1\n        /* \"#utility.yul\":310:322   */\n      revert\n        /* \"#utility.yul\":334:460   */\n    tag_77:\n        /* \"#utility.yul\":371:378   */\n      0x00\n        /* \"#utility.yul\":411:453   */\n      0xffffffffffffffffffffffffffffffffffffffff\n        /* \"#utility.yul\":404:409   */\n      dup3\n        /* \"#utility.yul\":400:454   */\n      and\n        /* \"#utility.yul\":389:454   */\n      swap1\n      pop\n        /* \"#utility.yul\":334:460   */\n      swap2\n      swap1\n      pop\n      jump\t// out\n        /* \"#utility.yul\":466:562   */\n    tag_78:\n        /* \"#utility.yul\":503:510   */\n      0x00\n        /* \"#utility.yul\":532:556   */\n      tag_120\n        /* \"#utility.yul\":550:555   */\n      dup3\n        /* \"#utility.yul\":532:556   */\n      tag_77\n      jump\t// in\n    tag_120:\n        /* \"#utility.yul\":521:556   */\n      swap1\n      pop\n        /* \"#utility.yul\":466:562   */\n      swap2\n      swap1\n      pop\n      jump\t// out\n        /* \"#utility.yul\":568:690   */\n    tag_79:\n        /* \"#utility.yul\":641:665   */\n      tag_122\n        /* \"#utility.yul\":659:664   */\n      dup2\n        /* \"#utility.yul\":641:665   */\n      tag_78\n      jump\t// in\n    tag_122:\n        /* \"#utility.yul\":634:639   */\n      dup2\n        /* \"#utility.yul\":631:666   */\n      eq\n        /* \"#utility.yul\":621:684   */\n      tag_123\n      jumpi\n        /* \"#utility.yul\":680:681   */\n      0x00\n        /* \"#utility.yul\":677:678   */\n      dup1\n        /* \"#utility.yul\":670:682   */\n      revert\n        /* \"#utility.yul\":621:684   */\n    tag_123:\n        /* \"#utility.yul\":568:690   */\n      pop\n      jump\t// out\n        /* \"#utility.yul\":696:835   */\n    tag_80:\n        /* \"#utility.yul\":742:747   */\n      0x00\n        /* \"#utility.yul\":780:786   */\n      dup2\n        /* \"#utility.yul\":767:787   */\n      calldataload\n        /* \"#utility.yul\":758:787   */\n      swap1\n      pop\n        /* \"#utility.yul\":796:829   */\n      tag_125\n        /* \"#utility.yul\":823:828   */\n      dup2\n        /* \"#utility.yul\":796:829   */\n      tag_79\n      jump\t// in\n    tag_125:\n        /* \"#utility.yul\":696:835   */\n      swap3\n      swap2\n      pop\n      pop\n      jump\t// out\n        /* \"#utility.yul\":841:960   */\n    tag_81:\n        /* \"#utility.yul\":901:908   */\n      0x00\n        /* \"#utility.yul\":930:954   */\n      tag_127\n        /* \"#utility.yul\":948:953   */\n      dup3\n        /* \"#utility.yul\":930:954   */\n      tag_78\n      jump\t// in\n    tag_127:\n        /* \"#utility.yul\":919:954   */\n      swap1\n      pop\n        /* \"#utility.yul\":841:960   */\n      swap2\n      swap1\n      pop\n      jump\t// out\n        /* \"#utility.yul\":966:1134   */\n    tag_82:\n        /* \"#utility.yul\":1062:1109   */\n      tag_129\n        /* \"#utility.yul\":1103:1108   */\n      dup2\n        /* \"#utility.yul\":1062:1109   */\n      tag_81\n      jump\t// in\n    tag_129:\n        /* \"#utility.yul\":1055:1060   */\n      dup2\n        /* \"#utility.yul\":1052:1110   */\n      eq\n        /* \"#utility.yul\":1042:1128   */\n      tag_130\n      jumpi\n        /* \"#utility.yul\":1124:1125   */\n      0x00\n        /* \"#utility.yul\":1121:1122   */\n      dup1\n        /* \"#utility.yul\":1114:1126   */\n      revert\n        /* \"#utility.yul\":1042:1128   */\n    tag_130:\n        /* \"#utility.yul\":966:1134   */\n      pop\n      jump\t// out\n        /* \"#utility.yul\":1140:1325   */\n    tag_83:\n        /* \"#utility.yul\":1209:1214   */\n      0x00\n        /* \"#utility.yul\":1247:1253   */\n      dup2\n        /* \"#utility.yul\":1234:1254   */\n      calldataload\n        /* \"#utility.yul\":1225:1254   */\n      swap1\n      pop\n        /* \"#utility.yul\":1263:1319   */\n      tag_132\n        /* \"#utility.yul\":1313:1318   */\n      dup2\n        /* \"#utility.yul\":1263:1319   */\n      tag_82\n      jump\t// in\n    tag_132:\n        /* \"#utility.yul\":1140:1325   */\n      swap3\n      swap2\n      pop\n      pop\n      jump\t// out\n        /* \"#utility.yul\":1331:1851   */\n    tag_10:\n        /* \"#utility.yul\":1422:1428   */\n      0x00\n        /* \"#utility.yul\":1430:1436   */\n      dup1\n        /* \"#utility.yul\":1479:1481   */\n      0x40\n        /* \"#utility.yul\":1467:1476   */\n      dup4\n        /* \"#utility.yul\":1458:1465   */\n      dup6\n        /* \"#utility.yul\":1454:1477   */\n      sub\n        /* \"#utility.yul\":1450:1482   */\n      slt\n        /* \"#utility.yul\":1447:1566   */\n      iszero\n      tag_134\n      jumpi\n        /* \"#utility.yul\":1485:1564   */\n      tag_135\n      tag_75\n      jump\t// in\n    tag_135:\n        /* \"#utility.yul\":1447:1566   */\n    tag_134:\n        /* \"#utility.yul\":1605:1606   */\n      0x00\n        /* \"#utility.yul\":1630:1683   */\n      tag_136\n        /* \"#utility.yul\":1675:1682   */\n      dup6\n        /* \"#utility.yul\":1666:1672   */\n      dup3\n        /* \"#utility.yul\":1655:1664   */\n      dup7\n        /* \"#utility.yul\":1651:1673   */\n      add\n        /* \"#utility.yul\":1630:1683   */\n      tag_80\n      jump\t// in\n    tag_136:\n        /* \"#utility.yul\":1620:1683   */\n      swap3\n      pop\n        /* \"#utility.yul\":1576:1693   */\n      pop\n        /* \"#utility.yul\":1732:1734   */\n      0x20\n        /* \"#utility.yul\":1758:1834   */\n      tag_137\n        /* \"#utility.yul\":1826:1833   */\n      dup6\n        /* \"#utility.yul\":1817:1823   */\n      dup3\n        /* \"#utility.yul\":1806:1815   */\n      dup7\n        /* \"#utility.yul\":1802:1824   */\n      add\n        /* \"#utility.yul\":1758:1834   */\n      tag_83\n      jump\t// in\n    tag_137:\n        /* \"#utility.yul\":1748:1834   */\n      swap2\n      pop\n        /* \"#utility.yul\":1703:1844   */\n      pop\n        /* \"#utility.yul\":1331:1851   */\n      swap3\n      pop\n      swap3\n      swap1\n      pop\n      jump\t// out\n        /* \"#utility.yul\":1857:1974   */\n    tag_84:\n        /* \"#utility.yul\":1966:1967   */\n      0x00\n        /* \"#utility.yul\":1963:1964   */\n      dup1\n        /* \"#utility.yul\":1956:1968   */\n      revert\n        /* \"#utility.yul\":1980:2097   */\n    tag_85:\n        /* \"#utility.yul\":2089:2090   */\n      0x00\n        /* \"#utility.yul\":2086:2087   */\n      dup1\n        /* \"#utility.yul\":2079:2091   */\n      revert\n        /* \"#utility.yul\":2103:2205   */\n    tag_86:\n        /* \"#utility.yul\":2144:2150   */\n      0x00\n        /* \"#utility.yul\":2195:2197   */\n      0x1f\n        /* \"#utility.yul\":2191:2198   */\n      not\n        /* \"#utility.yul\":2186:2188   */\n      0x1f\n        /* \"#utility.yul\":2179:2184   */\n      dup4\n        /* \"#utility.yul\":2175:2189   */\n      add\n        /* \"#utility.yul\":2171:2199   */\n      and\n        /* \"#utility.yul\":2161:2199   */\n      swap1\n      pop\n        /* \"#utility.yul\":2103:2205   */\n      swap2\n      swap1\n      pop\n      jump\t// out\n        /* \"#utility.yul\":2211:2391   */\n    tag_87:\n        /* \"#utility.yul\":2259:2336   */\n      0x4e487b7100000000000000000000000000000000000000000000000000000000\n        /* \"#utility.yul\":2256:2257   */\n      0x00\n        /* \"#utility.yul\":2249:2337   */\n      mstore\n        /* \"#utility.yul\":2356:2360   */\n      0x41\n        /* \"#utility.yul\":2353:2354   */\n      0x04\n        /* \"#utility.yul\":2346:2361   */\n      mstore\n        /* \"#utility.yul\":2380:2384   */\n      0x24\n        /* \"#utility.yul\":2377:2378   */\n      0x00\n        /* \"#utility.yul\":2370:2385   */\n      revert\n        /* \"#utility.yul\":2397:2678   */\n    tag_88:\n        /* \"#utility.yul\":2480:2507   */\n      tag_143\n        /* \"#utility.yul\":2502:2506   */\n      dup3\n        /* \"#utility.yul\":2480:2507   */\n      tag_86\n      jump\t// in\n    tag_143:\n        /* \"#utility.yul\":2472:2478   */\n      dup2\n        /* \"#utility.yul\":2468:2508   */\n      add\n        /* \"#utility.yul\":2610:2616   */\n      dup2\n        /* \"#utility.yul\":2598:2608   */\n      dup2\n        /* \"#utility.yul\":2595:2617   */\n      lt\n        /* \"#utility.yul\":2574:2592   */\n      0xffffffffffffffff\n        /* \"#utility.yul\":2562:2572   */\n      dup3\n        /* \"#utility.yul\":2559:2593   */\n      gt\n        /* \"#utility.yul\":2556:2618   */\n      or\n        /* \"#utility.yul\":2553:2641   */\n      iszero\n      tag_144\n      jumpi\n        /* \"#utility.yul\":2621:2639   */\n      tag_145\n      tag_87\n      jump\t// in\n    tag_145:\n        /* \"#utility.yul\":2553:2641   */\n    tag_144:\n        /* \"#utility.yul\":2661:2671   */\n      dup1\n        /* \"#utility.yul\":2657:2659   */\n      0x40\n        /* \"#utility.yul\":2650:2672   */\n      mstore\n        /* \"#utility.yul\":2440:2678   */\n      pop\n        /* \"#utility.yul\":2397:2678   */\n      pop\n      pop\n      jump\t// out\n        /* \"#utility.yul\":2684:2813   */\n    tag_89:\n        /* \"#utility.yul\":2718:2724   */\n      0x00\n        /* \"#utility.yul\":2745:2765   */\n      tag_147\n      tag_74\n      jump\t// in\n    tag_147:\n        /* \"#utility.yul\":2735:2765   */\n      swap1\n      pop\n        /* \"#utility.yul\":2774:2807   */\n      tag_148\n        /* \"#utility.yul\":2802:2806   */\n      dup3\n        /* \"#utility.yul\":2794:2800   */\n      dup3\n        /* \"#utility.yul\":2774:2807   */\n      tag_88\n      jump\t// in\n    tag_148:\n        /* \"#utility.yul\":2684:2813   */\n      swap2\n      swap1\n      pop\n      jump\t// out\n        /* \"#utility.yul\":2819:3127   */\n    tag_90:\n        /* \"#utility.yul\":2881:2885   */\n      0x00\n        /* \"#utility.yul\":2971:2989   */\n      0xffffffffffffffff\n        /* \"#utility.yul\":2963:2969   */\n      dup3\n        /* \"#utility.yul\":2960:2990   */\n      gt\n        /* \"#utility.yul\":2957:3013   */\n      iszero\n      tag_150\n      jumpi\n        /* \"#utility.yul\":2993:3011   */\n      tag_151\n      tag_87\n      jump\t// in\n    tag_151:\n        /* \"#utility.yul\":2957:3013   */\n    tag_150:\n        /* \"#utility.yul\":3031:3060   */\n      tag_152\n        /* \"#utility.yul\":3053:3059   */\n      dup3\n        /* \"#utility.yul\":3031:3060   */\n      tag_86\n      jump\t// in\n    tag_152:\n        /* \"#utility.yul\":3023:3060   */\n      swap1\n      pop\n        /* \"#utility.yul\":3115:3119   */\n      0x20\n        /* \"#utility.yul\":3109:3113   */\n      dup2\n        /* \"#utility.yul\":3105:3120   */\n      add\n        /* \"#utility.yul\":3097:3120   */\n      swap1\n      pop\n        /* \"#utility.yul\":2819:3127   */\n      swap2\n      swap1\n      pop\n      jump\t// out\n        /* \"#utility.yul\":3133:3287   */\n    tag_91:\n        /* \"#utility.yul\":3217:3223   */\n      dup3\n        /* \"#utility.yul\":3212:3215   */\n      dup2\n        /* \"#utility.yul\":3207:3210   */\n      dup4\n        /* \"#utility.yul\":3194:3224   */\n      calldatacopy\n        /* \"#utility.yul\":3279:3280   */\n      0x00\n        /* \"#utility.yul\":3270:3276   */\n      dup4\n        /* \"#utility.yul\":3265:3268   */\n      dup4\n        /* \"#utility.yul\":3261:3277   */\n      add\n        /* \"#utility.yul\":3254:3281   */\n      mstore\n        /* \"#utility.yul\":3133:3287   */\n      pop\n      pop\n      pop\n      jump\t// out\n        /* \"#utility.yul\":3293:3705   */\n    tag_92:\n        /* \"#utility.yul\":3371:3376   */\n      0x00\n        /* \"#utility.yul\":3396:3462   */\n      tag_155\n        /* \"#utility.yul\":3412:3461   */\n      tag_156\n        /* \"#utility.yul\":3454:3460   */\n      dup5\n        /* \"#utility.yul\":3412:3461   */\n      tag_90\n      jump\t// in\n    tag_156:\n        /* \"#utility.yul\":3396:3462   */\n      tag_89\n      jump\t// in\n    tag_155:\n        /* \"#utility.yul\":3387:3462   */\n      swap1\n      pop\n        /* \"#utility.yul\":3485:3491   */\n      dup3\n        /* \"#utility.yul\":3478:3483   */\n      dup2\n        /* \"#utility.yul\":3471:3492   */\n      mstore\n        /* \"#utility.yul\":3523:3527   */\n      0x20\n        /* \"#utility.yul\":3516:3521   */\n      dup2\n        /* \"#utility.yul\":3512:3528   */\n      add\n        /* \"#utility.yul\":3561:3564   */\n      dup5\n        /* \"#utility.yul\":3552:3558   */\n      dup5\n        /* \"#utility.yul\":3547:3550   */\n      dup5\n        /* \"#utility.yul\":3543:3559   */\n      add\n        /* \"#utility.yul\":3540:3565   */\n      gt\n        /* \"#utility.yul\":3537:3649   */\n      iszero\n      tag_157\n      jumpi\n        /* \"#utility.yul\":3568:3647   */\n      tag_158\n      tag_85\n      jump\t// in\n    tag_158:\n        /* \"#utility.yul\":3537:3649   */\n    tag_157:\n        /* \"#utility.yul\":3658:3699   */\n      tag_159\n        /* \"#utility.yul\":3692:3698   */\n      dup5\n        /* \"#utility.yul\":3687:3690   */\n      dup3\n        /* \"#utility.yul\":3682:3685   */\n      dup6\n        /* \"#utility.yul\":3658:3699   */\n      tag_91\n      jump\t// in\n    tag_159:\n        /* \"#utility.yul\":3377:3705   */\n      pop\n        /* \"#utility.yul\":3293:3705   */\n      swap4\n      swap3\n      pop\n      pop\n      pop\n      jump\t// out\n        /* \"#utility.yul\":3725:4065   */\n    tag_93:\n        /* \"#utility.yul\":3781:3786   */\n      0x00\n        /* \"#utility.yul\":3830:3833   */\n      dup3\n        /* \"#utility.yul\":3823:3827   */\n      0x1f\n        /* \"#utility.yul\":3815:3821   */\n      dup4\n        /* \"#utility.yul\":3811:3828   */\n      add\n        /* \"#utility.yul\":3807:3834   */\n      slt\n        /* \"#utility.yul\":3797:3919   */\n      tag_161\n      jumpi\n        /* \"#utility.yul\":3838:3917   */\n      tag_162\n      tag_84\n      jump\t// in\n    tag_162:\n        /* \"#utility.yul\":3797:3919   */\n    tag_161:\n        /* \"#utility.yul\":3955:3961   */\n      dup2\n        /* \"#utility.yul\":3942:3962   */\n      calldataload\n        /* \"#utility.yul\":3980:4059   */\n      tag_163\n        /* \"#utility.yul\":4055:4058   */\n      dup5\n        /* \"#utility.yul\":4047:4053   */\n      dup3\n        /* \"#utility.yul\":4040:4044   */\n      0x20\n        /* \"#utility.yul\":4032:4038   */\n      dup7\n        /* \"#utility.yul\":4028:4045   */\n      add\n        /* \"#utility.yul\":3980:4059   */\n      tag_92\n      jump\t// in\n    tag_163:\n        /* \"#utility.yul\":3971:4059   */\n      swap2\n      pop\n        /* \"#utility.yul\":3787:4065   */\n      pop\n        /* \"#utility.yul\":3725:4065   */\n      swap3\n      swap2\n      pop\n      pop\n      jump\t// out\n        /* \"#utility.yul\":4071:5050   */\n    tag_14:\n        /* \"#utility.yul\":4168:4174   */\n      0x00\n        /* \"#utility.yul\":4176:4182   */\n      dup1\n        /* \"#utility.yul\":4184:4190   */\n      0x00\n        /* \"#utility.yul\":4233:4235   */\n      0x60\n        /* \"#utility.yul\":4221:4230   */\n      dup5\n        /* \"#utility.yul\":4212:4219   */\n      dup7\n        /* \"#utility.yul\":4208:4231   */\n      sub\n        /* \"#utility.yul\":4204:4236   */\n      slt\n        /* \"#utility.yul\":4201:4320   */\n      iszero\n      tag_165\n      jumpi\n        /* \"#utility.yul\":4239:4318   */\n      tag_166\n      tag_75\n      jump\t// in\n    tag_166:\n        /* \"#utility.yul\":4201:4320   */\n    tag_165:\n        /* \"#utility.yul\":4387:4388   */\n      0x00\n        /* \"#utility.yul\":4376:4385   */\n      dup5\n        /* \"#utility.yul\":4372:4389   */\n      add\n        /* \"#utility.yul\":4359:4390   */\n      calldataload\n        /* \"#utility.yul\":4417:4435   */\n      0xffffffffffffffff\n        /* \"#utility.yul\":4409:4415   */\n      dup2\n        /* \"#utility.yul\":4406:4436   */\n      gt\n        /* \"#utility.yul\":4403:4520   */\n      iszero\n      tag_167\n      jumpi\n        /* \"#utility.yul\":4439:4518   */\n      tag_168\n      tag_76\n      jump\t// in\n    tag_168:\n        /* \"#utility.yul\":4403:4520   */\n    tag_167:\n        /* \"#utility.yul\":4544:4607   */\n      tag_169\n        /* \"#utility.yul\":4599:4606   */\n      dup7\n        /* \"#utility.yul\":4590:4596   */\n      dup3\n        /* \"#utility.yul\":4579:4588   */\n      dup8\n        /* \"#utility.yul\":4575:4597   */\n      add\n        /* \"#utility.yul\":4544:4607   */\n      tag_93\n      jump\t// in\n    tag_169:\n        /* \"#utility.yul\":4534:4607   */\n      swap4\n      pop\n        /* \"#utility.yul\":4330:4617   */\n      pop\n        /* \"#utility.yul\":4656:4658   */\n      0x20\n        /* \"#utility.yul\":4682:4735   */\n      tag_170\n        /* \"#utility.yul\":4727:4734   */\n      dup7\n        /* \"#utility.yul\":4718:4724   */\n      dup3\n        /* \"#utility.yul\":4707:4716   */\n      dup8\n        /* \"#utility.yul\":4703:4725   */\n      add\n        /* \"#utility.yul\":4682:4735   */\n      tag_80\n      jump\t// in\n    tag_170:\n        /* \"#utility.yul\":4672:4735   */\n      swap3\n      pop\n        /* \"#utility.yul\":4627:4745   */\n      pop\n        /* \"#utility.yul\":4812:4814   */\n      0x40\n        /* \"#utility.yul\":4801:4810   */\n      dup5\n        /* \"#utility.yul\":4797:4815   */\n      add\n        /* \"#utility.yul\":4784:4816   */\n      calldataload\n        /* \"#utility.yul\":4843:4861   */\n      0xffffffffffffffff\n        /* \"#utility.yul\":4835:4841   */\n      dup2\n        /* \"#utility.yul\":4832:4862   */\n      gt\n        /* \"#utility.yul\":4829:4946   */\n      iszero\n      tag_171\n      jumpi\n        /* \"#utility.yul\":4865:4944   */\n      tag_172\n      tag_76\n      jump\t// in\n    tag_172:\n        /* \"#utility.yul\":4829:4946   */\n    tag_171:\n        /* \"#utility.yul\":4970:5033   */\n      tag_173\n        /* \"#utility.yul\":5025:5032   */\n      dup7\n        /* \"#utility.yul\":5016:5022   */\n      dup3\n        /* \"#utility.yul\":5005:5014   */\n      dup8\n        /* \"#utility.yul\":5001:5023   */\n      add\n        /* \"#utility.yul\":4970:5033   */\n      tag_93\n      jump\t// in\n    tag_173:\n        /* \"#utility.yul\":4960:5033   */\n      swap2\n      pop\n        /* \"#utility.yul\":4755:5043   */\n      pop\n        /* \"#utility.yul\":4071:5050   */\n      swap3\n      pop\n      swap3\n      pop\n      swap3\n      jump\t// out\n        /* \"#utility.yul\":5056:5385   */\n    tag_18:\n        /* \"#utility.yul\":5115:5121   */\n      0x00\n        /* \"#utility.yul\":5164:5166   */\n      0x20\n        /* \"#utility.yul\":5152:5161   */\n      dup3\n        /* \"#utility.yul\":5143:5150   */\n      dup5\n        /* \"#utility.yul\":5139:5162   */\n      sub\n        /* \"#utility.yul\":5135:5167   */\n      slt\n        /* \"#utility.yul\":5132:5251   */\n      iszero\n      tag_175\n      jumpi\n        /* \"#utility.yul\":5170:5249   */\n      tag_176\n      tag_75\n      jump\t// in\n    tag_176:\n        /* \"#utility.yul\":5132:5251   */\n    tag_175:\n        /* \"#utility.yul\":5290:5291   */\n      0x00\n        /* \"#utility.yul\":5315:5368   */\n      tag_177\n        /* \"#utility.yul\":5360:5367   */\n      dup5\n        /* \"#utility.yul\":5351:5357   */\n      dup3\n        /* \"#utility.yul\":5340:5349   */\n      dup6\n        /* \"#utility.yul\":5336:5358   */\n      add\n        /* \"#utility.yul\":5315:5368   */\n      tag_80\n      jump\t// in\n    tag_177:\n        /* \"#utility.yul\":5305:5368   */\n      swap2\n      pop\n        /* \"#utility.yul\":5261:5378   */\n      pop\n        /* \"#utility.yul\":5056:5385   */\n      swap3\n      swap2\n      pop\n      pop\n      jump\t// out\n        /* \"#utility.yul\":5391:5468   */\n    tag_94:\n        /* \"#utility.yul\":5428:5435   */\n      0x00\n        /* \"#utility.yul\":5457:5462   */\n      dup2\n        /* \"#utility.yul\":5446:5462   */\n      swap1\n      pop\n        /* \"#utility.yul\":5391:5468   */\n      swap2\n      swap1\n      pop\n      jump\t// out\n        /* \"#utility.yul\":5474:5596   */\n    tag_95:\n        /* \"#utility.yul\":5547:5571   */\n      tag_180\n        /* \"#utility.yul\":5565:5570   */\n      dup2\n        /* \"#utility.yul\":5547:5571   */\n      tag_94\n      jump\t// in\n    tag_180:\n        /* \"#utility.yul\":5540:5545   */\n      dup2\n        /* \"#utility.yul\":5537:5572   */\n      eq\n        /* \"#utility.yul\":5527:5590   */\n      tag_181\n      jumpi\n        /* \"#utility.yul\":5586:5587   */\n      0x00\n        /* \"#utility.yul\":5583:5584   */\n      dup1\n        /* \"#utility.yul\":5576:5588   */\n      revert\n        /* \"#utility.yul\":5527:5590   */\n    tag_181:\n        /* \"#utility.yul\":5474:5596   */\n      pop\n      jump\t// out\n        /* \"#utility.yul\":5602:5741   */\n    tag_96:\n        /* \"#utility.yul\":5648:5653   */\n      0x00\n        /* \"#utility.yul\":5686:5692   */\n      dup2\n        /* \"#utility.yul\":5673:5693   */\n      calldataload\n        /* \"#utility.yul\":5664:5693   */\n      swap1\n      pop\n        /* \"#utility.yul\":5702:5735   */\n      tag_183\n        /* \"#utility.yul\":5729:5734   */\n      dup2\n        /* \"#utility.yul\":5702:5735   */\n      tag_95\n      jump\t// in\n    tag_183:\n        /* \"#utility.yul\":5602:5741   */\n      swap3\n      swap2\n      pop\n      pop\n      jump\t// out\n        /* \"#utility.yul\":5747:6221   */\n    tag_22:\n        /* \"#utility.yul\":5815:5821   */\n      0x00\n        /* \"#utility.yul\":5823:5829   */\n      dup1\n        /* \"#utility.yul\":5872:5874   */\n      0x40\n        /* \"#utility.yul\":5860:5869   */\n      dup4\n        /* \"#utility.yul\":5851:5858   */\n      dup6\n        /* \"#utility.yul\":5847:5870   */\n      sub\n        /* \"#utility.yul\":5843:5875   */\n      slt\n        /* \"#utility.yul\":5840:5959   */\n      iszero\n      tag_185\n      jumpi\n        /* \"#utility.yul\":5878:5957   */\n      tag_186\n      tag_75\n      jump\t// in\n    tag_186:\n        /* \"#utility.yul\":5840:5959   */\n    tag_185:\n        /* \"#utility.yul\":5998:5999   */\n      0x00\n        /* \"#utility.yul\":6023:6076   */\n      tag_187\n        /* \"#utility.yul\":6068:6075   */\n      dup6\n        /* \"#utility.yul\":6059:6065   */\n      dup3\n        /* \"#utility.yul\":6048:6057   */\n      dup7\n        /* \"#utility.yul\":6044:6066   */\n      add\n        /* \"#utility.yul\":6023:6076   */\n      tag_80\n      jump\t// in\n    tag_187:\n        /* \"#utility.yul\":6013:6076   */\n      swap3\n      pop\n        /* \"#utility.yul\":5969:6086   */\n      pop\n        /* \"#utility.yul\":6125:6127   */\n      0x20\n        /* \"#utility.yul\":6151:6204   */\n      tag_188\n        /* \"#utility.yul\":6196:6203   */\n      dup6\n        /* \"#utility.yul\":6187:6193   */\n      dup3\n        /* \"#utility.yul\":6176:6185   */\n      dup7\n        /* \"#utility.yul\":6172:6194   */\n      add\n        /* \"#utility.yul\":6151:6204   */\n      tag_96\n      jump\t// in\n    tag_188:\n        /* \"#utility.yul\":6141:6204   */\n      swap2\n      pop\n        /* \"#utility.yul\":6096:6214   */\n      pop\n        /* \"#utility.yul\":5747:6221   */\n      swap3\n      pop\n      swap3\n      swap1\n      pop\n      jump\t// out\n        /* \"#utility.yul\":6227:6287   */\n    tag_97:\n        /* \"#utility.yul\":6255:6258   */\n      0x00\n        /* \"#utility.yul\":6276:6281   */\n      dup2\n        /* \"#utility.yul\":6269:6281   */\n      swap1\n      pop\n        /* \"#utility.yul\":6227:6287   */\n      swap2\n      swap1\n      pop\n      jump\t// out\n        /* \"#utility.yul\":6293:6435   */\n    tag_98:\n        /* \"#utility.yul\":6343:6352   */\n      0x00\n        /* \"#utility.yul\":6376:6429   */\n      tag_191\n        /* \"#utility.yul\":6394:6428   */\n      tag_192\n        /* \"#utility.yul\":6403:6427   */\n      tag_193\n        /* \"#utility.yul\":6421:6426   */\n      dup5\n        /* \"#utility.yul\":6403:6427   */\n      tag_77\n      jump\t// in\n    tag_193:\n        /* \"#utility.yul\":6394:6428   */\n      tag_97\n      jump\t// in\n    tag_192:\n        /* \"#utility.yul\":6376:6429   */\n      tag_77\n      jump\t// in\n    tag_191:\n        /* \"#utility.yul\":6363:6429   */\n      swap1\n      pop\n        /* \"#utility.yul\":6293:6435   */\n      swap2\n      swap1\n      pop\n      jump\t// out\n        /* \"#utility.yul\":6441:6567   */\n    tag_99:\n        /* \"#utility.yul\":6491:6500   */\n      0x00\n        /* \"#utility.yul\":6524:6561   */\n      tag_195\n        /* \"#utility.yul\":6555:6560   */\n      dup3\n        /* \"#utility.yul\":6524:6561   */\n      tag_98\n      jump\t// in\n    tag_195:\n        /* \"#utility.yul\":6511:6561   */\n      swap1\n      pop\n        /* \"#utility.yul\":6441:6567   */\n      swap2\n      swap1\n      pop\n      jump\t// out\n        /* \"#utility.yul\":6573:6722   */\n    tag_100:\n        /* \"#utility.yul\":6646:6655   */\n      0x00\n        /* \"#utility.yul\":6679:6716   */\n      tag_197\n        /* \"#utility.yul\":6710:6715   */\n      dup3\n        /* \"#utility.yul\":6679:6716   */\n      tag_99\n      jump\t// in\n    tag_197:\n        /* \"#utility.yul\":6666:6716   */\n      swap1\n      pop\n        /* \"#utility.yul\":6573:6722   */\n      swap2\n      swap1\n      pop\n      jump\t// out\n        /* \"#utility.yul\":6728:6905   */\n    tag_101:\n        /* \"#utility.yul\":6838:6898   */\n      tag_199\n        /* \"#utility.yul\":6892:6897   */\n      dup2\n        /* \"#utility.yul\":6838:6898   */\n      tag_100\n      jump\t// in\n    tag_199:\n        /* \"#utility.yul\":6833:6836   */\n      dup3\n        /* \"#utility.yul\":6826:6899   */\n      mstore\n        /* \"#utility.yul\":6728:6905   */\n      pop\n      pop\n      jump\t// out\n        /* \"#utility.yul\":6911:7179   */\n    tag_25:\n        /* \"#utility.yul\":7027:7031   */\n      0x00\n        /* \"#utility.yul\":7065:7067   */\n      0x20\n        /* \"#utility.yul\":7054:7063   */\n      dup3\n        /* \"#utility.yul\":7050:7068   */\n      add\n        /* \"#utility.yul\":7042:7068   */\n      swap1\n      pop\n        /* \"#utility.yul\":7078:7172   */\n      tag_201\n        /* \"#utility.yul\":7169:7170   */\n      0x00\n        /* \"#utility.yul\":7158:7167   */\n      dup4\n        /* \"#utility.yul\":7154:7171   */\n      add\n        /* \"#utility.yul\":7145:7151   */\n      dup5\n        /* \"#utility.yul\":7078:7172   */\n      tag_101\n      jump\t// in\n    tag_201:\n        /* \"#utility.yul\":6911:7179   */\n      swap3\n      swap2\n      pop\n      pop\n      jump\t// out\n        /* \"#utility.yul\":7185:7322   */\n    tag_102:\n        /* \"#utility.yul\":7275:7281   */\n      0x00\n        /* \"#utility.yul\":7309:7314   */\n      dup2\n        /* \"#utility.yul\":7303:7315   */\n      mload\n        /* \"#utility.yul\":7293:7315   */\n      swap1\n      pop\n        /* \"#utility.yul\":7185:7322   */\n      swap2\n      swap1\n      pop\n      jump\t// out\n        /* \"#utility.yul\":7328:7512   */\n    tag_103:\n        /* \"#utility.yul\":7427:7438   */\n      0x00\n        /* \"#utility.yul\":7461:7467   */\n      dup3\n        /* \"#utility.yul\":7456:7459   */\n      dup3\n        /* \"#utility.yul\":7449:7468   */\n      mstore\n        /* \"#utility.yul\":7501:7505   */\n      0x20\n        /* \"#utility.yul\":7496:7499   */\n      dup3\n        /* \"#utility.yul\":7492:7506   */\n      add\n        /* \"#utility.yul\":7477:7506   */\n      swap1\n      pop\n        /* \"#utility.yul\":7328:7512   */\n      swap3\n      swap2\n      pop\n      pop\n      jump\t// out\n        /* \"#utility.yul\":7518:7673   */\n    tag_104:\n        /* \"#utility.yul\":7608:7612   */\n      0x00\n        /* \"#utility.yul\":7631:7634   */\n      dup2\n        /* \"#utility.yul\":7623:7634   */\n      swap1\n      pop\n        /* \"#utility.yul\":7661:7665   */\n      0x20\n        /* \"#utility.yul\":7656:7659   */\n      dup3\n        /* \"#utility.yul\":7652:7666   */\n      add\n        /* \"#utility.yul\":7644:7666   */\n      swap1\n      pop\n        /* \"#utility.yul\":7518:7673   */\n      swap2\n      swap1\n      pop\n      jump\t// out\n        /* \"#utility.yul\":7679:7846   */\n    tag_105:\n        /* \"#utility.yul\":7779:7839   */\n      tag_206\n        /* \"#utility.yul\":7833:7838   */\n      dup2\n        /* \"#utility.yul\":7779:7839   */\n      tag_100\n      jump\t// in\n    tag_206:\n        /* \"#utility.yul\":7774:7777   */\n      dup3\n        /* \"#utility.yul\":7767:7840   */\n      mstore\n        /* \"#utility.yul\":7679:7846   */\n      pop\n      pop\n      jump\t// out\n        /* \"#utility.yul\":7852:8077   */\n    tag_106:\n        /* \"#utility.yul\":7944:7954   */\n      0x00\n        /* \"#utility.yul\":7965:8034   */\n      tag_208\n        /* \"#utility.yul\":8030:8033   */\n      dup4\n        /* \"#utility.yul\":8022:8028   */\n      dup4\n        /* \"#utility.yul\":7965:8034   */\n      tag_105\n      jump\t// in\n    tag_208:\n        /* \"#utility.yul\":8066:8070   */\n      0x20\n        /* \"#utility.yul\":8061:8064   */\n      dup4\n        /* \"#utility.yul\":8057:8071   */\n      add\n        /* \"#utility.yul\":8043:8071   */\n      swap1\n      pop\n        /* \"#utility.yul\":7852:8077   */\n      swap3\n      swap2\n      pop\n      pop\n      jump\t// out\n        /* \"#utility.yul\":8083:8219   */\n    tag_107:\n        /* \"#utility.yul\":8176:8180   */\n      0x00\n        /* \"#utility.yul\":8208:8212   */\n      0x20\n        /* \"#utility.yul\":8203:8206   */\n      dup3\n        /* \"#utility.yul\":8199:8213   */\n      add\n        /* \"#utility.yul\":8191:8213   */\n      swap1\n      pop\n        /* \"#utility.yul\":8083:8219   */\n      swap2\n      swap1\n      pop\n      jump\t// out\n        /* \"#utility.yul\":8273:9120   */\n    tag_108:\n        /* \"#utility.yul\":8415:8418   */\n      0x00\n        /* \"#utility.yul\":8444:8521   */\n      tag_211\n        /* \"#utility.yul\":8515:8520   */\n      dup3\n        /* \"#utility.yul\":8444:8521   */\n      tag_102\n      jump\t// in\n    tag_211:\n        /* \"#utility.yul\":8537:8623   */\n      tag_212\n        /* \"#utility.yul\":8616:8622   */\n      dup2\n        /* \"#utility.yul\":8611:8614   */\n      dup6\n        /* \"#utility.yul\":8537:8623   */\n      tag_103\n      jump\t// in\n    tag_212:\n        /* \"#utility.yul\":8530:8623   */\n      swap4\n      pop\n        /* \"#utility.yul\":8647:8726   */\n      tag_213\n        /* \"#utility.yul\":8720:8725   */\n      dup4\n        /* \"#utility.yul\":8647:8726   */\n      tag_104\n      jump\t// in\n    tag_213:\n        /* \"#utility.yul\":8749:8756   */\n      dup1\n        /* \"#utility.yul\":8780:8781   */\n      0x00\n        /* \"#utility.yul\":8765:9095   */\n    tag_214:\n        /* \"#utility.yul\":8790:8796   */\n      dup4\n        /* \"#utility.yul\":8787:8788   */\n      dup2\n        /* \"#utility.yul\":8784:8797   */\n      lt\n        /* \"#utility.yul\":8765:9095   */\n      iszero\n      tag_216\n      jumpi\n        /* \"#utility.yul\":8866:8872   */\n      dup2\n        /* \"#utility.yul\":8860:8873   */\n      mload\n        /* \"#utility.yul\":8893:8979   */\n      tag_217\n        /* \"#utility.yul\":8975:8978   */\n      dup9\n        /* \"#utility.yul\":8960:8973   */\n      dup3\n        /* \"#utility.yul\":8893:8979   */\n      tag_106\n      jump\t// in\n    tag_217:\n        /* \"#utility.yul\":8886:8979   */\n      swap8\n      pop\n        /* \"#utility.yul\":9002:9085   */\n      tag_218\n        /* \"#utility.yul\":9078:9084   */\n      dup4\n        /* \"#utility.yul\":9002:9085   */\n      tag_107\n      jump\t// in\n    tag_218:\n        /* \"#utility.yul\":8992:9085   */\n      swap3\n      pop\n        /* \"#utility.yul\":8825:9095   */\n      pop\n        /* \"#utility.yul\":8812:8813   */\n      0x01\n        /* \"#utility.yul\":8809:8810   */\n      dup2\n        /* \"#utility.yul\":8805:8814   */\n      add\n        /* \"#utility.yul\":8800:8814   */\n      swap1\n      pop\n        /* \"#utility.yul\":8765:9095   */\n      jump(tag_214)\n    tag_216:\n        /* \"#utility.yul\":8769:8783   */\n      pop\n        /* \"#utility.yul\":9111:9114   */\n      dup6\n        /* \"#utility.yul\":9104:9114   */\n      swap4\n      pop\n        /* \"#utility.yul\":8420:9120   */\n      pop\n      pop\n      pop\n        /* \"#utility.yul\":8273:9120   */\n      swap3\n      swap2\n      pop\n      pop\n      jump\t// out\n        /* \"#utility.yul\":9126:9545   */\n    tag_30:\n        /* \"#utility.yul\":9292:9296   */\n      0x00\n        /* \"#utility.yul\":9330:9332   */\n      0x20\n        /* \"#utility.yul\":9319:9328   */\n      dup3\n        /* \"#utility.yul\":9315:9333   */\n      add\n        /* \"#utility.yul\":9307:9333   */\n      swap1\n      pop\n        /* \"#utility.yul\":9379:9388   */\n      dup2\n        /* \"#utility.yul\":9373:9377   */\n      dup2\n        /* \"#utility.yul\":9369:9389   */\n      sub\n        /* \"#utility.yul\":9365:9366   */\n      0x00\n        /* \"#utility.yul\":9354:9363   */\n      dup4\n        /* \"#utility.yul\":9350:9367   */\n      add\n        /* \"#utility.yul\":9343:9390   */\n      mstore\n        /* \"#utility.yul\":9407:9538   */\n      tag_220\n        /* \"#utility.yul\":9533:9537   */\n      dup2\n        /* \"#utility.yul\":9524:9530   */\n      dup5\n        /* \"#utility.yul\":9407:9538   */\n      tag_108\n      jump\t// in\n    tag_220:\n        /* \"#utility.yul\":9399:9538   */\n      swap1\n      pop\n        /* \"#utility.yul\":9126:9545   */\n      swap3\n      swap2\n      pop\n      pop\n      jump\t// out\n        /* \"#utility.yul\":9551:9731   */\n    tag_39:\n        /* \"#utility.yul\":9599:9676   */\n      0x4e487b7100000000000000000000000000000000000000000000000000000000\n        /* \"#utility.yul\":9596:9597   */\n      0x00\n        /* \"#utility.yul\":9589:9677   */\n      mstore\n        /* \"#utility.yul\":9696:9700   */\n      0x32\n        /* \"#utility.yul\":9693:9694   */\n      0x04\n        /* \"#utility.yul\":9686:9701   */\n      mstore\n        /* \"#utility.yul\":9720:9724   */\n      0x24\n        /* \"#utility.yul\":9717:9718   */\n      0x00\n        /* \"#utility.yul\":9710:9725   */\n      revert\n        /* \"#utility.yul\":9737:9917   */\n    tag_109:\n        /* \"#utility.yul\":9785:9862   */\n      0x4e487b7100000000000000000000000000000000000000000000000000000000\n        /* \"#utility.yul\":9782:9783   */\n      0x00\n        /* \"#utility.yul\":9775:9863   */\n      mstore\n        /* \"#utility.yul\":9882:9886   */\n      0x11\n        /* \"#utility.yul\":9879:9880   */\n      0x04\n        /* \"#utility.yul\":9872:9887   */\n      mstore\n        /* \"#utility.yul\":9906:9910   */\n      0x24\n        /* \"#utility.yul\":9903:9904   */\n      0x00\n        /* \"#utility.yul\":9896:9911   */\n      revert\n        /* \"#utility.yul\":9923:10114   */\n    tag_42:\n        /* \"#utility.yul\":9963:9967   */\n      0x00\n        /* \"#utility.yul\":9983:10003   */\n      tag_224\n        /* \"#utility.yul\":10001:10002   */\n      dup3\n        /* \"#utility.yul\":9983:10003   */\n      tag_94\n      jump\t// in\n    tag_224:\n        /* \"#utility.yul\":9978:10003   */\n      swap2\n      pop\n        /* \"#utility.yul\":10017:10037   */\n      tag_225\n        /* \"#utility.yul\":10035:10036   */\n      dup4\n        /* \"#utility.yul\":10017:10037   */\n      tag_94\n      jump\t// in\n    tag_225:\n        /* \"#utility.yul\":10012:10037   */\n      swap3\n      pop\n        /* \"#utility.yul\":10056:10057   */\n      dup3\n        /* \"#utility.yul\":10053:10054   */\n      dup3\n        /* \"#utility.yul\":10050:10058   */\n      lt\n        /* \"#utility.yul\":10047:10081   */\n      iszero\n      tag_226\n      jumpi\n        /* \"#utility.yul\":10061:10079   */\n      tag_227\n      tag_109\n      jump\t// in\n    tag_227:\n        /* \"#utility.yul\":10047:10081   */\n    tag_226:\n        /* \"#utility.yul\":10106:10107   */\n      dup3\n        /* \"#utility.yul\":10103:10104   */\n      dup3\n        /* \"#utility.yul\":10099:10108   */\n      sub\n        /* \"#utility.yul\":10091:10108   */\n      swap1\n      pop\n        /* \"#utility.yul\":9923:10114   */\n      swap3\n      swap2\n      pop\n      pop\n      jump\t// out\n        /* \"#utility.yul\":10120:10353   */\n    tag_51:\n        /* \"#utility.yul\":10159:10162   */\n      0x00\n        /* \"#utility.yul\":10182:10206   */\n      tag_229\n        /* \"#utility.yul\":10200:10205   */\n      dup3\n        /* \"#utility.yul\":10182:10206   */\n      tag_94\n      jump\t// in\n    tag_229:\n        /* \"#utility.yul\":10173:10206   */\n      swap2\n      pop\n        /* \"#utility.yul\":10228:10294   */\n      0xffffffffffffffffffffffffffffffffffffffffffffffffffffffffffffffff\n        /* \"#utility.yul\":10221:10226   */\n      dup3\n        /* \"#utility.yul\":10218:10295   */\n      sub\n        /* \"#utility.yul\":10215:10318   */\n      tag_230\n      jumpi\n        /* \"#utility.yul\":10298:10316   */\n      tag_231\n      tag_109\n      jump\t// in\n    tag_231:\n        /* \"#utility.yul\":10215:10318   */\n    tag_230:\n        /* \"#utility.yul\":10345:10346   */\n      0x01\n        /* \"#utility.yul\":10338:10343   */\n      dup3\n        /* \"#utility.yul\":10334:10347   */\n      add\n        /* \"#utility.yul\":10327:10347   */\n      swap1\n      pop\n        /* \"#utility.yul\":10120:10353   */\n      swap2\n      swap1\n      pop\n      jump\t// out\n        /* \"#utility.yul\":10359:10458   */\n    tag_110:\n        /* \"#utility.yul\":10411:10417   */\n      0x00\n        /* \"#utility.yul\":10445:10450   */\n      dup2\n        /* \"#utility.yul\":10439:10451   */\n      mload\n        /* \"#utility.yul\":10429:10451   */\n      swap1\n      pop\n        /* \"#utility.yul\":10359:10458   */\n      swap2\n      swap1\n      pop\n      jump\t// out\n        /* \"#utility.yul\":10464:10633   */\n    tag_111:\n        /* \"#utility.yul\":10548:10559   */\n      0x00\n        /* \"#utility.yul\":10582:10588   */\n      dup3\n        /* \"#utility.yul\":10577:10580   */\n      dup3\n        /* \"#utility.yul\":10570:10589   */\n      mstore\n        /* \"#utility.yul\":10622:10626   */\n      0x20\n        /* \"#utility.yul\":10617:10620   */\n      dup3\n        /* \"#utility.yul\":10613:10627   */\n      add\n        /* \"#utility.yul\":10598:10627   */\n      swap1\n      pop\n        /* \"#utility.yul\":10464:10633   */\n      swap3\n      swap2\n      pop\n      pop\n      jump\t// out\n        /* \"#utility.yul\":10639:10946   */\n    tag_112:\n        /* \"#utility.yul\":10707:10708   */\n      0x00\n        /* \"#utility.yul\":10717:10830   */\n    tag_235:\n        /* \"#utility.yul\":10731:10737   */\n      dup4\n        /* \"#utility.yul\":10728:10729   */\n      dup2\n        /* \"#utility.yul\":10725:10738   */\n      lt\n        /* \"#utility.yul\":10717:10830   */\n      iszero\n      tag_237\n      jumpi\n        /* \"#utility.yul\":10816:10817   */\n      dup1\n        /* \"#utility.yul\":10811:10814   */\n      dup3\n        /* \"#utility.yul\":10807:10818   */\n      add\n        /* \"#utility.yul\":10801:10819   */\n      mload\n        /* \"#utility.yul\":10797:10798   */\n      dup2\n        /* \"#utility.yul\":10792:10795   */\n      dup5\n        /* \"#utility.yul\":10788:10799   */\n      add\n        /* \"#utility.yul\":10781:10820   */\n      mstore\n        /* \"#utility.yul\":10753:10755   */\n      0x20\n        /* \"#utility.yul\":10750:10751   */\n      dup2\n        /* \"#utility.yul\":10746:10756   */\n      add\n        /* \"#utility.yul\":10741:10756   */\n      swap1\n      pop\n        /* \"#utility.yul\":10717:10830   */\n      jump(tag_235)\n    tag_237:\n        /* \"#utility.yul\":10848:10854   */\n      dup4\n        /* \"#utility.yul\":10845:10846   */\n      dup2\n        /* \"#utility.yul\":10842:10855   */\n      gt\n        /* \"#utility.yul\":10839:10940   */\n      iszero\n      tag_238\n      jumpi\n        /* \"#utility.yul\":10928:10929   */\n      0x00\n        /* \"#utility.yul\":10919:10925   */\n      dup5\n        /* \"#utility.yul\":10914:10917   */\n      dup5\n        /* \"#utility.yul\":10910:10926   */\n      add\n        /* \"#utility.yul\":10903:10930   */\n      mstore\n        /* \"#utility.yul\":10839:10940   */\n    tag_238:\n        /* \"#utility.yul\":10688:10946   */\n      pop\n        /* \"#utility.yul\":10639:10946   */\n      pop\n      pop\n      pop\n      jump\t// out\n        /* \"#utility.yul\":10952:11316   */\n    tag_113:\n        /* \"#utility.yul\":11040:11043   */\n      0x00\n        /* \"#utility.yul\":11068:11107   */\n      tag_240\n        /* \"#utility.yul\":11101:11106   */\n      dup3\n        /* \"#utility.yul\":11068:11107   */\n      tag_110\n      jump\t// in\n    tag_240:\n        /* \"#utility.yul\":11123:11194   */\n      tag_241\n        /* \"#utility.yul\":11187:11193   */\n      dup2\n        /* \"#utility.yul\":11182:11185   */\n      dup6\n        /* \"#utility.yul\":11123:11194   */\n      tag_111\n      jump\t// in\n    tag_241:\n        /* \"#utility.yul\":11116:11194   */\n      swap4\n      pop\n        /* \"#utility.yul\":11203:11255   */\n      tag_242\n        /* \"#utility.yul\":11248:11254   */\n      dup2\n        /* \"#utility.yul\":11243:11246   */\n      dup6\n        /* \"#utility.yul\":11236:11240   */\n      0x20\n        /* \"#utility.yul\":11229:11234   */\n      dup7\n        /* \"#utility.yul\":11225:11241   */\n      add\n        /* \"#utility.yul\":11203:11255   */\n      tag_112\n      jump\t// in\n    tag_242:\n        /* \"#utility.yul\":11280:11309   */\n      tag_243\n        /* \"#utility.yul\":11302:11308   */\n      dup2\n        /* \"#utility.yul\":11280:11309   */\n      tag_86\n      jump\t// in\n    tag_243:\n        /* \"#utility.yul\":11275:11278   */\n      dup5\n        /* \"#utility.yul\":11271:11310   */\n      add\n        /* \"#utility.yul\":11264:11310   */\n      swap2\n      pop\n        /* \"#utility.yul\":11044:11316   */\n      pop\n        /* \"#utility.yul\":10952:11316   */\n      swap3\n      swap2\n      pop\n      pop\n      jump\t// out\n        /* \"#utility.yul\":11322:11836   */\n    tag_58:\n        /* \"#utility.yul\":11483:11487   */\n      0x00\n        /* \"#utility.yul\":11521:11523   */\n      0x40\n        /* \"#utility.yul\":11510:11519   */\n      dup3\n        /* \"#utility.yul\":11506:11524   */\n      add\n        /* \"#utility.yul\":11498:11524   */\n      swap1\n      pop\n        /* \"#utility.yul\":11570:11579   */\n      dup2\n        /* \"#utility.yul\":11564:11568   */\n      dup2\n        /* \"#utility.yul\":11560:11580   */\n      sub\n        /* \"#utility.yul\":11556:11557   */\n      0x00\n        /* \"#utility.yul\":11545:11554   */\n      dup4\n        /* \"#utility.yul\":11541:11558   */\n      add\n        /* \"#utility.yul\":11534:11581   */\n      mstore\n        /* \"#utility.yul\":11598:11676   */\n      tag_245\n        /* \"#utility.yul\":11671:11675   */\n      dup2\n        /* \"#utility.yul\":11662:11668   */\n      dup6\n        /* \"#utility.yul\":11598:11676   */\n      tag_113\n      jump\t// in\n    tag_245:\n        /* \"#utility.yul\":11590:11676   */\n      swap1\n      pop\n        /* \"#utility.yul\":11723:11732   */\n      dup2\n        /* \"#utility.yul\":11717:11721   */\n      dup2\n        /* \"#utility.yul\":11713:11733   */\n      sub\n        /* \"#utility.yul\":11708:11710   */\n      0x20\n        /* \"#utility.yul\":11697:11706   */\n      dup4\n        /* \"#utility.yul\":11693:11711   */\n      add\n        /* \"#utility.yul\":11686:11734   */\n      mstore\n        /* \"#utility.yul\":11751:11829   */\n      tag_246\n        /* \"#utility.yul\":11824:11828   */\n      dup2\n        /* \"#utility.yul\":11815:11821   */\n      dup5\n        /* \"#utility.yul\":11751:11829   */\n      tag_113\n      jump\t// in\n    tag_246:\n        /* \"#utility.yul\":11743:11829   */\n      swap1\n      pop\n        /* \"#utility.yul\":11322:11836   */\n      swap4\n      swap3\n      pop\n      pop\n      pop\n      jump\t// out\n    stop\n\n    sub_0: assembly {\n            /* \"DocumentContract.sol\":68:922  contract DocumentContract {... */\n          mstore(0x40, 0x80)\n            /* \"DocumentContract.sol\":284:432  constructor(string memory _ipfsHash, string memory _documentName) public {... */\n          callvalue\n          dup1\n          iszero\n          tag_1\n          jumpi\n          0x00\n          dup1\n          revert\n        tag_1:\n          pop\n          mload(0x40)\n          sub(codesize, bytecodeSize)\n          dup1\n          bytecodeSize\n          dup4\n          codecopy\n          dup2\n          dup2\n          add\n          0x40\n          mstore\n          dup2\n          add\n          swap1\n          tag_2\n          swap2\n          swap1\n          tag_3\n          jump\t// in\n        tag_2:\n            /* \"DocumentContract.sol\":378:387  _ipfsHash */\n          dup2\n            /* \"DocumentContract.sol\":367:375  ipfsHash */\n          0x00\n            /* \"DocumentContract.sol\":367:387  ipfsHash = _ipfsHash */\n          swap1\n          dup1\n          mload\n          swap1\n          0x20\n          add\n          swap1\n          tag_6\n          swap3\n          swap2\n          swap1\n          tag_7\n          jump\t// in\n        tag_6:\n          pop\n            /* \"DocumentContract.sol\":412:425  _documentName */\n          dup1\n            /* \"DocumentContract.sol\":397:409  documentName */\n          0x01\n            /* \"DocumentContract.sol\":397:425  documentName = _documentName */\n          swap1\n          dup1\n          mload\n          swap1\n          0x20\n          add\n          swap1\n          tag_8\n          swap3\n          swap2\n          swap1\n          tag_7\n          jump\t// in\n        tag_8:\n          pop\n            /* \"DocumentContract.sol\":284:432  constructor(string memory _ipfsHash, string memory _documentName) public {... */\n          pop\n          pop\n            /* \"DocumentContract.sol\":68:922  contract DocumentContract {... */\n          jump(tag_9)\n        tag_7:\n          dup3\n          dup1\n          sload\n          tag_10\n          swap1\n          tag_11\n          jump\t// in\n        tag_10:\n          swap1\n          0x00\n          mstore\n          keccak256(0x00, 0x20)\n          swap1\n          0x1f\n          add\n          0x20\n          swap1\n          div\n          dup2\n          add\n          swap3\n          dup3\n          tag_13\n          jumpi\n          0x00\n          dup6\n          sstore\n          jump(tag_12)\n        tag_13:\n          dup3\n          0x1f\n          lt\n          tag_14\n          jumpi\n          dup1\n          mload\n          not(0xff)\n          and\n          dup4\n          dup1\n          add\n          or\n          dup6\n          sstore\n          jump(tag_12)\n        tag_14:\n          dup3\n          dup1\n          add\n          0x01\n          add\n          dup6\n          sstore\n          dup3\n          iszero\n          tag_12\n          jumpi\n          swap2\n          dup3\n          add\n        tag_15:\n          dup3\n          dup2\n          gt\n          iszero\n          tag_16\n          jumpi\n          dup3\n          mload\n          dup3\n          sstore\n          swap2\n          0x20\n          add\n          swap2\n          swap1\n          0x01\n          add\n          swap1\n          jump(tag_15)\n        tag_16:\n        tag_12:\n          pop\n          swap1\n          pop\n          tag_17\n          swap2\n          swap1\n          tag_18\n          jump\t// in\n        tag_17:\n          pop\n          swap1\n          jump\t// out\n        tag_18:\n        tag_19:\n          dup1\n          dup3\n          gt\n          iszero\n          tag_20\n          jumpi\n          0x00\n          dup2\n          0x00\n          swap1\n          sstore\n          pop\n          0x01\n          add\n          jump(tag_19)\n        tag_20:\n          pop\n          swap1\n          jump\t// out\n            /* \"#utility.yul\":7:82   */\n        tag_21:\n            /* \"#utility.yul\":40:46   */\n          0x00\n            /* \"#utility.yul\":73:75   */\n          0x40\n            /* \"#utility.yul\":67:76   */\n          mload\n            /* \"#utility.yul\":57:76   */\n          swap1\n          pop\n            /* \"#utility.yul\":7:82   */\n          swap1\n          jump\t// out\n            /* \"#utility.yul\":88:205   */\n        tag_22:\n            /* \"#utility.yul\":197:198   */\n          0x00\n            /* \"#utility.yul\":194:195   */\n          dup1\n            /* \"#utility.yul\":187:199   */\n          revert\n            /* \"#utility.yul\":211:328   */\n        tag_23:\n            /* \"#utility.yul\":320:321   */\n          0x00\n            /* \"#utility.yul\":317:318   */\n          dup1\n            /* \"#utility.yul\":310:322   */\n          revert\n            /* \"#utility.yul\":334:451   */\n        tag_24:\n            /* \"#utility.yul\":443:444   */\n          0x00\n            /* \"#utility.yul\":440:441   */\n          dup1\n            /* \"#utility.yul\":433:445   */\n          revert\n            /* \"#utility.yul\":457:574   */\n        tag_25:\n            /* \"#utility.yul\":566:567   */\n          0x00\n            /* \"#utility.yul\":563:564   */\n          dup1\n            /* \"#utility.yul\":556:568   */\n          revert\n            /* \"#utility.yul\":580:682   */\n        tag_26:\n            /* \"#utility.yul\":621:627   */\n          0x00\n            /* \"#utility.yul\":672:674   */\n          0x1f\n            /* \"#utility.yul\":668:675   */\n          not\n            /* \"#utility.yul\":663:665   */\n          0x1f\n            /* \"#utility.yul\":656:661   */\n          dup4\n            /* \"#utility.yul\":652:666   */\n          add\n            /* \"#utility.yul\":648:676   */\n          and\n            /* \"#utility.yul\":638:676   */\n          swap1\n          pop\n            /* \"#utility.yul\":580:682   */\n          swap2\n          swap1\n          pop\n          jump\t// out\n            /* \"#utility.yul\":688:868   */\n        tag_27:\n            /* \"#utility.yul\":736:813   */\n          0x4e487b7100000000000000000000000000000000000000000000000000000000\n            /* \"#utility.yul\":733:734   */\n          0x00\n            /* \"#utility.yul\":726:814   */\n          mstore\n            /* \"#utility.yul\":833:837   */\n          0x41\n            /* \"#utility.yul\":830:831   */\n          0x04\n            /* \"#utility.yul\":823:838   */\n          mstore\n            /* \"#utility.yul\":857:861   */\n          0x24\n            /* \"#utility.yul\":854:855   */\n          0x00\n            /* \"#utility.yul\":847:862   */\n          revert\n            /* \"#utility.yul\":874:1155   */\n        tag_28:\n            /* \"#utility.yul\":957:984   */\n          tag_44\n            /* \"#utility.yul\":979:983   */\n          dup3\n            /* \"#utility.yul\":957:984   */\n          tag_26\n          jump\t// in\n        tag_44:\n            /* \"#utility.yul\":949:955   */\n          dup2\n            /* \"#utility.yul\":945:985   */\n          add\n            /* \"#utility.yul\":1087:1093   */\n          dup2\n            /* \"#utility.yul\":1075:1085   */\n          dup2\n            /* \"#utility.yul\":1072:1094   */\n          lt\n            /* \"#utility.yul\":1051:1069   */\n          0xffffffffffffffff\n            /* \"#utility.yul\":1039:1049   */\n          dup3\n            /* \"#utility.yul\":1036:1070   */\n          gt\n            /* \"#utility.yul\":1033:1095   */\n          or\n            /* \"#utility.yul\":1030:1118   */\n          iszero\n          tag_45\n          jumpi\n            /* \"#utility.yul\":1098:1116   */\n          tag_46\n          tag_27\n          jump\t// in\n        tag_46:\n            /* \"#utility.yul\":1030:1118   */\n        tag_45:\n            /* \"#utility.yul\":1138:1148   */\n          dup1\n            /* \"#utility.yul\":1134:1136   */\n          0x40\n            /* \"#utility.yul\":1127:1149   */\n          mstore\n            /* \"#utility.yul\":917:1155   */\n          pop\n            /* \"#utility.yul\":874:1155   */\n          pop\n          pop\n          jump\t// out\n            /* \"#utility.yul\":1161:1290   */\n        tag_29:\n            /* \"#utility.yul\":1195:1201   */\n          0x00\n            /* \"#utility.yul\":1222:1242   */\n          tag_48\n          tag_21\n          jump\t// in\n        tag_48:\n            /* \"#utility.yul\":1212:1242   */\n          swap1\n          pop\n            /* \"#utility.yul\":1251:1284   */\n          tag_49\n            /* \"#utility.yul\":1279:1283   */\n          dup3\n            /* \"#utility.yul\":1271:1277   */\n          dup3\n            /* \"#utility.yul\":1251:1284   */\n          tag_28\n          jump\t// in\n        tag_49:\n            /* \"#utility.yul\":1161:1290   */\n          swap2\n          swap1\n          pop\n          jump\t// out\n            /* \"#utility.yul\":1296:1604   */\n        tag_30:\n            /* \"#utility.yul\":1358:1362   */\n          0x00\n            /* \"#utility.yul\":1448:1466   */\n          0xffffffffffffffff\n            /* \"#utility.yul\":1440:1446   */\n          dup3\n            /* \"#utility.yul\":1437:1467   */\n          gt\n            /* \"#utility.yul\":1434:1490   */\n          iszero\n          tag_51\n          jumpi\n            /* \"#utility.yul\":1470:1488   */\n          tag_52\n          tag_27\n          jump\t// in\n        tag_52:\n            /* \"#utility.yul\":1434:1490   */\n        tag_51:\n            /* \"#utility.yul\":1508:1537   */\n          tag_53\n            /* \"#utility.yul\":1530:1536   */\n          dup3\n            /* \"#utility.yul\":1508:1537   */\n          tag_26\n          jump\t// in\n        tag_53:\n            /* \"#utility.yul\":1500:1537   */\n          swap1\n          pop\n            /* \"#utility.yul\":1592:1596   */\n          0x20\n            /* \"#utility.yul\":1586:1590   */\n          dup2\n            /* \"#utility.yul\":1582:1597   */\n          add\n            /* \"#utility.yul\":1574:1597   */\n          swap1\n          pop\n            /* \"#utility.yul\":1296:1604   */\n          swap2\n          swap1\n          pop\n          jump\t// out\n            /* \"#utility.yul\":1610:1917   */\n        tag_31:\n            /* \"#utility.yul\":1678:1679   */\n          0x00\n            /* \"#utility.yul\":1688:1801   */\n        tag_55:\n            /* \"#utility.yul\":1702:1708   */\n          dup4\n            /* \"#utility.yul\":1699:1700   */\n          dup2\n            /* \"#utility.yul\":1696:1709   */\n          lt\n            /* \"#utility.yul\":1688:1801   */\n          iszero\n          tag_57\n          jumpi\n            /* \"#utility.yul\":1787:1788   */\n          dup1\n            /* \"#utility.yul\":1782:1785   */\n          dup3\n            /* \"#utility.yul\":1778:1789   */\n          add\n            /* \"#utility.yul\":1772:1790   */\n          mload\n            /* \"#utility.yul\":1768:1769   */\n          dup2\n            /* \"#utility.yul\":1763:1766   */\n          dup5\n            /* \"#utility.yul\":1759:1770   */\n          add\n            /* \"#utility.yul\":1752:1791   */\n          mstore\n            /* \"#utility.yul\":1724:1726   */\n          0x20\n            /* \"#utility.yul\":1721:1722   */\n          dup2\n            /* \"#utility.yul\":1717:1727   */\n          add\n            /* \"#utility.yul\":1712:1727   */\n          swap1\n          pop\n            /* \"#utility.yul\":1688:1801   */\n          jump(tag_55)\n        tag_57:\n            /* \"#utility.yul\":1819:1825   */\n          dup4\n            /* \"#utility.yul\":1816:1817   */\n          dup2\n            /* \"#utility.yul\":1813:1826   */\n          gt\n            /* \"#utility.yul\":1810:1911   */\n          iszero\n          tag_58\n          jumpi\n            /* \"#utility.yul\":1899:1900   */\n          0x00\n            /* \"#utility.yul\":1890:1896   */\n          dup5\n            /* \"#utility.yul\":1885:1888   */\n          dup5\n            /* \"#utility.yul\":1881:1897   */\n          add\n            /* \"#utility.yul\":1874:1901   */\n          mstore\n            /* \"#utility.yul\":1810:1911   */\n        tag_58:\n            /* \"#utility.yul\":1659:1917   */\n          pop\n            /* \"#utility.yul\":1610:1917   */\n          pop\n          pop\n          pop\n          jump\t// out\n            /* \"#utility.yul\":1923:2344   */\n        tag_32:\n            /* \"#utility.yul\":2012:2017   */\n          0x00\n            /* \"#utility.yul\":2037:2103   */\n          tag_60\n            /* \"#utility.yul\":2053:2102   */\n          tag_61\n            /* \"#utility.yul\":2095:2101   */\n          dup5\n            /* \"#utility.yul\":2053:2102   */\n          tag_30\n          jump\t// in\n        tag_61:\n            /* \"#utility.yul\":2037:2103   */\n          tag_29\n          jump\t// in\n        tag_60:\n            /* \"#utility.yul\":2028:2103   */\n          swap1\n          pop\n            /* \"#utility.yul\":2126:2132   */\n          dup3\n            /* \"#utility.yul\":2119:2124   */\n          dup2\n            /* \"#utility.yul\":2112:2133   */\n          mstore\n            /* \"#utility.yul\":2164:2168   */\n          0x20\n            /* \"#utility.yul\":2157:2162   */\n          dup2\n            /* \"#utility.yul\":2153:2169   */\n          add\n            /* \"#utility.yul\":2202:2205   */\n          dup5\n            /* \"#utility.yul\":2193:2199   */\n          dup5\n            /* \"#utility.yul\":2188:2191   */\n          dup5\n            /* \"#utility.yul\":2184:2200   */\n          add\n            /* \"#utility.yul\":2181:2206   */\n          gt\n            /* \"#utility.yul\":2178:2290   */\n          iszero\n          tag_62\n          jumpi\n            /* \"#utility.yul\":2209:2288   */\n          tag_63\n          tag_25\n          jump\t// in\n        tag_63:\n            /* \"#utility.yul\":2178:2290   */\n        tag_62:\n            /* \"#utility.yul\":2299:2338   */\n          tag_64\n            /* \"#utility.yul\":2331:2337   */\n          dup5\n            /* \"#utility.yul\":2326:2329   */\n          dup3\n            /* \"#utility.yul\":2321:2324   */\n          dup6\n            /* \"#utility.yul\":2299:2338   */\n          tag_31\n          jump\t// in\n        tag_64:\n            /* \"#utility.yul\":2018:2344   */\n          pop\n            /* \"#utility.yul\":1923:2344   */\n          swap4\n          swap3\n          pop\n          pop\n          pop\n          jump\t// out\n            /* \"#utility.yul\":2364:2719   */\n        tag_33:\n            /* \"#utility.yul\":2431:2436   */\n          0x00\n            /* \"#utility.yul\":2480:2483   */\n          dup3\n            /* \"#utility.yul\":2473:2477   */\n          0x1f\n            /* \"#utility.yul\":2465:2471   */\n          dup4\n            /* \"#utility.yul\":2461:2478   */\n          add\n            /* \"#utility.yul\":2457:2484   */\n          slt\n            /* \"#utility.yul\":2447:2569   */\n          tag_66\n          jumpi\n            /* \"#utility.yul\":2488:2567   */\n          tag_67\n          tag_24\n          jump\t// in\n        tag_67:\n            /* \"#utility.yul\":2447:2569   */\n        tag_66:\n            /* \"#utility.yul\":2598:2604   */\n          dup2\n            /* \"#utility.yul\":2592:2605   */\n          mload\n            /* \"#utility.yul\":2623:2713   */\n          tag_68\n            /* \"#utility.yul\":2709:2712   */\n          dup5\n            /* \"#utility.yul\":2701:2707   */\n          dup3\n            /* \"#utility.yul\":2694:2698   */\n          0x20\n            /* \"#utility.yul\":2686:2692   */\n          dup7\n            /* \"#utility.yul\":2682:2699   */\n          add\n            /* \"#utility.yul\":2623:2713   */\n          tag_32\n          jump\t// in\n        tag_68:\n            /* \"#utility.yul\":2614:2713   */\n          swap2\n          pop\n            /* \"#utility.yul\":2437:2719   */\n          pop\n            /* \"#utility.yul\":2364:2719   */\n          swap3\n          swap2\n          pop\n          pop\n          jump\t// out\n            /* \"#utility.yul\":2725:3578   */\n        tag_3:\n            /* \"#utility.yul\":2824:2830   */\n          0x00\n            /* \"#utility.yul\":2832:2838   */\n          dup1\n            /* \"#utility.yul\":2881:2883   */\n          0x40\n            /* \"#utility.yul\":2869:2878   */\n          dup4\n            /* \"#utility.yul\":2860:2867   */\n          dup6\n            /* \"#utility.yul\":2856:2879   */\n          sub\n            /* \"#utility.yul\":2852:2884   */\n          slt\n            /* \"#utility.yul\":2849:2968   */\n          iszero\n          tag_70\n          jumpi\n            /* \"#utility.yul\":2887:2966   */\n          tag_71\n          tag_22\n          jump\t// in\n        tag_71:\n            /* \"#utility.yul\":2849:2968   */\n        tag_70:\n            /* \"#utility.yul\":3028:3029   */\n          0x00\n            /* \"#utility.yul\":3017:3026   */\n          dup4\n            /* \"#utility.yul\":3013:3030   */\n          add\n            /* \"#utility.yul\":3007:3031   */\n          mload\n            /* \"#utility.yul\":3058:3076   */\n          0xffffffffffffffff\n            /* \"#utility.yul\":3050:3056   */\n          dup2\n            /* \"#utility.yul\":3047:3077   */\n          gt\n            /* \"#utility.yul\":3044:3161   */\n          iszero\n          tag_72\n          jumpi\n            /* \"#utility.yul\":3080:3159   */\n          tag_73\n          tag_23\n          jump\t// in\n        tag_73:\n            /* \"#utility.yul\":3044:3161   */\n        tag_72:\n            /* \"#utility.yul\":3185:3259   */\n          tag_74\n            /* \"#utility.yul\":3251:3258   */\n          dup6\n            /* \"#utility.yul\":3242:3248   */\n          dup3\n            /* \"#utility.yul\":3231:3240   */\n          dup7\n            /* \"#utility.yul\":3227:3249   */\n          add\n            /* \"#utility.yul\":3185:3259   */\n          tag_33\n          jump\t// in\n        tag_74:\n            /* \"#utility.yul\":3175:3259   */\n          swap3\n          pop\n            /* \"#utility.yul\":2978:3269   */\n          pop\n            /* \"#utility.yul\":3329:3331   */\n          0x20\n            /* \"#utility.yul\":3318:3327   */\n          dup4\n            /* \"#utility.yul\":3314:3332   */\n          add\n            /* \"#utility.yul\":3308:3333   */\n          mload\n            /* \"#utility.yul\":3360:3378   */\n          0xffffffffffffffff\n            /* \"#utility.yul\":3352:3358   */\n          dup2\n            /* \"#utility.yul\":3349:3379   */\n          gt\n            /* \"#utility.yul\":3346:3463   */\n          iszero\n          tag_75\n          jumpi\n            /* \"#utility.yul\":3382:3461   */\n          tag_76\n          tag_23\n          jump\t// in\n        tag_76:\n            /* \"#utility.yul\":3346:3463   */\n        tag_75:\n            /* \"#utility.yul\":3487:3561   */\n          tag_77\n            /* \"#utility.yul\":3553:3560   */\n          dup6\n            /* \"#utility.yul\":3544:3550   */\n          dup3\n            /* \"#utility.yul\":3533:3542   */\n          dup7\n            /* \"#utility.yul\":3529:3551   */\n          add\n            /* \"#utility.yul\":3487:3561   */\n          tag_33\n          jump\t// in\n        tag_77:\n            /* \"#utility.yul\":3477:3561   */\n          swap2\n          pop\n            /* \"#utility.yul\":3279:3571   */\n          pop\n            /* \"#utility.yul\":2725:3578   */\n          swap3\n          pop\n          swap3\n          swap1\n          pop\n          jump\t// out\n            /* \"#utility.yul\":3584:3764   */\n        tag_34:\n            /* \"#utility.yul\":3632:3709   */\n          0x4e487b7100000000000000000000000000000000000000000000000000000000\n            /* \"#utility.yul\":3629:3630   */\n          0x00\n            /* \"#utility.yul\":3622:3710   */\n          mstore\n            /* \"#utility.yul\":3729:3733   */\n          0x22\n            /* \"#utility.yul\":3726:3727   */\n          0x04\n            /* \"#utility.yul\":3719:3734   */\n          mstore\n            /* \"#utility.yul\":3753:3757   */\n          0x24\n            /* \"#utility.yul\":3750:3751   */\n          0x00\n            /* \"#utility.yul\":3743:3758   */\n          revert\n            /* \"#utility.yul\":3770:4090   */\n        tag_11:\n            /* \"#utility.yul\":3814:3820   */\n          0x00\n            /* \"#utility.yul\":3851:3852   */\n          0x02\n            /* \"#utility.yul\":3845:3849   */\n          dup3\n            /* \"#utility.yul\":3841:3853   */\n          div\n            /* \"#utility.yul\":3831:3853   */\n          swap1\n          pop\n            /* \"#utility.yul\":3898:3899   */\n          0x01\n            /* \"#utility.yul\":3892:3896   */\n          dup3\n            /* \"#utility.yul\":3888:3900   */\n          and\n            /* \"#utility.yul\":3919:3937   */\n          dup1\n            /* \"#utility.yul\":3909:3990   */\n          tag_80\n          jumpi\n            /* \"#utility.yul\":3975:3979   */\n          0x7f\n            /* \"#utility.yul\":3967:3973   */\n          dup3\n            /* \"#utility.yul\":3963:3980   */\n          and\n            /* \"#utility.yul\":3953:3980   */\n          swap2\n          pop\n            /* \"#utility.yul\":3909:3990   */\n        tag_80:\n            /* \"#utility.yul\":4037:4039   */\n          0x20\n            /* \"#utility.yul\":4029:4035   */\n          dup3\n            /* \"#utility.yul\":4026:4040   */\n          lt\n            /* \"#utility.yul\":4006:4024   */\n          dup2\n            /* \"#utility.yul\":4003:4041   */\n          sub\n            /* \"#utility.yul\":4000:4084   */\n          tag_81\n          jumpi\n            /* \"#utility.yul\":4056:4074   */\n          tag_82\n          tag_34\n          jump\t// in\n        tag_82:\n            /* \"#utility.yul\":4000:4084   */\n        tag_81:\n            /* \"#utility.yul\":3821:4090   */\n          pop\n            /* \"#utility.yul\":3770:4090   */\n          swap2\n          swap1\n          pop\n          jump\t// out\n            /* \"DocumentContract.sol\":68:922  contract DocumentContract {... */\n        tag_9:\n          dataSize(sub_0)\n          dup1\n          dataOffset(sub_0)\n          0x00\n          codecopy\n          0x00\n          return\n        stop\n\n        sub_0: assembly {\n                /* \"DocumentContract.sol\":68:922  contract DocumentContract {... */\n              mstore(0x40, 0x80)\n              callvalue\n              dup1\n              iszero\n              tag_1\n              jumpi\n              0x00\n              dup1\n              revert\n            tag_1:\n              pop\n              jumpi(tag_2, lt(calldatasize, 0x04))\n              shr(0xe0, calldataload(0x00))\n              dup1\n              0x0ef486d1\n              eq\n              tag_3\n              jumpi\n              dup1\n              0x4d300e0c\n              eq\n              tag_4\n              jumpi\n              dup1\n              0x6b465601\n              eq\n              tag_5\n              jumpi\n              dup1\n              0x78b8e824\n              eq\n              tag_6\n              jumpi\n              dup1\n              0xc623674f\n              eq\n              tag_7\n              jumpi\n              dup1\n              0xddc8afbd\n              eq\n              tag_8\n              jumpi\n            tag_2:\n              0x00\n              dup1\n              revert\n                /* \"DocumentContract.sol\":242:277  RevisionDocument[] public revisions */\n            tag_3:\n              tag_9\n              0x04\n              dup1\n              calldatasize\n              sub\n              dup2\n              add\n              swap1\n              tag_10\n              swap2\n              swap1\n              tag_11\n              jump\t// in\n            tag_10:\n              tag_12\n              jump\t// in\n            tag_9:\n              mload(0x40)\n              tag_13\n              swap3\n              swap2\n              swap1\n              tag_14\n              jump\t// in\n            tag_13:\n              mload(0x40)\n              dup1\n              swap2\n              sub\n              swap1\n              return\n                /* \"DocumentContract.sol\":438:675  function updateDocument(string memory newIpfsHash, string  memory newName) public{... */\n            tag_4:\n              tag_15\n              0x04\n              dup1\n              calldatasize\n              sub\n              dup2\n              add\n              swap1\n              tag_16\n              swap2\n              swap1\n              tag_17\n              jump\t// in\n            tag_16:\n              tag_18\n              jump\t// in\n            tag_15:\n              stop\n                /* \"DocumentContract.sol\":210:236  string public documentName */\n            tag_5:\n              tag_19\n              tag_20\n              jump\t// in\n            tag_19:\n              mload(0x40)\n              tag_21\n              swap2\n              swap1\n              tag_22\n              jump\t// in\n            tag_21:\n              mload(0x40)\n              dup1\n              swap2\n              sub\n              swap1\n              return\n                /* \"DocumentContract.sol\":810:920  function getRevisionDocument() public view returns(RevisionDocument[] memory){... */\n            tag_6:\n              tag_23\n              tag_24\n              jump\t// in\n            tag_23:\n              mload(0x40)\n              tag_25\n              swap2\n              swap1\n              tag_26\n              jump\t// in\n            tag_25:\n              mload(0x40)\n              dup1\n              swap2\n              sub\n              swap1\n              return\n                /* \"DocumentContract.sol\":182:204  string public ipfsHash */\n            tag_7:\n              tag_27\n              tag_28\n              jump\t// in\n            tag_27:\n              mload(0x40)\n              tag_29\n              swap2\n              swap1\n              tag_22\n              jump\t// in\n            tag_29:\n              mload(0x40)\n              dup1\n              swap2\n              sub\n              swap1\n              return\n                /* \"DocumentContract.sol\":681:804  function getIpfsHashAndDocumentName() public view returns(string[2] memory){... */\n            tag_8:\n              tag_30\n              tag_31\n              jump\t// in\n            tag_30:\n              mload(0x40)\n              tag_32\n              swap2\n              swap1\n              tag_33\n              jump\t// in\n            tag_32:\n              mload(0x40)\n              dup1\n              swap2\n              sub\n              swap1\n              return\n                /* \"DocumentContract.sol\":242:277  RevisionDocument[] public revisions */\n            tag_12:\n              0x02\n              dup2\n              dup2\n              sload\n              dup2\n              lt\n              tag_34\n              jumpi\n              0x00\n              dup1\n              revert\n            tag_34:\n              swap1\n              0x00\n              mstore\n              keccak256(0x00, 0x20)\n              swap1\n              0x02\n              mul\n              add\n              0x00\n              swap2\n              pop\n              swap1\n              pop\n              dup1\n              0x00\n              add\n              dup1\n              sload\n              tag_36\n              swap1\n              tag_37\n              jump\t// in\n            tag_36:\n              dup1\n              0x1f\n              add\n              0x20\n              dup1\n              swap2\n              div\n              mul\n              0x20\n              add\n              mload(0x40)\n              swap1\n              dup2\n              add\n              0x40\n              mstore\n              dup1\n              swap3\n              swap2\n              swap1\n              dup2\n              dup2\n              mstore\n              0x20\n              add\n              dup3\n              dup1\n              sload\n              tag_38\n              swap1\n              tag_37\n              jump\t// in\n            tag_38:\n              dup1\n              iszero\n              tag_39\n              jumpi\n              dup1\n              0x1f\n              lt\n              tag_40\n              jumpi\n              0x0100\n              dup1\n              dup4\n              sload\n              div\n              mul\n              dup4\n              mstore\n              swap2\n              0x20\n              add\n              swap2\n              jump(tag_39)\n            tag_40:\n              dup3\n              add\n              swap2\n              swap1\n              0x00\n              mstore\n              keccak256(0x00, 0x20)\n              swap1\n            tag_41:\n              dup2\n              sload\n              dup2\n              mstore\n              swap1\n              0x01\n              add\n              swap1\n              0x20\n              add\n              dup1\n              dup4\n              gt\n              tag_41\n              jumpi\n              dup3\n              swap1\n              sub\n              0x1f\n              and\n              dup3\n              add\n              swap2\n            tag_39:\n              pop\n              pop\n              pop\n              pop\n              pop\n              swap1\n              dup1\n              0x01\n              add\n              dup1\n              sload\n              tag_42\n              swap1\n              tag_37\n              jump\t// in\n            tag_42:\n              dup1\n              0x1f\n              add\n              0x20\n              dup1\n              swap2\n              div\n              mul\n              0x20\n              add\n              mload(0x40)\n              swap1\n              dup2\n              add\n              0x40\n              mstore\n              dup1\n              swap3\n              swap2\n              swap1\n              dup2\n              dup2\n              mstore\n              0x20\n              add\n              dup3\n              dup1\n              sload\n              tag_43\n              swap1\n              tag_37\n              jump\t// in\n            tag_43:\n              dup1\n              iszero\n              tag_44\n              jumpi\n              dup1\n              0x1f\n              lt\n              tag_45\n              jumpi\n              0x0100\n              dup1\n              dup4\n              sload\n              div\n              mul\n              dup4\n              mstore\n              swap2\n              0x20\n              add\n              swap2\n              jump(tag_44)\n            tag_45:\n              dup3\n              add\n              swap2\n              swap1\n              0x00\n              mstore\n              keccak256(0x00, 0x20)\n              swap1\n            tag_46:\n              dup2\n              sload\n              dup2\n              mstore\n              swap1\n              0x01\n              add\n              swap1\n              0x20\n              add\n              dup1\n              dup4\n              gt\n              tag_46\n              jumpi\n              dup3\n              swap1\n              sub\n              0x1f\n              and\n              dup3\n              add\n              swap2\n            tag_44:\n              pop\n              pop\n              pop\n              pop\n              pop\n              swap1\n              pop\n              dup3\n              jump\t// out\n                /* \"DocumentContract.sol\":438:675  function updateDocument(string memory newIpfsHash, string  memory newName) public{... */\n            tag_18:\n                /* \"DocumentContract.sol\":529:538  revisions */\n              0x02\n                /* \"DocumentContract.sol\":544:602  RevisionDocument({ipfsHash: ipfsHash, name: documentName}) */\n              mload(0x40)\n              dup1\n              0x40\n              add\n              0x40\n              mstore\n              dup1\n                /* \"DocumentContract.sol\":588:600  documentName */\n              0x01\n                /* \"DocumentContract.sol\":544:602  RevisionDocument({ipfsHash: ipfsHash, name: documentName}) */\n              dup1\n              sload\n              tag_48\n              swap1\n              tag_37\n              jump\t// in\n            tag_48:\n              dup1\n              0x1f\n              add\n              0x20\n              dup1\n              swap2\n              div\n              mul\n              0x20\n              add\n              mload(0x40)\n              swap1\n              dup2\n              add\n              0x40\n              mstore\n              dup1\n              swap3\n              swap2\n              swap1\n              dup2\n              dup2\n              mstore\n              0x20\n              add\n              dup3\n              dup1\n              sload\n              tag_49\n              swap1\n              tag_37\n              jump\t// in\n            tag_49:\n              dup1\n              iszero\n              tag_50\n              jumpi\n              dup1\n              0x1f\n              lt\n              tag_51\n              jumpi\n              0x0100\n              dup1\n              dup4\n              sload\n              div\n              mul\n              dup4\n              mstore\n              swap2\n              0x20\n              add\n              swap2\n              jump(tag_50)\n            tag_51:\n              dup3\n              add\n              swap2\n              swap1\n              0x00\n              mstore\n              keccak256(0x00, 0x20)\n              swap1\n            tag_52:\n              dup2\n              sload\n              dup2\n              mstore\n              swap1\n              0x01\n              add\n              swap1\n              0x20\n              add\n              dup1\n              dup4\n              gt\n              tag_52\n              jumpi\n              dup3\n              swap1\n              sub\n              0x1f\n              and\n              dup3\n              add\n              swap2\n            tag_50:\n              pop\n              pop\n              pop\n              pop\n              pop\n              dup2\n              mstore\n              0x20\n              add\n                /* \"DocumentContract.sol\":572:580  ipfsHash */\n              0x00\n                /* \"DocumentContract.sol\":544:602  RevisionDocument({ipfsHash: ipfsHash, name: documentName}) */\n              dup1\n              sload\n              tag_53\n              swap1\n              tag_37\n              jump\t// in\n            tag_53:\n              dup1\n              0x1f\n              add\n              0x20\n              dup1\n              swap2\n              div\n              mul\n              0x20\n              add\n              mload(0x40)\n              swap1\n              dup2\n              add\n              0x40\n              mstore\n              dup1\n              swap3\n              swap2\n              swap1\n              dup2\n              dup2\n              mstore\n              0x20\n              add\n              dup3\n              dup1\n              sload\n              tag_54\n              swap1\n              tag_37\n              jump\t// in\n            tag_54:\n              dup1\n              iszero\n              tag_55\n              jumpi\n              dup1\n              0x1f\n              lt\n              tag_56\n              jumpi\n              0x0100\n              dup1\n              dup4\n              sload\n              div\n              mul\n              dup4\n              mstore\n              swap2\n              0x20\n              add\n              swap2\n              jump(tag_55)\n            tag_56:\n              dup3\n              add\n              swap2\n              swap1\n              0x00\n              mstore\n              keccak256(0x00, 0x20)\n              swap1\n            tag_57:\n              dup2\n              sload\n              dup2\n              mstore\n              swap1\n              0x01\n              add\n              swap1\n              0x20\n              add\n              dup1\n              dup4\n              gt\n              tag_57\n              jumpi\n              dup3\n              swap1\n              sub\n              0x1f\n              and\n              dup3\n              add\n              swap2\n            tag_55:\n              pop\n              pop\n              pop\n              pop\n              pop\n              dup2\n              mstore\n              pop\n                /* \"DocumentContract.sol\":529:603  revisions.push(RevisionDocument({ipfsHash: ipfsHash, name: documentName})) */\n              swap1\n              dup1\n              0x01\n              dup2\n              sload\n              add\n              dup1\n              dup3\n              sstore\n              dup1\n              swap2\n              pop\n              pop\n              0x01\n              swap1\n              sub\n              swap1\n              0x00\n              mstore\n              keccak256(0x00, 0x20)\n              swap1\n              0x02\n              mul\n              add\n              0x00\n              swap1\n              swap2\n              swap1\n              swap2\n              swap1\n              swap2\n              pop\n              0x00\n              dup3\n              add\n              mload\n              dup2\n              0x00\n              add\n              swap1\n              dup1\n              mload\n              swap1\n              0x20\n              add\n              swap1\n              tag_59\n              swap3\n              swap2\n              swap1\n              tag_60\n              jump\t// in\n            tag_59:\n              pop\n              0x20\n              dup3\n              add\n              mload\n              dup2\n              0x01\n              add\n              swap1\n              dup1\n              mload\n              swap1\n              0x20\n              add\n              swap1\n              tag_61\n              swap3\n              swap2\n              swap1\n              tag_60\n              jump\t// in\n            tag_61:\n              pop\n              pop\n              pop\n                /* \"DocumentContract.sol\":625:636  newIpfsHash */\n              dup2\n                /* \"DocumentContract.sol\":614:622  ipfsHash */\n              0x00\n                /* \"DocumentContract.sol\":614:636  ipfsHash = newIpfsHash */\n              swap1\n              dup1\n              mload\n              swap1\n              0x20\n              add\n              swap1\n              tag_62\n              swap3\n              swap2\n              swap1\n              tag_60\n              jump\t// in\n            tag_62:\n              pop\n                /* \"DocumentContract.sol\":661:668  newName */\n              dup1\n                /* \"DocumentContract.sol\":646:658  documentName */\n              0x01\n                /* \"DocumentContract.sol\":646:668  documentName = newName */\n              swap1\n              dup1\n              mload\n              swap1\n              0x20\n              add\n              swap1\n              tag_63\n              swap3\n              swap2\n              swap1\n              tag_60\n              jump\t// in\n            tag_63:\n              pop\n                /* \"DocumentContract.sol\":438:675  function updateDocument(string memory newIpfsHash, string  memory newName) public{... */\n              pop\n              pop\n              jump\t// out\n                /* \"DocumentContract.sol\":210:236  string public documentName */\n            tag_20:\n              0x01\n              dup1\n              sload\n              tag_64\n              swap1\n              tag_37\n              jump\t// in\n            tag_64:\n              dup1\n              0x1f\n              add\n              0x20\n              dup1\n              swap2\n              div\n              mul\n              0x20\n              add\n              mload(0x40)\n              swap1\n              dup2\n              add\n              0x40\n              mstore\n              dup1\n              swap3\n              swap2\n              swap1\n              dup2\n              dup2\n              mstore\n              0x20\n              add\n              dup3\n              dup1\n              sload\n              tag_65\n              swap1\n              tag_37\n              jump\t// in\n            tag_65:\n              dup1\n              iszero\n              tag_66\n              jumpi\n              dup1\n              0x1f\n              lt\n              tag_67\n              jumpi\n              0x0100\n              dup1\n              dup4\n              sload\n              div\n              mul\n              dup4\n              mstore\n              swap2\n              0x20\n              add\n              swap2\n              jump(tag_66)\n            tag_67:\n              dup3\n              add\n              swap2\n              swap1\n              0x00\n              mstore\n              keccak256(0x00, 0x20)\n              swap1\n            tag_68:\n              dup2\n              sload\n              dup2\n              mstore\n              swap1\n              0x01\n              add\n              swap1\n              0x20\n              add\n              dup1\n              dup4\n              gt\n              tag_68\n              jumpi\n              dup3\n              swap1\n              sub\n              0x1f\n              and\n              dup3\n              add\n              swap2\n            tag_66:\n              pop\n              pop\n              pop\n              pop\n              pop\n              dup2\n              jump\t// out\n                /* \"DocumentContract.sol\":810:920  function getRevisionDocument() public view returns(RevisionDocument[] memory){... */\n            tag_24:\n                /* \"DocumentContract.sol\":861:886  RevisionDocument[] memory */\n              0x60\n                /* \"DocumentContract.sol\":904:913  revisions */\n              0x02\n                /* \"DocumentContract.sol\":897:913  return revisions */\n              dup1\n              sload\n              dup1\n              0x20\n              mul\n              0x20\n              add\n              mload(0x40)\n              swap1\n              dup2\n              add\n              0x40\n              mstore\n              dup1\n              swap3\n              swap2\n              swap1\n              dup2\n              dup2\n              mstore\n              0x20\n              add\n              0x00\n              swap1\n            tag_70:\n              dup3\n              dup3\n              lt\n              iszero\n              tag_71\n              jumpi\n              dup4\n              dup3\n              swap1\n              0x00\n              mstore\n              keccak256(0x00, 0x20)\n              swap1\n              0x02\n              mul\n              add\n              mload(0x40)\n              dup1\n              0x40\n              add\n              0x40\n              mstore\n              swap1\n              dup2\n              0x00\n              dup3\n              add\n              dup1\n              sload\n              tag_73\n              swap1\n              tag_37\n              jump\t// in\n            tag_73:\n              dup1\n              0x1f\n              add\n              0x20\n              dup1\n              swap2\n              div\n              mul\n              0x20\n              add\n              mload(0x40)\n              swap1\n              dup2\n              add\n              0x40\n              mstore\n              dup1\n              swap3\n              swap2\n              swap1\n              dup2\n              dup2\n              mstore\n              0x20\n              add\n              dup3\n              dup1\n              sload\n              tag_74\n              swap1\n              tag_37\n              jump\t// in\n            tag_74:\n              dup1\n              iszero\n              tag_75\n              jumpi\n              dup1\n              0x1f\n              lt\n              tag_76\n              jumpi\n              0x0100\n              dup1\n              dup4\n              sload\n              div\n              mul\n              dup4\n              mstore\n              swap2\n              0x20\n              add\n              swap2\n              jump(tag_75)\n            tag_76:\n              dup3\n              add\n              swap2\n              swap1\n              0x00\n              mstore\n              keccak256(0x00, 0x20)\n              swap1\n            tag_77:\n              dup2\n              sload\n              dup2\n              mstore\n              swap1\n              0x01\n              add\n              swap1\n              0x20\n              add\n              dup1\n              dup4\n              gt\n              tag_77\n              jumpi\n              dup3\n              swap1\n              sub\n              0x1f\n              and\n              dup3\n              add\n              swap2\n            tag_75:\n              pop\n              pop\n              pop\n              pop\n              pop\n              dup2\n              mstore\n              0x20\n              add\n              0x01\n              dup3\n              add\n              dup1\n              sload\n              tag_78\n              swap1\n              tag_37\n              jump\t// in\n            tag_78:\n              dup1\n              0x1f\n              add\n              0x20\n              dup1\n              swap2\n              div\n              mul\n              0x20\n              add\n              mload(0x40)\n              swap1\n              dup2\n              add\n              0x40\n              mstore\n              dup1\n              swap3\n              swap2\n              swap1\n              dup2\n              dup2\n              mstore\n              0x20\n              add\n              dup3\n              dup1\n              sload\n              tag_79\n              swap1\n              tag_37\n              jump\t// in\n            tag_79:\n              dup1\n              iszero\n              tag_80\n              jumpi\n              dup1\n              0x1f\n              lt\n              tag_81\n              jumpi\n              0x0100\n              dup1\n              dup4\n              sload\n              div\n              mul\n              dup4\n              mstore\n              swap2\n              0x20\n              add\n              swap2\n              jump(tag_80)\n            tag_81:\n              dup3\n              add\n              swap2\n              swap1\n              0x00\n              mstore\n              keccak256(0x00, 0x20)\n              swap1\n            tag_82:\n              dup2\n              sload\n              dup2\n              mstore\n              swap1\n              0x01\n              add\n              swap1\n              0x20\n              add\n              dup1\n              dup4\n              gt\n              tag_82\n              jumpi\n              dup3\n              swap1\n              sub\n              0x1f\n              and\n              dup3\n              add\n              swap2\n            tag_80:\n              pop\n              pop\n              pop\n              pop\n              pop\n              dup2\n              mstore\n              pop\n              pop\n              dup2\n              mstore\n              0x20\n              add\n              swap1\n              0x01\n              add\n              swap1\n              jump(tag_70)\n            tag_71:\n              pop\n              pop\n              pop\n              pop\n              swap1\n              pop\n                /* \"DocumentContract.sol\":810:920  function getRevisionDocument() public view returns(RevisionDocument[] memory){... */\n              swap1\n              jump\t// out\n                /* \"DocumentContract.sol\":182:204  string public ipfsHash */\n            tag_28:\n              0x00\n              dup1\n              sload\n              tag_83\n              swap1\n              tag_37\n              jump\t// in\n            tag_83:\n              dup1\n              0x1f\n              add\n              0x20\n              dup1\n              swap2\n              div\n              mul\n              0x20\n              add\n              mload(0x40)\n              swap1\n              dup2\n              add\n              0x40\n              mstore\n              dup1\n              swap3\n              swap2\n              swap1\n              dup2\n              dup2\n              mstore\n              0x20\n              add\n              dup3\n              dup1\n              sload\n              tag_84\n              swap1\n              tag_37\n              jump\t// in\n            tag_84:\n              dup1\n              iszero\n              tag_85\n              jumpi\n              dup1\n              0x1f\n              lt\n              tag_86\n              jumpi\n              0x0100\n              dup1\n              dup4\n              sload\n              div\n              mul\n              dup4\n              mstore\n              swap2\n              0x20\n              add\n              swap2\n              jump(tag_85)\n            tag_86:\n              dup3\n              add\n              swap2\n              swap1\n              0x00\n              mstore\n              keccak256(0x00, 0x20)\n              swap1\n            tag_87:\n              dup2\n              sload\n              dup2\n              mstore\n              swap1\n              0x01\n              add\n              swap1\n              0x20\n              add\n              dup1\n              dup4\n              gt\n              tag_87\n              jumpi\n              dup3\n              swap1\n              sub\n              0x1f\n              and\n              dup3\n              add\n              swap2\n            tag_85:\n              pop\n              pop\n              pop\n              pop\n              pop\n              dup2\n              jump\t// out\n                /* \"DocumentContract.sol\":681:804  function getIpfsHashAndDocumentName() public view returns(string[2] memory){... */\n            tag_31:\n                /* \"DocumentContract.sol\":739:755  string[2] memory */\n              tag_88\n              tag_89\n              jump\t// in\n            tag_88:\n                /* \"DocumentContract.sol\":766:797  return [ipfsHash, documentName] */\n              mload(0x40)\n              dup1\n              0x40\n              add\n              0x40\n              mstore\n              dup1\n                /* \"DocumentContract.sol\":774:782  ipfsHash */\n              0x00\n                /* \"DocumentContract.sol\":766:797  return [ipfsHash, documentName] */\n              dup1\n              sload\n              tag_91\n              swap1\n              tag_37\n              jump\t// in\n            tag_91:\n              dup1\n              0x1f\n              add\n              0x20\n              dup1\n              swap2\n              div\n              mul\n              0x20\n              add\n              mload(0x40)\n              swap1\n              dup2\n              add\n              0x40\n              mstore\n              dup1\n              swap3\n              swap2\n              swap1\n              dup2\n              dup2\n              mstore\n              0x20\n              add\n              dup3\n              dup1\n              sload\n              tag_92\n              swap1\n              tag_37\n              jump\t// in\n            tag_92:\n              dup1\n              iszero\n              tag_93\n              jumpi\n              dup1\n              0x1f\n              lt\n              tag_94\n              jumpi\n              0x0100\n              dup1\n              dup4\n              sload\n              div\n              mul\n              dup4\n              mstore\n              swap2\n              0x20\n              add\n              swap2\n              jump(tag_93)\n            tag_94:\n              dup3\n              add\n              swap2\n              swap1\n              0x00\n              mstore\n              keccak256(0x00, 0x20)\n              swap1\n            tag_95:\n              dup2\n              sload\n              dup2\n              mstore\n              swap1\n              0x01\n              add\n              swap1\n              0x20\n              add\n              dup1\n              dup4\n              gt\n              tag_95\n              jumpi\n              dup3\n              swap1\n              sub\n              0x1f\n              and\n              dup3\n              add\n              swap2\n            tag_93:\n              pop\n              pop\n              pop\n              pop\n              pop\n              dup2\n              mstore\n              0x20\n              add\n                /* \"DocumentContract.sol\":784:796  documentName */\n              0x01\n                /* \"DocumentContract.sol\":766:797  return [ipfsHash, documentName] */\n              dup1\n              sload\n              tag_96\n              swap1\n              tag_37\n              jump\t// in\n            tag_96:\n              dup1\n              0x1f\n              add\n              0x20\n              dup1\n              swap2\n              div\n              mul\n              0x20\n              add\n              mload(0x40)\n              swap1\n              dup2\n              add\n              0x40\n              mstore\n              dup1\n              swap3\n              swap2\n              swap1\n              dup2\n              dup2\n              mstore\n              0x20\n              add\n              dup3\n              dup1\n              sload\n              tag_97\n              swap1\n              tag_37\n              jump\t// in\n            tag_97:\n              dup1\n              iszero\n              tag_98\n              jumpi\n              dup1\n              0x1f\n              lt\n              tag_99\n              jumpi\n              0x0100\n              dup1\n              dup4\n              sload\n              div\n              mul\n              dup4\n              mstore\n              swap2\n              0x20\n              add\n              swap2\n              jump(tag_98)\n            tag_99:\n              dup3\n              add\n              swap2\n              swap1\n              0x00\n              mstore\n              keccak256(0x00, 0x20)\n              swap1\n            tag_100:\n              dup2\n              sload\n              dup2\n              mstore\n              swap1\n              0x01\n              add\n              swap1\n              0x20\n              add\n              dup1\n              dup4\n              gt\n              tag_100\n              jumpi\n              dup3\n              swap1\n              sub\n              0x1f\n              and\n              dup3\n              add\n              swap2\n            tag_98:\n              pop\n              pop\n              pop\n              pop\n              pop\n              dup2\n              mstore\n              pop\n              swap1\n              pop\n                /* \"DocumentContract.sol\":681:804  function getIpfsHashAndDocumentName() public view returns(string[2] memory){... */\n              swap1\n              jump\t// out\n            tag_60:\n              dup3\n              dup1\n              sload\n              tag_101\n              swap1\n              tag_37\n              jump\t// in\n            tag_101:\n              swap1\n              0x00\n              mstore\n              keccak256(0x00, 0x20)\n              swap1\n              0x1f\n              add\n              0x20\n              swap1\n              div\n              dup2\n              add\n              swap3\n              dup3\n              tag_103\n              jumpi\n              0x00\n              dup6\n              sstore\n              jump(tag_102)\n            tag_103:\n              dup3\n              0x1f\n              lt\n              tag_104\n              jumpi\n              dup1\n              mload\n              not(0xff)\n              and\n              dup4\n              dup1\n              add\n              or\n              dup6\n              sstore\n              jump(tag_102)\n            tag_104:\n              dup3\n              dup1\n              add\n              0x01\n              add\n              dup6\n              sstore\n              dup3\n              iszero\n              tag_102\n              jumpi\n              swap2\n              dup3\n              add\n            tag_105:\n              dup3\n              dup2\n              gt\n              iszero\n              tag_106\n              jumpi\n              dup3\n              mload\n              dup3\n              sstore\n              swap2\n              0x20\n              add\n              swap2\n              swap1\n              0x01\n              add\n              swap1\n              jump(tag_105)\n            tag_106:\n            tag_102:\n              pop\n              swap1\n              pop\n              tag_107\n              swap2\n              swap1\n              tag_108\n              jump\t// in\n            tag_107:\n              pop\n              swap1\n              jump\t// out\n            tag_89:\n              mload(0x40)\n              dup1\n              0x40\n              add\n              0x40\n              mstore\n              dup1\n              0x02\n              swap1\n            tag_109:\n              0x60\n              dup2\n              mstore\n              0x20\n              add\n              swap1\n              0x01\n              swap1\n              sub\n              swap1\n              dup2\n              tag_109\n              jumpi\n              swap1\n              pop\n              pop\n              swap1\n              jump\t// out\n            tag_108:\n            tag_110:\n              dup1\n              dup3\n              gt\n              iszero\n              tag_111\n              jumpi\n              0x00\n              dup2\n              0x00\n              swap1\n              sstore\n              pop\n              0x01\n              add\n              jump(tag_110)\n            tag_111:\n              pop\n              swap1\n              jump\t// out\n                /* \"#utility.yul\":7:82   */\n            tag_112:\n                /* \"#utility.yul\":40:46   */\n              0x00\n                /* \"#utility.yul\":73:75   */\n              0x40\n                /* \"#utility.yul\":67:76   */\n              mload\n                /* \"#utility.yul\":57:76   */\n              swap1\n              pop\n                /* \"#utility.yul\":7:82   */\n              swap1\n              jump\t// out\n                /* \"#utility.yul\":88:205   */\n            tag_113:\n                /* \"#utility.yul\":197:198   */\n              0x00\n                /* \"#utility.yul\":194:195   */\n              dup1\n                /* \"#utility.yul\":187:199   */\n              revert\n                /* \"#utility.yul\":211:328   */\n            tag_114:\n                /* \"#utility.yul\":320:321   */\n              0x00\n                /* \"#utility.yul\":317:318   */\n              dup1\n                /* \"#utility.yul\":310:322   */\n              revert\n                /* \"#utility.yul\":334:411   */\n            tag_115:\n                /* \"#utility.yul\":371:378   */\n              0x00\n                /* \"#utility.yul\":400:405   */\n              dup2\n                /* \"#utility.yul\":389:405   */\n              swap1\n              pop\n                /* \"#utility.yul\":334:411   */\n              swap2\n              swap1\n              pop\n              jump\t// out\n                /* \"#utility.yul\":417:539   */\n            tag_116:\n                /* \"#utility.yul\":490:514   */\n              tag_154\n                /* \"#utility.yul\":508:513   */\n              dup2\n                /* \"#utility.yul\":490:514   */\n              tag_115\n              jump\t// in\n            tag_154:\n                /* \"#utility.yul\":483:488   */\n              dup2\n                /* \"#utility.yul\":480:515   */\n              eq\n                /* \"#utility.yul\":470:533   */\n              tag_155\n              jumpi\n                /* \"#utility.yul\":529:530   */\n              0x00\n                /* \"#utility.yul\":526:527   */\n              dup1\n                /* \"#utility.yul\":519:531   */\n              revert\n                /* \"#utility.yul\":470:533   */\n            tag_155:\n                /* \"#utility.yul\":417:539   */\n              pop\n              jump\t// out\n                /* \"#utility.yul\":545:684   */\n            tag_117:\n                /* \"#utility.yul\":591:596   */\n              0x00\n                /* \"#utility.yul\":629:635   */\n              dup2\n                /* \"#utility.yul\":616:636   */\n              calldataload\n                /* \"#utility.yul\":607:636   */\n              swap1\n              pop\n                /* \"#utility.yul\":645:678   */\n              tag_157\n                /* \"#utility.yul\":672:677   */\n              dup2\n                /* \"#utility.yul\":645:678   */\n              tag_116\n              jump\t// in\n            tag_157:\n                /* \"#utility.yul\":545:684   */\n              swap3\n              swap2\n              pop\n              pop\n              jump\t// out\n                /* \"#utility.yul\":690:1019   */\n            tag_11:\n                /* \"#utility.yul\":749:755   */\n              0x00\n                /* \"#utility.yul\":798:800   */\n              0x20\n                /* \"#utility.yul\":786:795   */\n              dup3\n                /* \"#utility.yul\":777:784   */\n              dup5\n                /* \"#utility.yul\":773:796   */\n              sub\n                /* \"#utility.yul\":769:801   */\n              slt\n                /* \"#utility.yul\":766:885   */\n              iszero\n              tag_159\n              jumpi\n                /* \"#utility.yul\":804:883   */\n              tag_160\n              tag_113\n              jump\t// in\n            tag_160:\n                /* \"#utility.yul\":766:885   */\n            tag_159:\n                /* \"#utility.yul\":924:925   */\n              0x00\n                /* \"#utility.yul\":949:1002   */\n              tag_161\n                /* \"#utility.yul\":994:1001   */\n              dup5\n                /* \"#utility.yul\":985:991   */\n              dup3\n                /* \"#utility.yul\":974:983   */\n              dup6\n                /* \"#utility.yul\":970:992   */\n              add\n                /* \"#utility.yul\":949:1002   */\n              tag_117\n              jump\t// in\n            tag_161:\n                /* \"#utility.yul\":939:1002   */\n              swap2\n              pop\n                /* \"#utility.yul\":895:1012   */\n              pop\n                /* \"#utility.yul\":690:1019   */\n              swap3\n              swap2\n              pop\n              pop\n              jump\t// out\n                /* \"#utility.yul\":1025:1124   */\n            tag_118:\n                /* \"#utility.yul\":1077:1083   */\n              0x00\n                /* \"#utility.yul\":1111:1116   */\n              dup2\n                /* \"#utility.yul\":1105:1117   */\n              mload\n                /* \"#utility.yul\":1095:1117   */\n              swap1\n              pop\n                /* \"#utility.yul\":1025:1124   */\n              swap2\n              swap1\n              pop\n              jump\t// out\n                /* \"#utility.yul\":1130:1299   */\n            tag_119:\n                /* \"#utility.yul\":1214:1225   */\n              0x00\n                /* \"#utility.yul\":1248:1254   */\n              dup3\n                /* \"#utility.yul\":1243:1246   */\n              dup3\n                /* \"#utility.yul\":1236:1255   */\n              mstore\n                /* \"#utility.yul\":1288:1292   */\n              0x20\n                /* \"#utility.yul\":1283:1286   */\n              dup3\n                /* \"#utility.yul\":1279:1293   */\n              add\n                /* \"#utility.yul\":1264:1293   */\n              swap1\n              pop\n                /* \"#utility.yul\":1130:1299   */\n              swap3\n              swap2\n              pop\n              pop\n              jump\t// out\n                /* \"#utility.yul\":1305:1612   */\n            tag_120:\n                /* \"#utility.yul\":1373:1374   */\n              0x00\n                /* \"#utility.yul\":1383:1496   */\n            tag_165:\n                /* \"#utility.yul\":1397:1403   */\n              dup4\n                /* \"#utility.yul\":1394:1395   */\n              dup2\n                /* \"#utility.yul\":1391:1404   */\n              lt\n                /* \"#utility.yul\":1383:1496   */\n              iszero\n              tag_167\n              jumpi\n                /* \"#utility.yul\":1482:1483   */\n              dup1\n                /* \"#utility.yul\":1477:1480   */\n              dup3\n                /* \"#utility.yul\":1473:1484   */\n              add\n                /* \"#utility.yul\":1467:1485   */\n              mload\n                /* \"#utility.yul\":1463:1464   */\n              dup2\n                /* \"#utility.yul\":1458:1461   */\n              dup5\n                /* \"#utility.yul\":1454:1465   */\n              add\n                /* \"#utility.yul\":1447:1486   */\n              mstore\n                /* \"#utility.yul\":1419:1421   */\n              0x20\n                /* \"#utility.yul\":1416:1417   */\n              dup2\n                /* \"#utility.yul\":1412:1422   */\n              add\n                /* \"#utility.yul\":1407:1422   */\n              swap1\n              pop\n                /* \"#utility.yul\":1383:1496   */\n              jump(tag_165)\n            tag_167:\n                /* \"#utility.yul\":1514:1520   */\n              dup4\n                /* \"#utility.yul\":1511:1512   */\n              dup2\n                /* \"#utility.yul\":1508:1521   */\n              gt\n                /* \"#utility.yul\":1505:1606   */\n              iszero\n              tag_168\n              jumpi\n                /* \"#utility.yul\":1594:1595   */\n              0x00\n                /* \"#utility.yul\":1585:1591   */\n              dup5\n                /* \"#utility.yul\":1580:1583   */\n              dup5\n                /* \"#utility.yul\":1576:1592   */\n              add\n                /* \"#utility.yul\":1569:1596   */\n              mstore\n                /* \"#utility.yul\":1505:1606   */\n            tag_168:\n                /* \"#utility.yul\":1354:1612   */\n              pop\n                /* \"#utility.yul\":1305:1612   */\n              pop\n              pop\n              pop\n              jump\t// out\n                /* \"#utility.yul\":1618:1720   */\n            tag_121:\n                /* \"#utility.yul\":1659:1665   */\n              0x00\n                /* \"#utility.yul\":1710:1712   */\n              0x1f\n                /* \"#utility.yul\":1706:1713   */\n              not\n                /* \"#utility.yul\":1701:1703   */\n              0x1f\n                /* \"#utility.yul\":1694:1699   */\n              dup4\n                /* \"#utility.yul\":1690:1704   */\n              add\n                /* \"#utility.yul\":1686:1714   */\n              and\n                /* \"#utility.yul\":1676:1714   */\n              swap1\n              pop\n                /* \"#utility.yul\":1618:1720   */\n              swap2\n              swap1\n              pop\n              jump\t// out\n                /* \"#utility.yul\":1726:2090   */\n            tag_122:\n                /* \"#utility.yul\":1814:1817   */\n              0x00\n                /* \"#utility.yul\":1842:1881   */\n              tag_171\n                /* \"#utility.yul\":1875:1880   */\n              dup3\n                /* \"#utility.yul\":1842:1881   */\n              tag_118\n              jump\t// in\n            tag_171:\n                /* \"#utility.yul\":1897:1968   */\n              tag_172\n                /* \"#utility.yul\":1961:1967   */\n              dup2\n                /* \"#utility.yul\":1956:1959   */\n              dup6\n                /* \"#utility.yul\":1897:1968   */\n              tag_119\n              jump\t// in\n            tag_172:\n                /* \"#utility.yul\":1890:1968   */\n              swap4\n              pop\n                /* \"#utility.yul\":1977:2029   */\n              tag_173\n                /* \"#utility.yul\":2022:2028   */\n              dup2\n                /* \"#utility.yul\":2017:2020   */\n              dup6\n                /* \"#utility.yul\":2010:2014   */\n              0x20\n                /* \"#utility.yul\":2003:2008   */\n              dup7\n                /* \"#utility.yul\":1999:2015   */\n              add\n                /* \"#utility.yul\":1977:2029   */\n              tag_120\n              jump\t// in\n            tag_173:\n                /* \"#utility.yul\":2054:2083   */\n              tag_174\n                /* \"#utility.yul\":2076:2082   */\n              dup2\n                /* \"#utility.yul\":2054:2083   */\n              tag_121\n              jump\t// in\n            tag_174:\n                /* \"#utility.yul\":2049:2052   */\n              dup5\n                /* \"#utility.yul\":2045:2084   */\n              add\n                /* \"#utility.yul\":2038:2084   */\n              swap2\n              pop\n                /* \"#utility.yul\":1818:2090   */\n              pop\n                /* \"#utility.yul\":1726:2090   */\n              swap3\n              swap2\n              pop\n              pop\n              jump\t// out\n                /* \"#utility.yul\":2096:2610   */\n            tag_14:\n                /* \"#utility.yul\":2257:2261   */\n              0x00\n                /* \"#utility.yul\":2295:2297   */\n              0x40\n                /* \"#utility.yul\":2284:2293   */\n              dup3\n                /* \"#utility.yul\":2280:2298   */\n              add\n                /* \"#utility.yul\":2272:2298   */\n              swap1\n              pop\n                /* \"#utility.yul\":2344:2353   */\n              dup2\n                /* \"#utility.yul\":2338:2342   */\n              dup2\n                /* \"#utility.yul\":2334:2354   */\n              sub\n                /* \"#utility.yul\":2330:2331   */\n              0x00\n                /* \"#utility.yul\":2319:2328   */\n              dup4\n                /* \"#utility.yul\":2315:2332   */\n              add\n                /* \"#utility.yul\":2308:2355   */\n              mstore\n                /* \"#utility.yul\":2372:2450   */\n              tag_176\n                /* \"#utility.yul\":2445:2449   */\n              dup2\n                /* \"#utility.yul\":2436:2442   */\n              dup6\n                /* \"#utility.yul\":2372:2450   */\n              tag_122\n              jump\t// in\n            tag_176:\n                /* \"#utility.yul\":2364:2450   */\n              swap1\n              pop\n                /* \"#utility.yul\":2497:2506   */\n              dup2\n                /* \"#utility.yul\":2491:2495   */\n              dup2\n                /* \"#utility.yul\":2487:2507   */\n              sub\n                /* \"#utility.yul\":2482:2484   */\n              0x20\n                /* \"#utility.yul\":2471:2480   */\n              dup4\n                /* \"#utility.yul\":2467:2485   */\n              add\n                /* \"#utility.yul\":2460:2508   */\n              mstore\n                /* \"#utility.yul\":2525:2603   */\n              tag_177\n                /* \"#utility.yul\":2598:2602   */\n              dup2\n                /* \"#utility.yul\":2589:2595   */\n              dup5\n                /* \"#utility.yul\":2525:2603   */\n              tag_122\n              jump\t// in\n            tag_177:\n                /* \"#utility.yul\":2517:2603   */\n              swap1\n              pop\n                /* \"#utility.yul\":2096:2610   */\n              swap4\n              swap3\n              pop\n              pop\n              pop\n              jump\t// out\n                /* \"#utility.yul\":2616:2733   */\n            tag_123:\n                /* \"#utility.yul\":2725:2726   */\n              0x00\n                /* \"#utility.yul\":2722:2723   */\n              dup1\n                /* \"#utility.yul\":2715:2727   */\n              revert\n                /* \"#utility.yul\":2739:2856   */\n            tag_124:\n                /* \"#utility.yul\":2848:2849   */\n              0x00\n                /* \"#utility.yul\":2845:2846   */\n              dup1\n                /* \"#utility.yul\":2838:2850   */\n              revert\n                /* \"#utility.yul\":2862:3042   */\n            tag_125:\n                /* \"#utility.yul\":2910:2987   */\n              0x4e487b7100000000000000000000000000000000000000000000000000000000\n                /* \"#utility.yul\":2907:2908   */\n              0x00\n                /* \"#utility.yul\":2900:2988   */\n              mstore\n                /* \"#utility.yul\":3007:3011   */\n              0x41\n                /* \"#utility.yul\":3004:3005   */\n              0x04\n                /* \"#utility.yul\":2997:3012   */\n              mstore\n                /* \"#utility.yul\":3031:3035   */\n              0x24\n                /* \"#utility.yul\":3028:3029   */\n              0x00\n                /* \"#utility.yul\":3021:3036   */\n              revert\n                /* \"#utility.yul\":3048:3329   */\n            tag_126:\n                /* \"#utility.yul\":3131:3158   */\n              tag_182\n                /* \"#utility.yul\":3153:3157   */\n              dup3\n                /* \"#utility.yul\":3131:3158   */\n              tag_121\n              jump\t// in\n            tag_182:\n                /* \"#utility.yul\":3123:3129   */\n              dup2\n                /* \"#utility.yul\":3119:3159   */\n              add\n                /* \"#utility.yul\":3261:3267   */\n              dup2\n                /* \"#utility.yul\":3249:3259   */\n              dup2\n                /* \"#utility.yul\":3246:3268   */\n              lt\n                /* \"#utility.yul\":3225:3243   */\n              0xffffffffffffffff\n                /* \"#utility.yul\":3213:3223   */\n              dup3\n                /* \"#utility.yul\":3210:3244   */\n              gt\n                /* \"#utility.yul\":3207:3269   */\n              or\n                /* \"#utility.yul\":3204:3292   */\n              iszero\n              tag_183\n              jumpi\n                /* \"#utility.yul\":3272:3290   */\n              tag_184\n              tag_125\n              jump\t// in\n            tag_184:\n                /* \"#utility.yul\":3204:3292   */\n            tag_183:\n                /* \"#utility.yul\":3312:3322   */\n              dup1\n                /* \"#utility.yul\":3308:3310   */\n              0x40\n                /* \"#utility.yul\":3301:3323   */\n              mstore\n                /* \"#utility.yul\":3091:3329   */\n              pop\n                /* \"#utility.yul\":3048:3329   */\n              pop\n              pop\n              jump\t// out\n                /* \"#utility.yul\":3335:3464   */\n            tag_127:\n                /* \"#utility.yul\":3369:3375   */\n              0x00\n                /* \"#utility.yul\":3396:3416   */\n              tag_186\n              tag_112\n              jump\t// in\n            tag_186:\n                /* \"#utility.yul\":3386:3416   */\n              swap1\n              pop\n                /* \"#utility.yul\":3425:3458   */\n              tag_187\n                /* \"#utility.yul\":3453:3457   */\n              dup3\n                /* \"#utility.yul\":3445:3451   */\n              dup3\n                /* \"#utility.yul\":3425:3458   */\n              tag_126\n              jump\t// in\n            tag_187:\n                /* \"#utility.yul\":3335:3464   */\n              swap2\n              swap1\n              pop\n              jump\t// out\n                /* \"#utility.yul\":3470:3778   */\n            tag_128:\n                /* \"#utility.yul\":3532:3536   */\n              0x00\n                /* \"#utility.yul\":3622:3640   */\n              0xffffffffffffffff\n                /* \"#utility.yul\":3614:3620   */\n              dup3\n                /* \"#utility.yul\":3611:3641   */\n              gt\n                /* \"#utility.yul\":3608:3664   */\n              iszero\n              tag_189\n              jumpi\n                /* \"#utility.yul\":3644:3662   */\n              tag_190\n              tag_125\n              jump\t// in\n            tag_190:\n                /* \"#utility.yul\":3608:3664   */\n            tag_189:\n                /* \"#utility.yul\":3682:3711   */\n              tag_191\n                /* \"#utility.yul\":3704:3710   */\n              dup3\n                /* \"#utility.yul\":3682:3711   */\n              tag_121\n              jump\t// in\n            tag_191:\n                /* \"#utility.yul\":3674:3711   */\n              swap1\n              pop\n                /* \"#utility.yul\":3766:3770   */\n              0x20\n                /* \"#utility.yul\":3760:3764   */\n              dup2\n                /* \"#utility.yul\":3756:3771   */\n              add\n                /* \"#utility.yul\":3748:3771   */\n              swap1\n              pop\n                /* \"#utility.yul\":3470:3778   */\n              swap2\n              swap1\n              pop\n              jump\t// out\n                /* \"#utility.yul\":3784:3938   */\n            tag_129:\n                /* \"#utility.yul\":3868:3874   */\n              dup3\n                /* \"#utility.yul\":3863:3866   */\n              dup2\n                /* \"#utility.yul\":3858:3861   */\n              dup4\n                /* \"#utility.yul\":3845:3875   */\n              calldatacopy\n                /* \"#utility.yul\":3930:3931   */\n              0x00\n                /* \"#utility.yul\":3921:3927   */\n              dup4\n                /* \"#utility.yul\":3916:3919   */\n              dup4\n                /* \"#utility.yul\":3912:3928   */\n              add\n                /* \"#utility.yul\":3905:3932   */\n              mstore\n                /* \"#utility.yul\":3784:3938   */\n              pop\n              pop\n              pop\n              jump\t// out\n                /* \"#utility.yul\":3944:4356   */\n            tag_130:\n                /* \"#utility.yul\":4022:4027   */\n              0x00\n                /* \"#utility.yul\":4047:4113   */\n              tag_194\n                /* \"#utility.yul\":4063:4112   */\n              tag_195\n                /* \"#utility.yul\":4105:4111   */\n              dup5\n                /* \"#utility.yul\":4063:4112   */\n              tag_128\n              jump\t// in\n            tag_195:\n                /* \"#utility.yul\":4047:4113   */\n              tag_127\n              jump\t// in\n            tag_194:\n                /* \"#utility.yul\":4038:4113   */\n              swap1\n              pop\n                /* \"#utility.yul\":4136:4142   */\n              dup3\n                /* \"#utility.yul\":4129:4134   */\n              dup2\n                /* \"#utility.yul\":4122:4143   */\n              mstore\n                /* \"#utility.yul\":4174:4178   */\n              0x20\n                /* \"#utility.yul\":4167:4172   */\n              dup2\n                /* \"#utility.yul\":4163:4179   */\n              add\n                /* \"#utility.yul\":4212:4215   */\n              dup5\n                /* \"#utility.yul\":4203:4209   */\n              dup5\n                /* \"#utility.yul\":4198:4201   */\n              dup5\n                /* \"#utility.yul\":4194:4210   */\n              add\n                /* \"#utility.yul\":4191:4216   */\n              gt\n                /* \"#utility.yul\":4188:4300   */\n              iszero\n              tag_196\n              jumpi\n                /* \"#utility.yul\":4219:4298   */\n              tag_197\n              tag_124\n              jump\t// in\n            tag_197:\n                /* \"#utility.yul\":4188:4300   */\n            tag_196:\n                /* \"#utility.yul\":4309:4350   */\n              tag_198\n                /* \"#utility.yul\":4343:4349   */\n              dup5\n                /* \"#utility.yul\":4338:4341   */\n              dup3\n                /* \"#utility.yul\":4333:4336   */\n              dup6\n                /* \"#utility.yul\":4309:4350   */\n              tag_129\n              jump\t// in\n            tag_198:\n                /* \"#utility.yul\":4028:4356   */\n              pop\n                /* \"#utility.yul\":3944:4356   */\n              swap4\n              swap3\n              pop\n              pop\n              pop\n              jump\t// out\n                /* \"#utility.yul\":4376:4716   */\n            tag_131:\n                /* \"#utility.yul\":4432:4437   */\n              0x00\n                /* \"#utility.yul\":4481:4484   */\n              dup3\n                /* \"#utility.yul\":4474:4478   */\n              0x1f\n                /* \"#utility.yul\":4466:4472   */\n              dup4\n                /* \"#utility.yul\":4462:4479   */\n              add\n                /* \"#utility.yul\":4458:4485   */\n              slt\n                /* \"#utility.yul\":4448:4570   */\n              tag_200\n              jumpi\n                /* \"#utility.yul\":4489:4568   */\n              tag_201\n              tag_123\n              jump\t// in\n            tag_201:\n                /* \"#utility.yul\":4448:4570   */\n            tag_200:\n                /* \"#utility.yul\":4606:4612   */\n              dup2\n                /* \"#utility.yul\":4593:4613   */\n              calldataload\n                /* \"#utility.yul\":4631:4710   */\n              tag_202\n                /* \"#utility.yul\":4706:4709   */\n              dup5\n                /* \"#utility.yul\":4698:4704   */\n              dup3\n                /* \"#utility.yul\":4691:4695   */\n              0x20\n                /* \"#utility.yul\":4683:4689   */\n              dup7\n                /* \"#utility.yul\":4679:4696   */\n              add\n                /* \"#utility.yul\":4631:4710   */\n              tag_130\n              jump\t// in\n            tag_202:\n                /* \"#utility.yul\":4622:4710   */\n              swap2\n              pop\n                /* \"#utility.yul\":4438:4716   */\n              pop\n                /* \"#utility.yul\":4376:4716   */\n              swap3\n              swap2\n              pop\n              pop\n              jump\t// out\n                /* \"#utility.yul\":4722:5556   */\n            tag_17:\n                /* \"#utility.yul\":4810:4816   */\n              0x00\n                /* \"#utility.yul\":4818:4824   */\n              dup1\n                /* \"#utility.yul\":4867:4869   */\n              0x40\n                /* \"#utility.yul\":4855:4864   */\n              dup4\n                /* \"#utility.yul\":4846:4853   */\n              dup6\n                /* \"#utility.yul\":4842:4865   */\n              sub\n                /* \"#utility.yul\":4838:4870   */\n              slt\n                /* \"#utility.yul\":4835:4954   */\n              iszero\n              tag_204\n              jumpi\n                /* \"#utility.yul\":4873:4952   */\n              tag_205\n              tag_113\n              jump\t// in\n            tag_205:\n                /* \"#utility.yul\":4835:4954   */\n            tag_204:\n                /* \"#utility.yul\":5021:5022   */\n              0x00\n                /* \"#utility.yul\":5010:5019   */\n              dup4\n                /* \"#utility.yul\":5006:5023   */\n              add\n                /* \"#utility.yul\":4993:5024   */\n              calldataload\n                /* \"#utility.yul\":5051:5069   */\n              0xffffffffffffffff\n                /* \"#utility.yul\":5043:5049   */\n              dup2\n                /* \"#utility.yul\":5040:5070   */\n              gt\n                /* \"#utility.yul\":5037:5154   */\n              iszero\n              tag_206\n              jumpi\n                /* \"#utility.yul\":5073:5152   */\n              tag_207\n              tag_114\n              jump\t// in\n            tag_207:\n                /* \"#utility.yul\":5037:5154   */\n            tag_206:\n                /* \"#utility.yul\":5178:5241   */\n              tag_208\n                /* \"#utility.yul\":5233:5240   */\n              dup6\n                /* \"#utility.yul\":5224:5230   */\n              dup3\n                /* \"#utility.yul\":5213:5222   */\n              dup7\n                /* \"#utility.yul\":5209:5231   */\n              add\n                /* \"#utility.yul\":5178:5241   */\n              tag_131\n              jump\t// in\n            tag_208:\n                /* \"#utility.yul\":5168:5241   */\n              swap3\n              pop\n                /* \"#utility.yul\":4964:5251   */\n              pop\n                /* \"#utility.yul\":5318:5320   */\n              0x20\n                /* \"#utility.yul\":5307:5316   */\n              dup4\n                /* \"#utility.yul\":5303:5321   */\n              add\n                /* \"#utility.yul\":5290:5322   */\n              calldataload\n                /* \"#utility.yul\":5349:5367   */\n              0xffffffffffffffff\n                /* \"#utility.yul\":5341:5347   */\n              dup2\n                /* \"#utility.yul\":5338:5368   */\n              gt\n                /* \"#utility.yul\":5335:5452   */\n              iszero\n              tag_209\n              jumpi\n                /* \"#utility.yul\":5371:5450   */\n              tag_210\n              tag_114\n              jump\t// in\n            tag_210:\n                /* \"#utility.yul\":5335:5452   */\n            tag_209:\n                /* \"#utility.yul\":5476:5539   */\n              tag_211\n                /* \"#utility.yul\":5531:5538   */\n              dup6\n                /* \"#utility.yul\":5522:5528   */\n              dup3\n                /* \"#utility.yul\":5511:5520   */\n              dup7\n                /* \"#utility.yul\":5507:5529   */\n              add\n                /* \"#utility.yul\":5476:5539   */\n              tag_131\n              jump\t// in\n            tag_211:\n                /* \"#utility.yul\":5466:5539   */\n              swap2\n              pop\n                /* \"#utility.yul\":5261:5549   */\n              pop\n                /* \"#utility.yul\":4722:5556   */\n              swap3\n              pop\n              swap3\n              swap1\n              pop\n              jump\t// out\n                /* \"#utility.yul\":5562:5875   */\n            tag_22:\n                /* \"#utility.yul\":5675:5679   */\n              0x00\n                /* \"#utility.yul\":5713:5715   */\n              0x20\n                /* \"#utility.yul\":5702:5711   */\n              dup3\n                /* \"#utility.yul\":5698:5716   */\n              add\n                /* \"#utility.yul\":5690:5716   */\n              swap1\n              pop\n                /* \"#utility.yul\":5762:5771   */\n              dup2\n                /* \"#utility.yul\":5756:5760   */\n              dup2\n                /* \"#utility.yul\":5752:5772   */\n              sub\n                /* \"#utility.yul\":5748:5749   */\n              0x00\n                /* \"#utility.yul\":5737:5746   */\n              dup4\n                /* \"#utility.yul\":5733:5750   */\n              add\n                /* \"#utility.yul\":5726:5773   */\n              mstore\n                /* \"#utility.yul\":5790:5868   */\n              tag_213\n                /* \"#utility.yul\":5863:5867   */\n              dup2\n                /* \"#utility.yul\":5854:5860   */\n              dup5\n                /* \"#utility.yul\":5790:5868   */\n              tag_122\n              jump\t// in\n            tag_213:\n                /* \"#utility.yul\":5782:5868   */\n              swap1\n              pop\n                /* \"#utility.yul\":5562:5875   */\n              swap3\n              swap2\n              pop\n              pop\n              jump\t// out\n                /* \"#utility.yul\":5881:6026   */\n            tag_132:\n                /* \"#utility.yul\":5979:5985   */\n              0x00\n                /* \"#utility.yul\":6013:6018   */\n              dup2\n                /* \"#utility.yul\":6007:6019   */\n              mload\n                /* \"#utility.yul\":5997:6019   */\n              swap1\n              pop\n                /* \"#utility.yul\":5881:6026   */\n              swap2\n              swap1\n              pop\n              jump\t// out\n                /* \"#utility.yul\":6032:6247   */\n            tag_133:\n                /* \"#utility.yul\":6162:6173   */\n              0x00\n                /* \"#utility.yul\":6196:6202   */\n              dup3\n                /* \"#utility.yul\":6191:6194   */\n              dup3\n                /* \"#utility.yul\":6184:6203   */\n              mstore\n                /* \"#utility.yul\":6236:6240   */\n              0x20\n                /* \"#utility.yul\":6231:6234   */\n              dup3\n                /* \"#utility.yul\":6227:6241   */\n              add\n                /* \"#utility.yul\":6212:6241   */\n              swap1\n              pop\n                /* \"#utility.yul\":6032:6247   */\n              swap3\n              swap2\n              pop\n              pop\n              jump\t// out\n                /* \"#utility.yul\":6253:6416   */\n            tag_134:\n                /* \"#utility.yul\":6351:6355   */\n              0x00\n                /* \"#utility.yul\":6374:6377   */\n              dup2\n                /* \"#utility.yul\":6366:6377   */\n              swap1\n              pop\n                /* \"#utility.yul\":6404:6408   */\n              0x20\n                /* \"#utility.yul\":6399:6402   */\n              dup3\n                /* \"#utility.yul\":6395:6409   */\n              add\n                /* \"#utility.yul\":6387:6409   */\n              swap1\n              pop\n                /* \"#utility.yul\":6253:6416   */\n              swap2\n              swap1\n              pop\n              jump\t// out\n                /* \"#utility.yul\":6422:6581   */\n            tag_135:\n                /* \"#utility.yul\":6496:6507   */\n              0x00\n                /* \"#utility.yul\":6530:6536   */\n              dup3\n                /* \"#utility.yul\":6525:6528   */\n              dup3\n                /* \"#utility.yul\":6518:6537   */\n              mstore\n                /* \"#utility.yul\":6570:6574   */\n              0x20\n                /* \"#utility.yul\":6565:6568   */\n              dup3\n                /* \"#utility.yul\":6561:6575   */\n              add\n                /* \"#utility.yul\":6546:6575   */\n              swap1\n              pop\n                /* \"#utility.yul\":6422:6581   */\n              swap3\n              swap2\n              pop\n              pop\n              jump\t// out\n                /* \"#utility.yul\":6587:6931   */\n            tag_136:\n                /* \"#utility.yul\":6665:6668   */\n              0x00\n                /* \"#utility.yul\":6693:6732   */\n              tag_219\n                /* \"#utility.yul\":6726:6731   */\n              dup3\n                /* \"#utility.yul\":6693:6732   */\n              tag_118\n              jump\t// in\n            tag_219:\n                /* \"#utility.yul\":6748:6809   */\n              tag_220\n                /* \"#utility.yul\":6802:6808   */\n              dup2\n                /* \"#utility.yul\":6797:6800   */\n              dup6\n                /* \"#utility.yul\":6748:6809   */\n              tag_135\n              jump\t// in\n            tag_220:\n                /* \"#utility.yul\":6741:6809   */\n              swap4\n              pop\n                /* \"#utility.yul\":6818:6870   */\n              tag_221\n                /* \"#utility.yul\":6863:6869   */\n              dup2\n                /* \"#utility.yul\":6858:6861   */\n              dup6\n                /* \"#utility.yul\":6851:6855   */\n              0x20\n                /* \"#utility.yul\":6844:6849   */\n              dup7\n                /* \"#utility.yul\":6840:6856   */\n              add\n                /* \"#utility.yul\":6818:6870   */\n              tag_120\n              jump\t// in\n            tag_221:\n                /* \"#utility.yul\":6895:6924   */\n              tag_222\n                /* \"#utility.yul\":6917:6923   */\n              dup2\n                /* \"#utility.yul\":6895:6924   */\n              tag_121\n              jump\t// in\n            tag_222:\n                /* \"#utility.yul\":6890:6893   */\n              dup5\n                /* \"#utility.yul\":6886:6925   */\n              add\n                /* \"#utility.yul\":6879:6925   */\n              swap2\n              pop\n                /* \"#utility.yul\":6669:6931   */\n              pop\n                /* \"#utility.yul\":6587:6931   */\n              swap3\n              swap2\n              pop\n              pop\n              jump\t// out\n                /* \"#utility.yul\":7029:7712   */\n            tag_137:\n                /* \"#utility.yul\":7150:7153   */\n              0x00\n                /* \"#utility.yul\":7186:7190   */\n              0x40\n                /* \"#utility.yul\":7181:7184   */\n              dup4\n                /* \"#utility.yul\":7177:7191   */\n              add\n                /* \"#utility.yul\":7273:7277   */\n              0x00\n                /* \"#utility.yul\":7266:7271   */\n              dup4\n                /* \"#utility.yul\":7262:7278   */\n              add\n                /* \"#utility.yul\":7256:7279   */\n              mload\n                /* \"#utility.yul\":7326:7329   */\n              dup5\n                /* \"#utility.yul\":7320:7324   */\n              dup3\n                /* \"#utility.yul\":7316:7330   */\n              sub\n                /* \"#utility.yul\":7309:7313   */\n              0x00\n                /* \"#utility.yul\":7304:7307   */\n              dup7\n                /* \"#utility.yul\":7300:7314   */\n              add\n                /* \"#utility.yul\":7293:7331   */\n              mstore\n                /* \"#utility.yul\":7352:7425   */\n              tag_224\n                /* \"#utility.yul\":7420:7424   */\n              dup3\n                /* \"#utility.yul\":7406:7418   */\n              dup3\n                /* \"#utility.yul\":7352:7425   */\n              tag_136\n              jump\t// in\n            tag_224:\n                /* \"#utility.yul\":7344:7425   */\n              swap2\n              pop\n                /* \"#utility.yul\":7201:7436   */\n              pop\n                /* \"#utility.yul\":7522:7526   */\n              0x20\n                /* \"#utility.yul\":7515:7520   */\n              dup4\n                /* \"#utility.yul\":7511:7527   */\n              add\n                /* \"#utility.yul\":7505:7528   */\n              mload\n                /* \"#utility.yul\":7575:7578   */\n              dup5\n                /* \"#utility.yul\":7569:7573   */\n              dup3\n                /* \"#utility.yul\":7565:7579   */\n              sub\n                /* \"#utility.yul\":7558:7562   */\n              0x20\n                /* \"#utility.yul\":7553:7556   */\n              dup7\n                /* \"#utility.yul\":7549:7563   */\n              add\n                /* \"#utility.yul\":7542:7580   */\n              mstore\n                /* \"#utility.yul\":7601:7674   */\n              tag_225\n                /* \"#utility.yul\":7669:7673   */\n              dup3\n                /* \"#utility.yul\":7655:7667   */\n              dup3\n                /* \"#utility.yul\":7601:7674   */\n              tag_136\n              jump\t// in\n            tag_225:\n                /* \"#utility.yul\":7593:7674   */\n              swap2\n              pop\n                /* \"#utility.yul\":7446:7685   */\n              pop\n                /* \"#utility.yul\":7702:7706   */\n              dup1\n                /* \"#utility.yul\":7695:7706   */\n              swap2\n              pop\n                /* \"#utility.yul\":7155:7712   */\n              pop\n                /* \"#utility.yul\":7029:7712   */\n              swap3\n              swap2\n              pop\n              pop\n              jump\t// out\n                /* \"#utility.yul\":7718:7998   */\n            tag_138:\n                /* \"#utility.yul\":7849:7859   */\n              0x00\n                /* \"#utility.yul\":7884:7992   */\n              tag_227\n                /* \"#utility.yul\":7988:7991   */\n              dup4\n                /* \"#utility.yul\":7980:7986   */\n              dup4\n                /* \"#utility.yul\":7884:7992   */\n              tag_137\n              jump\t// in\n            tag_227:\n                /* \"#utility.yul\":7870:7992   */\n              swap1\n              pop\n                /* \"#utility.yul\":7718:7998   */\n              swap3\n              swap2\n              pop\n              pop\n              jump\t// out\n                /* \"#utility.yul\":8004:8148   */\n            tag_139:\n                /* \"#utility.yul\":8105:8109   */\n              0x00\n                /* \"#utility.yul\":8137:8141   */\n              0x20\n                /* \"#utility.yul\":8132:8135   */\n              dup3\n                /* \"#utility.yul\":8128:8142   */\n              add\n                /* \"#utility.yul\":8120:8142   */\n              swap1\n              pop\n                /* \"#utility.yul\":8004:8148   */\n              swap2\n              swap1\n              pop\n              jump\t// out\n                /* \"#utility.yul\":8250:9409   */\n            tag_140:\n                /* \"#utility.yul\":8431:8434   */\n              0x00\n                /* \"#utility.yul\":8460:8545   */\n              tag_230\n                /* \"#utility.yul\":8539:8544   */\n              dup3\n                /* \"#utility.yul\":8460:8545   */\n              tag_132\n              jump\t// in\n            tag_230:\n                /* \"#utility.yul\":8561:8678   */\n              tag_231\n                /* \"#utility.yul\":8671:8677   */\n              dup2\n                /* \"#utility.yul\":8666:8669   */\n              dup6\n                /* \"#utility.yul\":8561:8678   */\n              tag_133\n              jump\t// in\n            tag_231:\n                /* \"#utility.yul\":8554:8678   */\n              swap4\n              pop\n                /* \"#utility.yul\":8704:8707   */\n              dup4\n                /* \"#utility.yul\":8749:8753   */\n              0x20\n                /* \"#utility.yul\":8741:8747   */\n              dup3\n                /* \"#utility.yul\":8737:8754   */\n              mul\n                /* \"#utility.yul\":8732:8735   */\n              dup6\n                /* \"#utility.yul\":8728:8755   */\n              add\n                /* \"#utility.yul\":8779:8866   */\n              tag_232\n                /* \"#utility.yul\":8860:8865   */\n              dup6\n                /* \"#utility.yul\":8779:8866   */\n              tag_134\n              jump\t// in\n            tag_232:\n                /* \"#utility.yul\":8889:8896   */\n              dup1\n                /* \"#utility.yul\":8920:8921   */\n              0x00\n                /* \"#utility.yul\":8905:9364   */\n            tag_233:\n                /* \"#utility.yul\":8930:8936   */\n              dup6\n                /* \"#utility.yul\":8927:8928   */\n              dup2\n                /* \"#utility.yul\":8924:8937   */\n              lt\n                /* \"#utility.yul\":8905:9364   */\n              iszero\n              tag_235\n              jumpi\n                /* \"#utility.yul\":9001:9010   */\n              dup5\n                /* \"#utility.yul\":8995:8999   */\n              dup5\n                /* \"#utility.yul\":8991:9011   */\n              sub\n                /* \"#utility.yul\":8986:8989   */\n              dup10\n                /* \"#utility.yul\":8979:9012   */\n              mstore\n                /* \"#utility.yul\":9052:9058   */\n              dup2\n                /* \"#utility.yul\":9046:9059   */\n              mload\n                /* \"#utility.yul\":9080:9206   */\n              tag_236\n                /* \"#utility.yul\":9201:9205   */\n              dup6\n                /* \"#utility.yul\":9186:9199   */\n              dup3\n                /* \"#utility.yul\":9080:9206   */\n              tag_138\n              jump\t// in\n            tag_236:\n                /* \"#utility.yul\":9072:9206   */\n              swap5\n              pop\n                /* \"#utility.yul\":9229:9320   */\n              tag_237\n                /* \"#utility.yul\":9313:9319   */\n              dup4\n                /* \"#utility.yul\":9229:9320   */\n              tag_139\n              jump\t// in\n            tag_237:\n                /* \"#utility.yul\":9219:9320   */\n              swap3\n              pop\n                /* \"#utility.yul\":9349:9353   */\n              0x20\n                /* \"#utility.yul\":9344:9347   */\n              dup11\n                /* \"#utility.yul\":9340:9354   */\n              add\n                /* \"#utility.yul\":9333:9354   */\n              swap10\n              pop\n                /* \"#utility.yul\":8965:9364   */\n              pop\n                /* \"#utility.yul\":8952:8953   */\n              0x01\n                /* \"#utility.yul\":8949:8950   */\n              dup2\n                /* \"#utility.yul\":8945:8954   */\n              add\n                /* \"#utility.yul\":8940:8954   */\n              swap1\n              pop\n                /* \"#utility.yul\":8905:9364   */\n              jump(tag_233)\n            tag_235:\n                /* \"#utility.yul\":8909:8923   */\n              pop\n                /* \"#utility.yul\":9380:9384   */\n              dup3\n                /* \"#utility.yul\":9373:9384   */\n              swap8\n              pop\n                /* \"#utility.yul\":9400:9403   */\n              dup8\n                /* \"#utility.yul\":9393:9403   */\n              swap6\n              pop\n                /* \"#utility.yul\":8436:9409   */\n              pop\n              pop\n              pop\n              pop\n              pop\n                /* \"#utility.yul\":8250:9409   */\n              swap3\n              swap2\n              pop\n              pop\n              jump\t// out\n                /* \"#utility.yul\":9415:9912   */\n            tag_26:\n                /* \"#utility.yul\":9620:9624   */\n              0x00\n                /* \"#utility.yul\":9658:9660   */\n              0x20\n                /* \"#utility.yul\":9647:9656   */\n              dup3\n                /* \"#utility.yul\":9643:9661   */\n              add\n                /* \"#utility.yul\":9635:9661   */\n              swap1\n              pop\n                /* \"#utility.yul\":9707:9716   */\n              dup2\n                /* \"#utility.yul\":9701:9705   */\n              dup2\n                /* \"#utility.yul\":9697:9717   */\n              sub\n                /* \"#utility.yul\":9693:9694   */\n              0x00\n                /* \"#utility.yul\":9682:9691   */\n              dup4\n                /* \"#utility.yul\":9678:9695   */\n              add\n                /* \"#utility.yul\":9671:9718   */\n              mstore\n                /* \"#utility.yul\":9735:9905   */\n              tag_239\n                /* \"#utility.yul\":9900:9904   */\n              dup2\n                /* \"#utility.yul\":9891:9897   */\n              dup5\n                /* \"#utility.yul\":9735:9905   */\n              tag_140\n              jump\t// in\n            tag_239:\n                /* \"#utility.yul\":9727:9905   */\n              swap1\n              pop\n                /* \"#utility.yul\":9415:9912   */\n              swap3\n              swap2\n              pop\n              pop\n              jump\t// out\n                /* \"#utility.yul\":9918:10032   */\n            tag_141:\n                /* \"#utility.yul\":9993:9999   */\n              0x00\n                /* \"#utility.yul\":10021:10025   */\n              0x02\n                /* \"#utility.yul\":10011:10025   */\n              swap1\n              pop\n                /* \"#utility.yul\":9918:10032   */\n              swap2\n              swap1\n              pop\n              jump\t// out\n                /* \"#utility.yul\":10038:10191   */\n            tag_142:\n                /* \"#utility.yul\":10145:10156   */\n              0x00\n                /* \"#utility.yul\":10182:10185   */\n              dup2\n                /* \"#utility.yul\":10167:10185   */\n              swap1\n              pop\n                /* \"#utility.yul\":10038:10191   */\n              swap3\n              swap2\n              pop\n              pop\n              jump\t// out\n                /* \"#utility.yul\":10197:10305   */\n            tag_143:\n                /* \"#utility.yul\":10272:10276   */\n              0x00\n                /* \"#utility.yul\":10295:10298   */\n              dup2\n                /* \"#utility.yul\":10287:10298   */\n              swap1\n              pop\n                /* \"#utility.yul\":10197:10305   */\n              swap2\n              swap1\n              pop\n              jump\t// out\n                /* \"#utility.yul\":10311:10507   */\n            tag_144:\n                /* \"#utility.yul\":10400:10410   */\n              0x00\n                /* \"#utility.yul\":10435:10501   */\n              tag_244\n                /* \"#utility.yul\":10497:10500   */\n              dup4\n                /* \"#utility.yul\":10489:10495   */\n              dup4\n                /* \"#utility.yul\":10435:10501   */\n              tag_136\n              jump\t// in\n            tag_244:\n                /* \"#utility.yul\":10421:10501   */\n              swap1\n              pop\n                /* \"#utility.yul\":10311:10507   */\n              swap3\n              swap2\n              pop\n              pop\n              jump\t// out\n                /* \"#utility.yul\":10513:10634   */\n            tag_145:\n                /* \"#utility.yul\":10591:10595   */\n              0x00\n                /* \"#utility.yul\":10623:10627   */\n              0x20\n                /* \"#utility.yul\":10618:10621   */\n              dup3\n                /* \"#utility.yul\":10614:10628   */\n              add\n                /* \"#utility.yul\":10606:10628   */\n              swap1\n              pop\n                /* \"#utility.yul\":10513:10634   */\n              swap2\n              swap1\n              pop\n              jump\t// out\n                /* \"#utility.yul\":10670:11649   */\n            tag_146:\n                /* \"#utility.yul\":10805:10808   */\n              0x00\n                /* \"#utility.yul\":10834:10896   */\n              tag_247\n                /* \"#utility.yul\":10890:10895   */\n              dup3\n                /* \"#utility.yul\":10834:10896   */\n              tag_141\n              jump\t// in\n            tag_247:\n                /* \"#utility.yul\":10912:11006   */\n              tag_248\n                /* \"#utility.yul\":10999:11005   */\n              dup2\n                /* \"#utility.yul\":10994:10997   */\n              dup6\n                /* \"#utility.yul\":10912:11006   */\n              tag_142\n              jump\t// in\n            tag_248:\n                /* \"#utility.yul\":10905:11006   */\n              swap4\n              pop\n                /* \"#utility.yul\":11032:11035   */\n              dup4\n                /* \"#utility.yul\":11077:11081   */\n              0x20\n                /* \"#utility.yul\":11069:11075   */\n              dup3\n                /* \"#utility.yul\":11065:11082   */\n              mul\n                /* \"#utility.yul\":11060:11063   */\n              dup6\n                /* \"#utility.yul\":11056:11083   */\n              add\n                /* \"#utility.yul\":11107:11171   */\n              tag_249\n                /* \"#utility.yul\":11165:11170   */\n              dup6\n                /* \"#utility.yul\":11107:11171   */\n              tag_143\n              jump\t// in\n            tag_249:\n                /* \"#utility.yul\":11194:11201   */\n              dup1\n                /* \"#utility.yul\":11225:11226   */\n              0x00\n                /* \"#utility.yul\":11210:11604   */\n            tag_250:\n                /* \"#utility.yul\":11235:11241   */\n              dup6\n                /* \"#utility.yul\":11232:11233   */\n              dup2\n                /* \"#utility.yul\":11229:11242   */\n              lt\n                /* \"#utility.yul\":11210:11604   */\n              iszero\n              tag_252\n              jumpi\n                /* \"#utility.yul\":11306:11315   */\n              dup5\n                /* \"#utility.yul\":11300:11304   */\n              dup5\n                /* \"#utility.yul\":11296:11316   */\n              sub\n                /* \"#utility.yul\":11291:11294   */\n              dup10\n                /* \"#utility.yul\":11284:11317   */\n              mstore\n                /* \"#utility.yul\":11357:11363   */\n              dup2\n                /* \"#utility.yul\":11351:11364   */\n              mload\n                /* \"#utility.yul\":11385:11469   */\n              tag_253\n                /* \"#utility.yul\":11464:11468   */\n              dup6\n                /* \"#utility.yul\":11449:11462   */\n              dup3\n                /* \"#utility.yul\":11385:11469   */\n              tag_144\n              jump\t// in\n            tag_253:\n                /* \"#utility.yul\":11377:11469   */\n              swap5\n              pop\n                /* \"#utility.yul\":11492:11560   */\n              tag_254\n                /* \"#utility.yul\":11553:11559   */\n              dup4\n                /* \"#utility.yul\":11492:11560   */\n              tag_145\n              jump\t// in\n            tag_254:\n                /* \"#utility.yul\":11482:11560   */\n              swap3\n              pop\n                /* \"#utility.yul\":11589:11593   */\n              0x20\n                /* \"#utility.yul\":11584:11587   */\n              dup11\n                /* \"#utility.yul\":11580:11594   */\n              add\n                /* \"#utility.yul\":11573:11594   */\n              swap10\n              pop\n                /* \"#utility.yul\":11270:11604   */\n              pop\n                /* \"#utility.yul\":11257:11258   */\n              0x01\n                /* \"#utility.yul\":11254:11255   */\n              dup2\n                /* \"#utility.yul\":11250:11259   */\n              add\n                /* \"#utility.yul\":11245:11259   */\n              swap1\n              pop\n                /* \"#utility.yul\":11210:11604   */\n              jump(tag_250)\n            tag_252:\n                /* \"#utility.yul\":11214:11228   */\n              pop\n                /* \"#utility.yul\":11620:11624   */\n              dup3\n                /* \"#utility.yul\":11613:11624   */\n              swap8\n              pop\n                /* \"#utility.yul\":11640:11643   */\n              dup8\n                /* \"#utility.yul\":11633:11643   */\n              swap6\n              pop\n                /* \"#utility.yul\":10810:11649   */\n              pop\n              pop\n              pop\n              pop\n              pop\n                /* \"#utility.yul\":10670:11649   */\n              swap3\n              swap2\n              pop\n              pop\n              jump\t// out\n                /* \"#utility.yul\":11655:12060   */\n            tag_33:\n                /* \"#utility.yul\":11814:11818   */\n              0x00\n                /* \"#utility.yul\":11852:11854   */\n              0x20\n                /* \"#utility.yul\":11841:11850   */\n              dup3\n                /* \"#utility.yul\":11837:11855   */\n              add\n                /* \"#utility.yul\":11829:11855   */\n              swap1\n              pop\n                /* \"#utility.yul\":11901:11910   */\n              dup2\n                /* \"#utility.yul\":11895:11899   */\n              dup2\n                /* \"#utility.yul\":11891:11911   */\n              sub\n                /* \"#utility.yul\":11887:11888   */\n              0x00\n                /* \"#utility.yul\":11876:11885   */\n              dup4\n                /* \"#utility.yul\":11872:11889   */\n              add\n                /* \"#utility.yul\":11865:11912   */\n              mstore\n                /* \"#utility.yul\":11929:12053   */\n              tag_256\n                /* \"#utility.yul\":12048:12052   */\n              dup2\n                /* \"#utility.yul\":12039:12045   */\n              dup5\n                /* \"#utility.yul\":11929:12053   */\n              tag_146\n              jump\t// in\n            tag_256:\n                /* \"#utility.yul\":11921:12053   */\n              swap1\n              pop\n                /* \"#utility.yul\":11655:12060   */\n              swap3\n              swap2\n              pop\n              pop\n              jump\t// out\n                /* \"#utility.yul\":12066:12246   */\n            tag_147:\n                /* \"#utility.yul\":12114:12191   */\n              0x4e487b7100000000000000000000000000000000000000000000000000000000\n                /* \"#utility.yul\":12111:12112   */\n              0x00\n                /* \"#utility.yul\":12104:12192   */\n              mstore\n                /* \"#utility.yul\":12211:12215   */\n              0x22\n                /* \"#utility.yul\":12208:12209   */\n              0x04\n                /* \"#utility.yul\":12201:12216   */\n              mstore\n                /* \"#utility.yul\":12235:12239   */\n              0x24\n                /* \"#utility.yul\":12232:12233   */\n              0x00\n                /* \"#utility.yul\":12225:12240   */\n              revert\n                /* \"#utility.yul\":12252:12572   */\n            tag_37:\n                /* \"#utility.yul\":12296:12302   */\n              0x00\n                /* \"#utility.yul\":12333:12334   */\n              0x02\n                /* \"#utility.yul\":12327:12331   */\n              dup3\n                /* \"#utility.yul\":12323:12335   */\n              div\n                /* \"#utility.yul\":12313:12335   */\n              swap1\n              pop\n                /* \"#utility.yul\":12380:12381   */\n              0x01\n                /* \"#utility.yul\":12374:12378   */\n              dup3\n                /* \"#utility.yul\":12370:12382   */\n              and\n                /* \"#utility.yul\":12401:12419   */\n              dup1\n                /* \"#utility.yul\":12391:12472   */\n              tag_259\n              jumpi\n                /* \"#utility.yul\":12457:12461   */\n              0x7f\n                /* \"#utility.yul\":12449:12455   */\n              dup3\n                /* \"#utility.yul\":12445:12462   */\n              and\n                /* \"#utility.yul\":12435:12462   */\n              swap2\n              pop\n                /* \"#utility.yul\":12391:12472   */\n            tag_259:\n                /* \"#utility.yul\":12519:12521   */\n              0x20\n                /* \"#utility.yul\":12511:12517   */\n              dup3\n                /* \"#utility.yul\":12508:12522   */\n              lt\n                /* \"#utility.yul\":12488:12506   */\n              dup2\n                /* \"#utility.yul\":12485:12523   */\n              sub\n                /* \"#utility.yul\":12482:12566   */\n              tag_260\n              jumpi\n                /* \"#utility.yul\":12538:12556   */\n              tag_261\n              tag_147\n              jump\t// in\n            tag_261:\n                /* \"#utility.yul\":12482:12566   */\n            tag_260:\n                /* \"#utility.yul\":12303:12572   */\n              pop\n                /* \"#utility.yul\":12252:12572   */\n              swap2\n              swap1\n              pop\n              jump\t// out\n\n            auxdata: 0xa26469706673582212201806b10505d7757f9b9c523936e9405c7d353afdb46d0b8728cf3ba1dfb7cd6164736f6c634300080d0033\n        }\n    }\n\n    auxdata: 0xa26469706673582212203f791d23a58204d360046782d3bcccd4963ecaa1fe01d1413b8cb08b7d5306c764736f6c634300080d0033\n}\n",
    "bytecode": {
      "linkReferences": {},
      "object": "60806040527321f93e128a6d7926a37df0c2a94bd0248ea343ef6000806101000a81548173ffffffffffffffffffffffffffffffffffffffff021916908373ffffffffffffffffffffffffffffffffffffffff16021790555034801561006457600080fd5b50612026806100746000396000f3fe60806040523480156200001157600080fd5b50600436106200005e5760003560e01c80631e3bb6ae146200006357806342b67595146200008357806347b64eb014620000a35780639b3e278714620000c3578063dfc9f2ea14620000f9575b600080fd5b6200008160048036038101906200007b91906200074d565b6200012f565b005b620000a160048036038101906200009b9190620008f6565b62000393565b005b620000c16004803603810190620000bb919062000990565b62000472565b005b620000e16004803603810190620000db9190620009fd565b620004b5565b604051620000f0919062000aaf565b60405180910390f35b62000117600480360381019062000111919062000990565b62000504565b60405162000126919062000b9a565b60405180910390f35b6000600160008473ffffffffffffffffffffffffffffffffffffffff1673ffffffffffffffffffffffffffffffffffffffff168152602001908152602001600020805480602002602001604051908101604052809291908181526020018280548015620001f257602002820191906000526020600020905b8160009054906101000a900473ffffffffffffffffffffffffffffffffffffffff1673ffffffffffffffffffffffffffffffffffffffff1681526020019060010190808311620001a7575b5050505050905060005b815181101562000337578273ffffffffffffffffffffffffffffffffffffffff1682828151811062000233576200023262000bbe565b5b602002602001015173ffffffffffffffffffffffffffffffffffffffff16036200032157816001835162000268919062000c1c565b815181106200027c576200027b62000bbe565b5b60200260200101518282815181106200029a576200029962000bbe565b5b602002602001019073ffffffffffffffffffffffffffffffffffffffff16908173ffffffffffffffffffffffffffffffffffffffff16815250508160018351620002e5919062000c1c565b81518110620002f957620002f862000bbe565b5b60200260200101600073ffffffffffffffffffffffffffffffffffffffff1681525062000337565b80806200032e9062000c57565b915050620001fc565b5080600160008573ffffffffffffffffffffffffffffffffffffffff1673ffffffffffffffffffffffffffffffffffffffff16815260200190815260200160002090805190602001906200038d929190620005d3565b50505050565b600160008373ffffffffffffffffffffffffffffffffffffffff1673ffffffffffffffffffffffffffffffffffffffff1681526020019081526020016000208382604051620003e29062000662565b620003ef92919062000d37565b604051809103906000f0801580156200040c573d6000803e3d6000fd5b509080600181540180825580915050600190039060005260206000200160009091909190916101000a81548173ffffffffffffffffffffffffffffffffffffffff021916908373ffffffffffffffffffffffffffffffffffffffff160217905550505050565b806000806101000a81548173ffffffffffffffffffffffffffffffffffffffff021916908373ffffffffffffffffffffffffffffffffffffffff16021790555050565b60016020528160005260406000208181548110620004d257600080fd5b906000526020600020016000915091509054906101000a900473ffffffffffffffffffffffffffffffffffffffff1681565b6060600160008373ffffffffffffffffffffffffffffffffffffffff1673ffffffffffffffffffffffffffffffffffffffff168152602001908152602001600020805480602002602001604051908101604052809291908181526020018280548015620005c757602002820191906000526020600020905b8160009054906101000a900473ffffffffffffffffffffffffffffffffffffffff1673ffffffffffffffffffffffffffffffffffffffff16815260200190600101908083116200057c575b50505050509050919050565b8280548282559060005260206000209081019282156200064f579160200282015b828111156200064e5782518260006101000a81548173ffffffffffffffffffffffffffffffffffffffff021916908373ffffffffffffffffffffffffffffffffffffffff16021790555091602001919060010190620005f4565b5b5090506200065e919062000670565b5090565b61127e8062000d7383390190565b5b808211156200068b57600081600090555060010162000671565b5090565b6000604051905090565b600080fd5b600080fd5b600073ffffffffffffffffffffffffffffffffffffffff82169050919050565b6000620006d082620006a3565b9050919050565b620006e281620006c3565b8114620006ee57600080fd5b50565b6000813590506200070281620006d7565b92915050565b60006200071582620006c3565b9050919050565b620007278162000708565b81146200073357600080fd5b50565b60008135905062000747816200071c565b92915050565b6000806040838503121562000767576200076662000699565b5b60006200077785828601620006f1565b92505060206200078a8582860162000736565b9150509250929050565b600080fd5b600080fd5b6000601f19601f8301169050919050565b7f4e487b7100000000000000000000000000000000000000000000000000000000600052604160045260246000fd5b620007e9826200079e565b810181811067ffffffffffffffff821117156200080b576200080a620007af565b5b80604052505050565b6000620008206200068f565b90506200082e8282620007de565b919050565b600067ffffffffffffffff821115620008515762000850620007af565b5b6200085c826200079e565b9050602081019050919050565b82818337600083830152505050565b60006200088f620008898462000833565b62000814565b905082815260208101848484011115620008ae57620008ad62000799565b5b620008bb84828562000869565b509392505050565b600082601f830112620008db57620008da62000794565b5b8135620008ed84826020860162000878565b91505092915050565b60008060006060848603121562000912576200091162000699565b5b600084013567ffffffffffffffff8111156200093357620009326200069e565b5b6200094186828701620008c3565b93505060206200095486828701620006f1565b925050604084013567ffffffffffffffff8111156200097857620009776200069e565b5b6200098686828701620008c3565b9150509250925092565b600060208284031215620009a957620009a862000699565b5b6000620009b984828501620006f1565b91505092915050565b6000819050919050565b620009d781620009c2565b8114620009e357600080fd5b50565b600081359050620009f781620009cc565b92915050565b6000806040838503121562000a175762000a1662000699565b5b600062000a2785828601620006f1565b925050602062000a3a85828601620009e6565b9150509250929050565b6000819050919050565b600062000a6f62000a6962000a6384620006a3565b62000a44565b620006a3565b9050919050565b600062000a838262000a4e565b9050919050565b600062000a978262000a76565b9050919050565b62000aa98162000a8a565b82525050565b600060208201905062000ac6600083018462000a9e565b92915050565b600081519050919050565b600082825260208201905092915050565b6000819050602082019050919050565b62000b038162000a8a565b82525050565b600062000b17838362000af8565b60208301905092915050565b6000602082019050919050565b600062000b3d8262000acc565b62000b49818562000ad7565b935062000b568362000ae8565b8060005b8381101562000b8d57815162000b71888262000b09565b975062000b7e8362000b23565b92505060018101905062000b5a565b5085935050505092915050565b6000602082019050818103600083015262000bb6818462000b30565b905092915050565b7f4e487b7100000000000000000000000000000000000000000000000000000000600052603260045260246000fd5b7f4e487b7100000000000000000000000000000000000000000000000000000000600052601160045260246000fd5b600062000c2982620009c2565b915062000c3683620009c2565b92508282101562000c4c5762000c4b62000bed565b5b828203905092915050565b600062000c6482620009c2565b91507fffffffffffffffffffffffffffffffffffffffffffffffffffffffffffffffff820362000c995762000c9862000bed565b5b600182019050919050565b600081519050919050565b600082825260208201905092915050565b60005b8381101562000ce057808201518184015260208101905062000cc3565b8381111562000cf0576000848401525b50505050565b600062000d038262000ca4565b62000d0f818562000caf565b935062000d2181856020860162000cc0565b62000d2c816200079e565b840191505092915050565b6000604082019050818103600083015262000d53818562000cf6565b9050818103602083015262000d69818462000cf6565b9050939250505056fe60806040523480156200001157600080fd5b506040516200127e3803806200127e8339818101604052810190620000379190620002be565b81600090805190602001906200004f92919062000071565b5080600190805190602001906200006892919062000071565b505050620003a7565b8280546200007f9062000372565b90600052602060002090601f016020900481019282620000a35760008555620000ef565b82601f10620000be57805160ff1916838001178555620000ef565b82800160010185558215620000ef579182015b82811115620000ee578251825591602001919060010190620000d1565b5b509050620000fe919062000102565b5090565b5b808211156200011d57600081600090555060010162000103565b5090565b6000604051905090565b600080fd5b600080fd5b600080fd5b600080fd5b6000601f19601f8301169050919050565b7f4e487b7100000000000000000000000000000000000000000000000000000000600052604160045260246000fd5b6200018a826200013f565b810181811067ffffffffffffffff82111715620001ac57620001ab62000150565b5b80604052505050565b6000620001c162000121565b9050620001cf82826200017f565b919050565b600067ffffffffffffffff821115620001f257620001f162000150565b5b620001fd826200013f565b9050602081019050919050565b60005b838110156200022a5780820151818401526020810190506200020d565b838111156200023a576000848401525b50505050565b6000620002576200025184620001d4565b620001b5565b9050828152602081018484840111156200027657620002756200013a565b5b620002838482856200020a565b509392505050565b600082601f830112620002a357620002a262000135565b5b8151620002b584826020860162000240565b91505092915050565b60008060408385031215620002d857620002d76200012b565b5b600083015167ffffffffffffffff811115620002f957620002f862000130565b5b62000307858286016200028b565b925050602083015167ffffffffffffffff8111156200032b576200032a62000130565b5b62000339858286016200028b565b9150509250929050565b7f4e487b7100000000000000000000000000000000000000000000000000000000600052602260045260246000fd5b600060028204905060018216806200038b57607f821691505b602082108103620003a157620003a062000343565b5b50919050565b610ec780620003b76000396000f3fe608060405234801561001057600080fd5b50600436106100625760003560e01c80630ef486d1146100675780634d300e0c146100985780636b465601146100b457806378b8e824146100d2578063c623674f146100f0578063ddc8afbd1461010e575b600080fd5b610081600480360381019061007c919061091b565b61012c565b60405161008f9291906109e1565b60405180910390f35b6100b260048036038101906100ad9190610b4d565b610270565b005b6100bc610432565b6040516100c99190610bc5565b60405180910390f35b6100da6104c0565b6040516100e79190610d37565b60405180910390f35b6100f8610643565b6040516101059190610bc5565b60405180910390f35b6101166106d1565b6040516101239190610e0f565b60405180910390f35b6002818154811061013c57600080fd5b906000526020600020906002020160009150905080600001805461015f90610e60565b80601f016020809104026020016040519081016040528092919081815260200182805461018b90610e60565b80156101d85780601f106101ad576101008083540402835291602001916101d8565b820191906000526020600020905b8154815290600101906020018083116101bb57829003601f168201915b5050505050908060010180546101ed90610e60565b80601f016020809104026020016040519081016040528092919081815260200182805461021990610e60565b80156102665780601f1061023b57610100808354040283529160200191610266565b820191906000526020600020905b81548152906001019060200180831161024957829003601f168201915b5050505050905082565b600260405180604001604052806001805461028a90610e60565b80601f01602080910402602001604051908101604052809291908181526020018280546102b690610e60565b80156103035780601f106102d857610100808354040283529160200191610303565b820191906000526020600020905b8154815290600101906020018083116102e657829003601f168201915b505050505081526020016000805461031a90610e60565b80601f016020809104026020016040519081016040528092919081815260200182805461034690610e60565b80156103935780601f1061036857610100808354040283529160200191610393565b820191906000526020600020905b81548152906001019060200180831161037657829003601f168201915b5050505050815250908060018154018082558091505060019003906000526020600020906002020160009091909190915060008201518160000190805190602001906103e0929190610807565b5060208201518160010190805190602001906103fd929190610807565b5050508160009080519060200190610416929190610807565b50806001908051906020019061042d929190610807565b505050565b6001805461043f90610e60565b80601f016020809104026020016040519081016040528092919081815260200182805461046b90610e60565b80156104b85780601f1061048d576101008083540402835291602001916104b8565b820191906000526020600020905b81548152906001019060200180831161049b57829003601f168201915b505050505081565b60606002805480602002602001604051908101604052809291908181526020016000905b8282101561063a578382906000526020600020906002020160405180604001604052908160008201805461051790610e60565b80601f016020809104026020016040519081016040528092919081815260200182805461054390610e60565b80156105905780601f1061056557610100808354040283529160200191610590565b820191906000526020600020905b81548152906001019060200180831161057357829003601f168201915b505050505081526020016001820180546105a990610e60565b80601f01602080910402602001604051908101604052809291908181526020018280546105d590610e60565b80156106225780601f106105f757610100808354040283529160200191610622565b820191906000526020600020905b81548152906001019060200180831161060557829003601f168201915b505050505081525050815260200190600101906104e4565b50505050905090565b6000805461065090610e60565b80601f016020809104026020016040519081016040528092919081815260200182805461067c90610e60565b80156106c95780601f1061069e576101008083540402835291602001916106c9565b820191906000526020600020905b8154815290600101906020018083116106ac57829003601f168201915b505050505081565b6106d961088d565b6040518060400160405280600080546106f190610e60565b80601f016020809104026020016040519081016040528092919081815260200182805461071d90610e60565b801561076a5780601f1061073f5761010080835404028352916020019161076a565b820191906000526020600020905b81548152906001019060200180831161074d57829003601f168201915b505050505081526020016001805461078190610e60565b80601f01602080910402602001604051908101604052809291908181526020018280546107ad90610e60565b80156107fa5780601f106107cf576101008083540402835291602001916107fa565b820191906000526020600020905b8154815290600101906020018083116107dd57829003601f168201915b5050505050815250905090565b82805461081390610e60565b90600052602060002090601f016020900481019282610835576000855561087c565b82601f1061084e57805160ff191683800117855561087c565b8280016001018555821561087c579182015b8281111561087b578251825591602001919060010190610860565b5b50905061088991906108b4565b5090565b60405180604001604052806002905b606081526020019060019003908161089c5790505090565b5b808211156108cd5760008160009055506001016108b5565b5090565b6000604051905090565b600080fd5b600080fd5b6000819050919050565b6108f8816108e5565b811461090357600080fd5b50565b600081359050610915816108ef565b92915050565b600060208284031215610931576109306108db565b5b600061093f84828501610906565b91505092915050565b600081519050919050565b600082825260208201905092915050565b60005b83811015610982578082015181840152602081019050610967565b83811115610991576000848401525b50505050565b6000601f19601f8301169050919050565b60006109b382610948565b6109bd8185610953565b93506109cd818560208601610964565b6109d681610997565b840191505092915050565b600060408201905081810360008301526109fb81856109a8565b90508181036020830152610a0f81846109a8565b90509392505050565b600080fd5b600080fd5b7f4e487b7100000000000000000000000000000000000000000000000000000000600052604160045260246000fd5b610a5a82610997565b810181811067ffffffffffffffff82111715610a7957610a78610a22565b5b80604052505050565b6000610a8c6108d1565b9050610a988282610a51565b919050565b600067ffffffffffffffff821115610ab857610ab7610a22565b5b610ac182610997565b9050602081019050919050565b82818337600083830152505050565b6000610af0610aeb84610a9d565b610a82565b905082815260208101848484011115610b0c57610b0b610a1d565b5b610b17848285610ace565b509392505050565b600082601f830112610b3457610b33610a18565b5b8135610b44848260208601610add565b91505092915050565b60008060408385031215610b6457610b636108db565b5b600083013567ffffffffffffffff811115610b8257610b816108e0565b5b610b8e85828601610b1f565b925050602083013567ffffffffffffffff811115610baf57610bae6108e0565b5b610bbb85828601610b1f565b9150509250929050565b60006020820190508181036000830152610bdf81846109a8565b905092915050565b600081519050919050565b600082825260208201905092915050565b6000819050602082019050919050565b600082825260208201905092915050565b6000610c2f82610948565b610c398185610c13565b9350610c49818560208601610964565b610c5281610997565b840191505092915050565b60006040830160008301518482036000860152610c7a8282610c24565b91505060208301518482036020860152610c948282610c24565b9150508091505092915050565b6000610cad8383610c5d565b905092915050565b6000602082019050919050565b6000610ccd82610be7565b610cd78185610bf2565b935083602082028501610ce985610c03565b8060005b85811015610d255784840389528151610d068582610ca1565b9450610d1183610cb5565b925060208a01995050600181019050610ced565b50829750879550505050505092915050565b60006020820190508181036000830152610d518184610cc2565b905092915050565b600060029050919050565b600081905092915050565b6000819050919050565b6000610d858383610c24565b905092915050565b6000602082019050919050565b6000610da582610d59565b610daf8185610d64565b935083602082028501610dc185610d6f565b8060005b85811015610dfd5784840389528151610dde8582610d79565b9450610de983610d8d565b925060208a01995050600181019050610dc5565b50829750879550505050505092915050565b60006020820190508181036000830152610e298184610d9a565b905092915050565b7f4e487b7100000000000000000000000000000000000000000000000000000000600052602260045260246000fd5b60006002820490506001821680610e7857607f821691505b602082108103610e8b57610e8a610e31565b5b5091905056fea26469706673582212201806b10505d7757f9b9c523936e9405c7d353afdb46d0b8728cf3ba1dfb7cd6164736f6c634300080d0033a26469706673582212203f791d23a58204d360046782d3bcccd4963ecaa1fe01d1413b8cb08b7d5306c764736f6c634300080d0033",
      "opcodes": "PUSH1 0x80 PUSH1 0x40 MSTORE PUSH20 0x21F93E128A6D7926A37DF0C2A94BD0248EA343EF PUSH1 0x0 DUP1 PUSH2 0x100 EXP DUP2 SLOAD DUP2 PUSH20 0xFFFFFFFFFFFFFFFFFFFFFFFFFFFFFFFFFFFFFFFF MUL NOT AND SWAP1 DUP4 PUSH20 0xFFFFFFFFFFFFFFFFFFFFFFFFFFFFFFFFFFFFFFFF AND MUL OR SWAP1 SSTORE POP CALLVALUE DUP1 ISZERO PUSH2 0x64 JUMPI PUSH1 0x0 DUP1 REVERT JUMPDEST POP PUSH2 0x2026 DUP1 PUSH2 0x74 PUSH1 0x0 CODECOPY PUSH1 0x0 RETURN INVALID PUSH1 0x80 PUSH1 0x40 MSTORE CALLVALUE DUP1 ISZERO PUSH3 0x11 JUMPI PUSH1 0x0 DUP1 REVERT JUMPDEST POP PUSH1 0x4 CALLDATASIZE LT PUSH3 0x5E JUMPI PUSH1 0x0 CALLDATALOAD PUSH1 0xE0 SHR DUP1 PUSH4 0x1E3BB6AE EQ PUSH3 0x63 JUMPI DUP1 PUSH4 0x42B67595 EQ PUSH3 0x83 JUMPI DUP1 PUSH4 0x47B64EB0 EQ PUSH3 0xA3 JUMPI DUP1 PUSH4 0x9B3E2787 EQ PUSH3 0xC3 JUMPI DUP1 PUSH4 0xDFC9F2EA EQ PUSH3 0xF9 JUMPI JUMPDEST PUSH1 0x0 DUP1 REVERT JUMPDEST PUSH3 0x81 PUSH1 0x4 DUP1 CALLDATASIZE SUB DUP2 ADD SWAP1 PUSH3 0x7B SWAP2 SWAP1 PUSH3 0x74D JUMP JUMPDEST PUSH3 0x12F JUMP JUMPDEST STOP JUMPDEST PUSH3 0xA1 PUSH1 0x4 DUP1 CALLDATASIZE SUB DUP2 ADD SWAP1 PUSH3 0x9B SWAP2 SWAP1 PUSH3 0x8F6 JUMP JUMPDEST PUSH3 0x393 JUMP JUMPDEST STOP JUMPDEST PUSH3 0xC1 PUSH1 0x4 DUP1 CALLDATASIZE SUB DUP2 ADD SWAP1 PUSH3 0xBB SWAP2 SWAP1 PUSH3 0x990 JUMP JUMPDEST PUSH3 0x472 JUMP JUMPDEST STOP JUMPDEST PUSH3 0xE1 PUSH1 0x4 DUP1 CALLDATASIZE SUB DUP2 ADD SWAP1 PUSH3 0xDB SWAP2 SWAP1 PUSH3 0x9FD JUMP JUMPDEST PUSH3 0x4B5 JUMP JUMPDEST PUSH1 0x40 MLOAD PUSH3 0xF0 SWAP2 SWAP1 PUSH3 0xAAF JUMP JUMPDEST PUSH1 0x40 MLOAD DUP1 SWAP2 SUB SWAP1 RETURN JUMPDEST PUSH3 0x117 PUSH1 0x4 DUP1 CALLDATASIZE SUB DUP2 ADD SWAP1 PUSH3 0x111 SWAP2 SWAP1 PUSH3 0x990 JUMP JUMPDEST PUSH3 0x504 JUMP JUMPDEST PUSH1 0x40 MLOAD PUSH3 0x126 SWAP2 SWAP1 PUSH3 0xB9A JUMP JUMPDEST PUSH1 0x40 MLOAD DUP1 SWAP2 SUB SWAP1 RETURN JUMPDEST PUSH1 0x0 PUSH1 0x1 PUSH1 0x0 DUP5 PUSH20 0xFFFFFFFFFFFFFFFFFFFFFFFFFFFFFFFFFFFFFFFF AND PUSH20 0xFFFFFFFFFFFFFFFFFFFFFFFFFFFFFFFFFFFFFFFF AND DUP2 MSTORE PUSH1 0x20 ADD SWAP1 DUP2 MSTORE PUSH1 0x20 ADD PUSH1 0x0 KECCAK256 DUP1 SLOAD DUP1 PUSH1 0x20 MUL PUSH1 0x20 ADD PUSH1 0x40 MLOAD SWAP1 DUP2 ADD PUSH1 0x40 MSTORE DUP1 SWAP3 SWAP2 SWAP1 DUP2 DUP2 MSTORE PUSH1 0x20 ADD DUP3 DUP1 SLOAD DUP1 ISZERO PUSH3 0x1F2 JUMPI PUSH1 0x20 MUL DUP3 ADD SWAP2 SWAP1 PUSH1 0x0 MSTORE PUSH1 0x20 PUSH1 0x0 KECCAK256 SWAP1 JUMPDEST DUP2 PUSH1 0x0 SWAP1 SLOAD SWAP1 PUSH2 0x100 EXP SWAP1 DIV PUSH20 0xFFFFFFFFFFFFFFFFFFFFFFFFFFFFFFFFFFFFFFFF AND PUSH20 0xFFFFFFFFFFFFFFFFFFFFFFFFFFFFFFFFFFFFFFFF AND DUP2 MSTORE PUSH1 0x20 ADD SWAP1 PUSH1 0x1 ADD SWAP1 DUP1 DUP4 GT PUSH3 0x1A7 JUMPI JUMPDEST POP POP POP POP POP SWAP1 POP PUSH1 0x0 JUMPDEST DUP2 MLOAD DUP2 LT ISZERO PUSH3 0x337 JUMPI DUP3 PUSH20 0xFFFFFFFFFFFFFFFFFFFFFFFFFFFFFFFFFFFFFFFF AND DUP3 DUP3 DUP2 MLOAD DUP2 LT PUSH3 0x233 JUMPI PUSH3 0x232 PUSH3 0xBBE JUMP JUMPDEST JUMPDEST PUSH1 0x20 MUL PUSH1 0x20 ADD ADD MLOAD PUSH20 0xFFFFFFFFFFFFFFFFFFFFFFFFFFFFFFFFFFFFFFFF AND SUB PUSH3 0x321 JUMPI DUP2 PUSH1 0x1 DUP4 MLOAD PUSH3 0x268 SWAP2 SWAP1 PUSH3 0xC1C JUMP JUMPDEST DUP2 MLOAD DUP2 LT PUSH3 0x27C JUMPI PUSH3 0x27B PUSH3 0xBBE JUMP JUMPDEST JUMPDEST PUSH1 0x20 MUL PUSH1 0x20 ADD ADD MLOAD DUP3 DUP3 DUP2 MLOAD DUP2 LT PUSH3 0x29A JUMPI PUSH3 0x299 PUSH3 0xBBE JUMP JUMPDEST JUMPDEST PUSH1 0x20 MUL PUSH1 0x20 ADD ADD SWAP1 PUSH20 0xFFFFFFFFFFFFFFFFFFFFFFFFFFFFFFFFFFFFFFFF AND SWAP1 DUP2 PUSH20 0xFFFFFFFFFFFFFFFFFFFFFFFFFFFFFFFFFFFFFFFF AND DUP2 MSTORE POP POP DUP2 PUSH1 0x1 DUP4 MLOAD PUSH3 0x2E5 SWAP2 SWAP1 PUSH3 0xC1C JUMP JUMPDEST DUP2 MLOAD DUP2 LT PUSH3 0x2F9 JUMPI PUSH3 0x2F8 PUSH3 0xBBE JUMP JUMPDEST JUMPDEST PUSH1 0x20 MUL PUSH1 0x20 ADD ADD PUSH1 0x0 PUSH20 0xFFFFFFFFFFFFFFFFFFFFFFFFFFFFFFFFFFFFFFFF AND DUP2 MSTORE POP PUSH3 0x337 JUMP JUMPDEST DUP1 DUP1 PUSH3 0x32E SWAP1 PUSH3 0xC57 JUMP JUMPDEST SWAP2 POP POP PUSH3 0x1FC JUMP JUMPDEST POP DUP1 PUSH1 0x1 PUSH1 0x0 DUP6 PUSH20 0xFFFFFFFFFFFFFFFFFFFFFFFFFFFFFFFFFFFFFFFF AND PUSH20 0xFFFFFFFFFFFFFFFFFFFFFFFFFFFFFFFFFFFFFFFF AND DUP2 MSTORE PUSH1 0x20 ADD SWAP1 DUP2 MSTORE PUSH1 0x20 ADD PUSH1 0x0 KECCAK256 SWAP1 DUP1 MLOAD SWAP1 PUSH1 0x20 ADD SWAP1 PUSH3 0x38D SWAP3 SWAP2 SWAP1 PUSH3 0x5D3 JUMP JUMPDEST POP POP POP POP JUMP JUMPDEST PUSH1 0x1 PUSH1 0x0 DUP4 PUSH20 0xFFFFFFFFFFFFFFFFFFFFFFFFFFFFFFFFFFFFFFFF AND PUSH20 0xFFFFFFFFFFFFFFFFFFFFFFFFFFFFFFFFFFFFFFFF AND DUP2 MSTORE PUSH1 0x20 ADD SWAP1 DUP2 MSTORE PUSH1 0x20 ADD PUSH1 0x0 KECCAK256 DUP4 DUP3 PUSH1 0x40 MLOAD PUSH3 0x3E2 SWAP1 PUSH3 0x662 JUMP JUMPDEST PUSH3 0x3EF SWAP3 SWAP2 SWAP1 PUSH3 0xD37 JUMP JUMPDEST PUSH1 0x40 MLOAD DUP1 SWAP2 SUB SWAP1 PUSH1 0x0 CREATE DUP1 ISZERO DUP1 ISZERO PUSH3 0x40C JUMPI RETURNDATASIZE PUSH1 0x0 DUP1 RETURNDATACOPY RETURNDATASIZE PUSH1 0x0 REVERT JUMPDEST POP SWAP1 DUP1 PUSH1 0x1 DUP2 SLOAD ADD DUP1 DUP3 SSTORE DUP1 SWAP2 POP POP PUSH1 0x1 SWAP1 SUB SWAP1 PUSH1 0x0 MSTORE PUSH1 0x20 PUSH1 0x0 KECCAK256 ADD PUSH1 0x0 SWAP1 SWAP2 SWAP1 SWAP2 SWAP1 SWAP2 PUSH2 0x100 EXP DUP2 SLOAD DUP2 PUSH20 0xFFFFFFFFFFFFFFFFFFFFFFFFFFFFFFFFFFFFFFFF MUL NOT AND SWAP1 DUP4 PUSH20 0xFFFFFFFFFFFFFFFFFFFFFFFFFFFFFFFFFFFFFFFF AND MUL OR SWAP1 SSTORE POP POP POP POP JUMP JUMPDEST DUP1 PUSH1 0x0 DUP1 PUSH2 0x100 EXP DUP2 SLOAD DUP2 PUSH20 0xFFFFFFFFFFFFFFFFFFFFFFFFFFFFFFFFFFFFFFFF MUL NOT AND SWAP1 DUP4 PUSH20 0xFFFFFFFFFFFFFFFFFFFFFFFFFFFFFFFFFFFFFFFF AND MUL OR SWAP1 SSTORE POP POP JUMP JUMPDEST PUSH1 0x1 PUSH1 0x20 MSTORE DUP2 PUSH1 0x0 MSTORE PUSH1 0x40 PUSH1 0x0 KECCAK256 DUP2 DUP2 SLOAD DUP2 LT PUSH3 0x4D2 JUMPI PUSH1 0x0 DUP1 REVERT JUMPDEST SWAP1 PUSH1 0x0 MSTORE PUSH1 0x20 PUSH1 0x0 KECCAK256 ADD PUSH1 0x0 SWAP2 POP SWAP2 POP SWAP1 SLOAD SWAP1 PUSH2 0x100 EXP SWAP1 DIV PUSH20 0xFFFFFFFFFFFFFFFFFFFFFFFFFFFFFFFFFFFFFFFF AND DUP2 JUMP JUMPDEST PUSH1 0x60 PUSH1 0x1 PUSH1 0x0 DUP4 PUSH20 0xFFFFFFFFFFFFFFFFFFFFFFFFFFFFFFFFFFFFFFFF AND PUSH20 0xFFFFFFFFFFFFFFFFFFFFFFFFFFFFFFFFFFFFFFFF AND DUP2 MSTORE PUSH1 0x20 ADD SWAP1 DUP2 MSTORE PUSH1 0x20 ADD PUSH1 0x0 KECCAK256 DUP1 SLOAD DUP1 PUSH1 0x20 MUL PUSH1 0x20 ADD PUSH1 0x40 MLOAD SWAP1 DUP2 ADD PUSH1 0x40 MSTORE DUP1 SWAP3 SWAP2 SWAP1 DUP2 DUP2 MSTORE PUSH1 0x20 ADD DUP3 DUP1 SLOAD DUP1 ISZERO PUSH3 0x5C7 JUMPI PUSH1 0x20 MUL DUP3 ADD SWAP2 SWAP1 PUSH1 0x0 MSTORE PUSH1 0x20 PUSH1 0x0 KECCAK256 SWAP1 JUMPDEST DUP2 PUSH1 0x0 SWAP1 SLOAD SWAP1 PUSH2 0x100 EXP SWAP1 DIV PUSH20 0xFFFFFFFFFFFFFFFFFFFFFFFFFFFFFFFFFFFFFFFF AND PUSH20 0xFFFFFFFFFFFFFFFFFFFFFFFFFFFFFFFFFFFFFFFF AND DUP2 MSTORE PUSH1 0x20 ADD SWAP1 PUSH1 0x1 ADD SWAP1 DUP1 DUP4 GT PUSH3 0x57C JUMPI JUMPDEST POP POP POP POP POP SWAP1 POP SWAP2 SWAP1 POP JUMP JUMPDEST DUP3 DUP1 SLOAD DUP3 DUP3 SSTORE SWAP1 PUSH1 0x0 MSTORE PUSH1 0x20 PUSH1 0x0 KECCAK256 SWAP1 DUP2 ADD SWAP3 DUP3 ISZERO PUSH3 0x64F JUMPI SWAP2 PUSH1 0x20 MUL DUP3 ADD JUMPDEST DUP3 DUP2 GT ISZERO PUSH3 0x64E JUMPI DUP3 MLOAD DUP3 PUSH1 0x0 PUSH2 0x100 EXP DUP2 SLOAD DUP2 PUSH20 0xFFFFFFFFFFFFFFFFFFFFFFFFFFFFFFFFFFFFFFFF MUL NOT AND SWAP1 DUP4 PUSH20 0xFFFFFFFFFFFFFFFFFFFFFFFFFFFFFFFFFFFFFFFF AND MUL OR SWAP1 SSTORE POP SWAP2 PUSH1 0x20 ADD SWAP2 SWAP1 PUSH1 0x1 ADD SWAP1 PUSH3 0x5F4 JUMP JUMPDEST JUMPDEST POP SWAP1 POP PUSH3 0x65E SWAP2 SWAP1 PUSH3 0x670 JUMP JUMPDEST POP SWAP1 JUMP JUMPDEST PUSH2 0x127E DUP1 PUSH3 0xD73 DUP4 CODECOPY ADD SWAP1 JUMP JUMPDEST JUMPDEST DUP1 DUP3 GT ISZERO PUSH3 0x68B JUMPI PUSH1 0x0 DUP2 PUSH1 0x0 SWAP1 SSTORE POP PUSH1 0x1 ADD PUSH3 0x671 JUMP JUMPDEST POP SWAP1 JUMP JUMPDEST PUSH1 0x0 PUSH1 0x40 MLOAD SWAP1 POP SWAP1 JUMP JUMPDEST PUSH1 0x0 DUP1 REVERT JUMPDEST PUSH1 0x0 DUP1 REVERT JUMPDEST PUSH1 0x0 PUSH20 0xFFFFFFFFFFFFFFFFFFFFFFFFFFFFFFFFFFFFFFFF DUP3 AND SWAP1 POP SWAP2 SWAP1 POP JUMP JUMPDEST PUSH1 0x0 PUSH3 0x6D0 DUP3 PUSH3 0x6A3 JUMP JUMPDEST SWAP1 POP SWAP2 SWAP1 POP JUMP JUMPDEST PUSH3 0x6E2 DUP2 PUSH3 0x6C3 JUMP JUMPDEST DUP2 EQ PUSH3 0x6EE JUMPI PUSH1 0x0 DUP1 REVERT JUMPDEST POP JUMP JUMPDEST PUSH1 0x0 DUP2 CALLDATALOAD SWAP1 POP PUSH3 0x702 DUP2 PUSH3 0x6D7 JUMP JUMPDEST SWAP3 SWAP2 POP POP JUMP JUMPDEST PUSH1 0x0 PUSH3 0x715 DUP3 PUSH3 0x6C3 JUMP JUMPDEST SWAP1 POP SWAP2 SWAP1 POP JUMP JUMPDEST PUSH3 0x727 DUP2 PUSH3 0x708 JUMP JUMPDEST DUP2 EQ PUSH3 0x733 JUMPI PUSH1 0x0 DUP1 REVERT JUMPDEST POP JUMP JUMPDEST PUSH1 0x0 DUP2 CALLDATALOAD SWAP1 POP PUSH3 0x747 DUP2 PUSH3 0x71C JUMP JUMPDEST SWAP3 SWAP2 POP POP JUMP JUMPDEST PUSH1 0x0 DUP1 PUSH1 0x40 DUP4 DUP6 SUB SLT ISZERO PUSH3 0x767 JUMPI PUSH3 0x766 PUSH3 0x699 JUMP JUMPDEST JUMPDEST PUSH1 0x0 PUSH3 0x777 DUP6 DUP3 DUP7 ADD PUSH3 0x6F1 JUMP JUMPDEST SWAP3 POP POP PUSH1 0x20 PUSH3 0x78A DUP6 DUP3 DUP7 ADD PUSH3 0x736 JUMP JUMPDEST SWAP2 POP POP SWAP3 POP SWAP3 SWAP1 POP JUMP JUMPDEST PUSH1 0x0 DUP1 REVERT JUMPDEST PUSH1 0x0 DUP1 REVERT JUMPDEST PUSH1 0x0 PUSH1 0x1F NOT PUSH1 0x1F DUP4 ADD AND SWAP1 POP SWAP2 SWAP1 POP JUMP JUMPDEST PUSH32 0x4E487B7100000000000000000000000000000000000000000000000000000000 PUSH1 0x0 MSTORE PUSH1 0x41 PUSH1 0x4 MSTORE PUSH1 0x24 PUSH1 0x0 REVERT JUMPDEST PUSH3 0x7E9 DUP3 PUSH3 0x79E JUMP JUMPDEST DUP2 ADD DUP2 DUP2 LT PUSH8 0xFFFFFFFFFFFFFFFF DUP3 GT OR ISZERO PUSH3 0x80B JUMPI PUSH3 0x80A PUSH3 0x7AF JUMP JUMPDEST JUMPDEST DUP1 PUSH1 0x40 MSTORE POP POP POP JUMP JUMPDEST PUSH1 0x0 PUSH3 0x820 PUSH3 0x68F JUMP JUMPDEST SWAP1 POP PUSH3 0x82E DUP3 DUP3 PUSH3 0x7DE JUMP JUMPDEST SWAP2 SWAP1 POP JUMP JUMPDEST PUSH1 0x0 PUSH8 0xFFFFFFFFFFFFFFFF DUP3 GT ISZERO PUSH3 0x851 JUMPI PUSH3 0x850 PUSH3 0x7AF JUMP JUMPDEST JUMPDEST PUSH3 0x85C DUP3 PUSH3 0x79E JUMP JUMPDEST SWAP1 POP PUSH1 0x20 DUP2 ADD SWAP1 POP SWAP2 SWAP1 POP JUMP JUMPDEST DUP3 DUP2 DUP4 CALLDATACOPY PUSH1 0x0 DUP4 DUP4 ADD MSTORE POP POP POP JUMP JUMPDEST PUSH1 0x0 PUSH3 0x88F PUSH3 0x889 DUP5 PUSH3 0x833 JUMP JUMPDEST PUSH3 0x814 JUMP JUMPDEST SWAP1 POP DUP3 DUP2 MSTORE PUSH1 0x20 DUP2 ADD DUP5 DUP5 DUP5 ADD GT ISZERO PUSH3 0x8AE JUMPI PUSH3 0x8AD PUSH3 0x799 JUMP JUMPDEST JUMPDEST PUSH3 0x8BB DUP5 DUP3 DUP6 PUSH3 0x869 JUMP JUMPDEST POP SWAP4 SWAP3 POP POP POP JUMP JUMPDEST PUSH1 0x0 DUP3 PUSH1 0x1F DUP4 ADD SLT PUSH3 0x8DB JUMPI PUSH3 0x8DA PUSH3 0x794 JUMP JUMPDEST JUMPDEST DUP2 CALLDATALOAD PUSH3 0x8ED DUP5 DUP3 PUSH1 0x20 DUP7 ADD PUSH3 0x878 JUMP JUMPDEST SWAP2 POP POP SWAP3 SWAP2 POP POP JUMP JUMPDEST PUSH1 0x0 DUP1 PUSH1 0x0 PUSH1 0x60 DUP5 DUP7 SUB SLT ISZERO PUSH3 0x912 JUMPI PUSH3 0x911 PUSH3 0x699 JUMP JUMPDEST JUMPDEST PUSH1 0x0 DUP5 ADD CALLDATALOAD PUSH8 0xFFFFFFFFFFFFFFFF DUP2 GT ISZERO PUSH3 0x933 JUMPI PUSH3 0x932 PUSH3 0x69E JUMP JUMPDEST JUMPDEST PUSH3 0x941 DUP7 DUP3 DUP8 ADD PUSH3 0x8C3 JUMP JUMPDEST SWAP4 POP POP PUSH1 0x20 PUSH3 0x954 DUP7 DUP3 DUP8 ADD PUSH3 0x6F1 JUMP JUMPDEST SWAP3 POP POP PUSH1 0x40 DUP5 ADD CALLDATALOAD PUSH8 0xFFFFFFFFFFFFFFFF DUP2 GT ISZERO PUSH3 0x978 JUMPI PUSH3 0x977 PUSH3 0x69E JUMP JUMPDEST JUMPDEST PUSH3 0x986 DUP7 DUP3 DUP8 ADD PUSH3 0x8C3 JUMP JUMPDEST SWAP2 POP POP SWAP3 POP SWAP3 POP SWAP3 JUMP JUMPDEST PUSH1 0x0 PUSH1 0x20 DUP3 DUP5 SUB SLT ISZERO PUSH3 0x9A9 JUMPI PUSH3 0x9A8 PUSH3 0x699 JUMP JUMPDEST JUMPDEST PUSH1 0x0 PUSH3 0x9B9 DUP5 DUP3 DUP6 ADD PUSH3 0x6F1 JUMP JUMPDEST SWAP2 POP POP SWAP3 SWAP2 POP POP JUMP JUMPDEST PUSH1 0x0 DUP2 SWAP1 POP SWAP2 SWAP1 POP JUMP JUMPDEST PUSH3 0x9D7 DUP2 PUSH3 0x9C2 JUMP JUMPDEST DUP2 EQ PUSH3 0x9E3 JUMPI PUSH1 0x0 DUP1 REVERT JUMPDEST POP JUMP JUMPDEST PUSH1 0x0 DUP2 CALLDATALOAD SWAP1 POP PUSH3 0x9F7 DUP2 PUSH3 0x9CC JUMP JUMPDEST SWAP3 SWAP2 POP POP JUMP JUMPDEST PUSH1 0x0 DUP1 PUSH1 0x40 DUP4 DUP6 SUB SLT ISZERO PUSH3 0xA17 JUMPI PUSH3 0xA16 PUSH3 0x699 JUMP JUMPDEST JUMPDEST PUSH1 0x0 PUSH3 0xA27 DUP6 DUP3 DUP7 ADD PUSH3 0x6F1 JUMP JUMPDEST SWAP3 POP POP PUSH1 0x20 PUSH3 0xA3A DUP6 DUP3 DUP7 ADD PUSH3 0x9E6 JUMP JUMPDEST SWAP2 POP POP SWAP3 POP SWAP3 SWAP1 POP JUMP JUMPDEST PUSH1 0x0 DUP2 SWAP1 POP SWAP2 SWAP1 POP JUMP JUMPDEST PUSH1 0x0 PUSH3 0xA6F PUSH3 0xA69 PUSH3 0xA63 DUP5 PUSH3 0x6A3 JUMP JUMPDEST PUSH3 0xA44 JUMP JUMPDEST PUSH3 0x6A3 JUMP JUMPDEST SWAP1 POP SWAP2 SWAP1 POP JUMP JUMPDEST PUSH1 0x0 PUSH3 0xA83 DUP3 PUSH3 0xA4E JUMP JUMPDEST SWAP1 POP SWAP2 SWAP1 POP JUMP JUMPDEST PUSH1 0x0 PUSH3 0xA97 DUP3 PUSH3 0xA76 JUMP JUMPDEST SWAP1 POP SWAP2 SWAP1 POP JUMP JUMPDEST PUSH3 0xAA9 DUP2 PUSH3 0xA8A JUMP JUMPDEST DUP3 MSTORE POP POP JUMP JUMPDEST PUSH1 0x0 PUSH1 0x20 DUP3 ADD SWAP1 POP PUSH3 0xAC6 PUSH1 0x0 DUP4 ADD DUP5 PUSH3 0xA9E JUMP JUMPDEST SWAP3 SWAP2 POP POP JUMP JUMPDEST PUSH1 0x0 DUP2 MLOAD SWAP1 POP SWAP2 SWAP1 POP JUMP JUMPDEST PUSH1 0x0 DUP3 DUP3 MSTORE PUSH1 0x20 DUP3 ADD SWAP1 POP SWAP3 SWAP2 POP POP JUMP JUMPDEST PUSH1 0x0 DUP2 SWAP1 POP PUSH1 0x20 DUP3 ADD SWAP1 POP SWAP2 SWAP1 POP JUMP JUMPDEST PUSH3 0xB03 DUP2 PUSH3 0xA8A JUMP JUMPDEST DUP3 MSTORE POP POP JUMP JUMPDEST PUSH1 0x0 PUSH3 0xB17 DUP4 DUP4 PUSH3 0xAF8 JUMP JUMPDEST PUSH1 0x20 DUP4 ADD SWAP1 POP SWAP3 SWAP2 POP POP JUMP JUMPDEST PUSH1 0x0 PUSH1 0x20 DUP3 ADD SWAP1 POP SWAP2 SWAP1 POP JUMP JUMPDEST PUSH1 0x0 PUSH3 0xB3D DUP3 PUSH3 0xACC JUMP JUMPDEST PUSH3 0xB49 DUP2 DUP6 PUSH3 0xAD7 JUMP JUMPDEST SWAP4 POP PUSH3 0xB56 DUP4 PUSH3 0xAE8 JUMP JUMPDEST DUP1 PUSH1 0x0 JUMPDEST DUP4 DUP2 LT ISZERO PUSH3 0xB8D JUMPI DUP2 MLOAD PUSH3 0xB71 DUP9 DUP3 PUSH3 0xB09 JUMP JUMPDEST SWAP8 POP PUSH3 0xB7E DUP4 PUSH3 0xB23 JUMP JUMPDEST SWAP3 POP POP PUSH1 0x1 DUP2 ADD SWAP1 POP PUSH3 0xB5A JUMP JUMPDEST POP DUP6 SWAP4 POP POP POP POP SWAP3 SWAP2 POP POP JUMP JUMPDEST PUSH1 0x0 PUSH1 0x20 DUP3 ADD SWAP1 POP DUP2 DUP2 SUB PUSH1 0x0 DUP4 ADD MSTORE PUSH3 0xBB6 DUP2 DUP5 PUSH3 0xB30 JUMP JUMPDEST SWAP1 POP SWAP3 SWAP2 POP POP JUMP JUMPDEST PUSH32 0x4E487B7100000000000000000000000000000000000000000000000000000000 PUSH1 0x0 MSTORE PUSH1 0x32 PUSH1 0x4 MSTORE PUSH1 0x24 PUSH1 0x0 REVERT JUMPDEST PUSH32 0x4E487B7100000000000000000000000000000000000000000000000000000000 PUSH1 0x0 MSTORE PUSH1 0x11 PUSH1 0x4 MSTORE PUSH1 0x24 PUSH1 0x0 REVERT JUMPDEST PUSH1 0x0 PUSH3 0xC29 DUP3 PUSH3 0x9C2 JUMP JUMPDEST SWAP2 POP PUSH3 0xC36 DUP4 PUSH3 0x9C2 JUMP JUMPDEST SWAP3 POP DUP3 DUP3 LT ISZERO PUSH3 0xC4C JUMPI PUSH3 0xC4B PUSH3 0xBED JUMP JUMPDEST JUMPDEST DUP3 DUP3 SUB SWAP1 POP SWAP3 SWAP2 POP POP JUMP JUMPDEST PUSH1 0x0 PUSH3 0xC64 DUP3 PUSH3 0x9C2 JUMP JUMPDEST SWAP2 POP PUSH32 0xFFFFFFFFFFFFFFFFFFFFFFFFFFFFFFFFFFFFFFFFFFFFFFFFFFFFFFFFFFFFFFFF DUP3 SUB PUSH3 0xC99 JUMPI PUSH3 0xC98 PUSH3 0xBED JUMP JUMPDEST JUMPDEST PUSH1 0x1 DUP3 ADD SWAP1 POP SWAP2 SWAP1 POP JUMP JUMPDEST PUSH1 0x0 DUP2 MLOAD SWAP1 POP SWAP2 SWAP1 POP JUMP JUMPDEST PUSH1 0x0 DUP3 DUP3 MSTORE PUSH1 0x20 DUP3 ADD SWAP1 POP SWAP3 SWAP2 POP POP JUMP JUMPDEST PUSH1 0x0 JUMPDEST DUP4 DUP2 LT ISZERO PUSH3 0xCE0 JUMPI DUP1 DUP3 ADD MLOAD DUP2 DUP5 ADD MSTORE PUSH1 0x20 DUP2 ADD SWAP1 POP PUSH3 0xCC3 JUMP JUMPDEST DUP4 DUP2 GT ISZERO PUSH3 0xCF0 JUMPI PUSH1 0x0 DUP5 DUP5 ADD MSTORE JUMPDEST POP POP POP POP JUMP JUMPDEST PUSH1 0x0 PUSH3 0xD03 DUP3 PUSH3 0xCA4 JUMP JUMPDEST PUSH3 0xD0F DUP2 DUP6 PUSH3 0xCAF JUMP JUMPDEST SWAP4 POP PUSH3 0xD21 DUP2 DUP6 PUSH1 0x20 DUP7 ADD PUSH3 0xCC0 JUMP JUMPDEST PUSH3 0xD2C DUP2 PUSH3 0x79E JUMP JUMPDEST DUP5 ADD SWAP2 POP POP SWAP3 SWAP2 POP POP JUMP JUMPDEST PUSH1 0x0 PUSH1 0x40 DUP3 ADD SWAP1 POP DUP2 DUP2 SUB PUSH1 0x0 DUP4 ADD MSTORE PUSH3 0xD53 DUP2 DUP6 PUSH3 0xCF6 JUMP JUMPDEST SWAP1 POP DUP2 DUP2 SUB PUSH1 0x20 DUP4 ADD MSTORE PUSH3 0xD69 DUP2 DUP5 PUSH3 0xCF6 JUMP JUMPDEST SWAP1 POP SWAP4 SWAP3 POP POP POP JUMP INVALID PUSH1 0x80 PUSH1 0x40 MSTORE CALLVALUE DUP1 ISZERO PUSH3 0x11 JUMPI PUSH1 0x0 DUP1 REVERT JUMPDEST POP PUSH1 0x40 MLOAD PUSH3 0x127E CODESIZE SUB DUP1 PUSH3 0x127E DUP4 CODECOPY DUP2 DUP2 ADD PUSH1 0x40 MSTORE DUP2 ADD SWAP1 PUSH3 0x37 SWAP2 SWAP1 PUSH3 0x2BE JUMP JUMPDEST DUP2 PUSH1 0x0 SWAP1 DUP1 MLOAD SWAP1 PUSH1 0x20 ADD SWAP1 PUSH3 0x4F SWAP3 SWAP2 SWAP1 PUSH3 0x71 JUMP JUMPDEST POP DUP1 PUSH1 0x1 SWAP1 DUP1 MLOAD SWAP1 PUSH1 0x20 ADD SWAP1 PUSH3 0x68 SWAP3 SWAP2 SWAP1 PUSH3 0x71 JUMP JUMPDEST POP POP POP PUSH3 0x3A7 JUMP JUMPDEST DUP3 DUP1 SLOAD PUSH3 0x7F SWAP1 PUSH3 0x372 JUMP JUMPDEST SWAP1 PUSH1 0x0 MSTORE PUSH1 0x20 PUSH1 0x0 KECCAK256 SWAP1 PUSH1 0x1F ADD PUSH1 0x20 SWAP1 DIV DUP2 ADD SWAP3 DUP3 PUSH3 0xA3 JUMPI PUSH1 0x0 DUP6 SSTORE PUSH3 0xEF JUMP JUMPDEST DUP3 PUSH1 0x1F LT PUSH3 0xBE JUMPI DUP1 MLOAD PUSH1 0xFF NOT AND DUP4 DUP1 ADD OR DUP6 SSTORE PUSH3 0xEF JUMP JUMPDEST DUP3 DUP1 ADD PUSH1 0x1 ADD DUP6 SSTORE DUP3 ISZERO PUSH3 0xEF JUMPI SWAP2 DUP3 ADD JUMPDEST DUP3 DUP2 GT ISZERO PUSH3 0xEE JUMPI DUP3 MLOAD DUP3 SSTORE SWAP2 PUSH1 0x20 ADD SWAP2 SWAP1 PUSH1 0x1 ADD SWAP1 PUSH3 0xD1 JUMP JUMPDEST JUMPDEST POP SWAP1 POP PUSH3 0xFE SWAP2 SWAP1 PUSH3 0x102 JUMP JUMPDEST POP SWAP1 JUMP JUMPDEST JUMPDEST DUP1 DUP3 GT ISZERO PUSH3 0x11D JUMPI PUSH1 0x0 DUP2 PUSH1 0x0 SWAP1 SSTORE POP PUSH1 0x1 ADD PUSH3 0x103 JUMP JUMPDEST POP SWAP1 JUMP JUMPDEST PUSH1 0x0 PUSH1 0x40 MLOAD SWAP1 POP SWAP1 JUMP JUMPDEST PUSH1 0x0 DUP1 REVERT JUMPDEST PUSH1 0x0 DUP1 REVERT JUMPDEST PUSH1 0x0 DUP1 REVERT JUMPDEST PUSH1 0x0 DUP1 REVERT JUMPDEST PUSH1 0x0 PUSH1 0x1F NOT PUSH1 0x1F DUP4 ADD AND SWAP1 POP SWAP2 SWAP1 POP JUMP JUMPDEST PUSH32 0x4E487B7100000000000000000000000000000000000000000000000000000000 PUSH1 0x0 MSTORE PUSH1 0x41 PUSH1 0x4 MSTORE PUSH1 0x24 PUSH1 0x0 REVERT JUMPDEST PUSH3 0x18A DUP3 PUSH3 0x13F JUMP JUMPDEST DUP2 ADD DUP2 DUP2 LT PUSH8 0xFFFFFFFFFFFFFFFF DUP3 GT OR ISZERO PUSH3 0x1AC JUMPI PUSH3 0x1AB PUSH3 0x150 JUMP JUMPDEST JUMPDEST DUP1 PUSH1 0x40 MSTORE POP POP POP JUMP JUMPDEST PUSH1 0x0 PUSH3 0x1C1 PUSH3 0x121 JUMP JUMPDEST SWAP1 POP PUSH3 0x1CF DUP3 DUP3 PUSH3 0x17F JUMP JUMPDEST SWAP2 SWAP1 POP JUMP JUMPDEST PUSH1 0x0 PUSH8 0xFFFFFFFFFFFFFFFF DUP3 GT ISZERO PUSH3 0x1F2 JUMPI PUSH3 0x1F1 PUSH3 0x150 JUMP JUMPDEST JUMPDEST PUSH3 0x1FD DUP3 PUSH3 0x13F JUMP JUMPDEST SWAP1 POP PUSH1 0x20 DUP2 ADD SWAP1 POP SWAP2 SWAP1 POP JUMP JUMPDEST PUSH1 0x0 JUMPDEST DUP4 DUP2 LT ISZERO PUSH3 0x22A JUMPI DUP1 DUP3 ADD MLOAD DUP2 DUP5 ADD MSTORE PUSH1 0x20 DUP2 ADD SWAP1 POP PUSH3 0x20D JUMP JUMPDEST DUP4 DUP2 GT ISZERO PUSH3 0x23A JUMPI PUSH1 0x0 DUP5 DUP5 ADD MSTORE JUMPDEST POP POP POP POP JUMP JUMPDEST PUSH1 0x0 PUSH3 0x257 PUSH3 0x251 DUP5 PUSH3 0x1D4 JUMP JUMPDEST PUSH3 0x1B5 JUMP JUMPDEST SWAP1 POP DUP3 DUP2 MSTORE PUSH1 0x20 DUP2 ADD DUP5 DUP5 DUP5 ADD GT ISZERO PUSH3 0x276 JUMPI PUSH3 0x275 PUSH3 0x13A JUMP JUMPDEST JUMPDEST PUSH3 0x283 DUP5 DUP3 DUP6 PUSH3 0x20A JUMP JUMPDEST POP SWAP4 SWAP3 POP POP POP JUMP JUMPDEST PUSH1 0x0 DUP3 PUSH1 0x1F DUP4 ADD SLT PUSH3 0x2A3 JUMPI PUSH3 0x2A2 PUSH3 0x135 JUMP JUMPDEST JUMPDEST DUP2 MLOAD PUSH3 0x2B5 DUP5 DUP3 PUSH1 0x20 DUP7 ADD PUSH3 0x240 JUMP JUMPDEST SWAP2 POP POP SWAP3 SWAP2 POP POP JUMP JUMPDEST PUSH1 0x0 DUP1 PUSH1 0x40 DUP4 DUP6 SUB SLT ISZERO PUSH3 0x2D8 JUMPI PUSH3 0x2D7 PUSH3 0x12B JUMP JUMPDEST JUMPDEST PUSH1 0x0 DUP4 ADD MLOAD PUSH8 0xFFFFFFFFFFFFFFFF DUP2 GT ISZERO PUSH3 0x2F9 JUMPI PUSH3 0x2F8 PUSH3 0x130 JUMP JUMPDEST JUMPDEST PUSH3 0x307 DUP6 DUP3 DUP7 ADD PUSH3 0x28B JUMP JUMPDEST SWAP3 POP POP PUSH1 0x20 DUP4 ADD MLOAD PUSH8 0xFFFFFFFFFFFFFFFF DUP2 GT ISZERO PUSH3 0x32B JUMPI PUSH3 0x32A PUSH3 0x130 JUMP JUMPDEST JUMPDEST PUSH3 0x339 DUP6 DUP3 DUP7 ADD PUSH3 0x28B JUMP JUMPDEST SWAP2 POP POP SWAP3 POP SWAP3 SWAP1 POP JUMP JUMPDEST PUSH32 0x4E487B7100000000000000000000000000000000000000000000000000000000 PUSH1 0x0 MSTORE PUSH1 0x22 PUSH1 0x4 MSTORE PUSH1 0x24 PUSH1 0x0 REVERT JUMPDEST PUSH1 0x0 PUSH1 0x2 DUP3 DIV SWAP1 POP PUSH1 0x1 DUP3 AND DUP1 PUSH3 0x38B JUMPI PUSH1 0x7F DUP3 AND SWAP2 POP JUMPDEST PUSH1 0x20 DUP3 LT DUP2 SUB PUSH3 0x3A1 JUMPI PUSH3 0x3A0 PUSH3 0x343 JUMP JUMPDEST JUMPDEST POP SWAP2 SWAP1 POP JUMP JUMPDEST PUSH2 0xEC7 DUP1 PUSH3 0x3B7 PUSH1 0x0 CODECOPY PUSH1 0x0 RETURN INVALID PUSH1 0x80 PUSH1 0x40 MSTORE CALLVALUE DUP1 ISZERO PUSH2 0x10 JUMPI PUSH1 0x0 DUP1 REVERT JUMPDEST POP PUSH1 0x4 CALLDATASIZE LT PUSH2 0x62 JUMPI PUSH1 0x0 CALLDATALOAD PUSH1 0xE0 SHR DUP1 PUSH4 0xEF486D1 EQ PUSH2 0x67 JUMPI DUP1 PUSH4 0x4D300E0C EQ PUSH2 0x98 JUMPI DUP1 PUSH4 0x6B465601 EQ PUSH2 0xB4 JUMPI DUP1 PUSH4 0x78B8E824 EQ PUSH2 0xD2 JUMPI DUP1 PUSH4 0xC623674F EQ PUSH2 0xF0 JUMPI DUP1 PUSH4 0xDDC8AFBD EQ PUSH2 0x10E JUMPI JUMPDEST PUSH1 0x0 DUP1 REVERT JUMPDEST PUSH2 0x81 PUSH1 0x4 DUP1 CALLDATASIZE SUB DUP2 ADD SWAP1 PUSH2 0x7C SWAP2 SWAP1 PUSH2 0x91B JUMP JUMPDEST PUSH2 0x12C JUMP JUMPDEST PUSH1 0x40 MLOAD PUSH2 0x8F SWAP3 SWAP2 SWAP1 PUSH2 0x9E1 JUMP JUMPDEST PUSH1 0x40 MLOAD DUP1 SWAP2 SUB SWAP1 RETURN JUMPDEST PUSH2 0xB2 PUSH1 0x4 DUP1 CALLDATASIZE SUB DUP2 ADD SWAP1 PUSH2 0xAD SWAP2 SWAP1 PUSH2 0xB4D JUMP JUMPDEST PUSH2 0x270 JUMP JUMPDEST STOP JUMPDEST PUSH2 0xBC PUSH2 0x432 JUMP JUMPDEST PUSH1 0x40 MLOAD PUSH2 0xC9 SWAP2 SWAP1 PUSH2 0xBC5 JUMP JUMPDEST PUSH1 0x40 MLOAD DUP1 SWAP2 SUB SWAP1 RETURN JUMPDEST PUSH2 0xDA PUSH2 0x4C0 JUMP JUMPDEST PUSH1 0x40 MLOAD PUSH2 0xE7 SWAP2 SWAP1 PUSH2 0xD37 JUMP JUMPDEST PUSH1 0x40 MLOAD DUP1 SWAP2 SUB SWAP1 RETURN JUMPDEST PUSH2 0xF8 PUSH2 0x643 JUMP JUMPDEST PUSH1 0x40 MLOAD PUSH2 0x105 SWAP2 SWAP1 PUSH2 0xBC5 JUMP JUMPDEST PUSH1 0x40 MLOAD DUP1 SWAP2 SUB SWAP1 RETURN JUMPDEST PUSH2 0x116 PUSH2 0x6D1 JUMP JUMPDEST PUSH1 0x40 MLOAD PUSH2 0x123 SWAP2 SWAP1 PUSH2 0xE0F JUMP JUMPDEST PUSH1 0x40 MLOAD DUP1 SWAP2 SUB SWAP1 RETURN JUMPDEST PUSH1 0x2 DUP2 DUP2 SLOAD DUP2 LT PUSH2 0x13C JUMPI PUSH1 0x0 DUP1 REVERT JUMPDEST SWAP1 PUSH1 0x0 MSTORE PUSH1 0x20 PUSH1 0x0 KECCAK256 SWAP1 PUSH1 0x2 MUL ADD PUSH1 0x0 SWAP2 POP SWAP1 POP DUP1 PUSH1 0x0 ADD DUP1 SLOAD PUSH2 0x15F SWAP1 PUSH2 0xE60 JUMP JUMPDEST DUP1 PUSH1 0x1F ADD PUSH1 0x20 DUP1 SWAP2 DIV MUL PUSH1 0x20 ADD PUSH1 0x40 MLOAD SWAP1 DUP2 ADD PUSH1 0x40 MSTORE DUP1 SWAP3 SWAP2 SWAP1 DUP2 DUP2 MSTORE PUSH1 0x20 ADD DUP3 DUP1 SLOAD PUSH2 0x18B SWAP1 PUSH2 0xE60 JUMP JUMPDEST DUP1 ISZERO PUSH2 0x1D8 JUMPI DUP1 PUSH1 0x1F LT PUSH2 0x1AD JUMPI PUSH2 0x100 DUP1 DUP4 SLOAD DIV MUL DUP4 MSTORE SWAP2 PUSH1 0x20 ADD SWAP2 PUSH2 0x1D8 JUMP JUMPDEST DUP3 ADD SWAP2 SWAP1 PUSH1 0x0 MSTORE PUSH1 0x20 PUSH1 0x0 KECCAK256 SWAP1 JUMPDEST DUP2 SLOAD DUP2 MSTORE SWAP1 PUSH1 0x1 ADD SWAP1 PUSH1 0x20 ADD DUP1 DUP4 GT PUSH2 0x1BB JUMPI DUP3 SWAP1 SUB PUSH1 0x1F AND DUP3 ADD SWAP2 JUMPDEST POP POP POP POP POP SWAP1 DUP1 PUSH1 0x1 ADD DUP1 SLOAD PUSH2 0x1ED SWAP1 PUSH2 0xE60 JUMP JUMPDEST DUP1 PUSH1 0x1F ADD PUSH1 0x20 DUP1 SWAP2 DIV MUL PUSH1 0x20 ADD PUSH1 0x40 MLOAD SWAP1 DUP2 ADD PUSH1 0x40 MSTORE DUP1 SWAP3 SWAP2 SWAP1 DUP2 DUP2 MSTORE PUSH1 0x20 ADD DUP3 DUP1 SLOAD PUSH2 0x219 SWAP1 PUSH2 0xE60 JUMP JUMPDEST DUP1 ISZERO PUSH2 0x266 JUMPI DUP1 PUSH1 0x1F LT PUSH2 0x23B JUMPI PUSH2 0x100 DUP1 DUP4 SLOAD DIV MUL DUP4 MSTORE SWAP2 PUSH1 0x20 ADD SWAP2 PUSH2 0x266 JUMP JUMPDEST DUP3 ADD SWAP2 SWAP1 PUSH1 0x0 MSTORE PUSH1 0x20 PUSH1 0x0 KECCAK256 SWAP1 JUMPDEST DUP2 SLOAD DUP2 MSTORE SWAP1 PUSH1 0x1 ADD SWAP1 PUSH1 0x20 ADD DUP1 DUP4 GT PUSH2 0x249 JUMPI DUP3 SWAP1 SUB PUSH1 0x1F AND DUP3 ADD SWAP2 JUMPDEST POP POP POP POP POP SWAP1 POP DUP3 JUMP JUMPDEST PUSH1 0x2 PUSH1 0x40 MLOAD DUP1 PUSH1 0x40 ADD PUSH1 0x40 MSTORE DUP1 PUSH1 0x1 DUP1 SLOAD PUSH2 0x28A SWAP1 PUSH2 0xE60 JUMP JUMPDEST DUP1 PUSH1 0x1F ADD PUSH1 0x20 DUP1 SWAP2 DIV MUL PUSH1 0x20 ADD PUSH1 0x40 MLOAD SWAP1 DUP2 ADD PUSH1 0x40 MSTORE DUP1 SWAP3 SWAP2 SWAP1 DUP2 DUP2 MSTORE PUSH1 0x20 ADD DUP3 DUP1 SLOAD PUSH2 0x2B6 SWAP1 PUSH2 0xE60 JUMP JUMPDEST DUP1 ISZERO PUSH2 0x303 JUMPI DUP1 PUSH1 0x1F LT PUSH2 0x2D8 JUMPI PUSH2 0x100 DUP1 DUP4 SLOAD DIV MUL DUP4 MSTORE SWAP2 PUSH1 0x20 ADD SWAP2 PUSH2 0x303 JUMP JUMPDEST DUP3 ADD SWAP2 SWAP1 PUSH1 0x0 MSTORE PUSH1 0x20 PUSH1 0x0 KECCAK256 SWAP1 JUMPDEST DUP2 SLOAD DUP2 MSTORE SWAP1 PUSH1 0x1 ADD SWAP1 PUSH1 0x20 ADD DUP1 DUP4 GT PUSH2 0x2E6 JUMPI DUP3 SWAP1 SUB PUSH1 0x1F AND DUP3 ADD SWAP2 JUMPDEST POP POP POP POP POP DUP2 MSTORE PUSH1 0x20 ADD PUSH1 0x0 DUP1 SLOAD PUSH2 0x31A SWAP1 PUSH2 0xE60 JUMP JUMPDEST DUP1 PUSH1 0x1F ADD PUSH1 0x20 DUP1 SWAP2 DIV MUL PUSH1 0x20 ADD PUSH1 0x40 MLOAD SWAP1 DUP2 ADD PUSH1 0x40 MSTORE DUP1 SWAP3 SWAP2 SWAP1 DUP2 DUP2 MSTORE PUSH1 0x20 ADD DUP3 DUP1 SLOAD PUSH2 0x346 SWAP1 PUSH2 0xE60 JUMP JUMPDEST DUP1 ISZERO PUSH2 0x393 JUMPI DUP1 PUSH1 0x1F LT PUSH2 0x368 JUMPI PUSH2 0x100 DUP1 DUP4 SLOAD DIV MUL DUP4 MSTORE SWAP2 PUSH1 0x20 ADD SWAP2 PUSH2 0x393 JUMP JUMPDEST DUP3 ADD SWAP2 SWAP1 PUSH1 0x0 MSTORE PUSH1 0x20 PUSH1 0x0 KECCAK256 SWAP1 JUMPDEST DUP2 SLOAD DUP2 MSTORE SWAP1 PUSH1 0x1 ADD SWAP1 PUSH1 0x20 ADD DUP1 DUP4 GT PUSH2 0x376 JUMPI DUP3 SWAP1 SUB PUSH1 0x1F AND DUP3 ADD SWAP2 JUMPDEST POP POP POP POP POP DUP2 MSTORE POP SWAP1 DUP1 PUSH1 0x1 DUP2 SLOAD ADD DUP1 DUP3 SSTORE DUP1 SWAP2 POP POP PUSH1 0x1 SWAP1 SUB SWAP1 PUSH1 0x0 MSTORE PUSH1 0x20 PUSH1 0x0 KECCAK256 SWAP1 PUSH1 0x2 MUL ADD PUSH1 0x0 SWAP1 SWAP2 SWAP1 SWAP2 SWAP1 SWAP2 POP PUSH1 0x0 DUP3 ADD MLOAD DUP2 PUSH1 0x0 ADD SWAP1 DUP1 MLOAD SWAP1 PUSH1 0x20 ADD SWAP1 PUSH2 0x3E0 SWAP3 SWAP2 SWAP1 PUSH2 0x807 JUMP JUMPDEST POP PUSH1 0x20 DUP3 ADD MLOAD DUP2 PUSH1 0x1 ADD SWAP1 DUP1 MLOAD SWAP1 PUSH1 0x20 ADD SWAP1 PUSH2 0x3FD SWAP3 SWAP2 SWAP1 PUSH2 0x807 JUMP JUMPDEST POP POP POP DUP2 PUSH1 0x0 SWAP1 DUP1 MLOAD SWAP1 PUSH1 0x20 ADD SWAP1 PUSH2 0x416 SWAP3 SWAP2 SWAP1 PUSH2 0x807 JUMP JUMPDEST POP DUP1 PUSH1 0x1 SWAP1 DUP1 MLOAD SWAP1 PUSH1 0x20 ADD SWAP1 PUSH2 0x42D SWAP3 SWAP2 SWAP1 PUSH2 0x807 JUMP JUMPDEST POP POP POP JUMP JUMPDEST PUSH1 0x1 DUP1 SLOAD PUSH2 0x43F SWAP1 PUSH2 0xE60 JUMP JUMPDEST DUP1 PUSH1 0x1F ADD PUSH1 0x20 DUP1 SWAP2 DIV MUL PUSH1 0x20 ADD PUSH1 0x40 MLOAD SWAP1 DUP2 ADD PUSH1 0x40 MSTORE DUP1 SWAP3 SWAP2 SWAP1 DUP2 DUP2 MSTORE PUSH1 0x20 ADD DUP3 DUP1 SLOAD PUSH2 0x46B SWAP1 PUSH2 0xE60 JUMP JUMPDEST DUP1 ISZERO PUSH2 0x4B8 JUMPI DUP1 PUSH1 0x1F LT PUSH2 0x48D JUMPI PUSH2 0x100 DUP1 DUP4 SLOAD DIV MUL DUP4 MSTORE SWAP2 PUSH1 0x20 ADD SWAP2 PUSH2 0x4B8 JUMP JUMPDEST DUP3 ADD SWAP2 SWAP1 PUSH1 0x0 MSTORE PUSH1 0x20 PUSH1 0x0 KECCAK256 SWAP1 JUMPDEST DUP2 SLOAD DUP2 MSTORE SWAP1 PUSH1 0x1 ADD SWAP1 PUSH1 0x20 ADD DUP1 DUP4 GT PUSH2 0x49B JUMPI DUP3 SWAP1 SUB PUSH1 0x1F AND DUP3 ADD SWAP2 JUMPDEST POP POP POP POP POP DUP2 JUMP JUMPDEST PUSH1 0x60 PUSH1 0x2 DUP1 SLOAD DUP1 PUSH1 0x20 MUL PUSH1 0x20 ADD PUSH1 0x40 MLOAD SWAP1 DUP2 ADD PUSH1 0x40 MSTORE DUP1 SWAP3 SWAP2 SWAP1 DUP2 DUP2 MSTORE PUSH1 0x20 ADD PUSH1 0x0 SWAP1 JUMPDEST DUP3 DUP3 LT ISZERO PUSH2 0x63A JUMPI DUP4 DUP3 SWAP1 PUSH1 0x0 MSTORE PUSH1 0x20 PUSH1 0x0 KECCAK256 SWAP1 PUSH1 0x2 MUL ADD PUSH1 0x40 MLOAD DUP1 PUSH1 0x40 ADD PUSH1 0x40 MSTORE SWAP1 DUP2 PUSH1 0x0 DUP3 ADD DUP1 SLOAD PUSH2 0x517 SWAP1 PUSH2 0xE60 JUMP JUMPDEST DUP1 PUSH1 0x1F ADD PUSH1 0x20 DUP1 SWAP2 DIV MUL PUSH1 0x20 ADD PUSH1 0x40 MLOAD SWAP1 DUP2 ADD PUSH1 0x40 MSTORE DUP1 SWAP3 SWAP2 SWAP1 DUP2 DUP2 MSTORE PUSH1 0x20 ADD DUP3 DUP1 SLOAD PUSH2 0x543 SWAP1 PUSH2 0xE60 JUMP JUMPDEST DUP1 ISZERO PUSH2 0x590 JUMPI DUP1 PUSH1 0x1F LT PUSH2 0x565 JUMPI PUSH2 0x100 DUP1 DUP4 SLOAD DIV MUL DUP4 MSTORE SWAP2 PUSH1 0x20 ADD SWAP2 PUSH2 0x590 JUMP JUMPDEST DUP3 ADD SWAP2 SWAP1 PUSH1 0x0 MSTORE PUSH1 0x20 PUSH1 0x0 KECCAK256 SWAP1 JUMPDEST DUP2 SLOAD DUP2 MSTORE SWAP1 PUSH1 0x1 ADD SWAP1 PUSH1 0x20 ADD DUP1 DUP4 GT PUSH2 0x573 JUMPI DUP3 SWAP1 SUB PUSH1 0x1F AND DUP3 ADD SWAP2 JUMPDEST POP POP POP POP POP DUP2 MSTORE PUSH1 0x20 ADD PUSH1 0x1 DUP3 ADD DUP1 SLOAD PUSH2 0x5A9 SWAP1 PUSH2 0xE60 JUMP JUMPDEST DUP1 PUSH1 0x1F ADD PUSH1 0x20 DUP1 SWAP2 DIV MUL PUSH1 0x20 ADD PUSH1 0x40 MLOAD SWAP1 DUP2 ADD PUSH1 0x40 MSTORE DUP1 SWAP3 SWAP2 SWAP1 DUP2 DUP2 MSTORE PUSH1 0x20 ADD DUP3 DUP1 SLOAD PUSH2 0x5D5 SWAP1 PUSH2 0xE60 JUMP JUMPDEST DUP1 ISZERO PUSH2 0x622 JUMPI DUP1 PUSH1 0x1F LT PUSH2 0x5F7 JUMPI PUSH2 0x100 DUP1 DUP4 SLOAD DIV MUL DUP4 MSTORE SWAP2 PUSH1 0x20 ADD SWAP2 PUSH2 0x622 JUMP JUMPDEST DUP3 ADD SWAP2 SWAP1 PUSH1 0x0 MSTORE PUSH1 0x20 PUSH1 0x0 KECCAK256 SWAP1 JUMPDEST DUP2 SLOAD DUP2 MSTORE SWAP1 PUSH1 0x1 ADD SWAP1 PUSH1 0x20 ADD DUP1 DUP4 GT PUSH2 0x605 JUMPI DUP3 SWAP1 SUB PUSH1 0x1F AND DUP3 ADD SWAP2 JUMPDEST POP POP POP POP POP DUP2 MSTORE POP POP DUP2 MSTORE PUSH1 0x20 ADD SWAP1 PUSH1 0x1 ADD SWAP1 PUSH2 0x4E4 JUMP JUMPDEST POP POP POP POP SWAP1 POP SWAP1 JUMP JUMPDEST PUSH1 0x0 DUP1 SLOAD PUSH2 0x650 SWAP1 PUSH2 0xE60 JUMP JUMPDEST DUP1 PUSH1 0x1F ADD PUSH1 0x20 DUP1 SWAP2 DIV MUL PUSH1 0x20 ADD PUSH1 0x40 MLOAD SWAP1 DUP2 ADD PUSH1 0x40 MSTORE DUP1 SWAP3 SWAP2 SWAP1 DUP2 DUP2 MSTORE PUSH1 0x20 ADD DUP3 DUP1 SLOAD PUSH2 0x67C SWAP1 PUSH2 0xE60 JUMP JUMPDEST DUP1 ISZERO PUSH2 0x6C9 JUMPI DUP1 PUSH1 0x1F LT PUSH2 0x69E JUMPI PUSH2 0x100 DUP1 DUP4 SLOAD DIV MUL DUP4 MSTORE SWAP2 PUSH1 0x20 ADD SWAP2 PUSH2 0x6C9 JUMP JUMPDEST DUP3 ADD SWAP2 SWAP1 PUSH1 0x0 MSTORE PUSH1 0x20 PUSH1 0x0 KECCAK256 SWAP1 JUMPDEST DUP2 SLOAD DUP2 MSTORE SWAP1 PUSH1 0x1 ADD SWAP1 PUSH1 0x20 ADD DUP1 DUP4 GT PUSH2 0x6AC JUMPI DUP3 SWAP1 SUB PUSH1 0x1F AND DUP3 ADD SWAP2 JUMPDEST POP POP POP POP POP DUP2 JUMP JUMPDEST PUSH2 0x6D9 PUSH2 0x88D JUMP JUMPDEST PUSH1 0x40 MLOAD DUP1 PUSH1 0x40 ADD PUSH1 0x40 MSTORE DUP1 PUSH1 0x0 DUP1 SLOAD PUSH2 0x6F1 SWAP1 PUSH2 0xE60 JUMP JUMPDEST DUP1 PUSH1 0x1F ADD PUSH1 0x20 DUP1 SWAP2 DIV MUL PUSH1 0x20 ADD PUSH1 0x40 MLOAD SWAP1 DUP2 ADD PUSH1 0x40 MSTORE DUP1 SWAP3 SWAP2 SWAP1 DUP2 DUP2 MSTORE PUSH1 0x20 ADD DUP3 DUP1 SLOAD PUSH2 0x71D SWAP1 PUSH2 0xE60 JUMP JUMPDEST DUP1 ISZERO PUSH2 0x76A JUMPI DUP1 PUSH1 0x1F LT PUSH2 0x73F JUMPI PUSH2 0x100 DUP1 DUP4 SLOAD DIV MUL DUP4 MSTORE SWAP2 PUSH1 0x20 ADD SWAP2 PUSH2 0x76A JUMP JUMPDEST DUP3 ADD SWAP2 SWAP1 PUSH1 0x0 MSTORE PUSH1 0x20 PUSH1 0x0 KECCAK256 SWAP1 JUMPDEST DUP2 SLOAD DUP2 MSTORE SWAP1 PUSH1 0x1 ADD SWAP1 PUSH1 0x20 ADD DUP1 DUP4 GT PUSH2 0x74D JUMPI DUP3 SWAP1 SUB PUSH1 0x1F AND DUP3 ADD SWAP2 JUMPDEST POP POP POP POP POP DUP2 MSTORE PUSH1 0x20 ADD PUSH1 0x1 DUP1 SLOAD PUSH2 0x781 SWAP1 PUSH2 0xE60 JUMP JUMPDEST DUP1 PUSH1 0x1F ADD PUSH1 0x20 DUP1 SWAP2 DIV MUL PUSH1 0x20 ADD PUSH1 0x40 MLOAD SWAP1 DUP2 ADD PUSH1 0x40 MSTORE DUP1 SWAP3 SWAP2 SWAP1 DUP2 DUP2 MSTORE PUSH1 0x20 ADD DUP3 DUP1 SLOAD PUSH2 0x7AD SWAP1 PUSH2 0xE60 JUMP JUMPDEST DUP1 ISZERO PUSH2 0x7FA JUMPI DUP1 PUSH1 0x1F LT PUSH2 0x7CF JUMPI PUSH2 0x100 DUP1 DUP4 SLOAD DIV MUL DUP4 MSTORE SWAP2 PUSH1 0x20 ADD SWAP2 PUSH2 0x7FA JUMP JUMPDEST DUP3 ADD SWAP2 SWAP1 PUSH1 0x0 MSTORE PUSH1 0x20 PUSH1 0x0 KECCAK256 SWAP1 JUMPDEST DUP2 SLOAD DUP2 MSTORE SWAP1 PUSH1 0x1 ADD SWAP1 PUSH1 0x20 ADD DUP1 DUP4 GT PUSH2 0x7DD JUMPI DUP3 SWAP1 SUB PUSH1 0x1F AND DUP3 ADD SWAP2 JUMPDEST POP POP POP POP POP DUP2 MSTORE POP SWAP1 POP SWAP1 JUMP JUMPDEST DUP3 DUP1 SLOAD PUSH2 0x813 SWAP1 PUSH2 0xE60 JUMP JUMPDEST SWAP1 PUSH1 0x0 MSTORE PUSH1 0x20 PUSH1 0x0 KECCAK256 SWAP1 PUSH1 0x1F ADD PUSH1 0x20 SWAP1 DIV DUP2 ADD SWAP3 DUP3 PUSH2 0x835 JUMPI PUSH1 0x0 DUP6 SSTORE PUSH2 0x87C JUMP JUMPDEST DUP3 PUSH1 0x1F LT PUSH2 0x84E JUMPI DUP1 MLOAD PUSH1 0xFF NOT AND DUP4 DUP1 ADD OR DUP6 SSTORE PUSH2 0x87C JUMP JUMPDEST DUP3 DUP1 ADD PUSH1 0x1 ADD DUP6 SSTORE DUP3 ISZERO PUSH2 0x87C JUMPI SWAP2 DUP3 ADD JUMPDEST DUP3 DUP2 GT ISZERO PUSH2 0x87B JUMPI DUP3 MLOAD DUP3 SSTORE SWAP2 PUSH1 0x20 ADD SWAP2 SWAP1 PUSH1 0x1 ADD SWAP1 PUSH2 0x860 JUMP JUMPDEST JUMPDEST POP SWAP1 POP PUSH2 0x889 SWAP2 SWAP1 PUSH2 0x8B4 JUMP JUMPDEST POP SWAP1 JUMP JUMPDEST PUSH1 0x40 MLOAD DUP1 PUSH1 0x40 ADD PUSH1 0x40 MSTORE DUP1 PUSH1 0x2 SWAP1 JUMPDEST PUSH1 0x60 DUP2 MSTORE PUSH1 0x20 ADD SWAP1 PUSH1 0x1 SWAP1 SUB SWAP1 DUP2 PUSH2 0x89C JUMPI SWAP1 POP POP SWAP1 JUMP JUMPDEST JUMPDEST DUP1 DUP3 GT ISZERO PUSH2 0x8CD JUMPI PUSH1 0x0 DUP2 PUSH1 0x0 SWAP1 SSTORE POP PUSH1 0x1 ADD PUSH2 0x8B5 JUMP JUMPDEST POP SWAP1 JUMP JUMPDEST PUSH1 0x0 PUSH1 0x40 MLOAD SWAP1 POP SWAP1 JUMP JUMPDEST PUSH1 0x0 DUP1 REVERT JUMPDEST PUSH1 0x0 DUP1 REVERT JUMPDEST PUSH1 0x0 DUP2 SWAP1 POP SWAP2 SWAP1 POP JUMP JUMPDEST PUSH2 0x8F8 DUP2 PUSH2 0x8E5 JUMP JUMPDEST DUP2 EQ PUSH2 0x903 JUMPI PUSH1 0x0 DUP1 REVERT JUMPDEST POP JUMP JUMPDEST PUSH1 0x0 DUP2 CALLDATALOAD SWAP1 POP PUSH2 0x915 DUP2 PUSH2 0x8EF JUMP JUMPDEST SWAP3 SWAP2 POP POP JUMP JUMPDEST PUSH1 0x0 PUSH1 0x20 DUP3 DUP5 SUB SLT ISZERO PUSH2 0x931 JUMPI PUSH2 0x930 PUSH2 0x8DB JUMP JUMPDEST JUMPDEST PUSH1 0x0 PUSH2 0x93F DUP5 DUP3 DUP6 ADD PUSH2 0x906 JUMP JUMPDEST SWAP2 POP POP SWAP3 SWAP2 POP POP JUMP JUMPDEST PUSH1 0x0 DUP2 MLOAD SWAP1 POP SWAP2 SWAP1 POP JUMP JUMPDEST PUSH1 0x0 DUP3 DUP3 MSTORE PUSH1 0x20 DUP3 ADD SWAP1 POP SWAP3 SWAP2 POP POP JUMP JUMPDEST PUSH1 0x0 JUMPDEST DUP4 DUP2 LT ISZERO PUSH2 0x982 JUMPI DUP1 DUP3 ADD MLOAD DUP2 DUP5 ADD MSTORE PUSH1 0x20 DUP2 ADD SWAP1 POP PUSH2 0x967 JUMP JUMPDEST DUP4 DUP2 GT ISZERO PUSH2 0x991 JUMPI PUSH1 0x0 DUP5 DUP5 ADD MSTORE JUMPDEST POP POP POP POP JUMP JUMPDEST PUSH1 0x0 PUSH1 0x1F NOT PUSH1 0x1F DUP4 ADD AND SWAP1 POP SWAP2 SWAP1 POP JUMP JUMPDEST PUSH1 0x0 PUSH2 0x9B3 DUP3 PUSH2 0x948 JUMP JUMPDEST PUSH2 0x9BD DUP2 DUP6 PUSH2 0x953 JUMP JUMPDEST SWAP4 POP PUSH2 0x9CD DUP2 DUP6 PUSH1 0x20 DUP7 ADD PUSH2 0x964 JUMP JUMPDEST PUSH2 0x9D6 DUP2 PUSH2 0x997 JUMP JUMPDEST DUP5 ADD SWAP2 POP POP SWAP3 SWAP2 POP POP JUMP JUMPDEST PUSH1 0x0 PUSH1 0x40 DUP3 ADD SWAP1 POP DUP2 DUP2 SUB PUSH1 0x0 DUP4 ADD MSTORE PUSH2 0x9FB DUP2 DUP6 PUSH2 0x9A8 JUMP JUMPDEST SWAP1 POP DUP2 DUP2 SUB PUSH1 0x20 DUP4 ADD MSTORE PUSH2 0xA0F DUP2 DUP5 PUSH2 0x9A8 JUMP JUMPDEST SWAP1 POP SWAP4 SWAP3 POP POP POP JUMP JUMPDEST PUSH1 0x0 DUP1 REVERT JUMPDEST PUSH1 0x0 DUP1 REVERT JUMPDEST PUSH32 0x4E487B7100000000000000000000000000000000000000000000000000000000 PUSH1 0x0 MSTORE PUSH1 0x41 PUSH1 0x4 MSTORE PUSH1 0x24 PUSH1 0x0 REVERT JUMPDEST PUSH2 0xA5A DUP3 PUSH2 0x997 JUMP JUMPDEST DUP2 ADD DUP2 DUP2 LT PUSH8 0xFFFFFFFFFFFFFFFF DUP3 GT OR ISZERO PUSH2 0xA79 JUMPI PUSH2 0xA78 PUSH2 0xA22 JUMP JUMPDEST JUMPDEST DUP1 PUSH1 0x40 MSTORE POP POP POP JUMP JUMPDEST PUSH1 0x0 PUSH2 0xA8C PUSH2 0x8D1 JUMP JUMPDEST SWAP1 POP PUSH2 0xA98 DUP3 DUP3 PUSH2 0xA51 JUMP JUMPDEST SWAP2 SWAP1 POP JUMP JUMPDEST PUSH1 0x0 PUSH8 0xFFFFFFFFFFFFFFFF DUP3 GT ISZERO PUSH2 0xAB8 JUMPI PUSH2 0xAB7 PUSH2 0xA22 JUMP JUMPDEST JUMPDEST PUSH2 0xAC1 DUP3 PUSH2 0x997 JUMP JUMPDEST SWAP1 POP PUSH1 0x20 DUP2 ADD SWAP1 POP SWAP2 SWAP1 POP JUMP JUMPDEST DUP3 DUP2 DUP4 CALLDATACOPY PUSH1 0x0 DUP4 DUP4 ADD MSTORE POP POP POP JUMP JUMPDEST PUSH1 0x0 PUSH2 0xAF0 PUSH2 0xAEB DUP5 PUSH2 0xA9D JUMP JUMPDEST PUSH2 0xA82 JUMP JUMPDEST SWAP1 POP DUP3 DUP2 MSTORE PUSH1 0x20 DUP2 ADD DUP5 DUP5 DUP5 ADD GT ISZERO PUSH2 0xB0C JUMPI PUSH2 0xB0B PUSH2 0xA1D JUMP JUMPDEST JUMPDEST PUSH2 0xB17 DUP5 DUP3 DUP6 PUSH2 0xACE JUMP JUMPDEST POP SWAP4 SWAP3 POP POP POP JUMP JUMPDEST PUSH1 0x0 DUP3 PUSH1 0x1F DUP4 ADD SLT PUSH2 0xB34 JUMPI PUSH2 0xB33 PUSH2 0xA18 JUMP JUMPDEST JUMPDEST DUP2 CALLDATALOAD PUSH2 0xB44 DUP5 DUP3 PUSH1 0x20 DUP7 ADD PUSH2 0xADD JUMP JUMPDEST SWAP2 POP POP SWAP3 SWAP2 POP POP JUMP JUMPDEST PUSH1 0x0 DUP1 PUSH1 0x40 DUP4 DUP6 SUB SLT ISZERO PUSH2 0xB64 JUMPI PUSH2 0xB63 PUSH2 0x8DB JUMP JUMPDEST JUMPDEST PUSH1 0x0 DUP4 ADD CALLDATALOAD PUSH8 0xFFFFFFFFFFFFFFFF DUP2 GT ISZERO PUSH2 0xB82 JUMPI PUSH2 0xB81 PUSH2 0x8E0 JUMP JUMPDEST JUMPDEST PUSH2 0xB8E DUP6 DUP3 DUP7 ADD PUSH2 0xB1F JUMP JUMPDEST SWAP3 POP POP PUSH1 0x20 DUP4 ADD CALLDATALOAD PUSH8 0xFFFFFFFFFFFFFFFF DUP2 GT ISZERO PUSH2 0xBAF JUMPI PUSH2 0xBAE PUSH2 0x8E0 JUMP JUMPDEST JUMPDEST PUSH2 0xBBB DUP6 DUP3 DUP7 ADD PUSH2 0xB1F JUMP JUMPDEST SWAP2 POP POP SWAP3 POP SWAP3 SWAP1 POP JUMP JUMPDEST PUSH1 0x0 PUSH1 0x20 DUP3 ADD SWAP1 POP DUP2 DUP2 SUB PUSH1 0x0 DUP4 ADD MSTORE PUSH2 0xBDF DUP2 DUP5 PUSH2 0x9A8 JUMP JUMPDEST SWAP1 POP SWAP3 SWAP2 POP POP JUMP JUMPDEST PUSH1 0x0 DUP2 MLOAD SWAP1 POP SWAP2 SWAP1 POP JUMP JUMPDEST PUSH1 0x0 DUP3 DUP3 MSTORE PUSH1 0x20 DUP3 ADD SWAP1 POP SWAP3 SWAP2 POP POP JUMP JUMPDEST PUSH1 0x0 DUP2 SWAP1 POP PUSH1 0x20 DUP3 ADD SWAP1 POP SWAP2 SWAP1 POP JUMP JUMPDEST PUSH1 0x0 DUP3 DUP3 MSTORE PUSH1 0x20 DUP3 ADD SWAP1 POP SWAP3 SWAP2 POP POP JUMP JUMPDEST PUSH1 0x0 PUSH2 0xC2F DUP3 PUSH2 0x948 JUMP JUMPDEST PUSH2 0xC39 DUP2 DUP6 PUSH2 0xC13 JUMP JUMPDEST SWAP4 POP PUSH2 0xC49 DUP2 DUP6 PUSH1 0x20 DUP7 ADD PUSH2 0x964 JUMP JUMPDEST PUSH2 0xC52 DUP2 PUSH2 0x997 JUMP JUMPDEST DUP5 ADD SWAP2 POP POP SWAP3 SWAP2 POP POP JUMP JUMPDEST PUSH1 0x0 PUSH1 0x40 DUP4 ADD PUSH1 0x0 DUP4 ADD MLOAD DUP5 DUP3 SUB PUSH1 0x0 DUP7 ADD MSTORE PUSH2 0xC7A DUP3 DUP3 PUSH2 0xC24 JUMP JUMPDEST SWAP2 POP POP PUSH1 0x20 DUP4 ADD MLOAD DUP5 DUP3 SUB PUSH1 0x20 DUP7 ADD MSTORE PUSH2 0xC94 DUP3 DUP3 PUSH2 0xC24 JUMP JUMPDEST SWAP2 POP POP DUP1 SWAP2 POP POP SWAP3 SWAP2 POP POP JUMP JUMPDEST PUSH1 0x0 PUSH2 0xCAD DUP4 DUP4 PUSH2 0xC5D JUMP JUMPDEST SWAP1 POP SWAP3 SWAP2 POP POP JUMP JUMPDEST PUSH1 0x0 PUSH1 0x20 DUP3 ADD SWAP1 POP SWAP2 SWAP1 POP JUMP JUMPDEST PUSH1 0x0 PUSH2 0xCCD DUP3 PUSH2 0xBE7 JUMP JUMPDEST PUSH2 0xCD7 DUP2 DUP6 PUSH2 0xBF2 JUMP JUMPDEST SWAP4 POP DUP4 PUSH1 0x20 DUP3 MUL DUP6 ADD PUSH2 0xCE9 DUP6 PUSH2 0xC03 JUMP JUMPDEST DUP1 PUSH1 0x0 JUMPDEST DUP6 DUP2 LT ISZERO PUSH2 0xD25 JUMPI DUP5 DUP5 SUB DUP10 MSTORE DUP2 MLOAD PUSH2 0xD06 DUP6 DUP3 PUSH2 0xCA1 JUMP JUMPDEST SWAP5 POP PUSH2 0xD11 DUP4 PUSH2 0xCB5 JUMP JUMPDEST SWAP3 POP PUSH1 0x20 DUP11 ADD SWAP10 POP POP PUSH1 0x1 DUP2 ADD SWAP1 POP PUSH2 0xCED JUMP JUMPDEST POP DUP3 SWAP8 POP DUP8 SWAP6 POP POP POP POP POP POP SWAP3 SWAP2 POP POP JUMP JUMPDEST PUSH1 0x0 PUSH1 0x20 DUP3 ADD SWAP1 POP DUP2 DUP2 SUB PUSH1 0x0 DUP4 ADD MSTORE PUSH2 0xD51 DUP2 DUP5 PUSH2 0xCC2 JUMP JUMPDEST SWAP1 POP SWAP3 SWAP2 POP POP JUMP JUMPDEST PUSH1 0x0 PUSH1 0x2 SWAP1 POP SWAP2 SWAP1 POP JUMP JUMPDEST PUSH1 0x0 DUP2 SWAP1 POP SWAP3 SWAP2 POP POP JUMP JUMPDEST PUSH1 0x0 DUP2 SWAP1 POP SWAP2 SWAP1 POP JUMP JUMPDEST PUSH1 0x0 PUSH2 0xD85 DUP4 DUP4 PUSH2 0xC24 JUMP JUMPDEST SWAP1 POP SWAP3 SWAP2 POP POP JUMP JUMPDEST PUSH1 0x0 PUSH1 0x20 DUP3 ADD SWAP1 POP SWAP2 SWAP1 POP JUMP JUMPDEST PUSH1 0x0 PUSH2 0xDA5 DUP3 PUSH2 0xD59 JUMP JUMPDEST PUSH2 0xDAF DUP2 DUP6 PUSH2 0xD64 JUMP JUMPDEST SWAP4 POP DUP4 PUSH1 0x20 DUP3 MUL DUP6 ADD PUSH2 0xDC1 DUP6 PUSH2 0xD6F JUMP JUMPDEST DUP1 PUSH1 0x0 JUMPDEST DUP6 DUP2 LT ISZERO PUSH2 0xDFD JUMPI DUP5 DUP5 SUB DUP10 MSTORE DUP2 MLOAD PUSH2 0xDDE DUP6 DUP3 PUSH2 0xD79 JUMP JUMPDEST SWAP5 POP PUSH2 0xDE9 DUP4 PUSH2 0xD8D JUMP JUMPDEST SWAP3 POP PUSH1 0x20 DUP11 ADD SWAP10 POP POP PUSH1 0x1 DUP2 ADD SWAP1 POP PUSH2 0xDC5 JUMP JUMPDEST POP DUP3 SWAP8 POP DUP8 SWAP6 POP POP POP POP POP POP SWAP3 SWAP2 POP POP JUMP JUMPDEST PUSH1 0x0 PUSH1 0x20 DUP3 ADD SWAP1 POP DUP2 DUP2 SUB PUSH1 0x0 DUP4 ADD MSTORE PUSH2 0xE29 DUP2 DUP5 PUSH2 0xD9A JUMP JUMPDEST SWAP1 POP SWAP3 SWAP2 POP POP JUMP JUMPDEST PUSH32 0x4E487B7100000000000000000000000000000000000000000000000000000000 PUSH1 0x0 MSTORE PUSH1 0x22 PUSH1 0x4 MSTORE PUSH1 0x24 PUSH1 0x0 REVERT JUMPDEST PUSH1 0x0 PUSH1 0x2 DUP3 DIV SWAP1 POP PUSH1 0x1 DUP3 AND DUP1 PUSH2 0xE78 JUMPI PUSH1 0x7F DUP3 AND SWAP2 POP JUMPDEST PUSH1 0x20 DUP3 LT DUP2 SUB PUSH2 0xE8B JUMPI PUSH2 0xE8A PUSH2 0xE31 JUMP JUMPDEST JUMPDEST POP SWAP2 SWAP1 POP JUMP INVALID LOG2 PUSH5 0x6970667358 0x22 SLT KECCAK256 XOR MOD 0xB1 SDIV SDIV 0xD7 PUSH22 0x7F9B9C523936E9405C7D353AFDB46D0B8728CF3BA1DF 0xB7 0xCD PUSH2 0x6473 PUSH16 0x6C634300080D0033A264697066735822 SLT KECCAK256 EXTCODEHASH PUSH26 0x1D23A58204D360046782D3BCCCD4963ECAA1FE01D1413B8CB08B PUSH30 0x5306C764736F6C634300080D003300000000000000000000000000000000 "
    },
    "gasEstimates": {
      "creation": {
        "codeDepositCost": "1646000",
        "executionCost": "25996",
        "totalCost": "1671996"
      },
      "external": {
        "deleteOwnerFromDocument(address,address)": "infinite",
        "getListOfDocuments(address)": "infinite",
        "owners(address,uint256)": "infinite",
        "setServerAddress(address)": "24744",
        "uploadDocument(string,address,string)": "infinite"
      }
    },
    "methodIdentifiers": {
      "deleteOwnerFromDocument(address,address)": "1e3bb6ae",
      "getListOfDocuments(address)": "dfc9f2ea",
      "owners(address,uint256)": "9b3e2787",
      "setServerAddress(address)": "47b64eb0",
      "uploadDocument(string,address,string)": "42b67595"
    }
  },
  "storageLayout": {
    "storage": [
      {
        "astId": 85,
        "contract": "MasterContract.sol:MasterContract",
        "label": "serverAddress",
        "offset": 0,
        "slot": "0",
        "type": "t_address"
      },
      {
        "astId": 91,
        "contract": "MasterContract.sol:MasterContract",
        "label": "owners",
        "offset": 0,
        "slot": "1",
        "type": "t_mapping(t_address,t_array(t_contract(DocumentContract)79)dyn_storage)"
      }
    ],
    "types": {
      "t_address": {
        "encoding": "inplace",
        "label": "address",
        "numberOfBytes": "20"
      },
      "t_array(t_contract(DocumentContract)79)dyn_storage": {
        "base": "t_contract(DocumentContract)79",
        "encoding": "dynamic_array",
        "label": "contract DocumentContract[]",
        "numberOfBytes": "32"
      },
      "t_contract(DocumentContract)79": {
        "encoding": "inplace",
        "label": "contract DocumentContract",
        "numberOfBytes": "20"
      },
      "t_mapping(t_address,t_array(t_contract(DocumentContract)79)dyn_storage)": {
        "encoding": "mapping",
        "key": "t_address",
        "label": "mapping(address => contract DocumentContract[])",
        "numberOfBytes": "32",
        "value": "t_array(t_contract(DocumentContract)79)dyn_storage"
      }
    }
  },
  "userdoc": {
    "kind": "user",
    "methods": {},
    "version": 1
  }
}