{
  "abi": [
    {
      "inputs": [
        {
          "internalType": "address",
          "name": "owner",
          "type": "address"
        },
        {
          "internalType": "address",
          "name": "document",
          "type": "address"
        }
      ],
      "name": "deleteOwnerFromDocument",
      "outputs": [],
      "stateMutability": "nonpayable",
      "type": "function"
    },
    {
      "inputs": [
        {
          "internalType": "address",
          "name": "ownerAddress",
          "type": "address"
        }
      ],
      "name": "getContractsByOwner",
      "outputs": [
        {
          "internalType": "address[]",
          "name": "",
          "type": "address[]"
        }
      ],
      "stateMutability": "view",
      "type": "function"
    },
    {
      "inputs": [
        {
          "internalType": "address",
          "name": "owner",
          "type": "address"
        }
      ],
      "name": "getListOfDocuments",
      "outputs": [
        {
          "internalType": "address[]",
          "name": "",
          "type": "address[]"
        }
      ],
      "stateMutability": "view",
      "type": "function"
    },
    {
      "inputs": [
        {
          "internalType": "address",
          "name": "",
          "type": "address"
        },
        {
          "internalType": "uint256",
          "name": "",
          "type": "uint256"
        }
      ],
      "name": "owners",
      "outputs": [
        {
          "internalType": "address",
          "name": "",
          "type": "address"
        }
      ],
      "stateMutability": "view",
      "type": "function"
    },
    {
      "inputs": [
        {
          "internalType": "string",
          "name": "ipfsHash",
          "type": "string"
        },
        {
          "internalType": "address",
          "name": "ownerAddress",
          "type": "address"
        },
        {
          "internalType": "string",
          "name": "documentName",
          "type": "string"
        }
      ],
      "name": "uploadDocument",
      "outputs": [],
      "stateMutability": "nonpayable",
      "type": "function"
    }
  ],
  "devdoc": {
    "kind": "dev",
    "methods": {},
    "version": 1
  },
  "evm": {
    "assembly": "    /* \"MasterContract.sol\":532:2106  contract MasterContract {... */\n  mstore(0x40, 0x80)\n  callvalue\n  dup1\n  iszero\n  tag_1\n  jumpi\n  0x00\n  dup1\n  revert\ntag_1:\n  pop\n  dataSize(sub_0)\n  dup1\n  dataOffset(sub_0)\n  0x00\n  codecopy\n  0x00\n  return\nstop\n\nsub_0: assembly {\n        /* \"MasterContract.sol\":532:2106  contract MasterContract {... */\n      mstore(0x40, 0x80)\n      callvalue\n      dup1\n      iszero\n      tag_1\n      jumpi\n      0x00\n      dup1\n      revert\n    tag_1:\n      pop\n      jumpi(tag_2, lt(calldatasize, 0x04))\n      shr(0xe0, calldataload(0x00))\n      dup1\n      0x1cea013a\n      eq\n      tag_3\n      jumpi\n      dup1\n      0x1e3bb6ae\n      eq\n      tag_4\n      jumpi\n      dup1\n      0x42b67595\n      eq\n      tag_5\n      jumpi\n      dup1\n      0x9b3e2787\n      eq\n      tag_6\n      jumpi\n      dup1\n      0xdfc9f2ea\n      eq\n      tag_7\n      jumpi\n    tag_2:\n      0x00\n      dup1\n      revert\n        /* \"MasterContract.sol\":1428:1560  function getContractsByOwner(address ownerAddress) public view returns(address[] memory){... */\n    tag_3:\n      tag_8\n      0x04\n      dup1\n      calldatasize\n      sub\n      dup2\n      add\n      swap1\n      tag_9\n      swap2\n      swap1\n      tag_10\n      jump\t// in\n    tag_9:\n      tag_11\n      jump\t// in\n    tag_8:\n      mload(0x40)\n      tag_12\n      swap2\n      swap1\n      tag_13\n      jump\t// in\n    tag_12:\n      mload(0x40)\n      dup1\n      swap2\n      sub\n      swap1\n      return\n        /* \"MasterContract.sol\":1604:2104  function deleteOwnerFromDocument(address owner, address document) public{... */\n    tag_4:\n      tag_14\n      0x04\n      dup1\n      calldatasize\n      sub\n      dup2\n      add\n      swap1\n      tag_15\n      swap2\n      swap1\n      tag_16\n      jump\t// in\n    tag_15:\n      tag_17\n      jump\t// in\n    tag_14:\n      stop\n        /* \"MasterContract.sol\":1050:1265  function uploadDocument(string memory ipfsHash, address ownerAddress, string memory documentName) public{... */\n    tag_5:\n      tag_18\n      0x04\n      dup1\n      calldatasize\n      sub\n      dup2\n      add\n      swap1\n      tag_19\n      swap2\n      swap1\n      tag_20\n      jump\t// in\n    tag_19:\n      tag_21\n      jump\t// in\n    tag_18:\n      stop\n        /* \"MasterContract.sol\":781:824  mapping(address => address[]) public owners */\n    tag_6:\n      tag_22\n      0x04\n      dup1\n      calldatasize\n      sub\n      dup2\n      add\n      swap1\n      tag_23\n      swap2\n      swap1\n      tag_24\n      jump\t// in\n    tag_23:\n      tag_25\n      jump\t// in\n    tag_22:\n      mload(0x40)\n      tag_26\n      swap2\n      swap1\n      tag_27\n      jump\t// in\n    tag_26:\n      mload(0x40)\n      dup1\n      swap2\n      sub\n      swap1\n      return\n        /* \"MasterContract.sol\":889:1006  function getListOfDocuments(address owner) public view returns(address[] memory){... */\n    tag_7:\n      tag_28\n      0x04\n      dup1\n      calldatasize\n      sub\n      dup2\n      add\n      swap1\n      tag_29\n      swap2\n      swap1\n      tag_10\n      jump\t// in\n    tag_29:\n      tag_30\n      jump\t// in\n    tag_28:\n      mload(0x40)\n      tag_31\n      swap2\n      swap1\n      tag_13\n      jump\t// in\n    tag_31:\n      mload(0x40)\n      dup1\n      swap2\n      sub\n      swap1\n      return\n        /* \"MasterContract.sol\":1428:1560  function getContractsByOwner(address ownerAddress) public view returns(address[] memory){... */\n    tag_11:\n        /* \"MasterContract.sol\":1499:1515  address[] memory */\n      0x60\n        /* \"MasterContract.sol\":1533:1539  owners */\n      0x00\n        /* \"MasterContract.sol\":1533:1553  owners[ownerAddress] */\n      dup1\n        /* \"MasterContract.sol\":1540:1552  ownerAddress */\n      dup4\n        /* \"MasterContract.sol\":1533:1553  owners[ownerAddress] */\n      0xffffffffffffffffffffffffffffffffffffffff\n      and\n      0xffffffffffffffffffffffffffffffffffffffff\n      and\n      dup2\n      mstore\n      0x20\n      add\n      swap1\n      dup2\n      mstore\n      0x20\n      add\n      0x00\n      keccak256\n        /* \"MasterContract.sol\":1526:1553  return owners[ownerAddress] */\n      dup1\n      sload\n      dup1\n      0x20\n      mul\n      0x20\n      add\n      mload(0x40)\n      swap1\n      dup2\n      add\n      0x40\n      mstore\n      dup1\n      swap3\n      swap2\n      swap1\n      dup2\n      dup2\n      mstore\n      0x20\n      add\n      dup3\n      dup1\n      sload\n      dup1\n      iszero\n      tag_33\n      jumpi\n      0x20\n      mul\n      dup3\n      add\n      swap2\n      swap1\n      0x00\n      mstore\n      keccak256(0x00, 0x20)\n      swap1\n    tag_34:\n      dup2\n      0x00\n      swap1\n      sload\n      swap1\n      0x0100\n      exp\n      swap1\n      div\n      0xffffffffffffffffffffffffffffffffffffffff\n      and\n      0xffffffffffffffffffffffffffffffffffffffff\n      and\n      dup2\n      mstore\n      0x20\n      add\n      swap1\n      0x01\n      add\n      swap1\n      dup1\n      dup4\n      gt\n      tag_34\n      jumpi\n    tag_33:\n      pop\n      pop\n      pop\n      pop\n      pop\n      swap1\n      pop\n        /* \"MasterContract.sol\":1428:1560  function getContractsByOwner(address ownerAddress) public view returns(address[] memory){... */\n      swap2\n      swap1\n      pop\n      jump\t// out\n        /* \"MasterContract.sol\":1604:2104  function deleteOwnerFromDocument(address owner, address document) public{... */\n    tag_17:\n        /* \"MasterContract.sol\":1686:1720  address[] memory documentAddresses */\n      0x00\n        /* \"MasterContract.sol\":1723:1729  owners */\n      dup1\n        /* \"MasterContract.sol\":1723:1736  owners[owner] */\n      0x00\n        /* \"MasterContract.sol\":1730:1735  owner */\n      dup5\n        /* \"MasterContract.sol\":1723:1736  owners[owner] */\n      0xffffffffffffffffffffffffffffffffffffffff\n      and\n      0xffffffffffffffffffffffffffffffffffffffff\n      and\n      dup2\n      mstore\n      0x20\n      add\n      swap1\n      dup2\n      mstore\n      0x20\n      add\n      0x00\n      keccak256\n        /* \"MasterContract.sol\":1686:1736  address[] memory documentAddresses = owners[owner] */\n      dup1\n      sload\n      dup1\n      0x20\n      mul\n      0x20\n      add\n      mload(0x40)\n      swap1\n      dup2\n      add\n      0x40\n      mstore\n      dup1\n      swap3\n      swap2\n      swap1\n      dup2\n      dup2\n      mstore\n      0x20\n      add\n      dup3\n      dup1\n      sload\n      dup1\n      iszero\n      tag_36\n      jumpi\n      0x20\n      mul\n      dup3\n      add\n      swap2\n      swap1\n      0x00\n      mstore\n      keccak256(0x00, 0x20)\n      swap1\n    tag_37:\n      dup2\n      0x00\n      swap1\n      sload\n      swap1\n      0x0100\n      exp\n      swap1\n      div\n      0xffffffffffffffffffffffffffffffffffffffff\n      and\n      0xffffffffffffffffffffffffffffffffffffffff\n      and\n      dup2\n      mstore\n      0x20\n      add\n      swap1\n      0x01\n      add\n      swap1\n      dup1\n      dup4\n      gt\n      tag_37\n      jumpi\n    tag_36:\n      pop\n      pop\n      pop\n      pop\n      pop\n      swap1\n      pop\n        /* \"MasterContract.sol\":1750:1756  uint i */\n      0x00\n        /* \"MasterContract.sol\":1746:2054  for(uint i = 0; i < documentAddresses.length; i++){... */\n    tag_38:\n        /* \"MasterContract.sol\":1766:1783  documentAddresses */\n      dup2\n        /* \"MasterContract.sol\":1766:1790  documentAddresses.length */\n      mload\n        /* \"MasterContract.sol\":1762:1763  i */\n      dup2\n        /* \"MasterContract.sol\":1762:1790  i < documentAddresses.length */\n      lt\n        /* \"MasterContract.sol\":1746:2054  for(uint i = 0; i < documentAddresses.length; i++){... */\n      iszero\n      tag_39\n      jumpi\n        /* \"MasterContract.sol\":1837:1845  document */\n      dup3\n        /* \"MasterContract.sol\":1813:1845  documentAddresses[i] == document */\n      0xffffffffffffffffffffffffffffffffffffffff\n      and\n        /* \"MasterContract.sol\":1813:1830  documentAddresses */\n      dup3\n        /* \"MasterContract.sol\":1831:1832  i */\n      dup3\n        /* \"MasterContract.sol\":1813:1833  documentAddresses[i] */\n      dup2\n      mload\n      dup2\n      lt\n      tag_41\n      jumpi\n      tag_42\n      tag_43\n      jump\t// in\n    tag_42:\n    tag_41:\n      0x20\n      mul\n      0x20\n      add\n      add\n      mload\n        /* \"MasterContract.sol\":1813:1845  documentAddresses[i] == document */\n      0xffffffffffffffffffffffffffffffffffffffff\n      and\n      sub\n        /* \"MasterContract.sol\":1810:2044  if(documentAddresses[i] == document){... */\n      tag_44\n      jumpi\n        /* \"MasterContract.sol\":1887:1904  documentAddresses */\n      dup2\n        /* \"MasterContract.sol\":1932:1933  1 */\n      0x01\n        /* \"MasterContract.sol\":1905:1922  documentAddresses */\n      dup4\n        /* \"MasterContract.sol\":1905:1929  documentAddresses.length */\n      mload\n        /* \"MasterContract.sol\":1905:1933  documentAddresses.length - 1 */\n      tag_45\n      swap2\n      swap1\n      tag_46\n      jump\t// in\n    tag_45:\n        /* \"MasterContract.sol\":1887:1934  documentAddresses[documentAddresses.length - 1] */\n      dup2\n      mload\n      dup2\n      lt\n      tag_47\n      jumpi\n      tag_48\n      tag_43\n      jump\t// in\n    tag_48:\n    tag_47:\n      0x20\n      mul\n      0x20\n      add\n      add\n      mload\n        /* \"MasterContract.sol\":1864:1881  documentAddresses */\n      dup3\n        /* \"MasterContract.sol\":1882:1883  i */\n      dup3\n        /* \"MasterContract.sol\":1864:1884  documentAddresses[i] */\n      dup2\n      mload\n      dup2\n      lt\n      tag_49\n      jumpi\n      tag_50\n      tag_43\n      jump\t// in\n    tag_50:\n    tag_49:\n      0x20\n      mul\n      0x20\n      add\n      add\n        /* \"MasterContract.sol\":1864:1934  documentAddresses[i] = documentAddresses[documentAddresses.length - 1] */\n      swap1\n      0xffffffffffffffffffffffffffffffffffffffff\n      and\n      swap1\n      dup2\n      0xffffffffffffffffffffffffffffffffffffffff\n      and\n      dup2\n      mstore\n      pop\n      pop\n        /* \"MasterContract.sol\":1959:1976  documentAddresses */\n      dup2\n        /* \"MasterContract.sol\":2004:2005  1 */\n      0x01\n        /* \"MasterContract.sol\":1977:1994  documentAddresses */\n      dup4\n        /* \"MasterContract.sol\":1977:2001  documentAddresses.length */\n      mload\n        /* \"MasterContract.sol\":1977:2005  documentAddresses.length - 1 */\n      tag_51\n      swap2\n      swap1\n      tag_46\n      jump\t// in\n    tag_51:\n        /* \"MasterContract.sol\":1959:2006  documentAddresses[documentAddresses.length - 1] */\n      dup2\n      mload\n      dup2\n      lt\n      tag_52\n      jumpi\n      tag_53\n      tag_43\n      jump\t// in\n    tag_53:\n    tag_52:\n      0x20\n      mul\n      0x20\n      add\n      add\n        /* \"MasterContract.sol\":1952:2006  delete documentAddresses[documentAddresses.length - 1] */\n      and(0xffffffffffffffffffffffffffffffffffffffff, 0x00)\n      dup2\n      mstore\n      pop\n        /* \"MasterContract.sol\":2024:2029  break */\n      jump(tag_39)\n        /* \"MasterContract.sol\":1810:2044  if(documentAddresses[i] == document){... */\n    tag_44:\n        /* \"MasterContract.sol\":1792:1795  i++ */\n      dup1\n      dup1\n      tag_54\n      swap1\n      tag_55\n      jump\t// in\n    tag_54:\n      swap2\n      pop\n      pop\n        /* \"MasterContract.sol\":1746:2054  for(uint i = 0; i < documentAddresses.length; i++){... */\n      jump(tag_38)\n    tag_39:\n      pop\n        /* \"MasterContract.sol\":2080:2097  documentAddresses */\n      dup1\n        /* \"MasterContract.sol\":2064:2070  owners */\n      0x00\n        /* \"MasterContract.sol\":2064:2077  owners[owner] */\n      dup1\n        /* \"MasterContract.sol\":2071:2076  owner */\n      dup6\n        /* \"MasterContract.sol\":2064:2077  owners[owner] */\n      0xffffffffffffffffffffffffffffffffffffffff\n      and\n      0xffffffffffffffffffffffffffffffffffffffff\n      and\n      dup2\n      mstore\n      0x20\n      add\n      swap1\n      dup2\n      mstore\n      0x20\n      add\n      0x00\n      keccak256\n        /* \"MasterContract.sol\":2064:2097  owners[owner] = documentAddresses */\n      swap1\n      dup1\n      mload\n      swap1\n      0x20\n      add\n      swap1\n      tag_56\n      swap3\n      swap2\n      swap1\n      tag_57\n      jump\t// in\n    tag_56:\n      pop\n        /* \"MasterContract.sol\":1676:2104  {... */\n      pop\n        /* \"MasterContract.sol\":1604:2104  function deleteOwnerFromDocument(address owner, address document) public{... */\n      pop\n      pop\n      jump\t// out\n        /* \"MasterContract.sol\":1050:1265  function uploadDocument(string memory ipfsHash, address ownerAddress, string memory documentName) public{... */\n    tag_21:\n        /* \"MasterContract.sol\":1164:1170  owners */\n      0x00\n        /* \"MasterContract.sol\":1164:1184  owners[ownerAddress] */\n      dup1\n        /* \"MasterContract.sol\":1171:1183  ownerAddress */\n      dup4\n        /* \"MasterContract.sol\":1164:1184  owners[ownerAddress] */\n      0xffffffffffffffffffffffffffffffffffffffff\n      and\n      0xffffffffffffffffffffffffffffffffffffffff\n      and\n      dup2\n      mstore\n      0x20\n      add\n      swap1\n      dup2\n      mstore\n      0x20\n      add\n      0x00\n      keccak256\n        /* \"MasterContract.sol\":1219:1227  ipfsHash */\n      dup4\n        /* \"MasterContract.sol\":1229:1241  ownerAddress */\n      dup4\n        /* \"MasterContract.sol\":1243:1255  documentName */\n      dup4\n        /* \"MasterContract.sol\":1198:1256  new DocumentContract(ipfsHash, ownerAddress, documentName) */\n      mload(0x40)\n      tag_59\n      swap1\n      tag_60\n      jump\t// in\n    tag_59:\n      tag_61\n      swap4\n      swap3\n      swap2\n      swap1\n      tag_62\n      jump\t// in\n    tag_61:\n      mload(0x40)\n      dup1\n      swap2\n      sub\n      swap1\n      0x00\n      create\n      dup1\n      iszero\n      dup1\n      iszero\n      tag_63\n      jumpi\n      returndatasize\n      0x00\n      dup1\n      returndatacopy\n      revert(0x00, returndatasize)\n    tag_63:\n      pop\n        /* \"MasterContract.sol\":1164:1258  owners[ownerAddress].push(address(new DocumentContract(ipfsHash, ownerAddress, documentName))) */\n      swap1\n      dup1\n      0x01\n      dup2\n      sload\n      add\n      dup1\n      dup3\n      sstore\n      dup1\n      swap2\n      pop\n      pop\n      0x01\n      swap1\n      sub\n      swap1\n      0x00\n      mstore\n      keccak256(0x00, 0x20)\n      add\n      0x00\n      swap1\n      swap2\n      swap1\n      swap2\n      swap1\n      swap2\n      0x0100\n      exp\n      dup2\n      sload\n      dup2\n      0xffffffffffffffffffffffffffffffffffffffff\n      mul\n      not\n      and\n      swap1\n      dup4\n      0xffffffffffffffffffffffffffffffffffffffff\n      and\n      mul\n      or\n      swap1\n      sstore\n      pop\n        /* \"MasterContract.sol\":1050:1265  function uploadDocument(string memory ipfsHash, address ownerAddress, string memory documentName) public{... */\n      pop\n      pop\n      pop\n      jump\t// out\n        /* \"MasterContract.sol\":781:824  mapping(address => address[]) public owners */\n    tag_25:\n      mstore(0x20, 0x00)\n      dup2\n      0x00\n      mstore\n      keccak256(0x00, 0x40)\n      dup2\n      dup2\n      sload\n      dup2\n      lt\n      tag_65\n      jumpi\n      0x00\n      dup1\n      revert\n    tag_65:\n      swap1\n      0x00\n      mstore\n      keccak256(0x00, 0x20)\n      add\n      0x00\n      swap2\n      pop\n      swap2\n      pop\n      swap1\n      sload\n      swap1\n      0x0100\n      exp\n      swap1\n      div\n      0xffffffffffffffffffffffffffffffffffffffff\n      and\n      dup2\n      jump\t// out\n        /* \"MasterContract.sol\":889:1006  function getListOfDocuments(address owner) public view returns(address[] memory){... */\n    tag_30:\n        /* \"MasterContract.sol\":952:968  address[] memory */\n      0x60\n        /* \"MasterContract.sol\":986:992  owners */\n      0x00\n        /* \"MasterContract.sol\":986:999  owners[owner] */\n      dup1\n        /* \"MasterContract.sol\":993:998  owner */\n      dup4\n        /* \"MasterContract.sol\":986:999  owners[owner] */\n      0xffffffffffffffffffffffffffffffffffffffff\n      and\n      0xffffffffffffffffffffffffffffffffffffffff\n      and\n      dup2\n      mstore\n      0x20\n      add\n      swap1\n      dup2\n      mstore\n      0x20\n      add\n      0x00\n      keccak256\n        /* \"MasterContract.sol\":979:999  return owners[owner] */\n      dup1\n      sload\n      dup1\n      0x20\n      mul\n      0x20\n      add\n      mload(0x40)\n      swap1\n      dup2\n      add\n      0x40\n      mstore\n      dup1\n      swap3\n      swap2\n      swap1\n      dup2\n      dup2\n      mstore\n      0x20\n      add\n      dup3\n      dup1\n      sload\n      dup1\n      iszero\n      tag_68\n      jumpi\n      0x20\n      mul\n      dup3\n      add\n      swap2\n      swap1\n      0x00\n      mstore\n      keccak256(0x00, 0x20)\n      swap1\n    tag_69:\n      dup2\n      0x00\n      swap1\n      sload\n      swap1\n      0x0100\n      exp\n      swap1\n      div\n      0xffffffffffffffffffffffffffffffffffffffff\n      and\n      0xffffffffffffffffffffffffffffffffffffffff\n      and\n      dup2\n      mstore\n      0x20\n      add\n      swap1\n      0x01\n      add\n      swap1\n      dup1\n      dup4\n      gt\n      tag_69\n      jumpi\n    tag_68:\n      pop\n      pop\n      pop\n      pop\n      pop\n      swap1\n      pop\n        /* \"MasterContract.sol\":889:1006  function getListOfDocuments(address owner) public view returns(address[] memory){... */\n      swap2\n      swap1\n      pop\n      jump\t// out\n    tag_57:\n      dup3\n      dup1\n      sload\n      dup3\n      dup3\n      sstore\n      swap1\n      0x00\n      mstore\n      keccak256(0x00, 0x20)\n      swap1\n      dup2\n      add\n      swap3\n      dup3\n      iszero\n      tag_70\n      jumpi\n      swap2\n      0x20\n      mul\n      dup3\n      add\n    tag_71:\n      dup3\n      dup2\n      gt\n      iszero\n      tag_72\n      jumpi\n      dup3\n      mload\n      dup3\n      exp(0x0100, 0x00)\n      dup2\n      sload\n      dup2\n      0xffffffffffffffffffffffffffffffffffffffff\n      mul\n      not\n      and\n      swap1\n      dup4\n      0xffffffffffffffffffffffffffffffffffffffff\n      and\n      mul\n      or\n      swap1\n      sstore\n      pop\n      swap2\n      0x20\n      add\n      swap2\n      swap1\n      0x01\n      add\n      swap1\n      jump(tag_71)\n    tag_72:\n    tag_70:\n      pop\n      swap1\n      pop\n      tag_73\n      swap2\n      swap1\n      tag_74\n      jump\t// in\n    tag_73:\n      pop\n      swap1\n      jump\t// out\n    tag_60:\n      dataSize(sub_0)\n      dup1\n      dataOffset(sub_0)\n      dup4\n      codecopy\n      add\n      swap1\n      jump\t// out\n    tag_74:\n    tag_75:\n      dup1\n      dup3\n      gt\n      iszero\n      tag_76\n      jumpi\n      0x00\n      dup2\n      0x00\n      swap1\n      sstore\n      pop\n      0x01\n      add\n      jump(tag_75)\n    tag_76:\n      pop\n      swap1\n      jump\t// out\n        /* \"#utility.yul\":7:82   */\n    tag_77:\n        /* \"#utility.yul\":40:46   */\n      0x00\n        /* \"#utility.yul\":73:75   */\n      0x40\n        /* \"#utility.yul\":67:76   */\n      mload\n        /* \"#utility.yul\":57:76   */\n      swap1\n      pop\n        /* \"#utility.yul\":7:82   */\n      swap1\n      jump\t// out\n        /* \"#utility.yul\":88:205   */\n    tag_78:\n        /* \"#utility.yul\":197:198   */\n      0x00\n        /* \"#utility.yul\":194:195   */\n      dup1\n        /* \"#utility.yul\":187:199   */\n      revert\n        /* \"#utility.yul\":211:328   */\n    tag_79:\n        /* \"#utility.yul\":320:321   */\n      0x00\n        /* \"#utility.yul\":317:318   */\n      dup1\n        /* \"#utility.yul\":310:322   */\n      revert\n        /* \"#utility.yul\":334:460   */\n    tag_80:\n        /* \"#utility.yul\":371:378   */\n      0x00\n        /* \"#utility.yul\":411:453   */\n      0xffffffffffffffffffffffffffffffffffffffff\n        /* \"#utility.yul\":404:409   */\n      dup3\n        /* \"#utility.yul\":400:454   */\n      and\n        /* \"#utility.yul\":389:454   */\n      swap1\n      pop\n        /* \"#utility.yul\":334:460   */\n      swap2\n      swap1\n      pop\n      jump\t// out\n        /* \"#utility.yul\":466:562   */\n    tag_81:\n        /* \"#utility.yul\":503:510   */\n      0x00\n        /* \"#utility.yul\":532:556   */\n      tag_116\n        /* \"#utility.yul\":550:555   */\n      dup3\n        /* \"#utility.yul\":532:556   */\n      tag_80\n      jump\t// in\n    tag_116:\n        /* \"#utility.yul\":521:556   */\n      swap1\n      pop\n        /* \"#utility.yul\":466:562   */\n      swap2\n      swap1\n      pop\n      jump\t// out\n        /* \"#utility.yul\":568:690   */\n    tag_82:\n        /* \"#utility.yul\":641:665   */\n      tag_118\n        /* \"#utility.yul\":659:664   */\n      dup2\n        /* \"#utility.yul\":641:665   */\n      tag_81\n      jump\t// in\n    tag_118:\n        /* \"#utility.yul\":634:639   */\n      dup2\n        /* \"#utility.yul\":631:666   */\n      eq\n        /* \"#utility.yul\":621:684   */\n      tag_119\n      jumpi\n        /* \"#utility.yul\":680:681   */\n      0x00\n        /* \"#utility.yul\":677:678   */\n      dup1\n        /* \"#utility.yul\":670:682   */\n      revert\n        /* \"#utility.yul\":621:684   */\n    tag_119:\n        /* \"#utility.yul\":568:690   */\n      pop\n      jump\t// out\n        /* \"#utility.yul\":696:835   */\n    tag_83:\n        /* \"#utility.yul\":742:747   */\n      0x00\n        /* \"#utility.yul\":780:786   */\n      dup2\n        /* \"#utility.yul\":767:787   */\n      calldataload\n        /* \"#utility.yul\":758:787   */\n      swap1\n      pop\n        /* \"#utility.yul\":796:829   */\n      tag_121\n        /* \"#utility.yul\":823:828   */\n      dup2\n        /* \"#utility.yul\":796:829   */\n      tag_82\n      jump\t// in\n    tag_121:\n        /* \"#utility.yul\":696:835   */\n      swap3\n      swap2\n      pop\n      pop\n      jump\t// out\n        /* \"#utility.yul\":841:1170   */\n    tag_10:\n        /* \"#utility.yul\":900:906   */\n      0x00\n        /* \"#utility.yul\":949:951   */\n      0x20\n        /* \"#utility.yul\":937:946   */\n      dup3\n        /* \"#utility.yul\":928:935   */\n      dup5\n        /* \"#utility.yul\":924:947   */\n      sub\n        /* \"#utility.yul\":920:952   */\n      slt\n        /* \"#utility.yul\":917:1036   */\n      iszero\n      tag_123\n      jumpi\n        /* \"#utility.yul\":955:1034   */\n      tag_124\n      tag_78\n      jump\t// in\n    tag_124:\n        /* \"#utility.yul\":917:1036   */\n    tag_123:\n        /* \"#utility.yul\":1075:1076   */\n      0x00\n        /* \"#utility.yul\":1100:1153   */\n      tag_125\n        /* \"#utility.yul\":1145:1152   */\n      dup5\n        /* \"#utility.yul\":1136:1142   */\n      dup3\n        /* \"#utility.yul\":1125:1134   */\n      dup6\n        /* \"#utility.yul\":1121:1143   */\n      add\n        /* \"#utility.yul\":1100:1153   */\n      tag_83\n      jump\t// in\n    tag_125:\n        /* \"#utility.yul\":1090:1153   */\n      swap2\n      pop\n        /* \"#utility.yul\":1046:1163   */\n      pop\n        /* \"#utility.yul\":841:1170   */\n      swap3\n      swap2\n      pop\n      pop\n      jump\t// out\n        /* \"#utility.yul\":1176:1290   */\n    tag_84:\n        /* \"#utility.yul\":1243:1249   */\n      0x00\n        /* \"#utility.yul\":1277:1282   */\n      dup2\n        /* \"#utility.yul\":1271:1283   */\n      mload\n        /* \"#utility.yul\":1261:1283   */\n      swap1\n      pop\n        /* \"#utility.yul\":1176:1290   */\n      swap2\n      swap1\n      pop\n      jump\t// out\n        /* \"#utility.yul\":1296:1480   */\n    tag_85:\n        /* \"#utility.yul\":1395:1406   */\n      0x00\n        /* \"#utility.yul\":1429:1435   */\n      dup3\n        /* \"#utility.yul\":1424:1427   */\n      dup3\n        /* \"#utility.yul\":1417:1436   */\n      mstore\n        /* \"#utility.yul\":1469:1473   */\n      0x20\n        /* \"#utility.yul\":1464:1467   */\n      dup3\n        /* \"#utility.yul\":1460:1474   */\n      add\n        /* \"#utility.yul\":1445:1474   */\n      swap1\n      pop\n        /* \"#utility.yul\":1296:1480   */\n      swap3\n      swap2\n      pop\n      pop\n      jump\t// out\n        /* \"#utility.yul\":1486:1618   */\n    tag_86:\n        /* \"#utility.yul\":1553:1557   */\n      0x00\n        /* \"#utility.yul\":1576:1579   */\n      dup2\n        /* \"#utility.yul\":1568:1579   */\n      swap1\n      pop\n        /* \"#utility.yul\":1606:1610   */\n      0x20\n        /* \"#utility.yul\":1601:1604   */\n      dup3\n        /* \"#utility.yul\":1597:1611   */\n      add\n        /* \"#utility.yul\":1589:1611   */\n      swap1\n      pop\n        /* \"#utility.yul\":1486:1618   */\n      swap2\n      swap1\n      pop\n      jump\t// out\n        /* \"#utility.yul\":1624:1732   */\n    tag_87:\n        /* \"#utility.yul\":1701:1725   */\n      tag_130\n        /* \"#utility.yul\":1719:1724   */\n      dup2\n        /* \"#utility.yul\":1701:1725   */\n      tag_81\n      jump\t// in\n    tag_130:\n        /* \"#utility.yul\":1696:1699   */\n      dup3\n        /* \"#utility.yul\":1689:1726   */\n      mstore\n        /* \"#utility.yul\":1624:1732   */\n      pop\n      pop\n      jump\t// out\n        /* \"#utility.yul\":1738:1917   */\n    tag_88:\n        /* \"#utility.yul\":1807:1817   */\n      0x00\n        /* \"#utility.yul\":1828:1874   */\n      tag_132\n        /* \"#utility.yul\":1870:1873   */\n      dup4\n        /* \"#utility.yul\":1862:1868   */\n      dup4\n        /* \"#utility.yul\":1828:1874   */\n      tag_87\n      jump\t// in\n    tag_132:\n        /* \"#utility.yul\":1906:1910   */\n      0x20\n        /* \"#utility.yul\":1901:1904   */\n      dup4\n        /* \"#utility.yul\":1897:1911   */\n      add\n        /* \"#utility.yul\":1883:1911   */\n      swap1\n      pop\n        /* \"#utility.yul\":1738:1917   */\n      swap3\n      swap2\n      pop\n      pop\n      jump\t// out\n        /* \"#utility.yul\":1923:2036   */\n    tag_89:\n        /* \"#utility.yul\":1993:1997   */\n      0x00\n        /* \"#utility.yul\":2025:2029   */\n      0x20\n        /* \"#utility.yul\":2020:2023   */\n      dup3\n        /* \"#utility.yul\":2016:2030   */\n      add\n        /* \"#utility.yul\":2008:2030   */\n      swap1\n      pop\n        /* \"#utility.yul\":1923:2036   */\n      swap2\n      swap1\n      pop\n      jump\t// out\n        /* \"#utility.yul\":2072:2804   */\n    tag_90:\n        /* \"#utility.yul\":2191:2194   */\n      0x00\n        /* \"#utility.yul\":2220:2274   */\n      tag_135\n        /* \"#utility.yul\":2268:2273   */\n      dup3\n        /* \"#utility.yul\":2220:2274   */\n      tag_84\n      jump\t// in\n    tag_135:\n        /* \"#utility.yul\":2290:2376   */\n      tag_136\n        /* \"#utility.yul\":2369:2375   */\n      dup2\n        /* \"#utility.yul\":2364:2367   */\n      dup6\n        /* \"#utility.yul\":2290:2376   */\n      tag_85\n      jump\t// in\n    tag_136:\n        /* \"#utility.yul\":2283:2376   */\n      swap4\n      pop\n        /* \"#utility.yul\":2400:2456   */\n      tag_137\n        /* \"#utility.yul\":2450:2455   */\n      dup4\n        /* \"#utility.yul\":2400:2456   */\n      tag_86\n      jump\t// in\n    tag_137:\n        /* \"#utility.yul\":2479:2486   */\n      dup1\n        /* \"#utility.yul\":2510:2511   */\n      0x00\n        /* \"#utility.yul\":2495:2779   */\n    tag_138:\n        /* \"#utility.yul\":2520:2526   */\n      dup4\n        /* \"#utility.yul\":2517:2518   */\n      dup2\n        /* \"#utility.yul\":2514:2527   */\n      lt\n        /* \"#utility.yul\":2495:2779   */\n      iszero\n      tag_140\n      jumpi\n        /* \"#utility.yul\":2596:2602   */\n      dup2\n        /* \"#utility.yul\":2590:2603   */\n      mload\n        /* \"#utility.yul\":2623:2686   */\n      tag_141\n        /* \"#utility.yul\":2682:2685   */\n      dup9\n        /* \"#utility.yul\":2667:2680   */\n      dup3\n        /* \"#utility.yul\":2623:2686   */\n      tag_88\n      jump\t// in\n    tag_141:\n        /* \"#utility.yul\":2616:2686   */\n      swap8\n      pop\n        /* \"#utility.yul\":2709:2769   */\n      tag_142\n        /* \"#utility.yul\":2762:2768   */\n      dup4\n        /* \"#utility.yul\":2709:2769   */\n      tag_89\n      jump\t// in\n    tag_142:\n        /* \"#utility.yul\":2699:2769   */\n      swap3\n      pop\n        /* \"#utility.yul\":2555:2779   */\n      pop\n        /* \"#utility.yul\":2542:2543   */\n      0x01\n        /* \"#utility.yul\":2539:2540   */\n      dup2\n        /* \"#utility.yul\":2535:2544   */\n      add\n        /* \"#utility.yul\":2530:2544   */\n      swap1\n      pop\n        /* \"#utility.yul\":2495:2779   */\n      jump(tag_138)\n    tag_140:\n        /* \"#utility.yul\":2499:2513   */\n      pop\n        /* \"#utility.yul\":2795:2798   */\n      dup6\n        /* \"#utility.yul\":2788:2798   */\n      swap4\n      pop\n        /* \"#utility.yul\":2196:2804   */\n      pop\n      pop\n      pop\n        /* \"#utility.yul\":2072:2804   */\n      swap3\n      swap2\n      pop\n      pop\n      jump\t// out\n        /* \"#utility.yul\":2810:3183   */\n    tag_13:\n        /* \"#utility.yul\":2953:2957   */\n      0x00\n        /* \"#utility.yul\":2991:2993   */\n      0x20\n        /* \"#utility.yul\":2980:2989   */\n      dup3\n        /* \"#utility.yul\":2976:2994   */\n      add\n        /* \"#utility.yul\":2968:2994   */\n      swap1\n      pop\n        /* \"#utility.yul\":3040:3049   */\n      dup2\n        /* \"#utility.yul\":3034:3038   */\n      dup2\n        /* \"#utility.yul\":3030:3050   */\n      sub\n        /* \"#utility.yul\":3026:3027   */\n      0x00\n        /* \"#utility.yul\":3015:3024   */\n      dup4\n        /* \"#utility.yul\":3011:3028   */\n      add\n        /* \"#utility.yul\":3004:3051   */\n      mstore\n        /* \"#utility.yul\":3068:3176   */\n      tag_144\n        /* \"#utility.yul\":3171:3175   */\n      dup2\n        /* \"#utility.yul\":3162:3168   */\n      dup5\n        /* \"#utility.yul\":3068:3176   */\n      tag_90\n      jump\t// in\n    tag_144:\n        /* \"#utility.yul\":3060:3176   */\n      swap1\n      pop\n        /* \"#utility.yul\":2810:3183   */\n      swap3\n      swap2\n      pop\n      pop\n      jump\t// out\n        /* \"#utility.yul\":3189:3663   */\n    tag_16:\n        /* \"#utility.yul\":3257:3263   */\n      0x00\n        /* \"#utility.yul\":3265:3271   */\n      dup1\n        /* \"#utility.yul\":3314:3316   */\n      0x40\n        /* \"#utility.yul\":3302:3311   */\n      dup4\n        /* \"#utility.yul\":3293:3300   */\n      dup6\n        /* \"#utility.yul\":3289:3312   */\n      sub\n        /* \"#utility.yul\":3285:3317   */\n      slt\n        /* \"#utility.yul\":3282:3401   */\n      iszero\n      tag_146\n      jumpi\n        /* \"#utility.yul\":3320:3399   */\n      tag_147\n      tag_78\n      jump\t// in\n    tag_147:\n        /* \"#utility.yul\":3282:3401   */\n    tag_146:\n        /* \"#utility.yul\":3440:3441   */\n      0x00\n        /* \"#utility.yul\":3465:3518   */\n      tag_148\n        /* \"#utility.yul\":3510:3517   */\n      dup6\n        /* \"#utility.yul\":3501:3507   */\n      dup3\n        /* \"#utility.yul\":3490:3499   */\n      dup7\n        /* \"#utility.yul\":3486:3508   */\n      add\n        /* \"#utility.yul\":3465:3518   */\n      tag_83\n      jump\t// in\n    tag_148:\n        /* \"#utility.yul\":3455:3518   */\n      swap3\n      pop\n        /* \"#utility.yul\":3411:3528   */\n      pop\n        /* \"#utility.yul\":3567:3569   */\n      0x20\n        /* \"#utility.yul\":3593:3646   */\n      tag_149\n        /* \"#utility.yul\":3638:3645   */\n      dup6\n        /* \"#utility.yul\":3629:3635   */\n      dup3\n        /* \"#utility.yul\":3618:3627   */\n      dup7\n        /* \"#utility.yul\":3614:3636   */\n      add\n        /* \"#utility.yul\":3593:3646   */\n      tag_83\n      jump\t// in\n    tag_149:\n        /* \"#utility.yul\":3583:3646   */\n      swap2\n      pop\n        /* \"#utility.yul\":3538:3656   */\n      pop\n        /* \"#utility.yul\":3189:3663   */\n      swap3\n      pop\n      swap3\n      swap1\n      pop\n      jump\t// out\n        /* \"#utility.yul\":3669:3786   */\n    tag_91:\n        /* \"#utility.yul\":3778:3779   */\n      0x00\n        /* \"#utility.yul\":3775:3776   */\n      dup1\n        /* \"#utility.yul\":3768:3780   */\n      revert\n        /* \"#utility.yul\":3792:3909   */\n    tag_92:\n        /* \"#utility.yul\":3901:3902   */\n      0x00\n        /* \"#utility.yul\":3898:3899   */\n      dup1\n        /* \"#utility.yul\":3891:3903   */\n      revert\n        /* \"#utility.yul\":3915:4017   */\n    tag_93:\n        /* \"#utility.yul\":3956:3962   */\n      0x00\n        /* \"#utility.yul\":4007:4009   */\n      0x1f\n        /* \"#utility.yul\":4003:4010   */\n      not\n        /* \"#utility.yul\":3998:4000   */\n      0x1f\n        /* \"#utility.yul\":3991:3996   */\n      dup4\n        /* \"#utility.yul\":3987:4001   */\n      add\n        /* \"#utility.yul\":3983:4011   */\n      and\n        /* \"#utility.yul\":3973:4011   */\n      swap1\n      pop\n        /* \"#utility.yul\":3915:4017   */\n      swap2\n      swap1\n      pop\n      jump\t// out\n        /* \"#utility.yul\":4023:4203   */\n    tag_94:\n        /* \"#utility.yul\":4071:4148   */\n      0x4e487b7100000000000000000000000000000000000000000000000000000000\n        /* \"#utility.yul\":4068:4069   */\n      0x00\n        /* \"#utility.yul\":4061:4149   */\n      mstore\n        /* \"#utility.yul\":4168:4172   */\n      0x41\n        /* \"#utility.yul\":4165:4166   */\n      0x04\n        /* \"#utility.yul\":4158:4173   */\n      mstore\n        /* \"#utility.yul\":4192:4196   */\n      0x24\n        /* \"#utility.yul\":4189:4190   */\n      0x00\n        /* \"#utility.yul\":4182:4197   */\n      revert\n        /* \"#utility.yul\":4209:4490   */\n    tag_95:\n        /* \"#utility.yul\":4292:4319   */\n      tag_155\n        /* \"#utility.yul\":4314:4318   */\n      dup3\n        /* \"#utility.yul\":4292:4319   */\n      tag_93\n      jump\t// in\n    tag_155:\n        /* \"#utility.yul\":4284:4290   */\n      dup2\n        /* \"#utility.yul\":4280:4320   */\n      add\n        /* \"#utility.yul\":4422:4428   */\n      dup2\n        /* \"#utility.yul\":4410:4420   */\n      dup2\n        /* \"#utility.yul\":4407:4429   */\n      lt\n        /* \"#utility.yul\":4386:4404   */\n      0xffffffffffffffff\n        /* \"#utility.yul\":4374:4384   */\n      dup3\n        /* \"#utility.yul\":4371:4405   */\n      gt\n        /* \"#utility.yul\":4368:4430   */\n      or\n        /* \"#utility.yul\":4365:4453   */\n      iszero\n      tag_156\n      jumpi\n        /* \"#utility.yul\":4433:4451   */\n      tag_157\n      tag_94\n      jump\t// in\n    tag_157:\n        /* \"#utility.yul\":4365:4453   */\n    tag_156:\n        /* \"#utility.yul\":4473:4483   */\n      dup1\n        /* \"#utility.yul\":4469:4471   */\n      0x40\n        /* \"#utility.yul\":4462:4484   */\n      mstore\n        /* \"#utility.yul\":4252:4490   */\n      pop\n        /* \"#utility.yul\":4209:4490   */\n      pop\n      pop\n      jump\t// out\n        /* \"#utility.yul\":4496:4625   */\n    tag_96:\n        /* \"#utility.yul\":4530:4536   */\n      0x00\n        /* \"#utility.yul\":4557:4577   */\n      tag_159\n      tag_77\n      jump\t// in\n    tag_159:\n        /* \"#utility.yul\":4547:4577   */\n      swap1\n      pop\n        /* \"#utility.yul\":4586:4619   */\n      tag_160\n        /* \"#utility.yul\":4614:4618   */\n      dup3\n        /* \"#utility.yul\":4606:4612   */\n      dup3\n        /* \"#utility.yul\":4586:4619   */\n      tag_95\n      jump\t// in\n    tag_160:\n        /* \"#utility.yul\":4496:4625   */\n      swap2\n      swap1\n      pop\n      jump\t// out\n        /* \"#utility.yul\":4631:4939   */\n    tag_97:\n        /* \"#utility.yul\":4693:4697   */\n      0x00\n        /* \"#utility.yul\":4783:4801   */\n      0xffffffffffffffff\n        /* \"#utility.yul\":4775:4781   */\n      dup3\n        /* \"#utility.yul\":4772:4802   */\n      gt\n        /* \"#utility.yul\":4769:4825   */\n      iszero\n      tag_162\n      jumpi\n        /* \"#utility.yul\":4805:4823   */\n      tag_163\n      tag_94\n      jump\t// in\n    tag_163:\n        /* \"#utility.yul\":4769:4825   */\n    tag_162:\n        /* \"#utility.yul\":4843:4872   */\n      tag_164\n        /* \"#utility.yul\":4865:4871   */\n      dup3\n        /* \"#utility.yul\":4843:4872   */\n      tag_93\n      jump\t// in\n    tag_164:\n        /* \"#utility.yul\":4835:4872   */\n      swap1\n      pop\n        /* \"#utility.yul\":4927:4931   */\n      0x20\n        /* \"#utility.yul\":4921:4925   */\n      dup2\n        /* \"#utility.yul\":4917:4932   */\n      add\n        /* \"#utility.yul\":4909:4932   */\n      swap1\n      pop\n        /* \"#utility.yul\":4631:4939   */\n      swap2\n      swap1\n      pop\n      jump\t// out\n        /* \"#utility.yul\":4945:5099   */\n    tag_98:\n        /* \"#utility.yul\":5029:5035   */\n      dup3\n        /* \"#utility.yul\":5024:5027   */\n      dup2\n        /* \"#utility.yul\":5019:5022   */\n      dup4\n        /* \"#utility.yul\":5006:5036   */\n      calldatacopy\n        /* \"#utility.yul\":5091:5092   */\n      0x00\n        /* \"#utility.yul\":5082:5088   */\n      dup4\n        /* \"#utility.yul\":5077:5080   */\n      dup4\n        /* \"#utility.yul\":5073:5089   */\n      add\n        /* \"#utility.yul\":5066:5093   */\n      mstore\n        /* \"#utility.yul\":4945:5099   */\n      pop\n      pop\n      pop\n      jump\t// out\n        /* \"#utility.yul\":5105:5517   */\n    tag_99:\n        /* \"#utility.yul\":5183:5188   */\n      0x00\n        /* \"#utility.yul\":5208:5274   */\n      tag_167\n        /* \"#utility.yul\":5224:5273   */\n      tag_168\n        /* \"#utility.yul\":5266:5272   */\n      dup5\n        /* \"#utility.yul\":5224:5273   */\n      tag_97\n      jump\t// in\n    tag_168:\n        /* \"#utility.yul\":5208:5274   */\n      tag_96\n      jump\t// in\n    tag_167:\n        /* \"#utility.yul\":5199:5274   */\n      swap1\n      pop\n        /* \"#utility.yul\":5297:5303   */\n      dup3\n        /* \"#utility.yul\":5290:5295   */\n      dup2\n        /* \"#utility.yul\":5283:5304   */\n      mstore\n        /* \"#utility.yul\":5335:5339   */\n      0x20\n        /* \"#utility.yul\":5328:5333   */\n      dup2\n        /* \"#utility.yul\":5324:5340   */\n      add\n        /* \"#utility.yul\":5373:5376   */\n      dup5\n        /* \"#utility.yul\":5364:5370   */\n      dup5\n        /* \"#utility.yul\":5359:5362   */\n      dup5\n        /* \"#utility.yul\":5355:5371   */\n      add\n        /* \"#utility.yul\":5352:5377   */\n      gt\n        /* \"#utility.yul\":5349:5461   */\n      iszero\n      tag_169\n      jumpi\n        /* \"#utility.yul\":5380:5459   */\n      tag_170\n      tag_92\n      jump\t// in\n    tag_170:\n        /* \"#utility.yul\":5349:5461   */\n    tag_169:\n        /* \"#utility.yul\":5470:5511   */\n      tag_171\n        /* \"#utility.yul\":5504:5510   */\n      dup5\n        /* \"#utility.yul\":5499:5502   */\n      dup3\n        /* \"#utility.yul\":5494:5497   */\n      dup6\n        /* \"#utility.yul\":5470:5511   */\n      tag_98\n      jump\t// in\n    tag_171:\n        /* \"#utility.yul\":5189:5517   */\n      pop\n        /* \"#utility.yul\":5105:5517   */\n      swap4\n      swap3\n      pop\n      pop\n      pop\n      jump\t// out\n        /* \"#utility.yul\":5537:5877   */\n    tag_100:\n        /* \"#utility.yul\":5593:5598   */\n      0x00\n        /* \"#utility.yul\":5642:5645   */\n      dup3\n        /* \"#utility.yul\":5635:5639   */\n      0x1f\n        /* \"#utility.yul\":5627:5633   */\n      dup4\n        /* \"#utility.yul\":5623:5640   */\n      add\n        /* \"#utility.yul\":5619:5646   */\n      slt\n        /* \"#utility.yul\":5609:5731   */\n      tag_173\n      jumpi\n        /* \"#utility.yul\":5650:5729   */\n      tag_174\n      tag_91\n      jump\t// in\n    tag_174:\n        /* \"#utility.yul\":5609:5731   */\n    tag_173:\n        /* \"#utility.yul\":5767:5773   */\n      dup2\n        /* \"#utility.yul\":5754:5774   */\n      calldataload\n        /* \"#utility.yul\":5792:5871   */\n      tag_175\n        /* \"#utility.yul\":5867:5870   */\n      dup5\n        /* \"#utility.yul\":5859:5865   */\n      dup3\n        /* \"#utility.yul\":5852:5856   */\n      0x20\n        /* \"#utility.yul\":5844:5850   */\n      dup7\n        /* \"#utility.yul\":5840:5857   */\n      add\n        /* \"#utility.yul\":5792:5871   */\n      tag_99\n      jump\t// in\n    tag_175:\n        /* \"#utility.yul\":5783:5871   */\n      swap2\n      pop\n        /* \"#utility.yul\":5599:5877   */\n      pop\n        /* \"#utility.yul\":5537:5877   */\n      swap3\n      swap2\n      pop\n      pop\n      jump\t// out\n        /* \"#utility.yul\":5883:6862   */\n    tag_20:\n        /* \"#utility.yul\":5980:5986   */\n      0x00\n        /* \"#utility.yul\":5988:5994   */\n      dup1\n        /* \"#utility.yul\":5996:6002   */\n      0x00\n        /* \"#utility.yul\":6045:6047   */\n      0x60\n        /* \"#utility.yul\":6033:6042   */\n      dup5\n        /* \"#utility.yul\":6024:6031   */\n      dup7\n        /* \"#utility.yul\":6020:6043   */\n      sub\n        /* \"#utility.yul\":6016:6048   */\n      slt\n        /* \"#utility.yul\":6013:6132   */\n      iszero\n      tag_177\n      jumpi\n        /* \"#utility.yul\":6051:6130   */\n      tag_178\n      tag_78\n      jump\t// in\n    tag_178:\n        /* \"#utility.yul\":6013:6132   */\n    tag_177:\n        /* \"#utility.yul\":6199:6200   */\n      0x00\n        /* \"#utility.yul\":6188:6197   */\n      dup5\n        /* \"#utility.yul\":6184:6201   */\n      add\n        /* \"#utility.yul\":6171:6202   */\n      calldataload\n        /* \"#utility.yul\":6229:6247   */\n      0xffffffffffffffff\n        /* \"#utility.yul\":6221:6227   */\n      dup2\n        /* \"#utility.yul\":6218:6248   */\n      gt\n        /* \"#utility.yul\":6215:6332   */\n      iszero\n      tag_179\n      jumpi\n        /* \"#utility.yul\":6251:6330   */\n      tag_180\n      tag_79\n      jump\t// in\n    tag_180:\n        /* \"#utility.yul\":6215:6332   */\n    tag_179:\n        /* \"#utility.yul\":6356:6419   */\n      tag_181\n        /* \"#utility.yul\":6411:6418   */\n      dup7\n        /* \"#utility.yul\":6402:6408   */\n      dup3\n        /* \"#utility.yul\":6391:6400   */\n      dup8\n        /* \"#utility.yul\":6387:6409   */\n      add\n        /* \"#utility.yul\":6356:6419   */\n      tag_100\n      jump\t// in\n    tag_181:\n        /* \"#utility.yul\":6346:6419   */\n      swap4\n      pop\n        /* \"#utility.yul\":6142:6429   */\n      pop\n        /* \"#utility.yul\":6468:6470   */\n      0x20\n        /* \"#utility.yul\":6494:6547   */\n      tag_182\n        /* \"#utility.yul\":6539:6546   */\n      dup7\n        /* \"#utility.yul\":6530:6536   */\n      dup3\n        /* \"#utility.yul\":6519:6528   */\n      dup8\n        /* \"#utility.yul\":6515:6537   */\n      add\n        /* \"#utility.yul\":6494:6547   */\n      tag_83\n      jump\t// in\n    tag_182:\n        /* \"#utility.yul\":6484:6547   */\n      swap3\n      pop\n        /* \"#utility.yul\":6439:6557   */\n      pop\n        /* \"#utility.yul\":6624:6626   */\n      0x40\n        /* \"#utility.yul\":6613:6622   */\n      dup5\n        /* \"#utility.yul\":6609:6627   */\n      add\n        /* \"#utility.yul\":6596:6628   */\n      calldataload\n        /* \"#utility.yul\":6655:6673   */\n      0xffffffffffffffff\n        /* \"#utility.yul\":6647:6653   */\n      dup2\n        /* \"#utility.yul\":6644:6674   */\n      gt\n        /* \"#utility.yul\":6641:6758   */\n      iszero\n      tag_183\n      jumpi\n        /* \"#utility.yul\":6677:6756   */\n      tag_184\n      tag_79\n      jump\t// in\n    tag_184:\n        /* \"#utility.yul\":6641:6758   */\n    tag_183:\n        /* \"#utility.yul\":6782:6845   */\n      tag_185\n        /* \"#utility.yul\":6837:6844   */\n      dup7\n        /* \"#utility.yul\":6828:6834   */\n      dup3\n        /* \"#utility.yul\":6817:6826   */\n      dup8\n        /* \"#utility.yul\":6813:6835   */\n      add\n        /* \"#utility.yul\":6782:6845   */\n      tag_100\n      jump\t// in\n    tag_185:\n        /* \"#utility.yul\":6772:6845   */\n      swap2\n      pop\n        /* \"#utility.yul\":6567:6855   */\n      pop\n        /* \"#utility.yul\":5883:6862   */\n      swap3\n      pop\n      swap3\n      pop\n      swap3\n      jump\t// out\n        /* \"#utility.yul\":6868:6945   */\n    tag_101:\n        /* \"#utility.yul\":6905:6912   */\n      0x00\n        /* \"#utility.yul\":6934:6939   */\n      dup2\n        /* \"#utility.yul\":6923:6939   */\n      swap1\n      pop\n        /* \"#utility.yul\":6868:6945   */\n      swap2\n      swap1\n      pop\n      jump\t// out\n        /* \"#utility.yul\":6951:7073   */\n    tag_102:\n        /* \"#utility.yul\":7024:7048   */\n      tag_188\n        /* \"#utility.yul\":7042:7047   */\n      dup2\n        /* \"#utility.yul\":7024:7048   */\n      tag_101\n      jump\t// in\n    tag_188:\n        /* \"#utility.yul\":7017:7022   */\n      dup2\n        /* \"#utility.yul\":7014:7049   */\n      eq\n        /* \"#utility.yul\":7004:7067   */\n      tag_189\n      jumpi\n        /* \"#utility.yul\":7063:7064   */\n      0x00\n        /* \"#utility.yul\":7060:7061   */\n      dup1\n        /* \"#utility.yul\":7053:7065   */\n      revert\n        /* \"#utility.yul\":7004:7067   */\n    tag_189:\n        /* \"#utility.yul\":6951:7073   */\n      pop\n      jump\t// out\n        /* \"#utility.yul\":7079:7218   */\n    tag_103:\n        /* \"#utility.yul\":7125:7130   */\n      0x00\n        /* \"#utility.yul\":7163:7169   */\n      dup2\n        /* \"#utility.yul\":7150:7170   */\n      calldataload\n        /* \"#utility.yul\":7141:7170   */\n      swap1\n      pop\n        /* \"#utility.yul\":7179:7212   */\n      tag_191\n        /* \"#utility.yul\":7206:7211   */\n      dup2\n        /* \"#utility.yul\":7179:7212   */\n      tag_102\n      jump\t// in\n    tag_191:\n        /* \"#utility.yul\":7079:7218   */\n      swap3\n      swap2\n      pop\n      pop\n      jump\t// out\n        /* \"#utility.yul\":7224:7698   */\n    tag_24:\n        /* \"#utility.yul\":7292:7298   */\n      0x00\n        /* \"#utility.yul\":7300:7306   */\n      dup1\n        /* \"#utility.yul\":7349:7351   */\n      0x40\n        /* \"#utility.yul\":7337:7346   */\n      dup4\n        /* \"#utility.yul\":7328:7335   */\n      dup6\n        /* \"#utility.yul\":7324:7347   */\n      sub\n        /* \"#utility.yul\":7320:7352   */\n      slt\n        /* \"#utility.yul\":7317:7436   */\n      iszero\n      tag_193\n      jumpi\n        /* \"#utility.yul\":7355:7434   */\n      tag_194\n      tag_78\n      jump\t// in\n    tag_194:\n        /* \"#utility.yul\":7317:7436   */\n    tag_193:\n        /* \"#utility.yul\":7475:7476   */\n      0x00\n        /* \"#utility.yul\":7500:7553   */\n      tag_195\n        /* \"#utility.yul\":7545:7552   */\n      dup6\n        /* \"#utility.yul\":7536:7542   */\n      dup3\n        /* \"#utility.yul\":7525:7534   */\n      dup7\n        /* \"#utility.yul\":7521:7543   */\n      add\n        /* \"#utility.yul\":7500:7553   */\n      tag_83\n      jump\t// in\n    tag_195:\n        /* \"#utility.yul\":7490:7553   */\n      swap3\n      pop\n        /* \"#utility.yul\":7446:7563   */\n      pop\n        /* \"#utility.yul\":7602:7604   */\n      0x20\n        /* \"#utility.yul\":7628:7681   */\n      tag_196\n        /* \"#utility.yul\":7673:7680   */\n      dup6\n        /* \"#utility.yul\":7664:7670   */\n      dup3\n        /* \"#utility.yul\":7653:7662   */\n      dup7\n        /* \"#utility.yul\":7649:7671   */\n      add\n        /* \"#utility.yul\":7628:7681   */\n      tag_103\n      jump\t// in\n    tag_196:\n        /* \"#utility.yul\":7618:7681   */\n      swap2\n      pop\n        /* \"#utility.yul\":7573:7691   */\n      pop\n        /* \"#utility.yul\":7224:7698   */\n      swap3\n      pop\n      swap3\n      swap1\n      pop\n      jump\t// out\n        /* \"#utility.yul\":7704:7822   */\n    tag_104:\n        /* \"#utility.yul\":7791:7815   */\n      tag_198\n        /* \"#utility.yul\":7809:7814   */\n      dup2\n        /* \"#utility.yul\":7791:7815   */\n      tag_81\n      jump\t// in\n    tag_198:\n        /* \"#utility.yul\":7786:7789   */\n      dup3\n        /* \"#utility.yul\":7779:7816   */\n      mstore\n        /* \"#utility.yul\":7704:7822   */\n      pop\n      pop\n      jump\t// out\n        /* \"#utility.yul\":7828:8050   */\n    tag_27:\n        /* \"#utility.yul\":7921:7925   */\n      0x00\n        /* \"#utility.yul\":7959:7961   */\n      0x20\n        /* \"#utility.yul\":7948:7957   */\n      dup3\n        /* \"#utility.yul\":7944:7962   */\n      add\n        /* \"#utility.yul\":7936:7962   */\n      swap1\n      pop\n        /* \"#utility.yul\":7972:8043   */\n      tag_200\n        /* \"#utility.yul\":8040:8041   */\n      0x00\n        /* \"#utility.yul\":8029:8038   */\n      dup4\n        /* \"#utility.yul\":8025:8042   */\n      add\n        /* \"#utility.yul\":8016:8022   */\n      dup5\n        /* \"#utility.yul\":7972:8043   */\n      tag_104\n      jump\t// in\n    tag_200:\n        /* \"#utility.yul\":7828:8050   */\n      swap3\n      swap2\n      pop\n      pop\n      jump\t// out\n        /* \"#utility.yul\":8056:8236   */\n    tag_43:\n        /* \"#utility.yul\":8104:8181   */\n      0x4e487b7100000000000000000000000000000000000000000000000000000000\n        /* \"#utility.yul\":8101:8102   */\n      0x00\n        /* \"#utility.yul\":8094:8182   */\n      mstore\n        /* \"#utility.yul\":8201:8205   */\n      0x32\n        /* \"#utility.yul\":8198:8199   */\n      0x04\n        /* \"#utility.yul\":8191:8206   */\n      mstore\n        /* \"#utility.yul\":8225:8229   */\n      0x24\n        /* \"#utility.yul\":8222:8223   */\n      0x00\n        /* \"#utility.yul\":8215:8230   */\n      revert\n        /* \"#utility.yul\":8242:8422   */\n    tag_105:\n        /* \"#utility.yul\":8290:8367   */\n      0x4e487b7100000000000000000000000000000000000000000000000000000000\n        /* \"#utility.yul\":8287:8288   */\n      0x00\n        /* \"#utility.yul\":8280:8368   */\n      mstore\n        /* \"#utility.yul\":8387:8391   */\n      0x11\n        /* \"#utility.yul\":8384:8385   */\n      0x04\n        /* \"#utility.yul\":8377:8392   */\n      mstore\n        /* \"#utility.yul\":8411:8415   */\n      0x24\n        /* \"#utility.yul\":8408:8409   */\n      0x00\n        /* \"#utility.yul\":8401:8416   */\n      revert\n        /* \"#utility.yul\":8428:8619   */\n    tag_46:\n        /* \"#utility.yul\":8468:8472   */\n      0x00\n        /* \"#utility.yul\":8488:8508   */\n      tag_204\n        /* \"#utility.yul\":8506:8507   */\n      dup3\n        /* \"#utility.yul\":8488:8508   */\n      tag_101\n      jump\t// in\n    tag_204:\n        /* \"#utility.yul\":8483:8508   */\n      swap2\n      pop\n        /* \"#utility.yul\":8522:8542   */\n      tag_205\n        /* \"#utility.yul\":8540:8541   */\n      dup4\n        /* \"#utility.yul\":8522:8542   */\n      tag_101\n      jump\t// in\n    tag_205:\n        /* \"#utility.yul\":8517:8542   */\n      swap3\n      pop\n        /* \"#utility.yul\":8561:8562   */\n      dup3\n        /* \"#utility.yul\":8558:8559   */\n      dup3\n        /* \"#utility.yul\":8555:8563   */\n      lt\n        /* \"#utility.yul\":8552:8586   */\n      iszero\n      tag_206\n      jumpi\n        /* \"#utility.yul\":8566:8584   */\n      tag_207\n      tag_105\n      jump\t// in\n    tag_207:\n        /* \"#utility.yul\":8552:8586   */\n    tag_206:\n        /* \"#utility.yul\":8611:8612   */\n      dup3\n        /* \"#utility.yul\":8608:8609   */\n      dup3\n        /* \"#utility.yul\":8604:8613   */\n      sub\n        /* \"#utility.yul\":8596:8613   */\n      swap1\n      pop\n        /* \"#utility.yul\":8428:8619   */\n      swap3\n      swap2\n      pop\n      pop\n      jump\t// out\n        /* \"#utility.yul\":8625:8858   */\n    tag_55:\n        /* \"#utility.yul\":8664:8667   */\n      0x00\n        /* \"#utility.yul\":8687:8711   */\n      tag_209\n        /* \"#utility.yul\":8705:8710   */\n      dup3\n        /* \"#utility.yul\":8687:8711   */\n      tag_101\n      jump\t// in\n    tag_209:\n        /* \"#utility.yul\":8678:8711   */\n      swap2\n      pop\n        /* \"#utility.yul\":8733:8799   */\n      0xffffffffffffffffffffffffffffffffffffffffffffffffffffffffffffffff\n        /* \"#utility.yul\":8726:8731   */\n      dup3\n        /* \"#utility.yul\":8723:8800   */\n      sub\n        /* \"#utility.yul\":8720:8823   */\n      tag_210\n      jumpi\n        /* \"#utility.yul\":8803:8821   */\n      tag_211\n      tag_105\n      jump\t// in\n    tag_211:\n        /* \"#utility.yul\":8720:8823   */\n    tag_210:\n        /* \"#utility.yul\":8850:8851   */\n      0x01\n        /* \"#utility.yul\":8843:8848   */\n      dup3\n        /* \"#utility.yul\":8839:8852   */\n      add\n        /* \"#utility.yul\":8832:8852   */\n      swap1\n      pop\n        /* \"#utility.yul\":8625:8858   */\n      swap2\n      swap1\n      pop\n      jump\t// out\n        /* \"#utility.yul\":8864:8963   */\n    tag_106:\n        /* \"#utility.yul\":8916:8922   */\n      0x00\n        /* \"#utility.yul\":8950:8955   */\n      dup2\n        /* \"#utility.yul\":8944:8956   */\n      mload\n        /* \"#utility.yul\":8934:8956   */\n      swap1\n      pop\n        /* \"#utility.yul\":8864:8963   */\n      swap2\n      swap1\n      pop\n      jump\t// out\n        /* \"#utility.yul\":8969:9138   */\n    tag_107:\n        /* \"#utility.yul\":9053:9064   */\n      0x00\n        /* \"#utility.yul\":9087:9093   */\n      dup3\n        /* \"#utility.yul\":9082:9085   */\n      dup3\n        /* \"#utility.yul\":9075:9094   */\n      mstore\n        /* \"#utility.yul\":9127:9131   */\n      0x20\n        /* \"#utility.yul\":9122:9125   */\n      dup3\n        /* \"#utility.yul\":9118:9132   */\n      add\n        /* \"#utility.yul\":9103:9132   */\n      swap1\n      pop\n        /* \"#utility.yul\":8969:9138   */\n      swap3\n      swap2\n      pop\n      pop\n      jump\t// out\n        /* \"#utility.yul\":9144:9451   */\n    tag_108:\n        /* \"#utility.yul\":9212:9213   */\n      0x00\n        /* \"#utility.yul\":9222:9335   */\n    tag_215:\n        /* \"#utility.yul\":9236:9242   */\n      dup4\n        /* \"#utility.yul\":9233:9234   */\n      dup2\n        /* \"#utility.yul\":9230:9243   */\n      lt\n        /* \"#utility.yul\":9222:9335   */\n      iszero\n      tag_217\n      jumpi\n        /* \"#utility.yul\":9321:9322   */\n      dup1\n        /* \"#utility.yul\":9316:9319   */\n      dup3\n        /* \"#utility.yul\":9312:9323   */\n      add\n        /* \"#utility.yul\":9306:9324   */\n      mload\n        /* \"#utility.yul\":9302:9303   */\n      dup2\n        /* \"#utility.yul\":9297:9300   */\n      dup5\n        /* \"#utility.yul\":9293:9304   */\n      add\n        /* \"#utility.yul\":9286:9325   */\n      mstore\n        /* \"#utility.yul\":9258:9260   */\n      0x20\n        /* \"#utility.yul\":9255:9256   */\n      dup2\n        /* \"#utility.yul\":9251:9261   */\n      add\n        /* \"#utility.yul\":9246:9261   */\n      swap1\n      pop\n        /* \"#utility.yul\":9222:9335   */\n      jump(tag_215)\n    tag_217:\n        /* \"#utility.yul\":9353:9359   */\n      dup4\n        /* \"#utility.yul\":9350:9351   */\n      dup2\n        /* \"#utility.yul\":9347:9360   */\n      gt\n        /* \"#utility.yul\":9344:9445   */\n      iszero\n      tag_218\n      jumpi\n        /* \"#utility.yul\":9433:9434   */\n      0x00\n        /* \"#utility.yul\":9424:9430   */\n      dup5\n        /* \"#utility.yul\":9419:9422   */\n      dup5\n        /* \"#utility.yul\":9415:9431   */\n      add\n        /* \"#utility.yul\":9408:9435   */\n      mstore\n        /* \"#utility.yul\":9344:9445   */\n    tag_218:\n        /* \"#utility.yul\":9193:9451   */\n      pop\n        /* \"#utility.yul\":9144:9451   */\n      pop\n      pop\n      pop\n      jump\t// out\n        /* \"#utility.yul\":9457:9821   */\n    tag_109:\n        /* \"#utility.yul\":9545:9548   */\n      0x00\n        /* \"#utility.yul\":9573:9612   */\n      tag_220\n        /* \"#utility.yul\":9606:9611   */\n      dup3\n        /* \"#utility.yul\":9573:9612   */\n      tag_106\n      jump\t// in\n    tag_220:\n        /* \"#utility.yul\":9628:9699   */\n      tag_221\n        /* \"#utility.yul\":9692:9698   */\n      dup2\n        /* \"#utility.yul\":9687:9690   */\n      dup6\n        /* \"#utility.yul\":9628:9699   */\n      tag_107\n      jump\t// in\n    tag_221:\n        /* \"#utility.yul\":9621:9699   */\n      swap4\n      pop\n        /* \"#utility.yul\":9708:9760   */\n      tag_222\n        /* \"#utility.yul\":9753:9759   */\n      dup2\n        /* \"#utility.yul\":9748:9751   */\n      dup6\n        /* \"#utility.yul\":9741:9745   */\n      0x20\n        /* \"#utility.yul\":9734:9739   */\n      dup7\n        /* \"#utility.yul\":9730:9746   */\n      add\n        /* \"#utility.yul\":9708:9760   */\n      tag_108\n      jump\t// in\n    tag_222:\n        /* \"#utility.yul\":9785:9814   */\n      tag_223\n        /* \"#utility.yul\":9807:9813   */\n      dup2\n        /* \"#utility.yul\":9785:9814   */\n      tag_93\n      jump\t// in\n    tag_223:\n        /* \"#utility.yul\":9780:9783   */\n      dup5\n        /* \"#utility.yul\":9776:9815   */\n      add\n        /* \"#utility.yul\":9769:9815   */\n      swap2\n      pop\n        /* \"#utility.yul\":9549:9821   */\n      pop\n        /* \"#utility.yul\":9457:9821   */\n      swap3\n      swap2\n      pop\n      pop\n      jump\t// out\n        /* \"#utility.yul\":9827:10451   */\n    tag_62:\n        /* \"#utility.yul\":10016:10020   */\n      0x00\n        /* \"#utility.yul\":10054:10056   */\n      0x60\n        /* \"#utility.yul\":10043:10052   */\n      dup3\n        /* \"#utility.yul\":10039:10057   */\n      add\n        /* \"#utility.yul\":10031:10057   */\n      swap1\n      pop\n        /* \"#utility.yul\":10103:10112   */\n      dup2\n        /* \"#utility.yul\":10097:10101   */\n      dup2\n        /* \"#utility.yul\":10093:10113   */\n      sub\n        /* \"#utility.yul\":10089:10090   */\n      0x00\n        /* \"#utility.yul\":10078:10087   */\n      dup4\n        /* \"#utility.yul\":10074:10091   */\n      add\n        /* \"#utility.yul\":10067:10114   */\n      mstore\n        /* \"#utility.yul\":10131:10209   */\n      tag_225\n        /* \"#utility.yul\":10204:10208   */\n      dup2\n        /* \"#utility.yul\":10195:10201   */\n      dup7\n        /* \"#utility.yul\":10131:10209   */\n      tag_109\n      jump\t// in\n    tag_225:\n        /* \"#utility.yul\":10123:10209   */\n      swap1\n      pop\n        /* \"#utility.yul\":10219:10291   */\n      tag_226\n        /* \"#utility.yul\":10287:10289   */\n      0x20\n        /* \"#utility.yul\":10276:10285   */\n      dup4\n        /* \"#utility.yul\":10272:10290   */\n      add\n        /* \"#utility.yul\":10263:10269   */\n      dup6\n        /* \"#utility.yul\":10219:10291   */\n      tag_104\n      jump\t// in\n    tag_226:\n        /* \"#utility.yul\":10338:10347   */\n      dup2\n        /* \"#utility.yul\":10332:10336   */\n      dup2\n        /* \"#utility.yul\":10328:10348   */\n      sub\n        /* \"#utility.yul\":10323:10325   */\n      0x40\n        /* \"#utility.yul\":10312:10321   */\n      dup4\n        /* \"#utility.yul\":10308:10326   */\n      add\n        /* \"#utility.yul\":10301:10349   */\n      mstore\n        /* \"#utility.yul\":10366:10444   */\n      tag_227\n        /* \"#utility.yul\":10439:10443   */\n      dup2\n        /* \"#utility.yul\":10430:10436   */\n      dup5\n        /* \"#utility.yul\":10366:10444   */\n      tag_109\n      jump\t// in\n    tag_227:\n        /* \"#utility.yul\":10358:10444   */\n      swap1\n      pop\n        /* \"#utility.yul\":9827:10451   */\n      swap5\n      swap4\n      pop\n      pop\n      pop\n      pop\n      jump\t// out\n    stop\n\n    sub_0: assembly {\n            /* \"DocumentContract.sol\":34:1333  contract DocumentContract {... */\n          mstore(0x40, 0x80)\n            /* \"DocumentContract.sol\":346:560  constructor(string memory _ipfsHash, address _ownerAddress, string memory _documentName) public{... */\n          callvalue\n          dup1\n          iszero\n          tag_1\n          jumpi\n          0x00\n          dup1\n          revert\n        tag_1:\n          pop\n          mload(0x40)\n          sub(codesize, bytecodeSize)\n          dup1\n          bytecodeSize\n          dup4\n          codecopy\n          dup2\n          dup2\n          add\n          0x40\n          mstore\n          dup2\n          add\n          swap1\n          tag_2\n          swap2\n          swap1\n          tag_3\n          jump\t// in\n        tag_2:\n            /* \"DocumentContract.sol\":462:471  _ipfsHash */\n          dup3\n            /* \"DocumentContract.sol\":451:459  ipfsHash */\n          0x00\n            /* \"DocumentContract.sol\":451:471  ipfsHash = _ipfsHash */\n          swap1\n          dup1\n          mload\n          swap1\n          0x20\n          add\n          swap1\n          tag_6\n          swap3\n          swap2\n          swap1\n          tag_7\n          jump\t// in\n        tag_6:\n          pop\n            /* \"DocumentContract.sol\":481:495  ownerAddresses */\n          0x01\n            /* \"DocumentContract.sol\":501:514  _ownerAddress */\n          dup3\n            /* \"DocumentContract.sol\":481:515  ownerAddresses.push(_ownerAddress) */\n          swap1\n          dup1\n          0x01\n          dup2\n          sload\n          add\n          dup1\n          dup3\n          sstore\n          dup1\n          swap2\n          pop\n          pop\n          0x01\n          swap1\n          sub\n          swap1\n          0x00\n          mstore\n          keccak256(0x00, 0x20)\n          add\n          0x00\n          swap1\n          swap2\n          swap1\n          swap2\n          swap1\n          swap2\n          0x0100\n          exp\n          dup2\n          sload\n          dup2\n          0xffffffffffffffffffffffffffffffffffffffff\n          mul\n          not\n          and\n          swap1\n          dup4\n          0xffffffffffffffffffffffffffffffffffffffff\n          and\n          mul\n          or\n          swap1\n          sstore\n          pop\n            /* \"DocumentContract.sol\":540:553  _documentName */\n          dup1\n            /* \"DocumentContract.sol\":525:537  documentName */\n          0x02\n            /* \"DocumentContract.sol\":525:553  documentName = _documentName */\n          swap1\n          dup1\n          mload\n          swap1\n          0x20\n          add\n          swap1\n          tag_9\n          swap3\n          swap2\n          swap1\n          tag_7\n          jump\t// in\n        tag_9:\n          pop\n            /* \"DocumentContract.sol\":346:560  constructor(string memory _ipfsHash, address _ownerAddress, string memory _documentName) public{... */\n          pop\n          pop\n          pop\n            /* \"DocumentContract.sol\":34:1333  contract DocumentContract {... */\n          jump(tag_10)\n        tag_7:\n          dup3\n          dup1\n          sload\n          tag_11\n          swap1\n          tag_12\n          jump\t// in\n        tag_11:\n          swap1\n          0x00\n          mstore\n          keccak256(0x00, 0x20)\n          swap1\n          0x1f\n          add\n          0x20\n          swap1\n          div\n          dup2\n          add\n          swap3\n          dup3\n          tag_14\n          jumpi\n          0x00\n          dup6\n          sstore\n          jump(tag_13)\n        tag_14:\n          dup3\n          0x1f\n          lt\n          tag_15\n          jumpi\n          dup1\n          mload\n          not(0xff)\n          and\n          dup4\n          dup1\n          add\n          or\n          dup6\n          sstore\n          jump(tag_13)\n        tag_15:\n          dup3\n          dup1\n          add\n          0x01\n          add\n          dup6\n          sstore\n          dup3\n          iszero\n          tag_13\n          jumpi\n          swap2\n          dup3\n          add\n        tag_16:\n          dup3\n          dup2\n          gt\n          iszero\n          tag_17\n          jumpi\n          dup3\n          mload\n          dup3\n          sstore\n          swap2\n          0x20\n          add\n          swap2\n          swap1\n          0x01\n          add\n          swap1\n          jump(tag_16)\n        tag_17:\n        tag_13:\n          pop\n          swap1\n          pop\n          tag_18\n          swap2\n          swap1\n          tag_19\n          jump\t// in\n        tag_18:\n          pop\n          swap1\n          jump\t// out\n        tag_19:\n        tag_20:\n          dup1\n          dup3\n          gt\n          iszero\n          tag_21\n          jumpi\n          0x00\n          dup2\n          0x00\n          swap1\n          sstore\n          pop\n          0x01\n          add\n          jump(tag_20)\n        tag_21:\n          pop\n          swap1\n          jump\t// out\n            /* \"#utility.yul\":7:82   */\n        tag_22:\n            /* \"#utility.yul\":40:46   */\n          0x00\n            /* \"#utility.yul\":73:75   */\n          0x40\n            /* \"#utility.yul\":67:76   */\n          mload\n            /* \"#utility.yul\":57:76   */\n          swap1\n          pop\n            /* \"#utility.yul\":7:82   */\n          swap1\n          jump\t// out\n            /* \"#utility.yul\":88:205   */\n        tag_23:\n            /* \"#utility.yul\":197:198   */\n          0x00\n            /* \"#utility.yul\":194:195   */\n          dup1\n            /* \"#utility.yul\":187:199   */\n          revert\n            /* \"#utility.yul\":211:328   */\n        tag_24:\n            /* \"#utility.yul\":320:321   */\n          0x00\n            /* \"#utility.yul\":317:318   */\n          dup1\n            /* \"#utility.yul\":310:322   */\n          revert\n            /* \"#utility.yul\":334:451   */\n        tag_25:\n            /* \"#utility.yul\":443:444   */\n          0x00\n            /* \"#utility.yul\":440:441   */\n          dup1\n            /* \"#utility.yul\":433:445   */\n          revert\n            /* \"#utility.yul\":457:574   */\n        tag_26:\n            /* \"#utility.yul\":566:567   */\n          0x00\n            /* \"#utility.yul\":563:564   */\n          dup1\n            /* \"#utility.yul\":556:568   */\n          revert\n            /* \"#utility.yul\":580:682   */\n        tag_27:\n            /* \"#utility.yul\":621:627   */\n          0x00\n            /* \"#utility.yul\":672:674   */\n          0x1f\n            /* \"#utility.yul\":668:675   */\n          not\n            /* \"#utility.yul\":663:665   */\n          0x1f\n            /* \"#utility.yul\":656:661   */\n          dup4\n            /* \"#utility.yul\":652:666   */\n          add\n            /* \"#utility.yul\":648:676   */\n          and\n            /* \"#utility.yul\":638:676   */\n          swap1\n          pop\n            /* \"#utility.yul\":580:682   */\n          swap2\n          swap1\n          pop\n          jump\t// out\n            /* \"#utility.yul\":688:868   */\n        tag_28:\n            /* \"#utility.yul\":736:813   */\n          0x4e487b7100000000000000000000000000000000000000000000000000000000\n            /* \"#utility.yul\":733:734   */\n          0x00\n            /* \"#utility.yul\":726:814   */\n          mstore\n            /* \"#utility.yul\":833:837   */\n          0x41\n            /* \"#utility.yul\":830:831   */\n          0x04\n            /* \"#utility.yul\":823:838   */\n          mstore\n            /* \"#utility.yul\":857:861   */\n          0x24\n            /* \"#utility.yul\":854:855   */\n          0x00\n            /* \"#utility.yul\":847:862   */\n          revert\n            /* \"#utility.yul\":874:1155   */\n        tag_29:\n            /* \"#utility.yul\":957:984   */\n          tag_49\n            /* \"#utility.yul\":979:983   */\n          dup3\n            /* \"#utility.yul\":957:984   */\n          tag_27\n          jump\t// in\n        tag_49:\n            /* \"#utility.yul\":949:955   */\n          dup2\n            /* \"#utility.yul\":945:985   */\n          add\n            /* \"#utility.yul\":1087:1093   */\n          dup2\n            /* \"#utility.yul\":1075:1085   */\n          dup2\n            /* \"#utility.yul\":1072:1094   */\n          lt\n            /* \"#utility.yul\":1051:1069   */\n          0xffffffffffffffff\n            /* \"#utility.yul\":1039:1049   */\n          dup3\n            /* \"#utility.yul\":1036:1070   */\n          gt\n            /* \"#utility.yul\":1033:1095   */\n          or\n            /* \"#utility.yul\":1030:1118   */\n          iszero\n          tag_50\n          jumpi\n            /* \"#utility.yul\":1098:1116   */\n          tag_51\n          tag_28\n          jump\t// in\n        tag_51:\n            /* \"#utility.yul\":1030:1118   */\n        tag_50:\n            /* \"#utility.yul\":1138:1148   */\n          dup1\n            /* \"#utility.yul\":1134:1136   */\n          0x40\n            /* \"#utility.yul\":1127:1149   */\n          mstore\n            /* \"#utility.yul\":917:1155   */\n          pop\n            /* \"#utility.yul\":874:1155   */\n          pop\n          pop\n          jump\t// out\n            /* \"#utility.yul\":1161:1290   */\n        tag_30:\n            /* \"#utility.yul\":1195:1201   */\n          0x00\n            /* \"#utility.yul\":1222:1242   */\n          tag_53\n          tag_22\n          jump\t// in\n        tag_53:\n            /* \"#utility.yul\":1212:1242   */\n          swap1\n          pop\n            /* \"#utility.yul\":1251:1284   */\n          tag_54\n            /* \"#utility.yul\":1279:1283   */\n          dup3\n            /* \"#utility.yul\":1271:1277   */\n          dup3\n            /* \"#utility.yul\":1251:1284   */\n          tag_29\n          jump\t// in\n        tag_54:\n            /* \"#utility.yul\":1161:1290   */\n          swap2\n          swap1\n          pop\n          jump\t// out\n            /* \"#utility.yul\":1296:1604   */\n        tag_31:\n            /* \"#utility.yul\":1358:1362   */\n          0x00\n            /* \"#utility.yul\":1448:1466   */\n          0xffffffffffffffff\n            /* \"#utility.yul\":1440:1446   */\n          dup3\n            /* \"#utility.yul\":1437:1467   */\n          gt\n            /* \"#utility.yul\":1434:1490   */\n          iszero\n          tag_56\n          jumpi\n            /* \"#utility.yul\":1470:1488   */\n          tag_57\n          tag_28\n          jump\t// in\n        tag_57:\n            /* \"#utility.yul\":1434:1490   */\n        tag_56:\n            /* \"#utility.yul\":1508:1537   */\n          tag_58\n            /* \"#utility.yul\":1530:1536   */\n          dup3\n            /* \"#utility.yul\":1508:1537   */\n          tag_27\n          jump\t// in\n        tag_58:\n            /* \"#utility.yul\":1500:1537   */\n          swap1\n          pop\n            /* \"#utility.yul\":1592:1596   */\n          0x20\n            /* \"#utility.yul\":1586:1590   */\n          dup2\n            /* \"#utility.yul\":1582:1597   */\n          add\n            /* \"#utility.yul\":1574:1597   */\n          swap1\n          pop\n            /* \"#utility.yul\":1296:1604   */\n          swap2\n          swap1\n          pop\n          jump\t// out\n            /* \"#utility.yul\":1610:1917   */\n        tag_32:\n            /* \"#utility.yul\":1678:1679   */\n          0x00\n            /* \"#utility.yul\":1688:1801   */\n        tag_60:\n            /* \"#utility.yul\":1702:1708   */\n          dup4\n            /* \"#utility.yul\":1699:1700   */\n          dup2\n            /* \"#utility.yul\":1696:1709   */\n          lt\n            /* \"#utility.yul\":1688:1801   */\n          iszero\n          tag_62\n          jumpi\n            /* \"#utility.yul\":1787:1788   */\n          dup1\n            /* \"#utility.yul\":1782:1785   */\n          dup3\n            /* \"#utility.yul\":1778:1789   */\n          add\n            /* \"#utility.yul\":1772:1790   */\n          mload\n            /* \"#utility.yul\":1768:1769   */\n          dup2\n            /* \"#utility.yul\":1763:1766   */\n          dup5\n            /* \"#utility.yul\":1759:1770   */\n          add\n            /* \"#utility.yul\":1752:1791   */\n          mstore\n            /* \"#utility.yul\":1724:1726   */\n          0x20\n            /* \"#utility.yul\":1721:1722   */\n          dup2\n            /* \"#utility.yul\":1717:1727   */\n          add\n            /* \"#utility.yul\":1712:1727   */\n          swap1\n          pop\n            /* \"#utility.yul\":1688:1801   */\n          jump(tag_60)\n        tag_62:\n            /* \"#utility.yul\":1819:1825   */\n          dup4\n            /* \"#utility.yul\":1816:1817   */\n          dup2\n            /* \"#utility.yul\":1813:1826   */\n          gt\n            /* \"#utility.yul\":1810:1911   */\n          iszero\n          tag_63\n          jumpi\n            /* \"#utility.yul\":1899:1900   */\n          0x00\n            /* \"#utility.yul\":1890:1896   */\n          dup5\n            /* \"#utility.yul\":1885:1888   */\n          dup5\n            /* \"#utility.yul\":1881:1897   */\n          add\n            /* \"#utility.yul\":1874:1901   */\n          mstore\n            /* \"#utility.yul\":1810:1911   */\n        tag_63:\n            /* \"#utility.yul\":1659:1917   */\n          pop\n            /* \"#utility.yul\":1610:1917   */\n          pop\n          pop\n          pop\n          jump\t// out\n            /* \"#utility.yul\":1923:2344   */\n        tag_33:\n            /* \"#utility.yul\":2012:2017   */\n          0x00\n            /* \"#utility.yul\":2037:2103   */\n          tag_65\n            /* \"#utility.yul\":2053:2102   */\n          tag_66\n            /* \"#utility.yul\":2095:2101   */\n          dup5\n            /* \"#utility.yul\":2053:2102   */\n          tag_31\n          jump\t// in\n        tag_66:\n            /* \"#utility.yul\":2037:2103   */\n          tag_30\n          jump\t// in\n        tag_65:\n            /* \"#utility.yul\":2028:2103   */\n          swap1\n          pop\n            /* \"#utility.yul\":2126:2132   */\n          dup3\n            /* \"#utility.yul\":2119:2124   */\n          dup2\n            /* \"#utility.yul\":2112:2133   */\n          mstore\n            /* \"#utility.yul\":2164:2168   */\n          0x20\n            /* \"#utility.yul\":2157:2162   */\n          dup2\n            /* \"#utility.yul\":2153:2169   */\n          add\n            /* \"#utility.yul\":2202:2205   */\n          dup5\n            /* \"#utility.yul\":2193:2199   */\n          dup5\n            /* \"#utility.yul\":2188:2191   */\n          dup5\n            /* \"#utility.yul\":2184:2200   */\n          add\n            /* \"#utility.yul\":2181:2206   */\n          gt\n            /* \"#utility.yul\":2178:2290   */\n          iszero\n          tag_67\n          jumpi\n            /* \"#utility.yul\":2209:2288   */\n          tag_68\n          tag_26\n          jump\t// in\n        tag_68:\n            /* \"#utility.yul\":2178:2290   */\n        tag_67:\n            /* \"#utility.yul\":2299:2338   */\n          tag_69\n            /* \"#utility.yul\":2331:2337   */\n          dup5\n            /* \"#utility.yul\":2326:2329   */\n          dup3\n            /* \"#utility.yul\":2321:2324   */\n          dup6\n            /* \"#utility.yul\":2299:2338   */\n          tag_32\n          jump\t// in\n        tag_69:\n            /* \"#utility.yul\":2018:2344   */\n          pop\n            /* \"#utility.yul\":1923:2344   */\n          swap4\n          swap3\n          pop\n          pop\n          pop\n          jump\t// out\n            /* \"#utility.yul\":2364:2719   */\n        tag_34:\n            /* \"#utility.yul\":2431:2436   */\n          0x00\n            /* \"#utility.yul\":2480:2483   */\n          dup3\n            /* \"#utility.yul\":2473:2477   */\n          0x1f\n            /* \"#utility.yul\":2465:2471   */\n          dup4\n            /* \"#utility.yul\":2461:2478   */\n          add\n            /* \"#utility.yul\":2457:2484   */\n          slt\n            /* \"#utility.yul\":2447:2569   */\n          tag_71\n          jumpi\n            /* \"#utility.yul\":2488:2567   */\n          tag_72\n          tag_25\n          jump\t// in\n        tag_72:\n            /* \"#utility.yul\":2447:2569   */\n        tag_71:\n            /* \"#utility.yul\":2598:2604   */\n          dup2\n            /* \"#utility.yul\":2592:2605   */\n          mload\n            /* \"#utility.yul\":2623:2713   */\n          tag_73\n            /* \"#utility.yul\":2709:2712   */\n          dup5\n            /* \"#utility.yul\":2701:2707   */\n          dup3\n            /* \"#utility.yul\":2694:2698   */\n          0x20\n            /* \"#utility.yul\":2686:2692   */\n          dup7\n            /* \"#utility.yul\":2682:2699   */\n          add\n            /* \"#utility.yul\":2623:2713   */\n          tag_33\n          jump\t// in\n        tag_73:\n            /* \"#utility.yul\":2614:2713   */\n          swap2\n          pop\n            /* \"#utility.yul\":2437:2719   */\n          pop\n            /* \"#utility.yul\":2364:2719   */\n          swap3\n          swap2\n          pop\n          pop\n          jump\t// out\n            /* \"#utility.yul\":2725:2851   */\n        tag_35:\n            /* \"#utility.yul\":2762:2769   */\n          0x00\n            /* \"#utility.yul\":2802:2844   */\n          0xffffffffffffffffffffffffffffffffffffffff\n            /* \"#utility.yul\":2795:2800   */\n          dup3\n            /* \"#utility.yul\":2791:2845   */\n          and\n            /* \"#utility.yul\":2780:2845   */\n          swap1\n          pop\n            /* \"#utility.yul\":2725:2851   */\n          swap2\n          swap1\n          pop\n          jump\t// out\n            /* \"#utility.yul\":2857:2953   */\n        tag_36:\n            /* \"#utility.yul\":2894:2901   */\n          0x00\n            /* \"#utility.yul\":2923:2947   */\n          tag_76\n            /* \"#utility.yul\":2941:2946   */\n          dup3\n            /* \"#utility.yul\":2923:2947   */\n          tag_35\n          jump\t// in\n        tag_76:\n            /* \"#utility.yul\":2912:2947   */\n          swap1\n          pop\n            /* \"#utility.yul\":2857:2953   */\n          swap2\n          swap1\n          pop\n          jump\t// out\n            /* \"#utility.yul\":2959:3081   */\n        tag_37:\n            /* \"#utility.yul\":3032:3056   */\n          tag_78\n            /* \"#utility.yul\":3050:3055   */\n          dup2\n            /* \"#utility.yul\":3032:3056   */\n          tag_36\n          jump\t// in\n        tag_78:\n            /* \"#utility.yul\":3025:3030   */\n          dup2\n            /* \"#utility.yul\":3022:3057   */\n          eq\n            /* \"#utility.yul\":3012:3075   */\n          tag_79\n          jumpi\n            /* \"#utility.yul\":3071:3072   */\n          0x00\n            /* \"#utility.yul\":3068:3069   */\n          dup1\n            /* \"#utility.yul\":3061:3073   */\n          revert\n            /* \"#utility.yul\":3012:3075   */\n        tag_79:\n            /* \"#utility.yul\":2959:3081   */\n          pop\n          jump\t// out\n            /* \"#utility.yul\":3087:3230   */\n        tag_38:\n            /* \"#utility.yul\":3144:3149   */\n          0x00\n            /* \"#utility.yul\":3175:3181   */\n          dup2\n            /* \"#utility.yul\":3169:3182   */\n          mload\n            /* \"#utility.yul\":3160:3182   */\n          swap1\n          pop\n            /* \"#utility.yul\":3191:3224   */\n          tag_81\n            /* \"#utility.yul\":3218:3223   */\n          dup2\n            /* \"#utility.yul\":3191:3224   */\n          tag_37\n          jump\t// in\n        tag_81:\n            /* \"#utility.yul\":3087:3230   */\n          swap3\n          swap2\n          pop\n          pop\n          jump\t// out\n            /* \"#utility.yul\":3236:4245   */\n        tag_3:\n            /* \"#utility.yul\":3344:3350   */\n          0x00\n            /* \"#utility.yul\":3352:3358   */\n          dup1\n            /* \"#utility.yul\":3360:3366   */\n          0x00\n            /* \"#utility.yul\":3409:3411   */\n          0x60\n            /* \"#utility.yul\":3397:3406   */\n          dup5\n            /* \"#utility.yul\":3388:3395   */\n          dup7\n            /* \"#utility.yul\":3384:3407   */\n          sub\n            /* \"#utility.yul\":3380:3412   */\n          slt\n            /* \"#utility.yul\":3377:3496   */\n          iszero\n          tag_83\n          jumpi\n            /* \"#utility.yul\":3415:3494   */\n          tag_84\n          tag_23\n          jump\t// in\n        tag_84:\n            /* \"#utility.yul\":3377:3496   */\n        tag_83:\n            /* \"#utility.yul\":3556:3557   */\n          0x00\n            /* \"#utility.yul\":3545:3554   */\n          dup5\n            /* \"#utility.yul\":3541:3558   */\n          add\n            /* \"#utility.yul\":3535:3559   */\n          mload\n            /* \"#utility.yul\":3586:3604   */\n          0xffffffffffffffff\n            /* \"#utility.yul\":3578:3584   */\n          dup2\n            /* \"#utility.yul\":3575:3605   */\n          gt\n            /* \"#utility.yul\":3572:3689   */\n          iszero\n          tag_85\n          jumpi\n            /* \"#utility.yul\":3608:3687   */\n          tag_86\n          tag_24\n          jump\t// in\n        tag_86:\n            /* \"#utility.yul\":3572:3689   */\n        tag_85:\n            /* \"#utility.yul\":3713:3787   */\n          tag_87\n            /* \"#utility.yul\":3779:3786   */\n          dup7\n            /* \"#utility.yul\":3770:3776   */\n          dup3\n            /* \"#utility.yul\":3759:3768   */\n          dup8\n            /* \"#utility.yul\":3755:3777   */\n          add\n            /* \"#utility.yul\":3713:3787   */\n          tag_34\n          jump\t// in\n        tag_87:\n            /* \"#utility.yul\":3703:3787   */\n          swap4\n          pop\n            /* \"#utility.yul\":3506:3797   */\n          pop\n            /* \"#utility.yul\":3836:3838   */\n          0x20\n            /* \"#utility.yul\":3862:3926   */\n          tag_88\n            /* \"#utility.yul\":3918:3925   */\n          dup7\n            /* \"#utility.yul\":3909:3915   */\n          dup3\n            /* \"#utility.yul\":3898:3907   */\n          dup8\n            /* \"#utility.yul\":3894:3916   */\n          add\n            /* \"#utility.yul\":3862:3926   */\n          tag_38\n          jump\t// in\n        tag_88:\n            /* \"#utility.yul\":3852:3926   */\n          swap3\n          pop\n            /* \"#utility.yul\":3807:3936   */\n          pop\n            /* \"#utility.yul\":3996:3998   */\n          0x40\n            /* \"#utility.yul\":3985:3994   */\n          dup5\n            /* \"#utility.yul\":3981:3999   */\n          add\n            /* \"#utility.yul\":3975:4000   */\n          mload\n            /* \"#utility.yul\":4027:4045   */\n          0xffffffffffffffff\n            /* \"#utility.yul\":4019:4025   */\n          dup2\n            /* \"#utility.yul\":4016:4046   */\n          gt\n            /* \"#utility.yul\":4013:4130   */\n          iszero\n          tag_89\n          jumpi\n            /* \"#utility.yul\":4049:4128   */\n          tag_90\n          tag_24\n          jump\t// in\n        tag_90:\n            /* \"#utility.yul\":4013:4130   */\n        tag_89:\n            /* \"#utility.yul\":4154:4228   */\n          tag_91\n            /* \"#utility.yul\":4220:4227   */\n          dup7\n            /* \"#utility.yul\":4211:4217   */\n          dup3\n            /* \"#utility.yul\":4200:4209   */\n          dup8\n            /* \"#utility.yul\":4196:4218   */\n          add\n            /* \"#utility.yul\":4154:4228   */\n          tag_34\n          jump\t// in\n        tag_91:\n            /* \"#utility.yul\":4144:4228   */\n          swap2\n          pop\n            /* \"#utility.yul\":3946:4238   */\n          pop\n            /* \"#utility.yul\":3236:4245   */\n          swap3\n          pop\n          swap3\n          pop\n          swap3\n          jump\t// out\n            /* \"#utility.yul\":4251:4431   */\n        tag_39:\n            /* \"#utility.yul\":4299:4376   */\n          0x4e487b7100000000000000000000000000000000000000000000000000000000\n            /* \"#utility.yul\":4296:4297   */\n          0x00\n            /* \"#utility.yul\":4289:4377   */\n          mstore\n            /* \"#utility.yul\":4396:4400   */\n          0x22\n            /* \"#utility.yul\":4393:4394   */\n          0x04\n            /* \"#utility.yul\":4386:4401   */\n          mstore\n            /* \"#utility.yul\":4420:4424   */\n          0x24\n            /* \"#utility.yul\":4417:4418   */\n          0x00\n            /* \"#utility.yul\":4410:4425   */\n          revert\n            /* \"#utility.yul\":4437:4757   */\n        tag_12:\n            /* \"#utility.yul\":4481:4487   */\n          0x00\n            /* \"#utility.yul\":4518:4519   */\n          0x02\n            /* \"#utility.yul\":4512:4516   */\n          dup3\n            /* \"#utility.yul\":4508:4520   */\n          div\n            /* \"#utility.yul\":4498:4520   */\n          swap1\n          pop\n            /* \"#utility.yul\":4565:4566   */\n          0x01\n            /* \"#utility.yul\":4559:4563   */\n          dup3\n            /* \"#utility.yul\":4555:4567   */\n          and\n            /* \"#utility.yul\":4586:4604   */\n          dup1\n            /* \"#utility.yul\":4576:4657   */\n          tag_94\n          jumpi\n            /* \"#utility.yul\":4642:4646   */\n          0x7f\n            /* \"#utility.yul\":4634:4640   */\n          dup3\n            /* \"#utility.yul\":4630:4647   */\n          and\n            /* \"#utility.yul\":4620:4647   */\n          swap2\n          pop\n            /* \"#utility.yul\":4576:4657   */\n        tag_94:\n            /* \"#utility.yul\":4704:4706   */\n          0x20\n            /* \"#utility.yul\":4696:4702   */\n          dup3\n            /* \"#utility.yul\":4693:4707   */\n          lt\n            /* \"#utility.yul\":4673:4691   */\n          dup2\n            /* \"#utility.yul\":4670:4708   */\n          sub\n            /* \"#utility.yul\":4667:4751   */\n          tag_95\n          jumpi\n            /* \"#utility.yul\":4723:4741   */\n          tag_96\n          tag_39\n          jump\t// in\n        tag_96:\n            /* \"#utility.yul\":4667:4751   */\n        tag_95:\n            /* \"#utility.yul\":4488:4757   */\n          pop\n            /* \"#utility.yul\":4437:4757   */\n          swap2\n          swap1\n          pop\n          jump\t// out\n            /* \"DocumentContract.sol\":34:1333  contract DocumentContract {... */\n        tag_10:\n          dataSize(sub_0)\n          dup1\n          dataOffset(sub_0)\n          0x00\n          codecopy\n          0x00\n          return\n        stop\n\n        sub_0: assembly {\n                /* \"DocumentContract.sol\":34:1333  contract DocumentContract {... */\n              mstore(0x40, 0x80)\n              callvalue\n              dup1\n              iszero\n              tag_1\n              jumpi\n              0x00\n              dup1\n              revert\n            tag_1:\n              pop\n              jumpi(tag_2, lt(calldatasize, 0x04))\n              shr(0xe0, calldataload(0x00))\n              dup1\n              0x6b465601\n              gt\n              tag_10\n              jumpi\n              dup1\n              0x6b465601\n              eq\n              tag_6\n              jumpi\n              dup1\n              0xa0e67e2b\n              eq\n              tag_7\n              jumpi\n              dup1\n              0xc623674f\n              eq\n              tag_8\n              jumpi\n              dup1\n              0xcd5c4c70\n              eq\n              tag_9\n              jumpi\n              jump(tag_2)\n            tag_10:\n              dup1\n              0x0ef486d1\n              eq\n              tag_3\n              jumpi\n              dup1\n              0x0f310b17\n              eq\n              tag_4\n              jumpi\n              dup1\n              0x4d300e0c\n              eq\n              tag_5\n              jumpi\n            tag_2:\n              0x00\n              dup1\n              revert\n                /* \"DocumentContract.sol\":616:651  RevisionDocument[] public revisions */\n            tag_3:\n              tag_11\n              0x04\n              dup1\n              calldatasize\n              sub\n              dup2\n              add\n              swap1\n              tag_12\n              swap2\n              swap1\n              tag_13\n              jump\t// in\n            tag_12:\n              tag_14\n              jump\t// in\n            tag_11:\n              mload(0x40)\n              tag_15\n              swap3\n              swap2\n              swap1\n              tag_16\n              jump\t// in\n            tag_15:\n              mload(0x40)\n              dup1\n              swap2\n              sub\n              swap1\n              return\n                /* \"DocumentContract.sol\":275:306  address[] public ownerAddresses */\n            tag_4:\n              tag_17\n              0x04\n              dup1\n              calldatasize\n              sub\n              dup2\n              add\n              swap1\n              tag_18\n              swap2\n              swap1\n              tag_13\n              jump\t// in\n            tag_18:\n              tag_19\n              jump\t// in\n            tag_17:\n              mload(0x40)\n              tag_20\n              swap2\n              swap1\n              tag_21\n              jump\t// in\n            tag_20:\n              mload(0x40)\n              dup1\n              swap2\n              sub\n              swap1\n              return\n                /* \"DocumentContract.sol\":760:997  function updateDocument(string memory newIpfsHash, string  memory newName) public{... */\n            tag_5:\n              tag_22\n              0x04\n              dup1\n              calldatasize\n              sub\n              dup2\n              add\n              swap1\n              tag_23\n              swap2\n              swap1\n              tag_24\n              jump\t// in\n            tag_23:\n              tag_25\n              jump\t// in\n            tag_22:\n              stop\n                /* \"DocumentContract.sol\":313:339  string public documentName */\n            tag_6:\n              tag_26\n              tag_27\n              jump\t// in\n            tag_26:\n              mload(0x40)\n              tag_28\n              swap2\n              swap1\n              tag_29\n              jump\t// in\n            tag_28:\n              mload(0x40)\n              dup1\n              swap2\n              sub\n              swap1\n              return\n                /* \"DocumentContract.sol\":658:754  function getOwners() public view returns(address[] memory){... */\n            tag_7:\n              tag_30\n              tag_31\n              jump\t// in\n            tag_30:\n              mload(0x40)\n              tag_32\n              swap2\n              swap1\n              tag_33\n              jump\t// in\n            tag_32:\n              mload(0x40)\n              dup1\n              swap2\n              sub\n              swap1\n              return\n                /* \"DocumentContract.sol\":247:269  string public ipfsHash */\n            tag_8:\n              tag_34\n              tag_35\n              jump\t// in\n            tag_34:\n              mload(0x40)\n              tag_36\n              swap2\n              swap1\n              tag_29\n              jump\t// in\n            tag_36:\n              mload(0x40)\n              dup1\n              swap2\n              sub\n              swap1\n              return\n                /* \"DocumentContract.sol\":1003:1331  function deleteOwner(address ownerAddress) public{... */\n            tag_9:\n              tag_37\n              0x04\n              dup1\n              calldatasize\n              sub\n              dup2\n              add\n              swap1\n              tag_38\n              swap2\n              swap1\n              tag_39\n              jump\t// in\n            tag_38:\n              tag_40\n              jump\t// in\n            tag_37:\n              stop\n                /* \"DocumentContract.sol\":616:651  RevisionDocument[] public revisions */\n            tag_14:\n              0x03\n              dup2\n              dup2\n              sload\n              dup2\n              lt\n              tag_41\n              jumpi\n              0x00\n              dup1\n              revert\n            tag_41:\n              swap1\n              0x00\n              mstore\n              keccak256(0x00, 0x20)\n              swap1\n              0x02\n              mul\n              add\n              0x00\n              swap2\n              pop\n              swap1\n              pop\n              dup1\n              0x00\n              add\n              dup1\n              sload\n              tag_43\n              swap1\n              tag_44\n              jump\t// in\n            tag_43:\n              dup1\n              0x1f\n              add\n              0x20\n              dup1\n              swap2\n              div\n              mul\n              0x20\n              add\n              mload(0x40)\n              swap1\n              dup2\n              add\n              0x40\n              mstore\n              dup1\n              swap3\n              swap2\n              swap1\n              dup2\n              dup2\n              mstore\n              0x20\n              add\n              dup3\n              dup1\n              sload\n              tag_45\n              swap1\n              tag_44\n              jump\t// in\n            tag_45:\n              dup1\n              iszero\n              tag_46\n              jumpi\n              dup1\n              0x1f\n              lt\n              tag_47\n              jumpi\n              0x0100\n              dup1\n              dup4\n              sload\n              div\n              mul\n              dup4\n              mstore\n              swap2\n              0x20\n              add\n              swap2\n              jump(tag_46)\n            tag_47:\n              dup3\n              add\n              swap2\n              swap1\n              0x00\n              mstore\n              keccak256(0x00, 0x20)\n              swap1\n            tag_48:\n              dup2\n              sload\n              dup2\n              mstore\n              swap1\n              0x01\n              add\n              swap1\n              0x20\n              add\n              dup1\n              dup4\n              gt\n              tag_48\n              jumpi\n              dup3\n              swap1\n              sub\n              0x1f\n              and\n              dup3\n              add\n              swap2\n            tag_46:\n              pop\n              pop\n              pop\n              pop\n              pop\n              swap1\n              dup1\n              0x01\n              add\n              dup1\n              sload\n              tag_49\n              swap1\n              tag_44\n              jump\t// in\n            tag_49:\n              dup1\n              0x1f\n              add\n              0x20\n              dup1\n              swap2\n              div\n              mul\n              0x20\n              add\n              mload(0x40)\n              swap1\n              dup2\n              add\n              0x40\n              mstore\n              dup1\n              swap3\n              swap2\n              swap1\n              dup2\n              dup2\n              mstore\n              0x20\n              add\n              dup3\n              dup1\n              sload\n              tag_50\n              swap1\n              tag_44\n              jump\t// in\n            tag_50:\n              dup1\n              iszero\n              tag_51\n              jumpi\n              dup1\n              0x1f\n              lt\n              tag_52\n              jumpi\n              0x0100\n              dup1\n              dup4\n              sload\n              div\n              mul\n              dup4\n              mstore\n              swap2\n              0x20\n              add\n              swap2\n              jump(tag_51)\n            tag_52:\n              dup3\n              add\n              swap2\n              swap1\n              0x00\n              mstore\n              keccak256(0x00, 0x20)\n              swap1\n            tag_53:\n              dup2\n              sload\n              dup2\n              mstore\n              swap1\n              0x01\n              add\n              swap1\n              0x20\n              add\n              dup1\n              dup4\n              gt\n              tag_53\n              jumpi\n              dup3\n              swap1\n              sub\n              0x1f\n              and\n              dup3\n              add\n              swap2\n            tag_51:\n              pop\n              pop\n              pop\n              pop\n              pop\n              swap1\n              pop\n              dup3\n              jump\t// out\n                /* \"DocumentContract.sol\":275:306  address[] public ownerAddresses */\n            tag_19:\n              0x01\n              dup2\n              dup2\n              sload\n              dup2\n              lt\n              tag_54\n              jumpi\n              0x00\n              dup1\n              revert\n            tag_54:\n              swap1\n              0x00\n              mstore\n              keccak256(0x00, 0x20)\n              add\n              0x00\n              swap2\n              pop\n              sload\n              swap1\n              0x0100\n              exp\n              swap1\n              div\n              0xffffffffffffffffffffffffffffffffffffffff\n              and\n              dup2\n              jump\t// out\n                /* \"DocumentContract.sol\":760:997  function updateDocument(string memory newIpfsHash, string  memory newName) public{... */\n            tag_25:\n                /* \"DocumentContract.sol\":851:860  revisions */\n              0x03\n                /* \"DocumentContract.sol\":866:924  RevisionDocument({ipfsHash: ipfsHash, name: documentName}) */\n              mload(0x40)\n              dup1\n              0x40\n              add\n              0x40\n              mstore\n              dup1\n                /* \"DocumentContract.sol\":910:922  documentName */\n              0x02\n                /* \"DocumentContract.sol\":866:924  RevisionDocument({ipfsHash: ipfsHash, name: documentName}) */\n              dup1\n              sload\n              tag_57\n              swap1\n              tag_44\n              jump\t// in\n            tag_57:\n              dup1\n              0x1f\n              add\n              0x20\n              dup1\n              swap2\n              div\n              mul\n              0x20\n              add\n              mload(0x40)\n              swap1\n              dup2\n              add\n              0x40\n              mstore\n              dup1\n              swap3\n              swap2\n              swap1\n              dup2\n              dup2\n              mstore\n              0x20\n              add\n              dup3\n              dup1\n              sload\n              tag_58\n              swap1\n              tag_44\n              jump\t// in\n            tag_58:\n              dup1\n              iszero\n              tag_59\n              jumpi\n              dup1\n              0x1f\n              lt\n              tag_60\n              jumpi\n              0x0100\n              dup1\n              dup4\n              sload\n              div\n              mul\n              dup4\n              mstore\n              swap2\n              0x20\n              add\n              swap2\n              jump(tag_59)\n            tag_60:\n              dup3\n              add\n              swap2\n              swap1\n              0x00\n              mstore\n              keccak256(0x00, 0x20)\n              swap1\n            tag_61:\n              dup2\n              sload\n              dup2\n              mstore\n              swap1\n              0x01\n              add\n              swap1\n              0x20\n              add\n              dup1\n              dup4\n              gt\n              tag_61\n              jumpi\n              dup3\n              swap1\n              sub\n              0x1f\n              and\n              dup3\n              add\n              swap2\n            tag_59:\n              pop\n              pop\n              pop\n              pop\n              pop\n              dup2\n              mstore\n              0x20\n              add\n                /* \"DocumentContract.sol\":894:902  ipfsHash */\n              0x00\n                /* \"DocumentContract.sol\":866:924  RevisionDocument({ipfsHash: ipfsHash, name: documentName}) */\n              dup1\n              sload\n              tag_62\n              swap1\n              tag_44\n              jump\t// in\n            tag_62:\n              dup1\n              0x1f\n              add\n              0x20\n              dup1\n              swap2\n              div\n              mul\n              0x20\n              add\n              mload(0x40)\n              swap1\n              dup2\n              add\n              0x40\n              mstore\n              dup1\n              swap3\n              swap2\n              swap1\n              dup2\n              dup2\n              mstore\n              0x20\n              add\n              dup3\n              dup1\n              sload\n              tag_63\n              swap1\n              tag_44\n              jump\t// in\n            tag_63:\n              dup1\n              iszero\n              tag_64\n              jumpi\n              dup1\n              0x1f\n              lt\n              tag_65\n              jumpi\n              0x0100\n              dup1\n              dup4\n              sload\n              div\n              mul\n              dup4\n              mstore\n              swap2\n              0x20\n              add\n              swap2\n              jump(tag_64)\n            tag_65:\n              dup3\n              add\n              swap2\n              swap1\n              0x00\n              mstore\n              keccak256(0x00, 0x20)\n              swap1\n            tag_66:\n              dup2\n              sload\n              dup2\n              mstore\n              swap1\n              0x01\n              add\n              swap1\n              0x20\n              add\n              dup1\n              dup4\n              gt\n              tag_66\n              jumpi\n              dup3\n              swap1\n              sub\n              0x1f\n              and\n              dup3\n              add\n              swap2\n            tag_64:\n              pop\n              pop\n              pop\n              pop\n              pop\n              dup2\n              mstore\n              pop\n                /* \"DocumentContract.sol\":851:925  revisions.push(RevisionDocument({ipfsHash: ipfsHash, name: documentName})) */\n              swap1\n              dup1\n              0x01\n              dup2\n              sload\n              add\n              dup1\n              dup3\n              sstore\n              dup1\n              swap2\n              pop\n              pop\n              0x01\n              swap1\n              sub\n              swap1\n              0x00\n              mstore\n              keccak256(0x00, 0x20)\n              swap1\n              0x02\n              mul\n              add\n              0x00\n              swap1\n              swap2\n              swap1\n              swap2\n              swap1\n              swap2\n              pop\n              0x00\n              dup3\n              add\n              mload\n              dup2\n              0x00\n              add\n              swap1\n              dup1\n              mload\n              swap1\n              0x20\n              add\n              swap1\n              tag_68\n              swap3\n              swap2\n              swap1\n              tag_69\n              jump\t// in\n            tag_68:\n              pop\n              0x20\n              dup3\n              add\n              mload\n              dup2\n              0x01\n              add\n              swap1\n              dup1\n              mload\n              swap1\n              0x20\n              add\n              swap1\n              tag_70\n              swap3\n              swap2\n              swap1\n              tag_69\n              jump\t// in\n            tag_70:\n              pop\n              pop\n              pop\n                /* \"DocumentContract.sol\":947:958  newIpfsHash */\n              dup2\n                /* \"DocumentContract.sol\":936:944  ipfsHash */\n              0x00\n                /* \"DocumentContract.sol\":936:958  ipfsHash = newIpfsHash */\n              swap1\n              dup1\n              mload\n              swap1\n              0x20\n              add\n              swap1\n              tag_71\n              swap3\n              swap2\n              swap1\n              tag_69\n              jump\t// in\n            tag_71:\n              pop\n                /* \"DocumentContract.sol\":983:990  newName */\n              dup1\n                /* \"DocumentContract.sol\":968:980  documentName */\n              0x02\n                /* \"DocumentContract.sol\":968:990  documentName = newName */\n              swap1\n              dup1\n              mload\n              swap1\n              0x20\n              add\n              swap1\n              tag_72\n              swap3\n              swap2\n              swap1\n              tag_69\n              jump\t// in\n            tag_72:\n              pop\n                /* \"DocumentContract.sol\":760:997  function updateDocument(string memory newIpfsHash, string  memory newName) public{... */\n              pop\n              pop\n              jump\t// out\n                /* \"DocumentContract.sol\":313:339  string public documentName */\n            tag_27:\n              0x02\n              dup1\n              sload\n              tag_73\n              swap1\n              tag_44\n              jump\t// in\n            tag_73:\n              dup1\n              0x1f\n              add\n              0x20\n              dup1\n              swap2\n              div\n              mul\n              0x20\n              add\n              mload(0x40)\n              swap1\n              dup2\n              add\n              0x40\n              mstore\n              dup1\n              swap3\n              swap2\n              swap1\n              dup2\n              dup2\n              mstore\n              0x20\n              add\n              dup3\n              dup1\n              sload\n              tag_74\n              swap1\n              tag_44\n              jump\t// in\n            tag_74:\n              dup1\n              iszero\n              tag_75\n              jumpi\n              dup1\n              0x1f\n              lt\n              tag_76\n              jumpi\n              0x0100\n              dup1\n              dup4\n              sload\n              div\n              mul\n              dup4\n              mstore\n              swap2\n              0x20\n              add\n              swap2\n              jump(tag_75)\n            tag_76:\n              dup3\n              add\n              swap2\n              swap1\n              0x00\n              mstore\n              keccak256(0x00, 0x20)\n              swap1\n            tag_77:\n              dup2\n              sload\n              dup2\n              mstore\n              swap1\n              0x01\n              add\n              swap1\n              0x20\n              add\n              dup1\n              dup4\n              gt\n              tag_77\n              jumpi\n              dup3\n              swap1\n              sub\n              0x1f\n              and\n              dup3\n              add\n              swap2\n            tag_75:\n              pop\n              pop\n              pop\n              pop\n              pop\n              dup2\n              jump\t// out\n                /* \"DocumentContract.sol\":658:754  function getOwners() public view returns(address[] memory){... */\n            tag_31:\n                /* \"DocumentContract.sol\":699:715  address[] memory */\n              0x60\n                /* \"DocumentContract.sol\":733:747  ownerAddresses */\n              0x01\n                /* \"DocumentContract.sol\":726:747  return ownerAddresses */\n              dup1\n              sload\n              dup1\n              0x20\n              mul\n              0x20\n              add\n              mload(0x40)\n              swap1\n              dup2\n              add\n              0x40\n              mstore\n              dup1\n              swap3\n              swap2\n              swap1\n              dup2\n              dup2\n              mstore\n              0x20\n              add\n              dup3\n              dup1\n              sload\n              dup1\n              iszero\n              tag_79\n              jumpi\n              0x20\n              mul\n              dup3\n              add\n              swap2\n              swap1\n              0x00\n              mstore\n              keccak256(0x00, 0x20)\n              swap1\n            tag_80:\n              dup2\n              0x00\n              swap1\n              sload\n              swap1\n              0x0100\n              exp\n              swap1\n              div\n              0xffffffffffffffffffffffffffffffffffffffff\n              and\n              0xffffffffffffffffffffffffffffffffffffffff\n              and\n              dup2\n              mstore\n              0x20\n              add\n              swap1\n              0x01\n              add\n              swap1\n              dup1\n              dup4\n              gt\n              tag_80\n              jumpi\n            tag_79:\n              pop\n              pop\n              pop\n              pop\n              pop\n              swap1\n              pop\n                /* \"DocumentContract.sol\":658:754  function getOwners() public view returns(address[] memory){... */\n              swap1\n              jump\t// out\n                /* \"DocumentContract.sol\":247:269  string public ipfsHash */\n            tag_35:\n              0x00\n              dup1\n              sload\n              tag_81\n              swap1\n              tag_44\n              jump\t// in\n            tag_81:\n              dup1\n              0x1f\n              add\n              0x20\n              dup1\n              swap2\n              div\n              mul\n              0x20\n              add\n              mload(0x40)\n              swap1\n              dup2\n              add\n              0x40\n              mstore\n              dup1\n              swap3\n              swap2\n              swap1\n              dup2\n              dup2\n              mstore\n              0x20\n              add\n              dup3\n              dup1\n              sload\n              tag_82\n              swap1\n              tag_44\n              jump\t// in\n            tag_82:\n              dup1\n              iszero\n              tag_83\n              jumpi\n              dup1\n              0x1f\n              lt\n              tag_84\n              jumpi\n              0x0100\n              dup1\n              dup4\n              sload\n              div\n              mul\n              dup4\n              mstore\n              swap2\n              0x20\n              add\n              swap2\n              jump(tag_83)\n            tag_84:\n              dup3\n              add\n              swap2\n              swap1\n              0x00\n              mstore\n              keccak256(0x00, 0x20)\n              swap1\n            tag_85:\n              dup2\n              sload\n              dup2\n              mstore\n              swap1\n              0x01\n              add\n              swap1\n              0x20\n              add\n              dup1\n              dup4\n              gt\n              tag_85\n              jumpi\n              dup3\n              swap1\n              sub\n              0x1f\n              and\n              dup3\n              add\n              swap2\n            tag_83:\n              pop\n              pop\n              pop\n              pop\n              pop\n              dup2\n              jump\t// out\n                /* \"DocumentContract.sol\":1003:1331  function deleteOwner(address ownerAddress) public{... */\n            tag_40:\n                /* \"DocumentContract.sol\":1066:1072  uint i */\n              0x00\n                /* \"DocumentContract.sol\":1062:1325  for(uint i = 0; i < ownerAddresses.length; i++){... */\n            tag_87:\n                /* \"DocumentContract.sol\":1082:1096  ownerAddresses */\n              0x01\n                /* \"DocumentContract.sol\":1082:1103  ownerAddresses.length */\n              dup1\n              sload\n              swap1\n              pop\n                /* \"DocumentContract.sol\":1078:1079  i */\n              dup2\n                /* \"DocumentContract.sol\":1078:1103  i < ownerAddresses.length */\n              lt\n                /* \"DocumentContract.sol\":1062:1325  for(uint i = 0; i < ownerAddresses.length; i++){... */\n              iszero\n              tag_88\n              jumpi\n                /* \"DocumentContract.sol\":1142:1156  ownerAddresses */\n              0x01\n                /* \"DocumentContract.sol\":1157:1158  i */\n              dup2\n                /* \"DocumentContract.sol\":1142:1159  ownerAddresses[i] */\n              dup2\n              sload\n              dup2\n              lt\n              tag_90\n              jumpi\n              tag_91\n              tag_92\n              jump\t// in\n            tag_91:\n            tag_90:\n              swap1\n              0x00\n              mstore\n              keccak256(0x00, 0x20)\n              add\n              0x00\n              swap1\n              sload\n              swap1\n              0x0100\n              exp\n              swap1\n              div\n              0xffffffffffffffffffffffffffffffffffffffff\n              and\n                /* \"DocumentContract.sol\":1126:1159  ownerAddress == ownerAddresses[i] */\n              0xffffffffffffffffffffffffffffffffffffffff\n              and\n                /* \"DocumentContract.sol\":1126:1138  ownerAddress */\n              dup3\n                /* \"DocumentContract.sol\":1126:1159  ownerAddress == ownerAddresses[i] */\n              0xffffffffffffffffffffffffffffffffffffffff\n              and\n              sub\n                /* \"DocumentContract.sol\":1123:1315  if(ownerAddress == ownerAddresses[i]){... */\n              tag_94\n              jumpi\n                /* \"DocumentContract.sol\":1198:1212  ownerAddresses */\n              0x01\n                /* \"DocumentContract.sol\":1237:1238  1 */\n              dup1\n                /* \"DocumentContract.sol\":1213:1227  ownerAddresses */\n              dup1\n                /* \"DocumentContract.sol\":1213:1234  ownerAddresses.length */\n              dup1\n              sload\n              swap1\n              pop\n                /* \"DocumentContract.sol\":1213:1238  ownerAddresses.length - 1 */\n              tag_95\n              swap2\n              swap1\n              tag_96\n              jump\t// in\n            tag_95:\n                /* \"DocumentContract.sol\":1198:1239  ownerAddresses[ownerAddresses.length - 1] */\n              dup2\n              sload\n              dup2\n              lt\n              tag_97\n              jumpi\n              tag_98\n              tag_92\n              jump\t// in\n            tag_98:\n            tag_97:\n              swap1\n              0x00\n              mstore\n              keccak256(0x00, 0x20)\n              add\n              0x00\n              swap1\n              sload\n              swap1\n              0x0100\n              exp\n              swap1\n              div\n              0xffffffffffffffffffffffffffffffffffffffff\n              and\n                /* \"DocumentContract.sol\":1178:1192  ownerAddresses */\n              0x01\n                /* \"DocumentContract.sol\":1193:1194  i */\n              dup3\n                /* \"DocumentContract.sol\":1178:1195  ownerAddresses[i] */\n              dup2\n              sload\n              dup2\n              lt\n              tag_100\n              jumpi\n              tag_101\n              tag_92\n              jump\t// in\n            tag_101:\n            tag_100:\n              swap1\n              0x00\n              mstore\n              keccak256(0x00, 0x20)\n              add\n              0x00\n                /* \"DocumentContract.sol\":1178:1239  ownerAddresses[i] = ownerAddresses[ownerAddresses.length - 1] */\n              0x0100\n              exp\n              dup2\n              sload\n              dup2\n              0xffffffffffffffffffffffffffffffffffffffff\n              mul\n              not\n              and\n              swap1\n              dup4\n              0xffffffffffffffffffffffffffffffffffffffff\n              and\n              mul\n              or\n              swap1\n              sstore\n              pop\n                /* \"DocumentContract.sol\":1257:1271  ownerAddresses */\n              0x01\n                /* \"DocumentContract.sol\":1257:1277  ownerAddresses.pop() */\n              dup1\n              sload\n              dup1\n              tag_103\n              jumpi\n              tag_104\n              tag_105\n              jump\t// in\n            tag_104:\n            tag_103:\n              0x01\n              swap1\n              sub\n              dup2\n              dup2\n              swap1\n              0x00\n              mstore\n              keccak256(0x00, 0x20)\n              add\n              exp(0x0100, 0x00)\n              dup2\n              sload\n              swap1\n              0xffffffffffffffffffffffffffffffffffffffff\n              mul\n              not\n              and\n              swap1\n              sstore\n              swap1\n              sstore\n                /* \"DocumentContract.sol\":1295:1300  break */\n              jump(tag_88)\n                /* \"DocumentContract.sol\":1123:1315  if(ownerAddress == ownerAddresses[i]){... */\n            tag_94:\n                /* \"DocumentContract.sol\":1105:1108  i++ */\n              dup1\n              dup1\n              tag_107\n              swap1\n              tag_108\n              jump\t// in\n            tag_107:\n              swap2\n              pop\n              pop\n                /* \"DocumentContract.sol\":1062:1325  for(uint i = 0; i < ownerAddresses.length; i++){... */\n              jump(tag_87)\n            tag_88:\n              pop\n                /* \"DocumentContract.sol\":1003:1331  function deleteOwner(address ownerAddress) public{... */\n              pop\n              jump\t// out\n            tag_69:\n              dup3\n              dup1\n              sload\n              tag_109\n              swap1\n              tag_44\n              jump\t// in\n            tag_109:\n              swap1\n              0x00\n              mstore\n              keccak256(0x00, 0x20)\n              swap1\n              0x1f\n              add\n              0x20\n              swap1\n              div\n              dup2\n              add\n              swap3\n              dup3\n              tag_111\n              jumpi\n              0x00\n              dup6\n              sstore\n              jump(tag_110)\n            tag_111:\n              dup3\n              0x1f\n              lt\n              tag_112\n              jumpi\n              dup1\n              mload\n              not(0xff)\n              and\n              dup4\n              dup1\n              add\n              or\n              dup6\n              sstore\n              jump(tag_110)\n            tag_112:\n              dup3\n              dup1\n              add\n              0x01\n              add\n              dup6\n              sstore\n              dup3\n              iszero\n              tag_110\n              jumpi\n              swap2\n              dup3\n              add\n            tag_113:\n              dup3\n              dup2\n              gt\n              iszero\n              tag_114\n              jumpi\n              dup3\n              mload\n              dup3\n              sstore\n              swap2\n              0x20\n              add\n              swap2\n              swap1\n              0x01\n              add\n              swap1\n              jump(tag_113)\n            tag_114:\n            tag_110:\n              pop\n              swap1\n              pop\n              tag_115\n              swap2\n              swap1\n              tag_116\n              jump\t// in\n            tag_115:\n              pop\n              swap1\n              jump\t// out\n            tag_116:\n            tag_117:\n              dup1\n              dup3\n              gt\n              iszero\n              tag_118\n              jumpi\n              0x00\n              dup2\n              0x00\n              swap1\n              sstore\n              pop\n              0x01\n              add\n              jump(tag_117)\n            tag_118:\n              pop\n              swap1\n              jump\t// out\n                /* \"#utility.yul\":7:82   */\n            tag_119:\n                /* \"#utility.yul\":40:46   */\n              0x00\n                /* \"#utility.yul\":73:75   */\n              0x40\n                /* \"#utility.yul\":67:76   */\n              mload\n                /* \"#utility.yul\":57:76   */\n              swap1\n              pop\n                /* \"#utility.yul\":7:82   */\n              swap1\n              jump\t// out\n                /* \"#utility.yul\":88:205   */\n            tag_120:\n                /* \"#utility.yul\":197:198   */\n              0x00\n                /* \"#utility.yul\":194:195   */\n              dup1\n                /* \"#utility.yul\":187:199   */\n              revert\n                /* \"#utility.yul\":211:328   */\n            tag_121:\n                /* \"#utility.yul\":320:321   */\n              0x00\n                /* \"#utility.yul\":317:318   */\n              dup1\n                /* \"#utility.yul\":310:322   */\n              revert\n                /* \"#utility.yul\":334:411   */\n            tag_122:\n                /* \"#utility.yul\":371:378   */\n              0x00\n                /* \"#utility.yul\":400:405   */\n              dup2\n                /* \"#utility.yul\":389:405   */\n              swap1\n              pop\n                /* \"#utility.yul\":334:411   */\n              swap2\n              swap1\n              pop\n              jump\t// out\n                /* \"#utility.yul\":417:539   */\n            tag_123:\n                /* \"#utility.yul\":490:514   */\n              tag_159\n                /* \"#utility.yul\":508:513   */\n              dup2\n                /* \"#utility.yul\":490:514   */\n              tag_122\n              jump\t// in\n            tag_159:\n                /* \"#utility.yul\":483:488   */\n              dup2\n                /* \"#utility.yul\":480:515   */\n              eq\n                /* \"#utility.yul\":470:533   */\n              tag_160\n              jumpi\n                /* \"#utility.yul\":529:530   */\n              0x00\n                /* \"#utility.yul\":526:527   */\n              dup1\n                /* \"#utility.yul\":519:531   */\n              revert\n                /* \"#utility.yul\":470:533   */\n            tag_160:\n                /* \"#utility.yul\":417:539   */\n              pop\n              jump\t// out\n                /* \"#utility.yul\":545:684   */\n            tag_124:\n                /* \"#utility.yul\":591:596   */\n              0x00\n                /* \"#utility.yul\":629:635   */\n              dup2\n                /* \"#utility.yul\":616:636   */\n              calldataload\n                /* \"#utility.yul\":607:636   */\n              swap1\n              pop\n                /* \"#utility.yul\":645:678   */\n              tag_162\n                /* \"#utility.yul\":672:677   */\n              dup2\n                /* \"#utility.yul\":645:678   */\n              tag_123\n              jump\t// in\n            tag_162:\n                /* \"#utility.yul\":545:684   */\n              swap3\n              swap2\n              pop\n              pop\n              jump\t// out\n                /* \"#utility.yul\":690:1019   */\n            tag_13:\n                /* \"#utility.yul\":749:755   */\n              0x00\n                /* \"#utility.yul\":798:800   */\n              0x20\n                /* \"#utility.yul\":786:795   */\n              dup3\n                /* \"#utility.yul\":777:784   */\n              dup5\n                /* \"#utility.yul\":773:796   */\n              sub\n                /* \"#utility.yul\":769:801   */\n              slt\n                /* \"#utility.yul\":766:885   */\n              iszero\n              tag_164\n              jumpi\n                /* \"#utility.yul\":804:883   */\n              tag_165\n              tag_120\n              jump\t// in\n            tag_165:\n                /* \"#utility.yul\":766:885   */\n            tag_164:\n                /* \"#utility.yul\":924:925   */\n              0x00\n                /* \"#utility.yul\":949:1002   */\n              tag_166\n                /* \"#utility.yul\":994:1001   */\n              dup5\n                /* \"#utility.yul\":985:991   */\n              dup3\n                /* \"#utility.yul\":974:983   */\n              dup6\n                /* \"#utility.yul\":970:992   */\n              add\n                /* \"#utility.yul\":949:1002   */\n              tag_124\n              jump\t// in\n            tag_166:\n                /* \"#utility.yul\":939:1002   */\n              swap2\n              pop\n                /* \"#utility.yul\":895:1012   */\n              pop\n                /* \"#utility.yul\":690:1019   */\n              swap3\n              swap2\n              pop\n              pop\n              jump\t// out\n                /* \"#utility.yul\":1025:1124   */\n            tag_125:\n                /* \"#utility.yul\":1077:1083   */\n              0x00\n                /* \"#utility.yul\":1111:1116   */\n              dup2\n                /* \"#utility.yul\":1105:1117   */\n              mload\n                /* \"#utility.yul\":1095:1117   */\n              swap1\n              pop\n                /* \"#utility.yul\":1025:1124   */\n              swap2\n              swap1\n              pop\n              jump\t// out\n                /* \"#utility.yul\":1130:1299   */\n            tag_126:\n                /* \"#utility.yul\":1214:1225   */\n              0x00\n                /* \"#utility.yul\":1248:1254   */\n              dup3\n                /* \"#utility.yul\":1243:1246   */\n              dup3\n                /* \"#utility.yul\":1236:1255   */\n              mstore\n                /* \"#utility.yul\":1288:1292   */\n              0x20\n                /* \"#utility.yul\":1283:1286   */\n              dup3\n                /* \"#utility.yul\":1279:1293   */\n              add\n                /* \"#utility.yul\":1264:1293   */\n              swap1\n              pop\n                /* \"#utility.yul\":1130:1299   */\n              swap3\n              swap2\n              pop\n              pop\n              jump\t// out\n                /* \"#utility.yul\":1305:1612   */\n            tag_127:\n                /* \"#utility.yul\":1373:1374   */\n              0x00\n                /* \"#utility.yul\":1383:1496   */\n            tag_170:\n                /* \"#utility.yul\":1397:1403   */\n              dup4\n                /* \"#utility.yul\":1394:1395   */\n              dup2\n                /* \"#utility.yul\":1391:1404   */\n              lt\n                /* \"#utility.yul\":1383:1496   */\n              iszero\n              tag_172\n              jumpi\n                /* \"#utility.yul\":1482:1483   */\n              dup1\n                /* \"#utility.yul\":1477:1480   */\n              dup3\n                /* \"#utility.yul\":1473:1484   */\n              add\n                /* \"#utility.yul\":1467:1485   */\n              mload\n                /* \"#utility.yul\":1463:1464   */\n              dup2\n                /* \"#utility.yul\":1458:1461   */\n              dup5\n                /* \"#utility.yul\":1454:1465   */\n              add\n                /* \"#utility.yul\":1447:1486   */\n              mstore\n                /* \"#utility.yul\":1419:1421   */\n              0x20\n                /* \"#utility.yul\":1416:1417   */\n              dup2\n                /* \"#utility.yul\":1412:1422   */\n              add\n                /* \"#utility.yul\":1407:1422   */\n              swap1\n              pop\n                /* \"#utility.yul\":1383:1496   */\n              jump(tag_170)\n            tag_172:\n                /* \"#utility.yul\":1514:1520   */\n              dup4\n                /* \"#utility.yul\":1511:1512   */\n              dup2\n                /* \"#utility.yul\":1508:1521   */\n              gt\n                /* \"#utility.yul\":1505:1606   */\n              iszero\n              tag_173\n              jumpi\n                /* \"#utility.yul\":1594:1595   */\n              0x00\n                /* \"#utility.yul\":1585:1591   */\n              dup5\n                /* \"#utility.yul\":1580:1583   */\n              dup5\n                /* \"#utility.yul\":1576:1592   */\n              add\n                /* \"#utility.yul\":1569:1596   */\n              mstore\n                /* \"#utility.yul\":1505:1606   */\n            tag_173:\n                /* \"#utility.yul\":1354:1612   */\n              pop\n                /* \"#utility.yul\":1305:1612   */\n              pop\n              pop\n              pop\n              jump\t// out\n                /* \"#utility.yul\":1618:1720   */\n            tag_128:\n                /* \"#utility.yul\":1659:1665   */\n              0x00\n                /* \"#utility.yul\":1710:1712   */\n              0x1f\n                /* \"#utility.yul\":1706:1713   */\n              not\n                /* \"#utility.yul\":1701:1703   */\n              0x1f\n                /* \"#utility.yul\":1694:1699   */\n              dup4\n                /* \"#utility.yul\":1690:1704   */\n              add\n                /* \"#utility.yul\":1686:1714   */\n              and\n                /* \"#utility.yul\":1676:1714   */\n              swap1\n              pop\n                /* \"#utility.yul\":1618:1720   */\n              swap2\n              swap1\n              pop\n              jump\t// out\n                /* \"#utility.yul\":1726:2090   */\n            tag_129:\n                /* \"#utility.yul\":1814:1817   */\n              0x00\n                /* \"#utility.yul\":1842:1881   */\n              tag_176\n                /* \"#utility.yul\":1875:1880   */\n              dup3\n                /* \"#utility.yul\":1842:1881   */\n              tag_125\n              jump\t// in\n            tag_176:\n                /* \"#utility.yul\":1897:1968   */\n              tag_177\n                /* \"#utility.yul\":1961:1967   */\n              dup2\n                /* \"#utility.yul\":1956:1959   */\n              dup6\n                /* \"#utility.yul\":1897:1968   */\n              tag_126\n              jump\t// in\n            tag_177:\n                /* \"#utility.yul\":1890:1968   */\n              swap4\n              pop\n                /* \"#utility.yul\":1977:2029   */\n              tag_178\n                /* \"#utility.yul\":2022:2028   */\n              dup2\n                /* \"#utility.yul\":2017:2020   */\n              dup6\n                /* \"#utility.yul\":2010:2014   */\n              0x20\n                /* \"#utility.yul\":2003:2008   */\n              dup7\n                /* \"#utility.yul\":1999:2015   */\n              add\n                /* \"#utility.yul\":1977:2029   */\n              tag_127\n              jump\t// in\n            tag_178:\n                /* \"#utility.yul\":2054:2083   */\n              tag_179\n                /* \"#utility.yul\":2076:2082   */\n              dup2\n                /* \"#utility.yul\":2054:2083   */\n              tag_128\n              jump\t// in\n            tag_179:\n                /* \"#utility.yul\":2049:2052   */\n              dup5\n                /* \"#utility.yul\":2045:2084   */\n              add\n                /* \"#utility.yul\":2038:2084   */\n              swap2\n              pop\n                /* \"#utility.yul\":1818:2090   */\n              pop\n                /* \"#utility.yul\":1726:2090   */\n              swap3\n              swap2\n              pop\n              pop\n              jump\t// out\n                /* \"#utility.yul\":2096:2610   */\n            tag_16:\n                /* \"#utility.yul\":2257:2261   */\n              0x00\n                /* \"#utility.yul\":2295:2297   */\n              0x40\n                /* \"#utility.yul\":2284:2293   */\n              dup3\n                /* \"#utility.yul\":2280:2298   */\n              add\n                /* \"#utility.yul\":2272:2298   */\n              swap1\n              pop\n                /* \"#utility.yul\":2344:2353   */\n              dup2\n                /* \"#utility.yul\":2338:2342   */\n              dup2\n                /* \"#utility.yul\":2334:2354   */\n              sub\n                /* \"#utility.yul\":2330:2331   */\n              0x00\n                /* \"#utility.yul\":2319:2328   */\n              dup4\n                /* \"#utility.yul\":2315:2332   */\n              add\n                /* \"#utility.yul\":2308:2355   */\n              mstore\n                /* \"#utility.yul\":2372:2450   */\n              tag_181\n                /* \"#utility.yul\":2445:2449   */\n              dup2\n                /* \"#utility.yul\":2436:2442   */\n              dup6\n                /* \"#utility.yul\":2372:2450   */\n              tag_129\n              jump\t// in\n            tag_181:\n                /* \"#utility.yul\":2364:2450   */\n              swap1\n              pop\n                /* \"#utility.yul\":2497:2506   */\n              dup2\n                /* \"#utility.yul\":2491:2495   */\n              dup2\n                /* \"#utility.yul\":2487:2507   */\n              sub\n                /* \"#utility.yul\":2482:2484   */\n              0x20\n                /* \"#utility.yul\":2471:2480   */\n              dup4\n                /* \"#utility.yul\":2467:2485   */\n              add\n                /* \"#utility.yul\":2460:2508   */\n              mstore\n                /* \"#utility.yul\":2525:2603   */\n              tag_182\n                /* \"#utility.yul\":2598:2602   */\n              dup2\n                /* \"#utility.yul\":2589:2595   */\n              dup5\n                /* \"#utility.yul\":2525:2603   */\n              tag_129\n              jump\t// in\n            tag_182:\n                /* \"#utility.yul\":2517:2603   */\n              swap1\n              pop\n                /* \"#utility.yul\":2096:2610   */\n              swap4\n              swap3\n              pop\n              pop\n              pop\n              jump\t// out\n                /* \"#utility.yul\":2616:2742   */\n            tag_130:\n                /* \"#utility.yul\":2653:2660   */\n              0x00\n                /* \"#utility.yul\":2693:2735   */\n              0xffffffffffffffffffffffffffffffffffffffff\n                /* \"#utility.yul\":2686:2691   */\n              dup3\n                /* \"#utility.yul\":2682:2736   */\n              and\n                /* \"#utility.yul\":2671:2736   */\n              swap1\n              pop\n                /* \"#utility.yul\":2616:2742   */\n              swap2\n              swap1\n              pop\n              jump\t// out\n                /* \"#utility.yul\":2748:2844   */\n            tag_131:\n                /* \"#utility.yul\":2785:2792   */\n              0x00\n                /* \"#utility.yul\":2814:2838   */\n              tag_185\n                /* \"#utility.yul\":2832:2837   */\n              dup3\n                /* \"#utility.yul\":2814:2838   */\n              tag_130\n              jump\t// in\n            tag_185:\n                /* \"#utility.yul\":2803:2838   */\n              swap1\n              pop\n                /* \"#utility.yul\":2748:2844   */\n              swap2\n              swap1\n              pop\n              jump\t// out\n                /* \"#utility.yul\":2850:2968   */\n            tag_132:\n                /* \"#utility.yul\":2937:2961   */\n              tag_187\n                /* \"#utility.yul\":2955:2960   */\n              dup2\n                /* \"#utility.yul\":2937:2961   */\n              tag_131\n              jump\t// in\n            tag_187:\n                /* \"#utility.yul\":2932:2935   */\n              dup3\n                /* \"#utility.yul\":2925:2962   */\n              mstore\n                /* \"#utility.yul\":2850:2968   */\n              pop\n              pop\n              jump\t// out\n                /* \"#utility.yul\":2974:3196   */\n            tag_21:\n                /* \"#utility.yul\":3067:3071   */\n              0x00\n                /* \"#utility.yul\":3105:3107   */\n              0x20\n                /* \"#utility.yul\":3094:3103   */\n              dup3\n                /* \"#utility.yul\":3090:3108   */\n              add\n                /* \"#utility.yul\":3082:3108   */\n              swap1\n              pop\n                /* \"#utility.yul\":3118:3189   */\n              tag_189\n                /* \"#utility.yul\":3186:3187   */\n              0x00\n                /* \"#utility.yul\":3175:3184   */\n              dup4\n                /* \"#utility.yul\":3171:3188   */\n              add\n                /* \"#utility.yul\":3162:3168   */\n              dup5\n                /* \"#utility.yul\":3118:3189   */\n              tag_132\n              jump\t// in\n            tag_189:\n                /* \"#utility.yul\":2974:3196   */\n              swap3\n              swap2\n              pop\n              pop\n              jump\t// out\n                /* \"#utility.yul\":3202:3319   */\n            tag_133:\n                /* \"#utility.yul\":3311:3312   */\n              0x00\n                /* \"#utility.yul\":3308:3309   */\n              dup1\n                /* \"#utility.yul\":3301:3313   */\n              revert\n                /* \"#utility.yul\":3325:3442   */\n            tag_134:\n                /* \"#utility.yul\":3434:3435   */\n              0x00\n                /* \"#utility.yul\":3431:3432   */\n              dup1\n                /* \"#utility.yul\":3424:3436   */\n              revert\n                /* \"#utility.yul\":3448:3628   */\n            tag_135:\n                /* \"#utility.yul\":3496:3573   */\n              0x4e487b7100000000000000000000000000000000000000000000000000000000\n                /* \"#utility.yul\":3493:3494   */\n              0x00\n                /* \"#utility.yul\":3486:3574   */\n              mstore\n                /* \"#utility.yul\":3593:3597   */\n              0x41\n                /* \"#utility.yul\":3590:3591   */\n              0x04\n                /* \"#utility.yul\":3583:3598   */\n              mstore\n                /* \"#utility.yul\":3617:3621   */\n              0x24\n                /* \"#utility.yul\":3614:3615   */\n              0x00\n                /* \"#utility.yul\":3607:3622   */\n              revert\n                /* \"#utility.yul\":3634:3915   */\n            tag_136:\n                /* \"#utility.yul\":3717:3744   */\n              tag_194\n                /* \"#utility.yul\":3739:3743   */\n              dup3\n                /* \"#utility.yul\":3717:3744   */\n              tag_128\n              jump\t// in\n            tag_194:\n                /* \"#utility.yul\":3709:3715   */\n              dup2\n                /* \"#utility.yul\":3705:3745   */\n              add\n                /* \"#utility.yul\":3847:3853   */\n              dup2\n                /* \"#utility.yul\":3835:3845   */\n              dup2\n                /* \"#utility.yul\":3832:3854   */\n              lt\n                /* \"#utility.yul\":3811:3829   */\n              0xffffffffffffffff\n                /* \"#utility.yul\":3799:3809   */\n              dup3\n                /* \"#utility.yul\":3796:3830   */\n              gt\n                /* \"#utility.yul\":3793:3855   */\n              or\n                /* \"#utility.yul\":3790:3878   */\n              iszero\n              tag_195\n              jumpi\n                /* \"#utility.yul\":3858:3876   */\n              tag_196\n              tag_135\n              jump\t// in\n            tag_196:\n                /* \"#utility.yul\":3790:3878   */\n            tag_195:\n                /* \"#utility.yul\":3898:3908   */\n              dup1\n                /* \"#utility.yul\":3894:3896   */\n              0x40\n                /* \"#utility.yul\":3887:3909   */\n              mstore\n                /* \"#utility.yul\":3677:3915   */\n              pop\n                /* \"#utility.yul\":3634:3915   */\n              pop\n              pop\n              jump\t// out\n                /* \"#utility.yul\":3921:4050   */\n            tag_137:\n                /* \"#utility.yul\":3955:3961   */\n              0x00\n                /* \"#utility.yul\":3982:4002   */\n              tag_198\n              tag_119\n              jump\t// in\n            tag_198:\n                /* \"#utility.yul\":3972:4002   */\n              swap1\n              pop\n                /* \"#utility.yul\":4011:4044   */\n              tag_199\n                /* \"#utility.yul\":4039:4043   */\n              dup3\n                /* \"#utility.yul\":4031:4037   */\n              dup3\n                /* \"#utility.yul\":4011:4044   */\n              tag_136\n              jump\t// in\n            tag_199:\n                /* \"#utility.yul\":3921:4050   */\n              swap2\n              swap1\n              pop\n              jump\t// out\n                /* \"#utility.yul\":4056:4364   */\n            tag_138:\n                /* \"#utility.yul\":4118:4122   */\n              0x00\n                /* \"#utility.yul\":4208:4226   */\n              0xffffffffffffffff\n                /* \"#utility.yul\":4200:4206   */\n              dup3\n                /* \"#utility.yul\":4197:4227   */\n              gt\n                /* \"#utility.yul\":4194:4250   */\n              iszero\n              tag_201\n              jumpi\n                /* \"#utility.yul\":4230:4248   */\n              tag_202\n              tag_135\n              jump\t// in\n            tag_202:\n                /* \"#utility.yul\":4194:4250   */\n            tag_201:\n                /* \"#utility.yul\":4268:4297   */\n              tag_203\n                /* \"#utility.yul\":4290:4296   */\n              dup3\n                /* \"#utility.yul\":4268:4297   */\n              tag_128\n              jump\t// in\n            tag_203:\n                /* \"#utility.yul\":4260:4297   */\n              swap1\n              pop\n                /* \"#utility.yul\":4352:4356   */\n              0x20\n                /* \"#utility.yul\":4346:4350   */\n              dup2\n                /* \"#utility.yul\":4342:4357   */\n              add\n                /* \"#utility.yul\":4334:4357   */\n              swap1\n              pop\n                /* \"#utility.yul\":4056:4364   */\n              swap2\n              swap1\n              pop\n              jump\t// out\n                /* \"#utility.yul\":4370:4524   */\n            tag_139:\n                /* \"#utility.yul\":4454:4460   */\n              dup3\n                /* \"#utility.yul\":4449:4452   */\n              dup2\n                /* \"#utility.yul\":4444:4447   */\n              dup4\n                /* \"#utility.yul\":4431:4461   */\n              calldatacopy\n                /* \"#utility.yul\":4516:4517   */\n              0x00\n                /* \"#utility.yul\":4507:4513   */\n              dup4\n                /* \"#utility.yul\":4502:4505   */\n              dup4\n                /* \"#utility.yul\":4498:4514   */\n              add\n                /* \"#utility.yul\":4491:4518   */\n              mstore\n                /* \"#utility.yul\":4370:4524   */\n              pop\n              pop\n              pop\n              jump\t// out\n                /* \"#utility.yul\":4530:4942   */\n            tag_140:\n                /* \"#utility.yul\":4608:4613   */\n              0x00\n                /* \"#utility.yul\":4633:4699   */\n              tag_206\n                /* \"#utility.yul\":4649:4698   */\n              tag_207\n                /* \"#utility.yul\":4691:4697   */\n              dup5\n                /* \"#utility.yul\":4649:4698   */\n              tag_138\n              jump\t// in\n            tag_207:\n                /* \"#utility.yul\":4633:4699   */\n              tag_137\n              jump\t// in\n            tag_206:\n                /* \"#utility.yul\":4624:4699   */\n              swap1\n              pop\n                /* \"#utility.yul\":4722:4728   */\n              dup3\n                /* \"#utility.yul\":4715:4720   */\n              dup2\n                /* \"#utility.yul\":4708:4729   */\n              mstore\n                /* \"#utility.yul\":4760:4764   */\n              0x20\n                /* \"#utility.yul\":4753:4758   */\n              dup2\n                /* \"#utility.yul\":4749:4765   */\n              add\n                /* \"#utility.yul\":4798:4801   */\n              dup5\n                /* \"#utility.yul\":4789:4795   */\n              dup5\n                /* \"#utility.yul\":4784:4787   */\n              dup5\n                /* \"#utility.yul\":4780:4796   */\n              add\n                /* \"#utility.yul\":4777:4802   */\n              gt\n                /* \"#utility.yul\":4774:4886   */\n              iszero\n              tag_208\n              jumpi\n                /* \"#utility.yul\":4805:4884   */\n              tag_209\n              tag_134\n              jump\t// in\n            tag_209:\n                /* \"#utility.yul\":4774:4886   */\n            tag_208:\n                /* \"#utility.yul\":4895:4936   */\n              tag_210\n                /* \"#utility.yul\":4929:4935   */\n              dup5\n                /* \"#utility.yul\":4924:4927   */\n              dup3\n                /* \"#utility.yul\":4919:4922   */\n              dup6\n                /* \"#utility.yul\":4895:4936   */\n              tag_139\n              jump\t// in\n            tag_210:\n                /* \"#utility.yul\":4614:4942   */\n              pop\n                /* \"#utility.yul\":4530:4942   */\n              swap4\n              swap3\n              pop\n              pop\n              pop\n              jump\t// out\n                /* \"#utility.yul\":4962:5302   */\n            tag_141:\n                /* \"#utility.yul\":5018:5023   */\n              0x00\n                /* \"#utility.yul\":5067:5070   */\n              dup3\n                /* \"#utility.yul\":5060:5064   */\n              0x1f\n                /* \"#utility.yul\":5052:5058   */\n              dup4\n                /* \"#utility.yul\":5048:5065   */\n              add\n                /* \"#utility.yul\":5044:5071   */\n              slt\n                /* \"#utility.yul\":5034:5156   */\n              tag_212\n              jumpi\n                /* \"#utility.yul\":5075:5154   */\n              tag_213\n              tag_133\n              jump\t// in\n            tag_213:\n                /* \"#utility.yul\":5034:5156   */\n            tag_212:\n                /* \"#utility.yul\":5192:5198   */\n              dup2\n                /* \"#utility.yul\":5179:5199   */\n              calldataload\n                /* \"#utility.yul\":5217:5296   */\n              tag_214\n                /* \"#utility.yul\":5292:5295   */\n              dup5\n                /* \"#utility.yul\":5284:5290   */\n              dup3\n                /* \"#utility.yul\":5277:5281   */\n              0x20\n                /* \"#utility.yul\":5269:5275   */\n              dup7\n                /* \"#utility.yul\":5265:5282   */\n              add\n                /* \"#utility.yul\":5217:5296   */\n              tag_140\n              jump\t// in\n            tag_214:\n                /* \"#utility.yul\":5208:5296   */\n              swap2\n              pop\n                /* \"#utility.yul\":5024:5302   */\n              pop\n                /* \"#utility.yul\":4962:5302   */\n              swap3\n              swap2\n              pop\n              pop\n              jump\t// out\n                /* \"#utility.yul\":5308:6142   */\n            tag_24:\n                /* \"#utility.yul\":5396:5402   */\n              0x00\n                /* \"#utility.yul\":5404:5410   */\n              dup1\n                /* \"#utility.yul\":5453:5455   */\n              0x40\n                /* \"#utility.yul\":5441:5450   */\n              dup4\n                /* \"#utility.yul\":5432:5439   */\n              dup6\n                /* \"#utility.yul\":5428:5451   */\n              sub\n                /* \"#utility.yul\":5424:5456   */\n              slt\n                /* \"#utility.yul\":5421:5540   */\n              iszero\n              tag_216\n              jumpi\n                /* \"#utility.yul\":5459:5538   */\n              tag_217\n              tag_120\n              jump\t// in\n            tag_217:\n                /* \"#utility.yul\":5421:5540   */\n            tag_216:\n                /* \"#utility.yul\":5607:5608   */\n              0x00\n                /* \"#utility.yul\":5596:5605   */\n              dup4\n                /* \"#utility.yul\":5592:5609   */\n              add\n                /* \"#utility.yul\":5579:5610   */\n              calldataload\n                /* \"#utility.yul\":5637:5655   */\n              0xffffffffffffffff\n                /* \"#utility.yul\":5629:5635   */\n              dup2\n                /* \"#utility.yul\":5626:5656   */\n              gt\n                /* \"#utility.yul\":5623:5740   */\n              iszero\n              tag_218\n              jumpi\n                /* \"#utility.yul\":5659:5738   */\n              tag_219\n              tag_121\n              jump\t// in\n            tag_219:\n                /* \"#utility.yul\":5623:5740   */\n            tag_218:\n                /* \"#utility.yul\":5764:5827   */\n              tag_220\n                /* \"#utility.yul\":5819:5826   */\n              dup6\n                /* \"#utility.yul\":5810:5816   */\n              dup3\n                /* \"#utility.yul\":5799:5808   */\n              dup7\n                /* \"#utility.yul\":5795:5817   */\n              add\n                /* \"#utility.yul\":5764:5827   */\n              tag_141\n              jump\t// in\n            tag_220:\n                /* \"#utility.yul\":5754:5827   */\n              swap3\n              pop\n                /* \"#utility.yul\":5550:5837   */\n              pop\n                /* \"#utility.yul\":5904:5906   */\n              0x20\n                /* \"#utility.yul\":5893:5902   */\n              dup4\n                /* \"#utility.yul\":5889:5907   */\n              add\n                /* \"#utility.yul\":5876:5908   */\n              calldataload\n                /* \"#utility.yul\":5935:5953   */\n              0xffffffffffffffff\n                /* \"#utility.yul\":5927:5933   */\n              dup2\n                /* \"#utility.yul\":5924:5954   */\n              gt\n                /* \"#utility.yul\":5921:6038   */\n              iszero\n              tag_221\n              jumpi\n                /* \"#utility.yul\":5957:6036   */\n              tag_222\n              tag_121\n              jump\t// in\n            tag_222:\n                /* \"#utility.yul\":5921:6038   */\n            tag_221:\n                /* \"#utility.yul\":6062:6125   */\n              tag_223\n                /* \"#utility.yul\":6117:6124   */\n              dup6\n                /* \"#utility.yul\":6108:6114   */\n              dup3\n                /* \"#utility.yul\":6097:6106   */\n              dup7\n                /* \"#utility.yul\":6093:6115   */\n              add\n                /* \"#utility.yul\":6062:6125   */\n              tag_141\n              jump\t// in\n            tag_223:\n                /* \"#utility.yul\":6052:6125   */\n              swap2\n              pop\n                /* \"#utility.yul\":5847:6135   */\n              pop\n                /* \"#utility.yul\":5308:6142   */\n              swap3\n              pop\n              swap3\n              swap1\n              pop\n              jump\t// out\n                /* \"#utility.yul\":6148:6461   */\n            tag_29:\n                /* \"#utility.yul\":6261:6265   */\n              0x00\n                /* \"#utility.yul\":6299:6301   */\n              0x20\n                /* \"#utility.yul\":6288:6297   */\n              dup3\n                /* \"#utility.yul\":6284:6302   */\n              add\n                /* \"#utility.yul\":6276:6302   */\n              swap1\n              pop\n                /* \"#utility.yul\":6348:6357   */\n              dup2\n                /* \"#utility.yul\":6342:6346   */\n              dup2\n                /* \"#utility.yul\":6338:6358   */\n              sub\n                /* \"#utility.yul\":6334:6335   */\n              0x00\n                /* \"#utility.yul\":6323:6332   */\n              dup4\n                /* \"#utility.yul\":6319:6336   */\n              add\n                /* \"#utility.yul\":6312:6359   */\n              mstore\n                /* \"#utility.yul\":6376:6454   */\n              tag_225\n                /* \"#utility.yul\":6449:6453   */\n              dup2\n                /* \"#utility.yul\":6440:6446   */\n              dup5\n                /* \"#utility.yul\":6376:6454   */\n              tag_129\n              jump\t// in\n            tag_225:\n                /* \"#utility.yul\":6368:6454   */\n              swap1\n              pop\n                /* \"#utility.yul\":6148:6461   */\n              swap3\n              swap2\n              pop\n              pop\n              jump\t// out\n                /* \"#utility.yul\":6467:6581   */\n            tag_142:\n                /* \"#utility.yul\":6534:6540   */\n              0x00\n                /* \"#utility.yul\":6568:6573   */\n              dup2\n                /* \"#utility.yul\":6562:6574   */\n              mload\n                /* \"#utility.yul\":6552:6574   */\n              swap1\n              pop\n                /* \"#utility.yul\":6467:6581   */\n              swap2\n              swap1\n              pop\n              jump\t// out\n                /* \"#utility.yul\":6587:6771   */\n            tag_143:\n                /* \"#utility.yul\":6686:6697   */\n              0x00\n                /* \"#utility.yul\":6720:6726   */\n              dup3\n                /* \"#utility.yul\":6715:6718   */\n              dup3\n                /* \"#utility.yul\":6708:6727   */\n              mstore\n                /* \"#utility.yul\":6760:6764   */\n              0x20\n                /* \"#utility.yul\":6755:6758   */\n              dup3\n                /* \"#utility.yul\":6751:6765   */\n              add\n                /* \"#utility.yul\":6736:6765   */\n              swap1\n              pop\n                /* \"#utility.yul\":6587:6771   */\n              swap3\n              swap2\n              pop\n              pop\n              jump\t// out\n                /* \"#utility.yul\":6777:6909   */\n            tag_144:\n                /* \"#utility.yul\":6844:6848   */\n              0x00\n                /* \"#utility.yul\":6867:6870   */\n              dup2\n                /* \"#utility.yul\":6859:6870   */\n              swap1\n              pop\n                /* \"#utility.yul\":6897:6901   */\n              0x20\n                /* \"#utility.yul\":6892:6895   */\n              dup3\n                /* \"#utility.yul\":6888:6902   */\n              add\n                /* \"#utility.yul\":6880:6902   */\n              swap1\n              pop\n                /* \"#utility.yul\":6777:6909   */\n              swap2\n              swap1\n              pop\n              jump\t// out\n                /* \"#utility.yul\":6915:7023   */\n            tag_145:\n                /* \"#utility.yul\":6992:7016   */\n              tag_230\n                /* \"#utility.yul\":7010:7015   */\n              dup2\n                /* \"#utility.yul\":6992:7016   */\n              tag_131\n              jump\t// in\n            tag_230:\n                /* \"#utility.yul\":6987:6990   */\n              dup3\n                /* \"#utility.yul\":6980:7017   */\n              mstore\n                /* \"#utility.yul\":6915:7023   */\n              pop\n              pop\n              jump\t// out\n                /* \"#utility.yul\":7029:7208   */\n            tag_146:\n                /* \"#utility.yul\":7098:7108   */\n              0x00\n                /* \"#utility.yul\":7119:7165   */\n              tag_232\n                /* \"#utility.yul\":7161:7164   */\n              dup4\n                /* \"#utility.yul\":7153:7159   */\n              dup4\n                /* \"#utility.yul\":7119:7165   */\n              tag_145\n              jump\t// in\n            tag_232:\n                /* \"#utility.yul\":7197:7201   */\n              0x20\n                /* \"#utility.yul\":7192:7195   */\n              dup4\n                /* \"#utility.yul\":7188:7202   */\n              add\n                /* \"#utility.yul\":7174:7202   */\n              swap1\n              pop\n                /* \"#utility.yul\":7029:7208   */\n              swap3\n              swap2\n              pop\n              pop\n              jump\t// out\n                /* \"#utility.yul\":7214:7327   */\n            tag_147:\n                /* \"#utility.yul\":7284:7288   */\n              0x00\n                /* \"#utility.yul\":7316:7320   */\n              0x20\n                /* \"#utility.yul\":7311:7314   */\n              dup3\n                /* \"#utility.yul\":7307:7321   */\n              add\n                /* \"#utility.yul\":7299:7321   */\n              swap1\n              pop\n                /* \"#utility.yul\":7214:7327   */\n              swap2\n              swap1\n              pop\n              jump\t// out\n                /* \"#utility.yul\":7363:8095   */\n            tag_148:\n                /* \"#utility.yul\":7482:7485   */\n              0x00\n                /* \"#utility.yul\":7511:7565   */\n              tag_235\n                /* \"#utility.yul\":7559:7564   */\n              dup3\n                /* \"#utility.yul\":7511:7565   */\n              tag_142\n              jump\t// in\n            tag_235:\n                /* \"#utility.yul\":7581:7667   */\n              tag_236\n                /* \"#utility.yul\":7660:7666   */\n              dup2\n                /* \"#utility.yul\":7655:7658   */\n              dup6\n                /* \"#utility.yul\":7581:7667   */\n              tag_143\n              jump\t// in\n            tag_236:\n                /* \"#utility.yul\":7574:7667   */\n              swap4\n              pop\n                /* \"#utility.yul\":7691:7747   */\n              tag_237\n                /* \"#utility.yul\":7741:7746   */\n              dup4\n                /* \"#utility.yul\":7691:7747   */\n              tag_144\n              jump\t// in\n            tag_237:\n                /* \"#utility.yul\":7770:7777   */\n              dup1\n                /* \"#utility.yul\":7801:7802   */\n              0x00\n                /* \"#utility.yul\":7786:8070   */\n            tag_238:\n                /* \"#utility.yul\":7811:7817   */\n              dup4\n                /* \"#utility.yul\":7808:7809   */\n              dup2\n                /* \"#utility.yul\":7805:7818   */\n              lt\n                /* \"#utility.yul\":7786:8070   */\n              iszero\n              tag_240\n              jumpi\n                /* \"#utility.yul\":7887:7893   */\n              dup2\n                /* \"#utility.yul\":7881:7894   */\n              mload\n                /* \"#utility.yul\":7914:7977   */\n              tag_241\n                /* \"#utility.yul\":7973:7976   */\n              dup9\n                /* \"#utility.yul\":7958:7971   */\n              dup3\n                /* \"#utility.yul\":7914:7977   */\n              tag_146\n              jump\t// in\n            tag_241:\n                /* \"#utility.yul\":7907:7977   */\n              swap8\n              pop\n                /* \"#utility.yul\":8000:8060   */\n              tag_242\n                /* \"#utility.yul\":8053:8059   */\n              dup4\n                /* \"#utility.yul\":8000:8060   */\n              tag_147\n              jump\t// in\n            tag_242:\n                /* \"#utility.yul\":7990:8060   */\n              swap3\n              pop\n                /* \"#utility.yul\":7846:8070   */\n              pop\n                /* \"#utility.yul\":7833:7834   */\n              0x01\n                /* \"#utility.yul\":7830:7831   */\n              dup2\n                /* \"#utility.yul\":7826:7835   */\n              add\n                /* \"#utility.yul\":7821:7835   */\n              swap1\n              pop\n                /* \"#utility.yul\":7786:8070   */\n              jump(tag_238)\n            tag_240:\n                /* \"#utility.yul\":7790:7804   */\n              pop\n                /* \"#utility.yul\":8086:8089   */\n              dup6\n                /* \"#utility.yul\":8079:8089   */\n              swap4\n              pop\n                /* \"#utility.yul\":7487:8095   */\n              pop\n              pop\n              pop\n                /* \"#utility.yul\":7363:8095   */\n              swap3\n              swap2\n              pop\n              pop\n              jump\t// out\n                /* \"#utility.yul\":8101:8474   */\n            tag_33:\n                /* \"#utility.yul\":8244:8248   */\n              0x00\n                /* \"#utility.yul\":8282:8284   */\n              0x20\n                /* \"#utility.yul\":8271:8280   */\n              dup3\n                /* \"#utility.yul\":8267:8285   */\n              add\n                /* \"#utility.yul\":8259:8285   */\n              swap1\n              pop\n                /* \"#utility.yul\":8331:8340   */\n              dup2\n                /* \"#utility.yul\":8325:8329   */\n              dup2\n                /* \"#utility.yul\":8321:8341   */\n              sub\n                /* \"#utility.yul\":8317:8318   */\n              0x00\n                /* \"#utility.yul\":8306:8315   */\n              dup4\n                /* \"#utility.yul\":8302:8319   */\n              add\n                /* \"#utility.yul\":8295:8342   */\n              mstore\n                /* \"#utility.yul\":8359:8467   */\n              tag_244\n                /* \"#utility.yul\":8462:8466   */\n              dup2\n                /* \"#utility.yul\":8453:8459   */\n              dup5\n                /* \"#utility.yul\":8359:8467   */\n              tag_148\n              jump\t// in\n            tag_244:\n                /* \"#utility.yul\":8351:8467   */\n              swap1\n              pop\n                /* \"#utility.yul\":8101:8474   */\n              swap3\n              swap2\n              pop\n              pop\n              jump\t// out\n                /* \"#utility.yul\":8480:8602   */\n            tag_149:\n                /* \"#utility.yul\":8553:8577   */\n              tag_246\n                /* \"#utility.yul\":8571:8576   */\n              dup2\n                /* \"#utility.yul\":8553:8577   */\n              tag_131\n              jump\t// in\n            tag_246:\n                /* \"#utility.yul\":8546:8551   */\n              dup2\n                /* \"#utility.yul\":8543:8578   */\n              eq\n                /* \"#utility.yul\":8533:8596   */\n              tag_247\n              jumpi\n                /* \"#utility.yul\":8592:8593   */\n              0x00\n                /* \"#utility.yul\":8589:8590   */\n              dup1\n                /* \"#utility.yul\":8582:8594   */\n              revert\n                /* \"#utility.yul\":8533:8596   */\n            tag_247:\n                /* \"#utility.yul\":8480:8602   */\n              pop\n              jump\t// out\n                /* \"#utility.yul\":8608:8747   */\n            tag_150:\n                /* \"#utility.yul\":8654:8659   */\n              0x00\n                /* \"#utility.yul\":8692:8698   */\n              dup2\n                /* \"#utility.yul\":8679:8699   */\n              calldataload\n                /* \"#utility.yul\":8670:8699   */\n              swap1\n              pop\n                /* \"#utility.yul\":8708:8741   */\n              tag_249\n                /* \"#utility.yul\":8735:8740   */\n              dup2\n                /* \"#utility.yul\":8708:8741   */\n              tag_149\n              jump\t// in\n            tag_249:\n                /* \"#utility.yul\":8608:8747   */\n              swap3\n              swap2\n              pop\n              pop\n              jump\t// out\n                /* \"#utility.yul\":8753:9082   */\n            tag_39:\n                /* \"#utility.yul\":8812:8818   */\n              0x00\n                /* \"#utility.yul\":8861:8863   */\n              0x20\n                /* \"#utility.yul\":8849:8858   */\n              dup3\n                /* \"#utility.yul\":8840:8847   */\n              dup5\n                /* \"#utility.yul\":8836:8859   */\n              sub\n                /* \"#utility.yul\":8832:8864   */\n              slt\n                /* \"#utility.yul\":8829:8948   */\n              iszero\n              tag_251\n              jumpi\n                /* \"#utility.yul\":8867:8946   */\n              tag_252\n              tag_120\n              jump\t// in\n            tag_252:\n                /* \"#utility.yul\":8829:8948   */\n            tag_251:\n                /* \"#utility.yul\":8987:8988   */\n              0x00\n                /* \"#utility.yul\":9012:9065   */\n              tag_253\n                /* \"#utility.yul\":9057:9064   */\n              dup5\n                /* \"#utility.yul\":9048:9054   */\n              dup3\n                /* \"#utility.yul\":9037:9046   */\n              dup6\n                /* \"#utility.yul\":9033:9055   */\n              add\n                /* \"#utility.yul\":9012:9065   */\n              tag_150\n              jump\t// in\n            tag_253:\n                /* \"#utility.yul\":9002:9065   */\n              swap2\n              pop\n                /* \"#utility.yul\":8958:9075   */\n              pop\n                /* \"#utility.yul\":8753:9082   */\n              swap3\n              swap2\n              pop\n              pop\n              jump\t// out\n                /* \"#utility.yul\":9088:9268   */\n            tag_151:\n                /* \"#utility.yul\":9136:9213   */\n              0x4e487b7100000000000000000000000000000000000000000000000000000000\n                /* \"#utility.yul\":9133:9134   */\n              0x00\n                /* \"#utility.yul\":9126:9214   */\n              mstore\n                /* \"#utility.yul\":9233:9237   */\n              0x22\n                /* \"#utility.yul\":9230:9231   */\n              0x04\n                /* \"#utility.yul\":9223:9238   */\n              mstore\n                /* \"#utility.yul\":9257:9261   */\n              0x24\n                /* \"#utility.yul\":9254:9255   */\n              0x00\n                /* \"#utility.yul\":9247:9262   */\n              revert\n                /* \"#utility.yul\":9274:9594   */\n            tag_44:\n                /* \"#utility.yul\":9318:9324   */\n              0x00\n                /* \"#utility.yul\":9355:9356   */\n              0x02\n                /* \"#utility.yul\":9349:9353   */\n              dup3\n                /* \"#utility.yul\":9345:9357   */\n              div\n                /* \"#utility.yul\":9335:9357   */\n              swap1\n              pop\n                /* \"#utility.yul\":9402:9403   */\n              0x01\n                /* \"#utility.yul\":9396:9400   */\n              dup3\n                /* \"#utility.yul\":9392:9404   */\n              and\n                /* \"#utility.yul\":9423:9441   */\n              dup1\n                /* \"#utility.yul\":9413:9494   */\n              tag_256\n              jumpi\n                /* \"#utility.yul\":9479:9483   */\n              0x7f\n                /* \"#utility.yul\":9471:9477   */\n              dup3\n                /* \"#utility.yul\":9467:9484   */\n              and\n                /* \"#utility.yul\":9457:9484   */\n              swap2\n              pop\n                /* \"#utility.yul\":9413:9494   */\n            tag_256:\n                /* \"#utility.yul\":9541:9543   */\n              0x20\n                /* \"#utility.yul\":9533:9539   */\n              dup3\n                /* \"#utility.yul\":9530:9544   */\n              lt\n                /* \"#utility.yul\":9510:9528   */\n              dup2\n                /* \"#utility.yul\":9507:9545   */\n              sub\n                /* \"#utility.yul\":9504:9588   */\n              tag_257\n              jumpi\n                /* \"#utility.yul\":9560:9578   */\n              tag_258\n              tag_151\n              jump\t// in\n            tag_258:\n                /* \"#utility.yul\":9504:9588   */\n            tag_257:\n                /* \"#utility.yul\":9325:9594   */\n              pop\n                /* \"#utility.yul\":9274:9594   */\n              swap2\n              swap1\n              pop\n              jump\t// out\n                /* \"#utility.yul\":9600:9780   */\n            tag_92:\n                /* \"#utility.yul\":9648:9725   */\n              0x4e487b7100000000000000000000000000000000000000000000000000000000\n                /* \"#utility.yul\":9645:9646   */\n              0x00\n                /* \"#utility.yul\":9638:9726   */\n              mstore\n                /* \"#utility.yul\":9745:9749   */\n              0x32\n                /* \"#utility.yul\":9742:9743   */\n              0x04\n                /* \"#utility.yul\":9735:9750   */\n              mstore\n                /* \"#utility.yul\":9769:9773   */\n              0x24\n                /* \"#utility.yul\":9766:9767   */\n              0x00\n                /* \"#utility.yul\":9759:9774   */\n              revert\n                /* \"#utility.yul\":9786:9966   */\n            tag_152:\n                /* \"#utility.yul\":9834:9911   */\n              0x4e487b7100000000000000000000000000000000000000000000000000000000\n                /* \"#utility.yul\":9831:9832   */\n              0x00\n                /* \"#utility.yul\":9824:9912   */\n              mstore\n                /* \"#utility.yul\":9931:9935   */\n              0x11\n                /* \"#utility.yul\":9928:9929   */\n              0x04\n                /* \"#utility.yul\":9921:9936   */\n              mstore\n                /* \"#utility.yul\":9955:9959   */\n              0x24\n                /* \"#utility.yul\":9952:9953   */\n              0x00\n                /* \"#utility.yul\":9945:9960   */\n              revert\n                /* \"#utility.yul\":9972:10163   */\n            tag_96:\n                /* \"#utility.yul\":10012:10016   */\n              0x00\n                /* \"#utility.yul\":10032:10052   */\n              tag_262\n                /* \"#utility.yul\":10050:10051   */\n              dup3\n                /* \"#utility.yul\":10032:10052   */\n              tag_122\n              jump\t// in\n            tag_262:\n                /* \"#utility.yul\":10027:10052   */\n              swap2\n              pop\n                /* \"#utility.yul\":10066:10086   */\n              tag_263\n                /* \"#utility.yul\":10084:10085   */\n              dup4\n                /* \"#utility.yul\":10066:10086   */\n              tag_122\n              jump\t// in\n            tag_263:\n                /* \"#utility.yul\":10061:10086   */\n              swap3\n              pop\n                /* \"#utility.yul\":10105:10106   */\n              dup3\n                /* \"#utility.yul\":10102:10103   */\n              dup3\n                /* \"#utility.yul\":10099:10107   */\n              lt\n                /* \"#utility.yul\":10096:10130   */\n              iszero\n              tag_264\n              jumpi\n                /* \"#utility.yul\":10110:10128   */\n              tag_265\n              tag_152\n              jump\t// in\n            tag_265:\n                /* \"#utility.yul\":10096:10130   */\n            tag_264:\n                /* \"#utility.yul\":10155:10156   */\n              dup3\n                /* \"#utility.yul\":10152:10153   */\n              dup3\n                /* \"#utility.yul\":10148:10157   */\n              sub\n                /* \"#utility.yul\":10140:10157   */\n              swap1\n              pop\n                /* \"#utility.yul\":9972:10163   */\n              swap3\n              swap2\n              pop\n              pop\n              jump\t// out\n                /* \"#utility.yul\":10169:10349   */\n            tag_105:\n                /* \"#utility.yul\":10217:10294   */\n              0x4e487b7100000000000000000000000000000000000000000000000000000000\n                /* \"#utility.yul\":10214:10215   */\n              0x00\n                /* \"#utility.yul\":10207:10295   */\n              mstore\n                /* \"#utility.yul\":10314:10318   */\n              0x31\n                /* \"#utility.yul\":10311:10312   */\n              0x04\n                /* \"#utility.yul\":10304:10319   */\n              mstore\n                /* \"#utility.yul\":10338:10342   */\n              0x24\n                /* \"#utility.yul\":10335:10336   */\n              0x00\n                /* \"#utility.yul\":10328:10343   */\n              revert\n                /* \"#utility.yul\":10355:10588   */\n            tag_108:\n                /* \"#utility.yul\":10394:10397   */\n              0x00\n                /* \"#utility.yul\":10417:10441   */\n              tag_268\n                /* \"#utility.yul\":10435:10440   */\n              dup3\n                /* \"#utility.yul\":10417:10441   */\n              tag_122\n              jump\t// in\n            tag_268:\n                /* \"#utility.yul\":10408:10441   */\n              swap2\n              pop\n                /* \"#utility.yul\":10463:10529   */\n              0xffffffffffffffffffffffffffffffffffffffffffffffffffffffffffffffff\n                /* \"#utility.yul\":10456:10461   */\n              dup3\n                /* \"#utility.yul\":10453:10530   */\n              sub\n                /* \"#utility.yul\":10450:10553   */\n              tag_269\n              jumpi\n                /* \"#utility.yul\":10533:10551   */\n              tag_270\n              tag_152\n              jump\t// in\n            tag_270:\n                /* \"#utility.yul\":10450:10553   */\n            tag_269:\n                /* \"#utility.yul\":10580:10581   */\n              0x01\n                /* \"#utility.yul\":10573:10578   */\n              dup3\n                /* \"#utility.yul\":10569:10582   */\n              add\n                /* \"#utility.yul\":10562:10582   */\n              swap1\n              pop\n                /* \"#utility.yul\":10355:10588   */\n              swap2\n              swap1\n              pop\n              jump\t// out\n\n            auxdata: 0xa26469706673582212201adb8df45a0e497ba17430c5283a7582e8ac3aa2495aacb09926eb1a87f90cbd64736f6c634300080d0033\n        }\n    }\n\n    auxdata: 0xa26469706673582212208b4b31aeeed48866b02f35ab1dd80534a76cc4a48dc2d02166a76cf9edba7c8364736f6c634300080d0033\n}\n",
    "bytecode": {
      "linkReferences": {},
      "object": "608060405234801561001057600080fd5b5061212c806100206000396000f3fe60806040523480156200001157600080fd5b50600436106200005e5760003560e01c80631cea013a14620000635780631e3bb6ae146200009957806342b6759514620000b95780639b3e278714620000d9578063dfc9f2ea146200010f575b600080fd5b6200008160048036038101906200007b9190620007a7565b62000145565b604051620000909190620008a7565b60405180910390f35b620000b76004803603810190620000b19190620008cb565b62000213565b005b620000d76004803603810190620000d1919062000a74565b62000475565b005b620000f76004803603810190620000f1919062000b49565b62000555565b60405162000106919062000ba1565b60405180910390f35b6200012d6004803603810190620001279190620007a7565b620005a4565b6040516200013c9190620008a7565b60405180910390f35b60606000808373ffffffffffffffffffffffffffffffffffffffff1673ffffffffffffffffffffffffffffffffffffffff1681526020019081526020016000208054806020026020016040519081016040528092919081815260200182805480156200020757602002820191906000526020600020905b8160009054906101000a900473ffffffffffffffffffffffffffffffffffffffff1673ffffffffffffffffffffffffffffffffffffffff1681526020019060010190808311620001bc575b50505050509050919050565b60008060008473ffffffffffffffffffffffffffffffffffffffff1673ffffffffffffffffffffffffffffffffffffffff168152602001908152602001600020805480602002602001604051908101604052809291908181526020018280548015620002d557602002820191906000526020600020905b8160009054906101000a900473ffffffffffffffffffffffffffffffffffffffff1673ffffffffffffffffffffffffffffffffffffffff16815260200190600101908083116200028a575b5050505050905060005b81518110156200041a578273ffffffffffffffffffffffffffffffffffffffff1682828151811062000316576200031562000bbe565b5b602002602001015173ffffffffffffffffffffffffffffffffffffffff1603620004045781600183516200034b919062000c1c565b815181106200035f576200035e62000bbe565b5b60200260200101518282815181106200037d576200037c62000bbe565b5b602002602001019073ffffffffffffffffffffffffffffffffffffffff16908173ffffffffffffffffffffffffffffffffffffffff16815250508160018351620003c8919062000c1c565b81518110620003dc57620003db62000bbe565b5b60200260200101600073ffffffffffffffffffffffffffffffffffffffff168152506200041a565b8080620004119062000c57565b915050620002df565b50806000808573ffffffffffffffffffffffffffffffffffffffff1673ffffffffffffffffffffffffffffffffffffffff16815260200190815260200160002090805190602001906200046f92919062000672565b50505050565b6000808373ffffffffffffffffffffffffffffffffffffffff1673ffffffffffffffffffffffffffffffffffffffff168152602001908152602001600020838383604051620004c49062000701565b620004d29392919062000d37565b604051809103906000f080158015620004ef573d6000803e3d6000fd5b509080600181540180825580915050600190039060005260206000200160009091909190916101000a81548173ffffffffffffffffffffffffffffffffffffffff021916908373ffffffffffffffffffffffffffffffffffffffff160217905550505050565b600060205281600052604060002081815481106200057257600080fd5b906000526020600020016000915091509054906101000a900473ffffffffffffffffffffffffffffffffffffffff1681565b60606000808373ffffffffffffffffffffffffffffffffffffffff1673ffffffffffffffffffffffffffffffffffffffff1681526020019081526020016000208054806020026020016040519081016040528092919081815260200182805480156200066657602002820191906000526020600020905b8160009054906101000a900473ffffffffffffffffffffffffffffffffffffffff1673ffffffffffffffffffffffffffffffffffffffff16815260200190600101908083116200061b575b50505050509050919050565b828054828255906000526020600020908101928215620006ee579160200282015b82811115620006ed5782518260006101000a81548173ffffffffffffffffffffffffffffffffffffffff021916908373ffffffffffffffffffffffffffffffffffffffff1602179055509160200191906001019062000693565b5b509050620006fd91906200070f565b5090565b6113748062000d8383390190565b5b808211156200072a57600081600090555060010162000710565b5090565b6000604051905090565b600080fd5b600080fd5b600073ffffffffffffffffffffffffffffffffffffffff82169050919050565b60006200076f8262000742565b9050919050565b620007818162000762565b81146200078d57600080fd5b50565b600081359050620007a18162000776565b92915050565b600060208284031215620007c057620007bf62000738565b5b6000620007d08482850162000790565b91505092915050565b600081519050919050565b600082825260208201905092915050565b6000819050602082019050919050565b620008108162000762565b82525050565b600062000824838362000805565b60208301905092915050565b6000602082019050919050565b60006200084a82620007d9565b620008568185620007e4565b93506200086383620007f5565b8060005b838110156200089a5781516200087e888262000816565b97506200088b8362000830565b92505060018101905062000867565b5085935050505092915050565b60006020820190508181036000830152620008c381846200083d565b905092915050565b60008060408385031215620008e557620008e462000738565b5b6000620008f58582860162000790565b9250506020620009088582860162000790565b9150509250929050565b600080fd5b600080fd5b6000601f19601f8301169050919050565b7f4e487b7100000000000000000000000000000000000000000000000000000000600052604160045260246000fd5b62000967826200091c565b810181811067ffffffffffffffff821117156200098957620009886200092d565b5b80604052505050565b60006200099e6200072e565b9050620009ac82826200095c565b919050565b600067ffffffffffffffff821115620009cf57620009ce6200092d565b5b620009da826200091c565b9050602081019050919050565b82818337600083830152505050565b600062000a0d62000a0784620009b1565b62000992565b90508281526020810184848401111562000a2c5762000a2b62000917565b5b62000a39848285620009e7565b509392505050565b600082601f83011262000a595762000a5862000912565b5b813562000a6b848260208601620009f6565b91505092915050565b60008060006060848603121562000a905762000a8f62000738565b5b600084013567ffffffffffffffff81111562000ab15762000ab06200073d565b5b62000abf8682870162000a41565b935050602062000ad28682870162000790565b925050604084013567ffffffffffffffff81111562000af65762000af56200073d565b5b62000b048682870162000a41565b9150509250925092565b6000819050919050565b62000b238162000b0e565b811462000b2f57600080fd5b50565b60008135905062000b438162000b18565b92915050565b6000806040838503121562000b635762000b6262000738565b5b600062000b738582860162000790565b925050602062000b868582860162000b32565b9150509250929050565b62000b9b8162000762565b82525050565b600060208201905062000bb8600083018462000b90565b92915050565b7f4e487b7100000000000000000000000000000000000000000000000000000000600052603260045260246000fd5b7f4e487b7100000000000000000000000000000000000000000000000000000000600052601160045260246000fd5b600062000c298262000b0e565b915062000c368362000b0e565b92508282101562000c4c5762000c4b62000bed565b5b828203905092915050565b600062000c648262000b0e565b91507fffffffffffffffffffffffffffffffffffffffffffffffffffffffffffffffff820362000c995762000c9862000bed565b5b600182019050919050565b600081519050919050565b600082825260208201905092915050565b60005b8381101562000ce057808201518184015260208101905062000cc3565b8381111562000cf0576000848401525b50505050565b600062000d038262000ca4565b62000d0f818562000caf565b935062000d2181856020860162000cc0565b62000d2c816200091c565b840191505092915050565b6000606082019050818103600083015262000d53818662000cf6565b905062000d64602083018562000b90565b818103604083015262000d78818462000cf6565b905094935050505056fe60806040523480156200001157600080fd5b506040516200137438038062001374833981810160405281019062000037919062000387565b82600090805190602001906200004f929190620000d5565b506001829080600181540180825580915050600190039060005260206000200160009091909190916101000a81548173ffffffffffffffffffffffffffffffffffffffff021916908373ffffffffffffffffffffffffffffffffffffffff1602179055508060029080519060200190620000cb929190620000d5565b5050505062000485565b828054620000e39062000450565b90600052602060002090601f01602090048101928262000107576000855562000153565b82601f106200012257805160ff191683800117855562000153565b8280016001018555821562000153579182015b828111156200015257825182559160200191906001019062000135565b5b50905062000162919062000166565b5090565b5b808211156200018157600081600090555060010162000167565b5090565b6000604051905090565b600080fd5b600080fd5b600080fd5b600080fd5b6000601f19601f8301169050919050565b7f4e487b7100000000000000000000000000000000000000000000000000000000600052604160045260246000fd5b620001ee82620001a3565b810181811067ffffffffffffffff8211171562000210576200020f620001b4565b5b80604052505050565b60006200022562000185565b9050620002338282620001e3565b919050565b600067ffffffffffffffff821115620002565762000255620001b4565b5b6200026182620001a3565b9050602081019050919050565b60005b838110156200028e57808201518184015260208101905062000271565b838111156200029e576000848401525b50505050565b6000620002bb620002b58462000238565b62000219565b905082815260208101848484011115620002da57620002d96200019e565b5b620002e78482856200026e565b509392505050565b600082601f83011262000307576200030662000199565b5b815162000319848260208601620002a4565b91505092915050565b600073ffffffffffffffffffffffffffffffffffffffff82169050919050565b60006200034f8262000322565b9050919050565b620003618162000342565b81146200036d57600080fd5b50565b600081519050620003818162000356565b92915050565b600080600060608486031215620003a357620003a26200018f565b5b600084015167ffffffffffffffff811115620003c457620003c362000194565b5b620003d286828701620002ef565b9350506020620003e58682870162000370565b925050604084015167ffffffffffffffff81111562000409576200040862000194565b5b6200041786828701620002ef565b9150509250925092565b7f4e487b7100000000000000000000000000000000000000000000000000000000600052602260045260246000fd5b600060028204905060018216806200046957607f821691505b6020821081036200047f576200047e62000421565b5b50919050565b610edf80620004956000396000f3fe608060405234801561001057600080fd5b506004361061007d5760003560e01c80636b4656011161005b5780636b465601146100ff578063a0e67e2b1461011d578063c623674f1461013b578063cd5c4c70146101595761007d565b80630ef486d1146100825780630f310b17146100b35780634d300e0c146100e3575b600080fd5b61009c600480360381019061009791906108df565b610175565b6040516100aa9291906109a5565b60405180910390f35b6100cd60048036038101906100c891906108df565b6102b9565b6040516100da9190610a1d565b60405180910390f35b6100fd60048036038101906100f89190610b6d565b6102f8565b005b6101076104ba565b6040516101149190610be5565b60405180910390f35b610125610548565b6040516101329190610cc5565b60405180910390f35b6101436105d6565b6040516101509190610be5565b60405180910390f35b610173600480360381019061016e9190610d13565b610664565b005b6003818154811061018557600080fd5b90600052602060002090600202016000915090508060000180546101a890610d6f565b80601f01602080910402602001604051908101604052809291908181526020018280546101d490610d6f565b80156102215780601f106101f657610100808354040283529160200191610221565b820191906000526020600020905b81548152906001019060200180831161020457829003601f168201915b50505050509080600101805461023690610d6f565b80601f016020809104026020016040519081016040528092919081815260200182805461026290610d6f565b80156102af5780601f10610284576101008083540402835291602001916102af565b820191906000526020600020905b81548152906001019060200180831161029257829003601f168201915b5050505050905082565b600181815481106102c957600080fd5b906000526020600020016000915054906101000a900473ffffffffffffffffffffffffffffffffffffffff1681565b600360405180604001604052806002805461031290610d6f565b80601f016020809104026020016040519081016040528092919081815260200182805461033e90610d6f565b801561038b5780601f106103605761010080835404028352916020019161038b565b820191906000526020600020905b81548152906001019060200180831161036e57829003601f168201915b50505050508152602001600080546103a290610d6f565b80601f01602080910402602001604051908101604052809291908181526020018280546103ce90610d6f565b801561041b5780601f106103f05761010080835404028352916020019161041b565b820191906000526020600020905b8154815290600101906020018083116103fe57829003601f168201915b5050505050815250908060018154018082558091505060019003906000526020600020906002020160009091909190915060008201518160000190805190602001906104689291906107f2565b5060208201518160010190805190602001906104859291906107f2565b505050816000908051906020019061049e9291906107f2565b5080600290805190602001906104b59291906107f2565b505050565b600280546104c790610d6f565b80601f01602080910402602001604051908101604052809291908181526020018280546104f390610d6f565b80156105405780601f1061051557610100808354040283529160200191610540565b820191906000526020600020905b81548152906001019060200180831161052357829003601f168201915b505050505081565b606060018054806020026020016040519081016040528092919081815260200182805480156105cc57602002820191906000526020600020905b8160009054906101000a900473ffffffffffffffffffffffffffffffffffffffff1673ffffffffffffffffffffffffffffffffffffffff1681526020019060010190808311610582575b5050505050905090565b600080546105e390610d6f565b80601f016020809104026020016040519081016040528092919081815260200182805461060f90610d6f565b801561065c5780601f106106315761010080835404028352916020019161065c565b820191906000526020600020905b81548152906001019060200180831161063f57829003601f168201915b505050505081565b60005b6001805490508110156107ee576001818154811061068857610687610da0565b5b9060005260206000200160009054906101000a900473ffffffffffffffffffffffffffffffffffffffff1673ffffffffffffffffffffffffffffffffffffffff168273ffffffffffffffffffffffffffffffffffffffff16036107db5760018080805490506106f79190610dfe565b8154811061070857610707610da0565b5b9060005260206000200160009054906101000a900473ffffffffffffffffffffffffffffffffffffffff166001828154811061074757610746610da0565b5b9060005260206000200160006101000a81548173ffffffffffffffffffffffffffffffffffffffff021916908373ffffffffffffffffffffffffffffffffffffffff16021790555060018054806107a1576107a0610e32565b5b6001900381819060005260206000200160006101000a81549073ffffffffffffffffffffffffffffffffffffffff021916905590556107ee565b80806107e690610e61565b915050610667565b5050565b8280546107fe90610d6f565b90600052602060002090601f0160209004810192826108205760008555610867565b82601f1061083957805160ff1916838001178555610867565b82800160010185558215610867579182015b8281111561086657825182559160200191906001019061084b565b5b5090506108749190610878565b5090565b5b80821115610891576000816000905550600101610879565b5090565b6000604051905090565b600080fd5b600080fd5b6000819050919050565b6108bc816108a9565b81146108c757600080fd5b50565b6000813590506108d9816108b3565b92915050565b6000602082840312156108f5576108f461089f565b5b6000610903848285016108ca565b91505092915050565b600081519050919050565b600082825260208201905092915050565b60005b8381101561094657808201518184015260208101905061092b565b83811115610955576000848401525b50505050565b6000601f19601f8301169050919050565b60006109778261090c565b6109818185610917565b9350610991818560208601610928565b61099a8161095b565b840191505092915050565b600060408201905081810360008301526109bf818561096c565b905081810360208301526109d3818461096c565b90509392505050565b600073ffffffffffffffffffffffffffffffffffffffff82169050919050565b6000610a07826109dc565b9050919050565b610a17816109fc565b82525050565b6000602082019050610a326000830184610a0e565b92915050565b600080fd5b600080fd5b7f4e487b7100000000000000000000000000000000000000000000000000000000600052604160045260246000fd5b610a7a8261095b565b810181811067ffffffffffffffff82111715610a9957610a98610a42565b5b80604052505050565b6000610aac610895565b9050610ab88282610a71565b919050565b600067ffffffffffffffff821115610ad857610ad7610a42565b5b610ae18261095b565b9050602081019050919050565b82818337600083830152505050565b6000610b10610b0b84610abd565b610aa2565b905082815260208101848484011115610b2c57610b2b610a3d565b5b610b37848285610aee565b509392505050565b600082601f830112610b5457610b53610a38565b5b8135610b64848260208601610afd565b91505092915050565b60008060408385031215610b8457610b8361089f565b5b600083013567ffffffffffffffff811115610ba257610ba16108a4565b5b610bae85828601610b3f565b925050602083013567ffffffffffffffff811115610bcf57610bce6108a4565b5b610bdb85828601610b3f565b9150509250929050565b60006020820190508181036000830152610bff818461096c565b905092915050565b600081519050919050565b600082825260208201905092915050565b6000819050602082019050919050565b610c3c816109fc565b82525050565b6000610c4e8383610c33565b60208301905092915050565b6000602082019050919050565b6000610c7282610c07565b610c7c8185610c12565b9350610c8783610c23565b8060005b83811015610cb8578151610c9f8882610c42565b9750610caa83610c5a565b925050600181019050610c8b565b5085935050505092915050565b60006020820190508181036000830152610cdf8184610c67565b905092915050565b610cf0816109fc565b8114610cfb57600080fd5b50565b600081359050610d0d81610ce7565b92915050565b600060208284031215610d2957610d2861089f565b5b6000610d3784828501610cfe565b91505092915050565b7f4e487b7100000000000000000000000000000000000000000000000000000000600052602260045260246000fd5b60006002820490506001821680610d8757607f821691505b602082108103610d9a57610d99610d40565b5b50919050565b7f4e487b7100000000000000000000000000000000000000000000000000000000600052603260045260246000fd5b7f4e487b7100000000000000000000000000000000000000000000000000000000600052601160045260246000fd5b6000610e09826108a9565b9150610e14836108a9565b925082821015610e2757610e26610dcf565b5b828203905092915050565b7f4e487b7100000000000000000000000000000000000000000000000000000000600052603160045260246000fd5b6000610e6c826108a9565b91507fffffffffffffffffffffffffffffffffffffffffffffffffffffffffffffffff8203610e9e57610e9d610dcf565b5b60018201905091905056fea26469706673582212201adb8df45a0e497ba17430c5283a7582e8ac3aa2495aacb09926eb1a87f90cbd64736f6c634300080d0033a26469706673582212208b4b31aeeed48866b02f35ab1dd80534a76cc4a48dc2d02166a76cf9edba7c8364736f6c634300080d0033",
      "opcodes": "PUSH1 0x80 PUSH1 0x40 MSTORE CALLVALUE DUP1 ISZERO PUSH2 0x10 JUMPI PUSH1 0x0 DUP1 REVERT JUMPDEST POP PUSH2 0x212C DUP1 PUSH2 0x20 PUSH1 0x0 CODECOPY PUSH1 0x0 RETURN INVALID PUSH1 0x80 PUSH1 0x40 MSTORE CALLVALUE DUP1 ISZERO PUSH3 0x11 JUMPI PUSH1 0x0 DUP1 REVERT JUMPDEST POP PUSH1 0x4 CALLDATASIZE LT PUSH3 0x5E JUMPI PUSH1 0x0 CALLDATALOAD PUSH1 0xE0 SHR DUP1 PUSH4 0x1CEA013A EQ PUSH3 0x63 JUMPI DUP1 PUSH4 0x1E3BB6AE EQ PUSH3 0x99 JUMPI DUP1 PUSH4 0x42B67595 EQ PUSH3 0xB9 JUMPI DUP1 PUSH4 0x9B3E2787 EQ PUSH3 0xD9 JUMPI DUP1 PUSH4 0xDFC9F2EA EQ PUSH3 0x10F JUMPI JUMPDEST PUSH1 0x0 DUP1 REVERT JUMPDEST PUSH3 0x81 PUSH1 0x4 DUP1 CALLDATASIZE SUB DUP2 ADD SWAP1 PUSH3 0x7B SWAP2 SWAP1 PUSH3 0x7A7 JUMP JUMPDEST PUSH3 0x145 JUMP JUMPDEST PUSH1 0x40 MLOAD PUSH3 0x90 SWAP2 SWAP1 PUSH3 0x8A7 JUMP JUMPDEST PUSH1 0x40 MLOAD DUP1 SWAP2 SUB SWAP1 RETURN JUMPDEST PUSH3 0xB7 PUSH1 0x4 DUP1 CALLDATASIZE SUB DUP2 ADD SWAP1 PUSH3 0xB1 SWAP2 SWAP1 PUSH3 0x8CB JUMP JUMPDEST PUSH3 0x213 JUMP JUMPDEST STOP JUMPDEST PUSH3 0xD7 PUSH1 0x4 DUP1 CALLDATASIZE SUB DUP2 ADD SWAP1 PUSH3 0xD1 SWAP2 SWAP1 PUSH3 0xA74 JUMP JUMPDEST PUSH3 0x475 JUMP JUMPDEST STOP JUMPDEST PUSH3 0xF7 PUSH1 0x4 DUP1 CALLDATASIZE SUB DUP2 ADD SWAP1 PUSH3 0xF1 SWAP2 SWAP1 PUSH3 0xB49 JUMP JUMPDEST PUSH3 0x555 JUMP JUMPDEST PUSH1 0x40 MLOAD PUSH3 0x106 SWAP2 SWAP1 PUSH3 0xBA1 JUMP JUMPDEST PUSH1 0x40 MLOAD DUP1 SWAP2 SUB SWAP1 RETURN JUMPDEST PUSH3 0x12D PUSH1 0x4 DUP1 CALLDATASIZE SUB DUP2 ADD SWAP1 PUSH3 0x127 SWAP2 SWAP1 PUSH3 0x7A7 JUMP JUMPDEST PUSH3 0x5A4 JUMP JUMPDEST PUSH1 0x40 MLOAD PUSH3 0x13C SWAP2 SWAP1 PUSH3 0x8A7 JUMP JUMPDEST PUSH1 0x40 MLOAD DUP1 SWAP2 SUB SWAP1 RETURN JUMPDEST PUSH1 0x60 PUSH1 0x0 DUP1 DUP4 PUSH20 0xFFFFFFFFFFFFFFFFFFFFFFFFFFFFFFFFFFFFFFFF AND PUSH20 0xFFFFFFFFFFFFFFFFFFFFFFFFFFFFFFFFFFFFFFFF AND DUP2 MSTORE PUSH1 0x20 ADD SWAP1 DUP2 MSTORE PUSH1 0x20 ADD PUSH1 0x0 KECCAK256 DUP1 SLOAD DUP1 PUSH1 0x20 MUL PUSH1 0x20 ADD PUSH1 0x40 MLOAD SWAP1 DUP2 ADD PUSH1 0x40 MSTORE DUP1 SWAP3 SWAP2 SWAP1 DUP2 DUP2 MSTORE PUSH1 0x20 ADD DUP3 DUP1 SLOAD DUP1 ISZERO PUSH3 0x207 JUMPI PUSH1 0x20 MUL DUP3 ADD SWAP2 SWAP1 PUSH1 0x0 MSTORE PUSH1 0x20 PUSH1 0x0 KECCAK256 SWAP1 JUMPDEST DUP2 PUSH1 0x0 SWAP1 SLOAD SWAP1 PUSH2 0x100 EXP SWAP1 DIV PUSH20 0xFFFFFFFFFFFFFFFFFFFFFFFFFFFFFFFFFFFFFFFF AND PUSH20 0xFFFFFFFFFFFFFFFFFFFFFFFFFFFFFFFFFFFFFFFF AND DUP2 MSTORE PUSH1 0x20 ADD SWAP1 PUSH1 0x1 ADD SWAP1 DUP1 DUP4 GT PUSH3 0x1BC JUMPI JUMPDEST POP POP POP POP POP SWAP1 POP SWAP2 SWAP1 POP JUMP JUMPDEST PUSH1 0x0 DUP1 PUSH1 0x0 DUP5 PUSH20 0xFFFFFFFFFFFFFFFFFFFFFFFFFFFFFFFFFFFFFFFF AND PUSH20 0xFFFFFFFFFFFFFFFFFFFFFFFFFFFFFFFFFFFFFFFF AND DUP2 MSTORE PUSH1 0x20 ADD SWAP1 DUP2 MSTORE PUSH1 0x20 ADD PUSH1 0x0 KECCAK256 DUP1 SLOAD DUP1 PUSH1 0x20 MUL PUSH1 0x20 ADD PUSH1 0x40 MLOAD SWAP1 DUP2 ADD PUSH1 0x40 MSTORE DUP1 SWAP3 SWAP2 SWAP1 DUP2 DUP2 MSTORE PUSH1 0x20 ADD DUP3 DUP1 SLOAD DUP1 ISZERO PUSH3 0x2D5 JUMPI PUSH1 0x20 MUL DUP3 ADD SWAP2 SWAP1 PUSH1 0x0 MSTORE PUSH1 0x20 PUSH1 0x0 KECCAK256 SWAP1 JUMPDEST DUP2 PUSH1 0x0 SWAP1 SLOAD SWAP1 PUSH2 0x100 EXP SWAP1 DIV PUSH20 0xFFFFFFFFFFFFFFFFFFFFFFFFFFFFFFFFFFFFFFFF AND PUSH20 0xFFFFFFFFFFFFFFFFFFFFFFFFFFFFFFFFFFFFFFFF AND DUP2 MSTORE PUSH1 0x20 ADD SWAP1 PUSH1 0x1 ADD SWAP1 DUP1 DUP4 GT PUSH3 0x28A JUMPI JUMPDEST POP POP POP POP POP SWAP1 POP PUSH1 0x0 JUMPDEST DUP2 MLOAD DUP2 LT ISZERO PUSH3 0x41A JUMPI DUP3 PUSH20 0xFFFFFFFFFFFFFFFFFFFFFFFFFFFFFFFFFFFFFFFF AND DUP3 DUP3 DUP2 MLOAD DUP2 LT PUSH3 0x316 JUMPI PUSH3 0x315 PUSH3 0xBBE JUMP JUMPDEST JUMPDEST PUSH1 0x20 MUL PUSH1 0x20 ADD ADD MLOAD PUSH20 0xFFFFFFFFFFFFFFFFFFFFFFFFFFFFFFFFFFFFFFFF AND SUB PUSH3 0x404 JUMPI DUP2 PUSH1 0x1 DUP4 MLOAD PUSH3 0x34B SWAP2 SWAP1 PUSH3 0xC1C JUMP JUMPDEST DUP2 MLOAD DUP2 LT PUSH3 0x35F JUMPI PUSH3 0x35E PUSH3 0xBBE JUMP JUMPDEST JUMPDEST PUSH1 0x20 MUL PUSH1 0x20 ADD ADD MLOAD DUP3 DUP3 DUP2 MLOAD DUP2 LT PUSH3 0x37D JUMPI PUSH3 0x37C PUSH3 0xBBE JUMP JUMPDEST JUMPDEST PUSH1 0x20 MUL PUSH1 0x20 ADD ADD SWAP1 PUSH20 0xFFFFFFFFFFFFFFFFFFFFFFFFFFFFFFFFFFFFFFFF AND SWAP1 DUP2 PUSH20 0xFFFFFFFFFFFFFFFFFFFFFFFFFFFFFFFFFFFFFFFF AND DUP2 MSTORE POP POP DUP2 PUSH1 0x1 DUP4 MLOAD PUSH3 0x3C8 SWAP2 SWAP1 PUSH3 0xC1C JUMP JUMPDEST DUP2 MLOAD DUP2 LT PUSH3 0x3DC JUMPI PUSH3 0x3DB PUSH3 0xBBE JUMP JUMPDEST JUMPDEST PUSH1 0x20 MUL PUSH1 0x20 ADD ADD PUSH1 0x0 PUSH20 0xFFFFFFFFFFFFFFFFFFFFFFFFFFFFFFFFFFFFFFFF AND DUP2 MSTORE POP PUSH3 0x41A JUMP JUMPDEST DUP1 DUP1 PUSH3 0x411 SWAP1 PUSH3 0xC57 JUMP JUMPDEST SWAP2 POP POP PUSH3 0x2DF JUMP JUMPDEST POP DUP1 PUSH1 0x0 DUP1 DUP6 PUSH20 0xFFFFFFFFFFFFFFFFFFFFFFFFFFFFFFFFFFFFFFFF AND PUSH20 0xFFFFFFFFFFFFFFFFFFFFFFFFFFFFFFFFFFFFFFFF AND DUP2 MSTORE PUSH1 0x20 ADD SWAP1 DUP2 MSTORE PUSH1 0x20 ADD PUSH1 0x0 KECCAK256 SWAP1 DUP1 MLOAD SWAP1 PUSH1 0x20 ADD SWAP1 PUSH3 0x46F SWAP3 SWAP2 SWAP1 PUSH3 0x672 JUMP JUMPDEST POP POP POP POP JUMP JUMPDEST PUSH1 0x0 DUP1 DUP4 PUSH20 0xFFFFFFFFFFFFFFFFFFFFFFFFFFFFFFFFFFFFFFFF AND PUSH20 0xFFFFFFFFFFFFFFFFFFFFFFFFFFFFFFFFFFFFFFFF AND DUP2 MSTORE PUSH1 0x20 ADD SWAP1 DUP2 MSTORE PUSH1 0x20 ADD PUSH1 0x0 KECCAK256 DUP4 DUP4 DUP4 PUSH1 0x40 MLOAD PUSH3 0x4C4 SWAP1 PUSH3 0x701 JUMP JUMPDEST PUSH3 0x4D2 SWAP4 SWAP3 SWAP2 SWAP1 PUSH3 0xD37 JUMP JUMPDEST PUSH1 0x40 MLOAD DUP1 SWAP2 SUB SWAP1 PUSH1 0x0 CREATE DUP1 ISZERO DUP1 ISZERO PUSH3 0x4EF JUMPI RETURNDATASIZE PUSH1 0x0 DUP1 RETURNDATACOPY RETURNDATASIZE PUSH1 0x0 REVERT JUMPDEST POP SWAP1 DUP1 PUSH1 0x1 DUP2 SLOAD ADD DUP1 DUP3 SSTORE DUP1 SWAP2 POP POP PUSH1 0x1 SWAP1 SUB SWAP1 PUSH1 0x0 MSTORE PUSH1 0x20 PUSH1 0x0 KECCAK256 ADD PUSH1 0x0 SWAP1 SWAP2 SWAP1 SWAP2 SWAP1 SWAP2 PUSH2 0x100 EXP DUP2 SLOAD DUP2 PUSH20 0xFFFFFFFFFFFFFFFFFFFFFFFFFFFFFFFFFFFFFFFF MUL NOT AND SWAP1 DUP4 PUSH20 0xFFFFFFFFFFFFFFFFFFFFFFFFFFFFFFFFFFFFFFFF AND MUL OR SWAP1 SSTORE POP POP POP POP JUMP JUMPDEST PUSH1 0x0 PUSH1 0x20 MSTORE DUP2 PUSH1 0x0 MSTORE PUSH1 0x40 PUSH1 0x0 KECCAK256 DUP2 DUP2 SLOAD DUP2 LT PUSH3 0x572 JUMPI PUSH1 0x0 DUP1 REVERT JUMPDEST SWAP1 PUSH1 0x0 MSTORE PUSH1 0x20 PUSH1 0x0 KECCAK256 ADD PUSH1 0x0 SWAP2 POP SWAP2 POP SWAP1 SLOAD SWAP1 PUSH2 0x100 EXP SWAP1 DIV PUSH20 0xFFFFFFFFFFFFFFFFFFFFFFFFFFFFFFFFFFFFFFFF AND DUP2 JUMP JUMPDEST PUSH1 0x60 PUSH1 0x0 DUP1 DUP4 PUSH20 0xFFFFFFFFFFFFFFFFFFFFFFFFFFFFFFFFFFFFFFFF AND PUSH20 0xFFFFFFFFFFFFFFFFFFFFFFFFFFFFFFFFFFFFFFFF AND DUP2 MSTORE PUSH1 0x20 ADD SWAP1 DUP2 MSTORE PUSH1 0x20 ADD PUSH1 0x0 KECCAK256 DUP1 SLOAD DUP1 PUSH1 0x20 MUL PUSH1 0x20 ADD PUSH1 0x40 MLOAD SWAP1 DUP2 ADD PUSH1 0x40 MSTORE DUP1 SWAP3 SWAP2 SWAP1 DUP2 DUP2 MSTORE PUSH1 0x20 ADD DUP3 DUP1 SLOAD DUP1 ISZERO PUSH3 0x666 JUMPI PUSH1 0x20 MUL DUP3 ADD SWAP2 SWAP1 PUSH1 0x0 MSTORE PUSH1 0x20 PUSH1 0x0 KECCAK256 SWAP1 JUMPDEST DUP2 PUSH1 0x0 SWAP1 SLOAD SWAP1 PUSH2 0x100 EXP SWAP1 DIV PUSH20 0xFFFFFFFFFFFFFFFFFFFFFFFFFFFFFFFFFFFFFFFF AND PUSH20 0xFFFFFFFFFFFFFFFFFFFFFFFFFFFFFFFFFFFFFFFF AND DUP2 MSTORE PUSH1 0x20 ADD SWAP1 PUSH1 0x1 ADD SWAP1 DUP1 DUP4 GT PUSH3 0x61B JUMPI JUMPDEST POP POP POP POP POP SWAP1 POP SWAP2 SWAP1 POP JUMP JUMPDEST DUP3 DUP1 SLOAD DUP3 DUP3 SSTORE SWAP1 PUSH1 0x0 MSTORE PUSH1 0x20 PUSH1 0x0 KECCAK256 SWAP1 DUP2 ADD SWAP3 DUP3 ISZERO PUSH3 0x6EE JUMPI SWAP2 PUSH1 0x20 MUL DUP3 ADD JUMPDEST DUP3 DUP2 GT ISZERO PUSH3 0x6ED JUMPI DUP3 MLOAD DUP3 PUSH1 0x0 PUSH2 0x100 EXP DUP2 SLOAD DUP2 PUSH20 0xFFFFFFFFFFFFFFFFFFFFFFFFFFFFFFFFFFFFFFFF MUL NOT AND SWAP1 DUP4 PUSH20 0xFFFFFFFFFFFFFFFFFFFFFFFFFFFFFFFFFFFFFFFF AND MUL OR SWAP1 SSTORE POP SWAP2 PUSH1 0x20 ADD SWAP2 SWAP1 PUSH1 0x1 ADD SWAP1 PUSH3 0x693 JUMP JUMPDEST JUMPDEST POP SWAP1 POP PUSH3 0x6FD SWAP2 SWAP1 PUSH3 0x70F JUMP JUMPDEST POP SWAP1 JUMP JUMPDEST PUSH2 0x1374 DUP1 PUSH3 0xD83 DUP4 CODECOPY ADD SWAP1 JUMP JUMPDEST JUMPDEST DUP1 DUP3 GT ISZERO PUSH3 0x72A JUMPI PUSH1 0x0 DUP2 PUSH1 0x0 SWAP1 SSTORE POP PUSH1 0x1 ADD PUSH3 0x710 JUMP JUMPDEST POP SWAP1 JUMP JUMPDEST PUSH1 0x0 PUSH1 0x40 MLOAD SWAP1 POP SWAP1 JUMP JUMPDEST PUSH1 0x0 DUP1 REVERT JUMPDEST PUSH1 0x0 DUP1 REVERT JUMPDEST PUSH1 0x0 PUSH20 0xFFFFFFFFFFFFFFFFFFFFFFFFFFFFFFFFFFFFFFFF DUP3 AND SWAP1 POP SWAP2 SWAP1 POP JUMP JUMPDEST PUSH1 0x0 PUSH3 0x76F DUP3 PUSH3 0x742 JUMP JUMPDEST SWAP1 POP SWAP2 SWAP1 POP JUMP JUMPDEST PUSH3 0x781 DUP2 PUSH3 0x762 JUMP JUMPDEST DUP2 EQ PUSH3 0x78D JUMPI PUSH1 0x0 DUP1 REVERT JUMPDEST POP JUMP JUMPDEST PUSH1 0x0 DUP2 CALLDATALOAD SWAP1 POP PUSH3 0x7A1 DUP2 PUSH3 0x776 JUMP JUMPDEST SWAP3 SWAP2 POP POP JUMP JUMPDEST PUSH1 0x0 PUSH1 0x20 DUP3 DUP5 SUB SLT ISZERO PUSH3 0x7C0 JUMPI PUSH3 0x7BF PUSH3 0x738 JUMP JUMPDEST JUMPDEST PUSH1 0x0 PUSH3 0x7D0 DUP5 DUP3 DUP6 ADD PUSH3 0x790 JUMP JUMPDEST SWAP2 POP POP SWAP3 SWAP2 POP POP JUMP JUMPDEST PUSH1 0x0 DUP2 MLOAD SWAP1 POP SWAP2 SWAP1 POP JUMP JUMPDEST PUSH1 0x0 DUP3 DUP3 MSTORE PUSH1 0x20 DUP3 ADD SWAP1 POP SWAP3 SWAP2 POP POP JUMP JUMPDEST PUSH1 0x0 DUP2 SWAP1 POP PUSH1 0x20 DUP3 ADD SWAP1 POP SWAP2 SWAP1 POP JUMP JUMPDEST PUSH3 0x810 DUP2 PUSH3 0x762 JUMP JUMPDEST DUP3 MSTORE POP POP JUMP JUMPDEST PUSH1 0x0 PUSH3 0x824 DUP4 DUP4 PUSH3 0x805 JUMP JUMPDEST PUSH1 0x20 DUP4 ADD SWAP1 POP SWAP3 SWAP2 POP POP JUMP JUMPDEST PUSH1 0x0 PUSH1 0x20 DUP3 ADD SWAP1 POP SWAP2 SWAP1 POP JUMP JUMPDEST PUSH1 0x0 PUSH3 0x84A DUP3 PUSH3 0x7D9 JUMP JUMPDEST PUSH3 0x856 DUP2 DUP6 PUSH3 0x7E4 JUMP JUMPDEST SWAP4 POP PUSH3 0x863 DUP4 PUSH3 0x7F5 JUMP JUMPDEST DUP1 PUSH1 0x0 JUMPDEST DUP4 DUP2 LT ISZERO PUSH3 0x89A JUMPI DUP2 MLOAD PUSH3 0x87E DUP9 DUP3 PUSH3 0x816 JUMP JUMPDEST SWAP8 POP PUSH3 0x88B DUP4 PUSH3 0x830 JUMP JUMPDEST SWAP3 POP POP PUSH1 0x1 DUP2 ADD SWAP1 POP PUSH3 0x867 JUMP JUMPDEST POP DUP6 SWAP4 POP POP POP POP SWAP3 SWAP2 POP POP JUMP JUMPDEST PUSH1 0x0 PUSH1 0x20 DUP3 ADD SWAP1 POP DUP2 DUP2 SUB PUSH1 0x0 DUP4 ADD MSTORE PUSH3 0x8C3 DUP2 DUP5 PUSH3 0x83D JUMP JUMPDEST SWAP1 POP SWAP3 SWAP2 POP POP JUMP JUMPDEST PUSH1 0x0 DUP1 PUSH1 0x40 DUP4 DUP6 SUB SLT ISZERO PUSH3 0x8E5 JUMPI PUSH3 0x8E4 PUSH3 0x738 JUMP JUMPDEST JUMPDEST PUSH1 0x0 PUSH3 0x8F5 DUP6 DUP3 DUP7 ADD PUSH3 0x790 JUMP JUMPDEST SWAP3 POP POP PUSH1 0x20 PUSH3 0x908 DUP6 DUP3 DUP7 ADD PUSH3 0x790 JUMP JUMPDEST SWAP2 POP POP SWAP3 POP SWAP3 SWAP1 POP JUMP JUMPDEST PUSH1 0x0 DUP1 REVERT JUMPDEST PUSH1 0x0 DUP1 REVERT JUMPDEST PUSH1 0x0 PUSH1 0x1F NOT PUSH1 0x1F DUP4 ADD AND SWAP1 POP SWAP2 SWAP1 POP JUMP JUMPDEST PUSH32 0x4E487B7100000000000000000000000000000000000000000000000000000000 PUSH1 0x0 MSTORE PUSH1 0x41 PUSH1 0x4 MSTORE PUSH1 0x24 PUSH1 0x0 REVERT JUMPDEST PUSH3 0x967 DUP3 PUSH3 0x91C JUMP JUMPDEST DUP2 ADD DUP2 DUP2 LT PUSH8 0xFFFFFFFFFFFFFFFF DUP3 GT OR ISZERO PUSH3 0x989 JUMPI PUSH3 0x988 PUSH3 0x92D JUMP JUMPDEST JUMPDEST DUP1 PUSH1 0x40 MSTORE POP POP POP JUMP JUMPDEST PUSH1 0x0 PUSH3 0x99E PUSH3 0x72E JUMP JUMPDEST SWAP1 POP PUSH3 0x9AC DUP3 DUP3 PUSH3 0x95C JUMP JUMPDEST SWAP2 SWAP1 POP JUMP JUMPDEST PUSH1 0x0 PUSH8 0xFFFFFFFFFFFFFFFF DUP3 GT ISZERO PUSH3 0x9CF JUMPI PUSH3 0x9CE PUSH3 0x92D JUMP JUMPDEST JUMPDEST PUSH3 0x9DA DUP3 PUSH3 0x91C JUMP JUMPDEST SWAP1 POP PUSH1 0x20 DUP2 ADD SWAP1 POP SWAP2 SWAP1 POP JUMP JUMPDEST DUP3 DUP2 DUP4 CALLDATACOPY PUSH1 0x0 DUP4 DUP4 ADD MSTORE POP POP POP JUMP JUMPDEST PUSH1 0x0 PUSH3 0xA0D PUSH3 0xA07 DUP5 PUSH3 0x9B1 JUMP JUMPDEST PUSH3 0x992 JUMP JUMPDEST SWAP1 POP DUP3 DUP2 MSTORE PUSH1 0x20 DUP2 ADD DUP5 DUP5 DUP5 ADD GT ISZERO PUSH3 0xA2C JUMPI PUSH3 0xA2B PUSH3 0x917 JUMP JUMPDEST JUMPDEST PUSH3 0xA39 DUP5 DUP3 DUP6 PUSH3 0x9E7 JUMP JUMPDEST POP SWAP4 SWAP3 POP POP POP JUMP JUMPDEST PUSH1 0x0 DUP3 PUSH1 0x1F DUP4 ADD SLT PUSH3 0xA59 JUMPI PUSH3 0xA58 PUSH3 0x912 JUMP JUMPDEST JUMPDEST DUP2 CALLDATALOAD PUSH3 0xA6B DUP5 DUP3 PUSH1 0x20 DUP7 ADD PUSH3 0x9F6 JUMP JUMPDEST SWAP2 POP POP SWAP3 SWAP2 POP POP JUMP JUMPDEST PUSH1 0x0 DUP1 PUSH1 0x0 PUSH1 0x60 DUP5 DUP7 SUB SLT ISZERO PUSH3 0xA90 JUMPI PUSH3 0xA8F PUSH3 0x738 JUMP JUMPDEST JUMPDEST PUSH1 0x0 DUP5 ADD CALLDATALOAD PUSH8 0xFFFFFFFFFFFFFFFF DUP2 GT ISZERO PUSH3 0xAB1 JUMPI PUSH3 0xAB0 PUSH3 0x73D JUMP JUMPDEST JUMPDEST PUSH3 0xABF DUP7 DUP3 DUP8 ADD PUSH3 0xA41 JUMP JUMPDEST SWAP4 POP POP PUSH1 0x20 PUSH3 0xAD2 DUP7 DUP3 DUP8 ADD PUSH3 0x790 JUMP JUMPDEST SWAP3 POP POP PUSH1 0x40 DUP5 ADD CALLDATALOAD PUSH8 0xFFFFFFFFFFFFFFFF DUP2 GT ISZERO PUSH3 0xAF6 JUMPI PUSH3 0xAF5 PUSH3 0x73D JUMP JUMPDEST JUMPDEST PUSH3 0xB04 DUP7 DUP3 DUP8 ADD PUSH3 0xA41 JUMP JUMPDEST SWAP2 POP POP SWAP3 POP SWAP3 POP SWAP3 JUMP JUMPDEST PUSH1 0x0 DUP2 SWAP1 POP SWAP2 SWAP1 POP JUMP JUMPDEST PUSH3 0xB23 DUP2 PUSH3 0xB0E JUMP JUMPDEST DUP2 EQ PUSH3 0xB2F JUMPI PUSH1 0x0 DUP1 REVERT JUMPDEST POP JUMP JUMPDEST PUSH1 0x0 DUP2 CALLDATALOAD SWAP1 POP PUSH3 0xB43 DUP2 PUSH3 0xB18 JUMP JUMPDEST SWAP3 SWAP2 POP POP JUMP JUMPDEST PUSH1 0x0 DUP1 PUSH1 0x40 DUP4 DUP6 SUB SLT ISZERO PUSH3 0xB63 JUMPI PUSH3 0xB62 PUSH3 0x738 JUMP JUMPDEST JUMPDEST PUSH1 0x0 PUSH3 0xB73 DUP6 DUP3 DUP7 ADD PUSH3 0x790 JUMP JUMPDEST SWAP3 POP POP PUSH1 0x20 PUSH3 0xB86 DUP6 DUP3 DUP7 ADD PUSH3 0xB32 JUMP JUMPDEST SWAP2 POP POP SWAP3 POP SWAP3 SWAP1 POP JUMP JUMPDEST PUSH3 0xB9B DUP2 PUSH3 0x762 JUMP JUMPDEST DUP3 MSTORE POP POP JUMP JUMPDEST PUSH1 0x0 PUSH1 0x20 DUP3 ADD SWAP1 POP PUSH3 0xBB8 PUSH1 0x0 DUP4 ADD DUP5 PUSH3 0xB90 JUMP JUMPDEST SWAP3 SWAP2 POP POP JUMP JUMPDEST PUSH32 0x4E487B7100000000000000000000000000000000000000000000000000000000 PUSH1 0x0 MSTORE PUSH1 0x32 PUSH1 0x4 MSTORE PUSH1 0x24 PUSH1 0x0 REVERT JUMPDEST PUSH32 0x4E487B7100000000000000000000000000000000000000000000000000000000 PUSH1 0x0 MSTORE PUSH1 0x11 PUSH1 0x4 MSTORE PUSH1 0x24 PUSH1 0x0 REVERT JUMPDEST PUSH1 0x0 PUSH3 0xC29 DUP3 PUSH3 0xB0E JUMP JUMPDEST SWAP2 POP PUSH3 0xC36 DUP4 PUSH3 0xB0E JUMP JUMPDEST SWAP3 POP DUP3 DUP3 LT ISZERO PUSH3 0xC4C JUMPI PUSH3 0xC4B PUSH3 0xBED JUMP JUMPDEST JUMPDEST DUP3 DUP3 SUB SWAP1 POP SWAP3 SWAP2 POP POP JUMP JUMPDEST PUSH1 0x0 PUSH3 0xC64 DUP3 PUSH3 0xB0E JUMP JUMPDEST SWAP2 POP PUSH32 0xFFFFFFFFFFFFFFFFFFFFFFFFFFFFFFFFFFFFFFFFFFFFFFFFFFFFFFFFFFFFFFFF DUP3 SUB PUSH3 0xC99 JUMPI PUSH3 0xC98 PUSH3 0xBED JUMP JUMPDEST JUMPDEST PUSH1 0x1 DUP3 ADD SWAP1 POP SWAP2 SWAP1 POP JUMP JUMPDEST PUSH1 0x0 DUP2 MLOAD SWAP1 POP SWAP2 SWAP1 POP JUMP JUMPDEST PUSH1 0x0 DUP3 DUP3 MSTORE PUSH1 0x20 DUP3 ADD SWAP1 POP SWAP3 SWAP2 POP POP JUMP JUMPDEST PUSH1 0x0 JUMPDEST DUP4 DUP2 LT ISZERO PUSH3 0xCE0 JUMPI DUP1 DUP3 ADD MLOAD DUP2 DUP5 ADD MSTORE PUSH1 0x20 DUP2 ADD SWAP1 POP PUSH3 0xCC3 JUMP JUMPDEST DUP4 DUP2 GT ISZERO PUSH3 0xCF0 JUMPI PUSH1 0x0 DUP5 DUP5 ADD MSTORE JUMPDEST POP POP POP POP JUMP JUMPDEST PUSH1 0x0 PUSH3 0xD03 DUP3 PUSH3 0xCA4 JUMP JUMPDEST PUSH3 0xD0F DUP2 DUP6 PUSH3 0xCAF JUMP JUMPDEST SWAP4 POP PUSH3 0xD21 DUP2 DUP6 PUSH1 0x20 DUP7 ADD PUSH3 0xCC0 JUMP JUMPDEST PUSH3 0xD2C DUP2 PUSH3 0x91C JUMP JUMPDEST DUP5 ADD SWAP2 POP POP SWAP3 SWAP2 POP POP JUMP JUMPDEST PUSH1 0x0 PUSH1 0x60 DUP3 ADD SWAP1 POP DUP2 DUP2 SUB PUSH1 0x0 DUP4 ADD MSTORE PUSH3 0xD53 DUP2 DUP7 PUSH3 0xCF6 JUMP JUMPDEST SWAP1 POP PUSH3 0xD64 PUSH1 0x20 DUP4 ADD DUP6 PUSH3 0xB90 JUMP JUMPDEST DUP2 DUP2 SUB PUSH1 0x40 DUP4 ADD MSTORE PUSH3 0xD78 DUP2 DUP5 PUSH3 0xCF6 JUMP JUMPDEST SWAP1 POP SWAP5 SWAP4 POP POP POP POP JUMP INVALID PUSH1 0x80 PUSH1 0x40 MSTORE CALLVALUE DUP1 ISZERO PUSH3 0x11 JUMPI PUSH1 0x0 DUP1 REVERT JUMPDEST POP PUSH1 0x40 MLOAD PUSH3 0x1374 CODESIZE SUB DUP1 PUSH3 0x1374 DUP4 CODECOPY DUP2 DUP2 ADD PUSH1 0x40 MSTORE DUP2 ADD SWAP1 PUSH3 0x37 SWAP2 SWAP1 PUSH3 0x387 JUMP JUMPDEST DUP3 PUSH1 0x0 SWAP1 DUP1 MLOAD SWAP1 PUSH1 0x20 ADD SWAP1 PUSH3 0x4F SWAP3 SWAP2 SWAP1 PUSH3 0xD5 JUMP JUMPDEST POP PUSH1 0x1 DUP3 SWAP1 DUP1 PUSH1 0x1 DUP2 SLOAD ADD DUP1 DUP3 SSTORE DUP1 SWAP2 POP POP PUSH1 0x1 SWAP1 SUB SWAP1 PUSH1 0x0 MSTORE PUSH1 0x20 PUSH1 0x0 KECCAK256 ADD PUSH1 0x0 SWAP1 SWAP2 SWAP1 SWAP2 SWAP1 SWAP2 PUSH2 0x100 EXP DUP2 SLOAD DUP2 PUSH20 0xFFFFFFFFFFFFFFFFFFFFFFFFFFFFFFFFFFFFFFFF MUL NOT AND SWAP1 DUP4 PUSH20 0xFFFFFFFFFFFFFFFFFFFFFFFFFFFFFFFFFFFFFFFF AND MUL OR SWAP1 SSTORE POP DUP1 PUSH1 0x2 SWAP1 DUP1 MLOAD SWAP1 PUSH1 0x20 ADD SWAP1 PUSH3 0xCB SWAP3 SWAP2 SWAP1 PUSH3 0xD5 JUMP JUMPDEST POP POP POP POP PUSH3 0x485 JUMP JUMPDEST DUP3 DUP1 SLOAD PUSH3 0xE3 SWAP1 PUSH3 0x450 JUMP JUMPDEST SWAP1 PUSH1 0x0 MSTORE PUSH1 0x20 PUSH1 0x0 KECCAK256 SWAP1 PUSH1 0x1F ADD PUSH1 0x20 SWAP1 DIV DUP2 ADD SWAP3 DUP3 PUSH3 0x107 JUMPI PUSH1 0x0 DUP6 SSTORE PUSH3 0x153 JUMP JUMPDEST DUP3 PUSH1 0x1F LT PUSH3 0x122 JUMPI DUP1 MLOAD PUSH1 0xFF NOT AND DUP4 DUP1 ADD OR DUP6 SSTORE PUSH3 0x153 JUMP JUMPDEST DUP3 DUP1 ADD PUSH1 0x1 ADD DUP6 SSTORE DUP3 ISZERO PUSH3 0x153 JUMPI SWAP2 DUP3 ADD JUMPDEST DUP3 DUP2 GT ISZERO PUSH3 0x152 JUMPI DUP3 MLOAD DUP3 SSTORE SWAP2 PUSH1 0x20 ADD SWAP2 SWAP1 PUSH1 0x1 ADD SWAP1 PUSH3 0x135 JUMP JUMPDEST JUMPDEST POP SWAP1 POP PUSH3 0x162 SWAP2 SWAP1 PUSH3 0x166 JUMP JUMPDEST POP SWAP1 JUMP JUMPDEST JUMPDEST DUP1 DUP3 GT ISZERO PUSH3 0x181 JUMPI PUSH1 0x0 DUP2 PUSH1 0x0 SWAP1 SSTORE POP PUSH1 0x1 ADD PUSH3 0x167 JUMP JUMPDEST POP SWAP1 JUMP JUMPDEST PUSH1 0x0 PUSH1 0x40 MLOAD SWAP1 POP SWAP1 JUMP JUMPDEST PUSH1 0x0 DUP1 REVERT JUMPDEST PUSH1 0x0 DUP1 REVERT JUMPDEST PUSH1 0x0 DUP1 REVERT JUMPDEST PUSH1 0x0 DUP1 REVERT JUMPDEST PUSH1 0x0 PUSH1 0x1F NOT PUSH1 0x1F DUP4 ADD AND SWAP1 POP SWAP2 SWAP1 POP JUMP JUMPDEST PUSH32 0x4E487B7100000000000000000000000000000000000000000000000000000000 PUSH1 0x0 MSTORE PUSH1 0x41 PUSH1 0x4 MSTORE PUSH1 0x24 PUSH1 0x0 REVERT JUMPDEST PUSH3 0x1EE DUP3 PUSH3 0x1A3 JUMP JUMPDEST DUP2 ADD DUP2 DUP2 LT PUSH8 0xFFFFFFFFFFFFFFFF DUP3 GT OR ISZERO PUSH3 0x210 JUMPI PUSH3 0x20F PUSH3 0x1B4 JUMP JUMPDEST JUMPDEST DUP1 PUSH1 0x40 MSTORE POP POP POP JUMP JUMPDEST PUSH1 0x0 PUSH3 0x225 PUSH3 0x185 JUMP JUMPDEST SWAP1 POP PUSH3 0x233 DUP3 DUP3 PUSH3 0x1E3 JUMP JUMPDEST SWAP2 SWAP1 POP JUMP JUMPDEST PUSH1 0x0 PUSH8 0xFFFFFFFFFFFFFFFF DUP3 GT ISZERO PUSH3 0x256 JUMPI PUSH3 0x255 PUSH3 0x1B4 JUMP JUMPDEST JUMPDEST PUSH3 0x261 DUP3 PUSH3 0x1A3 JUMP JUMPDEST SWAP1 POP PUSH1 0x20 DUP2 ADD SWAP1 POP SWAP2 SWAP1 POP JUMP JUMPDEST PUSH1 0x0 JUMPDEST DUP4 DUP2 LT ISZERO PUSH3 0x28E JUMPI DUP1 DUP3 ADD MLOAD DUP2 DUP5 ADD MSTORE PUSH1 0x20 DUP2 ADD SWAP1 POP PUSH3 0x271 JUMP JUMPDEST DUP4 DUP2 GT ISZERO PUSH3 0x29E JUMPI PUSH1 0x0 DUP5 DUP5 ADD MSTORE JUMPDEST POP POP POP POP JUMP JUMPDEST PUSH1 0x0 PUSH3 0x2BB PUSH3 0x2B5 DUP5 PUSH3 0x238 JUMP JUMPDEST PUSH3 0x219 JUMP JUMPDEST SWAP1 POP DUP3 DUP2 MSTORE PUSH1 0x20 DUP2 ADD DUP5 DUP5 DUP5 ADD GT ISZERO PUSH3 0x2DA JUMPI PUSH3 0x2D9 PUSH3 0x19E JUMP JUMPDEST JUMPDEST PUSH3 0x2E7 DUP5 DUP3 DUP6 PUSH3 0x26E JUMP JUMPDEST POP SWAP4 SWAP3 POP POP POP JUMP JUMPDEST PUSH1 0x0 DUP3 PUSH1 0x1F DUP4 ADD SLT PUSH3 0x307 JUMPI PUSH3 0x306 PUSH3 0x199 JUMP JUMPDEST JUMPDEST DUP2 MLOAD PUSH3 0x319 DUP5 DUP3 PUSH1 0x20 DUP7 ADD PUSH3 0x2A4 JUMP JUMPDEST SWAP2 POP POP SWAP3 SWAP2 POP POP JUMP JUMPDEST PUSH1 0x0 PUSH20 0xFFFFFFFFFFFFFFFFFFFFFFFFFFFFFFFFFFFFFFFF DUP3 AND SWAP1 POP SWAP2 SWAP1 POP JUMP JUMPDEST PUSH1 0x0 PUSH3 0x34F DUP3 PUSH3 0x322 JUMP JUMPDEST SWAP1 POP SWAP2 SWAP1 POP JUMP JUMPDEST PUSH3 0x361 DUP2 PUSH3 0x342 JUMP JUMPDEST DUP2 EQ PUSH3 0x36D JUMPI PUSH1 0x0 DUP1 REVERT JUMPDEST POP JUMP JUMPDEST PUSH1 0x0 DUP2 MLOAD SWAP1 POP PUSH3 0x381 DUP2 PUSH3 0x356 JUMP JUMPDEST SWAP3 SWAP2 POP POP JUMP JUMPDEST PUSH1 0x0 DUP1 PUSH1 0x0 PUSH1 0x60 DUP5 DUP7 SUB SLT ISZERO PUSH3 0x3A3 JUMPI PUSH3 0x3A2 PUSH3 0x18F JUMP JUMPDEST JUMPDEST PUSH1 0x0 DUP5 ADD MLOAD PUSH8 0xFFFFFFFFFFFFFFFF DUP2 GT ISZERO PUSH3 0x3C4 JUMPI PUSH3 0x3C3 PUSH3 0x194 JUMP JUMPDEST JUMPDEST PUSH3 0x3D2 DUP7 DUP3 DUP8 ADD PUSH3 0x2EF JUMP JUMPDEST SWAP4 POP POP PUSH1 0x20 PUSH3 0x3E5 DUP7 DUP3 DUP8 ADD PUSH3 0x370 JUMP JUMPDEST SWAP3 POP POP PUSH1 0x40 DUP5 ADD MLOAD PUSH8 0xFFFFFFFFFFFFFFFF DUP2 GT ISZERO PUSH3 0x409 JUMPI PUSH3 0x408 PUSH3 0x194 JUMP JUMPDEST JUMPDEST PUSH3 0x417 DUP7 DUP3 DUP8 ADD PUSH3 0x2EF JUMP JUMPDEST SWAP2 POP POP SWAP3 POP SWAP3 POP SWAP3 JUMP JUMPDEST PUSH32 0x4E487B7100000000000000000000000000000000000000000000000000000000 PUSH1 0x0 MSTORE PUSH1 0x22 PUSH1 0x4 MSTORE PUSH1 0x24 PUSH1 0x0 REVERT JUMPDEST PUSH1 0x0 PUSH1 0x2 DUP3 DIV SWAP1 POP PUSH1 0x1 DUP3 AND DUP1 PUSH3 0x469 JUMPI PUSH1 0x7F DUP3 AND SWAP2 POP JUMPDEST PUSH1 0x20 DUP3 LT DUP2 SUB PUSH3 0x47F JUMPI PUSH3 0x47E PUSH3 0x421 JUMP JUMPDEST JUMPDEST POP SWAP2 SWAP1 POP JUMP JUMPDEST PUSH2 0xEDF DUP1 PUSH3 0x495 PUSH1 0x0 CODECOPY PUSH1 0x0 RETURN INVALID PUSH1 0x80 PUSH1 0x40 MSTORE CALLVALUE DUP1 ISZERO PUSH2 0x10 JUMPI PUSH1 0x0 DUP1 REVERT JUMPDEST POP PUSH1 0x4 CALLDATASIZE LT PUSH2 0x7D JUMPI PUSH1 0x0 CALLDATALOAD PUSH1 0xE0 SHR DUP1 PUSH4 0x6B465601 GT PUSH2 0x5B JUMPI DUP1 PUSH4 0x6B465601 EQ PUSH2 0xFF JUMPI DUP1 PUSH4 0xA0E67E2B EQ PUSH2 0x11D JUMPI DUP1 PUSH4 0xC623674F EQ PUSH2 0x13B JUMPI DUP1 PUSH4 0xCD5C4C70 EQ PUSH2 0x159 JUMPI PUSH2 0x7D JUMP JUMPDEST DUP1 PUSH4 0xEF486D1 EQ PUSH2 0x82 JUMPI DUP1 PUSH4 0xF310B17 EQ PUSH2 0xB3 JUMPI DUP1 PUSH4 0x4D300E0C EQ PUSH2 0xE3 JUMPI JUMPDEST PUSH1 0x0 DUP1 REVERT JUMPDEST PUSH2 0x9C PUSH1 0x4 DUP1 CALLDATASIZE SUB DUP2 ADD SWAP1 PUSH2 0x97 SWAP2 SWAP1 PUSH2 0x8DF JUMP JUMPDEST PUSH2 0x175 JUMP JUMPDEST PUSH1 0x40 MLOAD PUSH2 0xAA SWAP3 SWAP2 SWAP1 PUSH2 0x9A5 JUMP JUMPDEST PUSH1 0x40 MLOAD DUP1 SWAP2 SUB SWAP1 RETURN JUMPDEST PUSH2 0xCD PUSH1 0x4 DUP1 CALLDATASIZE SUB DUP2 ADD SWAP1 PUSH2 0xC8 SWAP2 SWAP1 PUSH2 0x8DF JUMP JUMPDEST PUSH2 0x2B9 JUMP JUMPDEST PUSH1 0x40 MLOAD PUSH2 0xDA SWAP2 SWAP1 PUSH2 0xA1D JUMP JUMPDEST PUSH1 0x40 MLOAD DUP1 SWAP2 SUB SWAP1 RETURN JUMPDEST PUSH2 0xFD PUSH1 0x4 DUP1 CALLDATASIZE SUB DUP2 ADD SWAP1 PUSH2 0xF8 SWAP2 SWAP1 PUSH2 0xB6D JUMP JUMPDEST PUSH2 0x2F8 JUMP JUMPDEST STOP JUMPDEST PUSH2 0x107 PUSH2 0x4BA JUMP JUMPDEST PUSH1 0x40 MLOAD PUSH2 0x114 SWAP2 SWAP1 PUSH2 0xBE5 JUMP JUMPDEST PUSH1 0x40 MLOAD DUP1 SWAP2 SUB SWAP1 RETURN JUMPDEST PUSH2 0x125 PUSH2 0x548 JUMP JUMPDEST PUSH1 0x40 MLOAD PUSH2 0x132 SWAP2 SWAP1 PUSH2 0xCC5 JUMP JUMPDEST PUSH1 0x40 MLOAD DUP1 SWAP2 SUB SWAP1 RETURN JUMPDEST PUSH2 0x143 PUSH2 0x5D6 JUMP JUMPDEST PUSH1 0x40 MLOAD PUSH2 0x150 SWAP2 SWAP1 PUSH2 0xBE5 JUMP JUMPDEST PUSH1 0x40 MLOAD DUP1 SWAP2 SUB SWAP1 RETURN JUMPDEST PUSH2 0x173 PUSH1 0x4 DUP1 CALLDATASIZE SUB DUP2 ADD SWAP1 PUSH2 0x16E SWAP2 SWAP1 PUSH2 0xD13 JUMP JUMPDEST PUSH2 0x664 JUMP JUMPDEST STOP JUMPDEST PUSH1 0x3 DUP2 DUP2 SLOAD DUP2 LT PUSH2 0x185 JUMPI PUSH1 0x0 DUP1 REVERT JUMPDEST SWAP1 PUSH1 0x0 MSTORE PUSH1 0x20 PUSH1 0x0 KECCAK256 SWAP1 PUSH1 0x2 MUL ADD PUSH1 0x0 SWAP2 POP SWAP1 POP DUP1 PUSH1 0x0 ADD DUP1 SLOAD PUSH2 0x1A8 SWAP1 PUSH2 0xD6F JUMP JUMPDEST DUP1 PUSH1 0x1F ADD PUSH1 0x20 DUP1 SWAP2 DIV MUL PUSH1 0x20 ADD PUSH1 0x40 MLOAD SWAP1 DUP2 ADD PUSH1 0x40 MSTORE DUP1 SWAP3 SWAP2 SWAP1 DUP2 DUP2 MSTORE PUSH1 0x20 ADD DUP3 DUP1 SLOAD PUSH2 0x1D4 SWAP1 PUSH2 0xD6F JUMP JUMPDEST DUP1 ISZERO PUSH2 0x221 JUMPI DUP1 PUSH1 0x1F LT PUSH2 0x1F6 JUMPI PUSH2 0x100 DUP1 DUP4 SLOAD DIV MUL DUP4 MSTORE SWAP2 PUSH1 0x20 ADD SWAP2 PUSH2 0x221 JUMP JUMPDEST DUP3 ADD SWAP2 SWAP1 PUSH1 0x0 MSTORE PUSH1 0x20 PUSH1 0x0 KECCAK256 SWAP1 JUMPDEST DUP2 SLOAD DUP2 MSTORE SWAP1 PUSH1 0x1 ADD SWAP1 PUSH1 0x20 ADD DUP1 DUP4 GT PUSH2 0x204 JUMPI DUP3 SWAP1 SUB PUSH1 0x1F AND DUP3 ADD SWAP2 JUMPDEST POP POP POP POP POP SWAP1 DUP1 PUSH1 0x1 ADD DUP1 SLOAD PUSH2 0x236 SWAP1 PUSH2 0xD6F JUMP JUMPDEST DUP1 PUSH1 0x1F ADD PUSH1 0x20 DUP1 SWAP2 DIV MUL PUSH1 0x20 ADD PUSH1 0x40 MLOAD SWAP1 DUP2 ADD PUSH1 0x40 MSTORE DUP1 SWAP3 SWAP2 SWAP1 DUP2 DUP2 MSTORE PUSH1 0x20 ADD DUP3 DUP1 SLOAD PUSH2 0x262 SWAP1 PUSH2 0xD6F JUMP JUMPDEST DUP1 ISZERO PUSH2 0x2AF JUMPI DUP1 PUSH1 0x1F LT PUSH2 0x284 JUMPI PUSH2 0x100 DUP1 DUP4 SLOAD DIV MUL DUP4 MSTORE SWAP2 PUSH1 0x20 ADD SWAP2 PUSH2 0x2AF JUMP JUMPDEST DUP3 ADD SWAP2 SWAP1 PUSH1 0x0 MSTORE PUSH1 0x20 PUSH1 0x0 KECCAK256 SWAP1 JUMPDEST DUP2 SLOAD DUP2 MSTORE SWAP1 PUSH1 0x1 ADD SWAP1 PUSH1 0x20 ADD DUP1 DUP4 GT PUSH2 0x292 JUMPI DUP3 SWAP1 SUB PUSH1 0x1F AND DUP3 ADD SWAP2 JUMPDEST POP POP POP POP POP SWAP1 POP DUP3 JUMP JUMPDEST PUSH1 0x1 DUP2 DUP2 SLOAD DUP2 LT PUSH2 0x2C9 JUMPI PUSH1 0x0 DUP1 REVERT JUMPDEST SWAP1 PUSH1 0x0 MSTORE PUSH1 0x20 PUSH1 0x0 KECCAK256 ADD PUSH1 0x0 SWAP2 POP SLOAD SWAP1 PUSH2 0x100 EXP SWAP1 DIV PUSH20 0xFFFFFFFFFFFFFFFFFFFFFFFFFFFFFFFFFFFFFFFF AND DUP2 JUMP JUMPDEST PUSH1 0x3 PUSH1 0x40 MLOAD DUP1 PUSH1 0x40 ADD PUSH1 0x40 MSTORE DUP1 PUSH1 0x2 DUP1 SLOAD PUSH2 0x312 SWAP1 PUSH2 0xD6F JUMP JUMPDEST DUP1 PUSH1 0x1F ADD PUSH1 0x20 DUP1 SWAP2 DIV MUL PUSH1 0x20 ADD PUSH1 0x40 MLOAD SWAP1 DUP2 ADD PUSH1 0x40 MSTORE DUP1 SWAP3 SWAP2 SWAP1 DUP2 DUP2 MSTORE PUSH1 0x20 ADD DUP3 DUP1 SLOAD PUSH2 0x33E SWAP1 PUSH2 0xD6F JUMP JUMPDEST DUP1 ISZERO PUSH2 0x38B JUMPI DUP1 PUSH1 0x1F LT PUSH2 0x360 JUMPI PUSH2 0x100 DUP1 DUP4 SLOAD DIV MUL DUP4 MSTORE SWAP2 PUSH1 0x20 ADD SWAP2 PUSH2 0x38B JUMP JUMPDEST DUP3 ADD SWAP2 SWAP1 PUSH1 0x0 MSTORE PUSH1 0x20 PUSH1 0x0 KECCAK256 SWAP1 JUMPDEST DUP2 SLOAD DUP2 MSTORE SWAP1 PUSH1 0x1 ADD SWAP1 PUSH1 0x20 ADD DUP1 DUP4 GT PUSH2 0x36E JUMPI DUP3 SWAP1 SUB PUSH1 0x1F AND DUP3 ADD SWAP2 JUMPDEST POP POP POP POP POP DUP2 MSTORE PUSH1 0x20 ADD PUSH1 0x0 DUP1 SLOAD PUSH2 0x3A2 SWAP1 PUSH2 0xD6F JUMP JUMPDEST DUP1 PUSH1 0x1F ADD PUSH1 0x20 DUP1 SWAP2 DIV MUL PUSH1 0x20 ADD PUSH1 0x40 MLOAD SWAP1 DUP2 ADD PUSH1 0x40 MSTORE DUP1 SWAP3 SWAP2 SWAP1 DUP2 DUP2 MSTORE PUSH1 0x20 ADD DUP3 DUP1 SLOAD PUSH2 0x3CE SWAP1 PUSH2 0xD6F JUMP JUMPDEST DUP1 ISZERO PUSH2 0x41B JUMPI DUP1 PUSH1 0x1F LT PUSH2 0x3F0 JUMPI PUSH2 0x100 DUP1 DUP4 SLOAD DIV MUL DUP4 MSTORE SWAP2 PUSH1 0x20 ADD SWAP2 PUSH2 0x41B JUMP JUMPDEST DUP3 ADD SWAP2 SWAP1 PUSH1 0x0 MSTORE PUSH1 0x20 PUSH1 0x0 KECCAK256 SWAP1 JUMPDEST DUP2 SLOAD DUP2 MSTORE SWAP1 PUSH1 0x1 ADD SWAP1 PUSH1 0x20 ADD DUP1 DUP4 GT PUSH2 0x3FE JUMPI DUP3 SWAP1 SUB PUSH1 0x1F AND DUP3 ADD SWAP2 JUMPDEST POP POP POP POP POP DUP2 MSTORE POP SWAP1 DUP1 PUSH1 0x1 DUP2 SLOAD ADD DUP1 DUP3 SSTORE DUP1 SWAP2 POP POP PUSH1 0x1 SWAP1 SUB SWAP1 PUSH1 0x0 MSTORE PUSH1 0x20 PUSH1 0x0 KECCAK256 SWAP1 PUSH1 0x2 MUL ADD PUSH1 0x0 SWAP1 SWAP2 SWAP1 SWAP2 SWAP1 SWAP2 POP PUSH1 0x0 DUP3 ADD MLOAD DUP2 PUSH1 0x0 ADD SWAP1 DUP1 MLOAD SWAP1 PUSH1 0x20 ADD SWAP1 PUSH2 0x468 SWAP3 SWAP2 SWAP1 PUSH2 0x7F2 JUMP JUMPDEST POP PUSH1 0x20 DUP3 ADD MLOAD DUP2 PUSH1 0x1 ADD SWAP1 DUP1 MLOAD SWAP1 PUSH1 0x20 ADD SWAP1 PUSH2 0x485 SWAP3 SWAP2 SWAP1 PUSH2 0x7F2 JUMP JUMPDEST POP POP POP DUP2 PUSH1 0x0 SWAP1 DUP1 MLOAD SWAP1 PUSH1 0x20 ADD SWAP1 PUSH2 0x49E SWAP3 SWAP2 SWAP1 PUSH2 0x7F2 JUMP JUMPDEST POP DUP1 PUSH1 0x2 SWAP1 DUP1 MLOAD SWAP1 PUSH1 0x20 ADD SWAP1 PUSH2 0x4B5 SWAP3 SWAP2 SWAP1 PUSH2 0x7F2 JUMP JUMPDEST POP POP POP JUMP JUMPDEST PUSH1 0x2 DUP1 SLOAD PUSH2 0x4C7 SWAP1 PUSH2 0xD6F JUMP JUMPDEST DUP1 PUSH1 0x1F ADD PUSH1 0x20 DUP1 SWAP2 DIV MUL PUSH1 0x20 ADD PUSH1 0x40 MLOAD SWAP1 DUP2 ADD PUSH1 0x40 MSTORE DUP1 SWAP3 SWAP2 SWAP1 DUP2 DUP2 MSTORE PUSH1 0x20 ADD DUP3 DUP1 SLOAD PUSH2 0x4F3 SWAP1 PUSH2 0xD6F JUMP JUMPDEST DUP1 ISZERO PUSH2 0x540 JUMPI DUP1 PUSH1 0x1F LT PUSH2 0x515 JUMPI PUSH2 0x100 DUP1 DUP4 SLOAD DIV MUL DUP4 MSTORE SWAP2 PUSH1 0x20 ADD SWAP2 PUSH2 0x540 JUMP JUMPDEST DUP3 ADD SWAP2 SWAP1 PUSH1 0x0 MSTORE PUSH1 0x20 PUSH1 0x0 KECCAK256 SWAP1 JUMPDEST DUP2 SLOAD DUP2 MSTORE SWAP1 PUSH1 0x1 ADD SWAP1 PUSH1 0x20 ADD DUP1 DUP4 GT PUSH2 0x523 JUMPI DUP3 SWAP1 SUB PUSH1 0x1F AND DUP3 ADD SWAP2 JUMPDEST POP POP POP POP POP DUP2 JUMP JUMPDEST PUSH1 0x60 PUSH1 0x1 DUP1 SLOAD DUP1 PUSH1 0x20 MUL PUSH1 0x20 ADD PUSH1 0x40 MLOAD SWAP1 DUP2 ADD PUSH1 0x40 MSTORE DUP1 SWAP3 SWAP2 SWAP1 DUP2 DUP2 MSTORE PUSH1 0x20 ADD DUP3 DUP1 SLOAD DUP1 ISZERO PUSH2 0x5CC JUMPI PUSH1 0x20 MUL DUP3 ADD SWAP2 SWAP1 PUSH1 0x0 MSTORE PUSH1 0x20 PUSH1 0x0 KECCAK256 SWAP1 JUMPDEST DUP2 PUSH1 0x0 SWAP1 SLOAD SWAP1 PUSH2 0x100 EXP SWAP1 DIV PUSH20 0xFFFFFFFFFFFFFFFFFFFFFFFFFFFFFFFFFFFFFFFF AND PUSH20 0xFFFFFFFFFFFFFFFFFFFFFFFFFFFFFFFFFFFFFFFF AND DUP2 MSTORE PUSH1 0x20 ADD SWAP1 PUSH1 0x1 ADD SWAP1 DUP1 DUP4 GT PUSH2 0x582 JUMPI JUMPDEST POP POP POP POP POP SWAP1 POP SWAP1 JUMP JUMPDEST PUSH1 0x0 DUP1 SLOAD PUSH2 0x5E3 SWAP1 PUSH2 0xD6F JUMP JUMPDEST DUP1 PUSH1 0x1F ADD PUSH1 0x20 DUP1 SWAP2 DIV MUL PUSH1 0x20 ADD PUSH1 0x40 MLOAD SWAP1 DUP2 ADD PUSH1 0x40 MSTORE DUP1 SWAP3 SWAP2 SWAP1 DUP2 DUP2 MSTORE PUSH1 0x20 ADD DUP3 DUP1 SLOAD PUSH2 0x60F SWAP1 PUSH2 0xD6F JUMP JUMPDEST DUP1 ISZERO PUSH2 0x65C JUMPI DUP1 PUSH1 0x1F LT PUSH2 0x631 JUMPI PUSH2 0x100 DUP1 DUP4 SLOAD DIV MUL DUP4 MSTORE SWAP2 PUSH1 0x20 ADD SWAP2 PUSH2 0x65C JUMP JUMPDEST DUP3 ADD SWAP2 SWAP1 PUSH1 0x0 MSTORE PUSH1 0x20 PUSH1 0x0 KECCAK256 SWAP1 JUMPDEST DUP2 SLOAD DUP2 MSTORE SWAP1 PUSH1 0x1 ADD SWAP1 PUSH1 0x20 ADD DUP1 DUP4 GT PUSH2 0x63F JUMPI DUP3 SWAP1 SUB PUSH1 0x1F AND DUP3 ADD SWAP2 JUMPDEST POP POP POP POP POP DUP2 JUMP JUMPDEST PUSH1 0x0 JUMPDEST PUSH1 0x1 DUP1 SLOAD SWAP1 POP DUP2 LT ISZERO PUSH2 0x7EE JUMPI PUSH1 0x1 DUP2 DUP2 SLOAD DUP2 LT PUSH2 0x688 JUMPI PUSH2 0x687 PUSH2 0xDA0 JUMP JUMPDEST JUMPDEST SWAP1 PUSH1 0x0 MSTORE PUSH1 0x20 PUSH1 0x0 KECCAK256 ADD PUSH1 0x0 SWAP1 SLOAD SWAP1 PUSH2 0x100 EXP SWAP1 DIV PUSH20 0xFFFFFFFFFFFFFFFFFFFFFFFFFFFFFFFFFFFFFFFF AND PUSH20 0xFFFFFFFFFFFFFFFFFFFFFFFFFFFFFFFFFFFFFFFF AND DUP3 PUSH20 0xFFFFFFFFFFFFFFFFFFFFFFFFFFFFFFFFFFFFFFFF AND SUB PUSH2 0x7DB JUMPI PUSH1 0x1 DUP1 DUP1 DUP1 SLOAD SWAP1 POP PUSH2 0x6F7 SWAP2 SWAP1 PUSH2 0xDFE JUMP JUMPDEST DUP2 SLOAD DUP2 LT PUSH2 0x708 JUMPI PUSH2 0x707 PUSH2 0xDA0 JUMP JUMPDEST JUMPDEST SWAP1 PUSH1 0x0 MSTORE PUSH1 0x20 PUSH1 0x0 KECCAK256 ADD PUSH1 0x0 SWAP1 SLOAD SWAP1 PUSH2 0x100 EXP SWAP1 DIV PUSH20 0xFFFFFFFFFFFFFFFFFFFFFFFFFFFFFFFFFFFFFFFF AND PUSH1 0x1 DUP3 DUP2 SLOAD DUP2 LT PUSH2 0x747 JUMPI PUSH2 0x746 PUSH2 0xDA0 JUMP JUMPDEST JUMPDEST SWAP1 PUSH1 0x0 MSTORE PUSH1 0x20 PUSH1 0x0 KECCAK256 ADD PUSH1 0x0 PUSH2 0x100 EXP DUP2 SLOAD DUP2 PUSH20 0xFFFFFFFFFFFFFFFFFFFFFFFFFFFFFFFFFFFFFFFF MUL NOT AND SWAP1 DUP4 PUSH20 0xFFFFFFFFFFFFFFFFFFFFFFFFFFFFFFFFFFFFFFFF AND MUL OR SWAP1 SSTORE POP PUSH1 0x1 DUP1 SLOAD DUP1 PUSH2 0x7A1 JUMPI PUSH2 0x7A0 PUSH2 0xE32 JUMP JUMPDEST JUMPDEST PUSH1 0x1 SWAP1 SUB DUP2 DUP2 SWAP1 PUSH1 0x0 MSTORE PUSH1 0x20 PUSH1 0x0 KECCAK256 ADD PUSH1 0x0 PUSH2 0x100 EXP DUP2 SLOAD SWAP1 PUSH20 0xFFFFFFFFFFFFFFFFFFFFFFFFFFFFFFFFFFFFFFFF MUL NOT AND SWAP1 SSTORE SWAP1 SSTORE PUSH2 0x7EE JUMP JUMPDEST DUP1 DUP1 PUSH2 0x7E6 SWAP1 PUSH2 0xE61 JUMP JUMPDEST SWAP2 POP POP PUSH2 0x667 JUMP JUMPDEST POP POP JUMP JUMPDEST DUP3 DUP1 SLOAD PUSH2 0x7FE SWAP1 PUSH2 0xD6F JUMP JUMPDEST SWAP1 PUSH1 0x0 MSTORE PUSH1 0x20 PUSH1 0x0 KECCAK256 SWAP1 PUSH1 0x1F ADD PUSH1 0x20 SWAP1 DIV DUP2 ADD SWAP3 DUP3 PUSH2 0x820 JUMPI PUSH1 0x0 DUP6 SSTORE PUSH2 0x867 JUMP JUMPDEST DUP3 PUSH1 0x1F LT PUSH2 0x839 JUMPI DUP1 MLOAD PUSH1 0xFF NOT AND DUP4 DUP1 ADD OR DUP6 SSTORE PUSH2 0x867 JUMP JUMPDEST DUP3 DUP1 ADD PUSH1 0x1 ADD DUP6 SSTORE DUP3 ISZERO PUSH2 0x867 JUMPI SWAP2 DUP3 ADD JUMPDEST DUP3 DUP2 GT ISZERO PUSH2 0x866 JUMPI DUP3 MLOAD DUP3 SSTORE SWAP2 PUSH1 0x20 ADD SWAP2 SWAP1 PUSH1 0x1 ADD SWAP1 PUSH2 0x84B JUMP JUMPDEST JUMPDEST POP SWAP1 POP PUSH2 0x874 SWAP2 SWAP1 PUSH2 0x878 JUMP JUMPDEST POP SWAP1 JUMP JUMPDEST JUMPDEST DUP1 DUP3 GT ISZERO PUSH2 0x891 JUMPI PUSH1 0x0 DUP2 PUSH1 0x0 SWAP1 SSTORE POP PUSH1 0x1 ADD PUSH2 0x879 JUMP JUMPDEST POP SWAP1 JUMP JUMPDEST PUSH1 0x0 PUSH1 0x40 MLOAD SWAP1 POP SWAP1 JUMP JUMPDEST PUSH1 0x0 DUP1 REVERT JUMPDEST PUSH1 0x0 DUP1 REVERT JUMPDEST PUSH1 0x0 DUP2 SWAP1 POP SWAP2 SWAP1 POP JUMP JUMPDEST PUSH2 0x8BC DUP2 PUSH2 0x8A9 JUMP JUMPDEST DUP2 EQ PUSH2 0x8C7 JUMPI PUSH1 0x0 DUP1 REVERT JUMPDEST POP JUMP JUMPDEST PUSH1 0x0 DUP2 CALLDATALOAD SWAP1 POP PUSH2 0x8D9 DUP2 PUSH2 0x8B3 JUMP JUMPDEST SWAP3 SWAP2 POP POP JUMP JUMPDEST PUSH1 0x0 PUSH1 0x20 DUP3 DUP5 SUB SLT ISZERO PUSH2 0x8F5 JUMPI PUSH2 0x8F4 PUSH2 0x89F JUMP JUMPDEST JUMPDEST PUSH1 0x0 PUSH2 0x903 DUP5 DUP3 DUP6 ADD PUSH2 0x8CA JUMP JUMPDEST SWAP2 POP POP SWAP3 SWAP2 POP POP JUMP JUMPDEST PUSH1 0x0 DUP2 MLOAD SWAP1 POP SWAP2 SWAP1 POP JUMP JUMPDEST PUSH1 0x0 DUP3 DUP3 MSTORE PUSH1 0x20 DUP3 ADD SWAP1 POP SWAP3 SWAP2 POP POP JUMP JUMPDEST PUSH1 0x0 JUMPDEST DUP4 DUP2 LT ISZERO PUSH2 0x946 JUMPI DUP1 DUP3 ADD MLOAD DUP2 DUP5 ADD MSTORE PUSH1 0x20 DUP2 ADD SWAP1 POP PUSH2 0x92B JUMP JUMPDEST DUP4 DUP2 GT ISZERO PUSH2 0x955 JUMPI PUSH1 0x0 DUP5 DUP5 ADD MSTORE JUMPDEST POP POP POP POP JUMP JUMPDEST PUSH1 0x0 PUSH1 0x1F NOT PUSH1 0x1F DUP4 ADD AND SWAP1 POP SWAP2 SWAP1 POP JUMP JUMPDEST PUSH1 0x0 PUSH2 0x977 DUP3 PUSH2 0x90C JUMP JUMPDEST PUSH2 0x981 DUP2 DUP6 PUSH2 0x917 JUMP JUMPDEST SWAP4 POP PUSH2 0x991 DUP2 DUP6 PUSH1 0x20 DUP7 ADD PUSH2 0x928 JUMP JUMPDEST PUSH2 0x99A DUP2 PUSH2 0x95B JUMP JUMPDEST DUP5 ADD SWAP2 POP POP SWAP3 SWAP2 POP POP JUMP JUMPDEST PUSH1 0x0 PUSH1 0x40 DUP3 ADD SWAP1 POP DUP2 DUP2 SUB PUSH1 0x0 DUP4 ADD MSTORE PUSH2 0x9BF DUP2 DUP6 PUSH2 0x96C JUMP JUMPDEST SWAP1 POP DUP2 DUP2 SUB PUSH1 0x20 DUP4 ADD MSTORE PUSH2 0x9D3 DUP2 DUP5 PUSH2 0x96C JUMP JUMPDEST SWAP1 POP SWAP4 SWAP3 POP POP POP JUMP JUMPDEST PUSH1 0x0 PUSH20 0xFFFFFFFFFFFFFFFFFFFFFFFFFFFFFFFFFFFFFFFF DUP3 AND SWAP1 POP SWAP2 SWAP1 POP JUMP JUMPDEST PUSH1 0x0 PUSH2 0xA07 DUP3 PUSH2 0x9DC JUMP JUMPDEST SWAP1 POP SWAP2 SWAP1 POP JUMP JUMPDEST PUSH2 0xA17 DUP2 PUSH2 0x9FC JUMP JUMPDEST DUP3 MSTORE POP POP JUMP JUMPDEST PUSH1 0x0 PUSH1 0x20 DUP3 ADD SWAP1 POP PUSH2 0xA32 PUSH1 0x0 DUP4 ADD DUP5 PUSH2 0xA0E JUMP JUMPDEST SWAP3 SWAP2 POP POP JUMP JUMPDEST PUSH1 0x0 DUP1 REVERT JUMPDEST PUSH1 0x0 DUP1 REVERT JUMPDEST PUSH32 0x4E487B7100000000000000000000000000000000000000000000000000000000 PUSH1 0x0 MSTORE PUSH1 0x41 PUSH1 0x4 MSTORE PUSH1 0x24 PUSH1 0x0 REVERT JUMPDEST PUSH2 0xA7A DUP3 PUSH2 0x95B JUMP JUMPDEST DUP2 ADD DUP2 DUP2 LT PUSH8 0xFFFFFFFFFFFFFFFF DUP3 GT OR ISZERO PUSH2 0xA99 JUMPI PUSH2 0xA98 PUSH2 0xA42 JUMP JUMPDEST JUMPDEST DUP1 PUSH1 0x40 MSTORE POP POP POP JUMP JUMPDEST PUSH1 0x0 PUSH2 0xAAC PUSH2 0x895 JUMP JUMPDEST SWAP1 POP PUSH2 0xAB8 DUP3 DUP3 PUSH2 0xA71 JUMP JUMPDEST SWAP2 SWAP1 POP JUMP JUMPDEST PUSH1 0x0 PUSH8 0xFFFFFFFFFFFFFFFF DUP3 GT ISZERO PUSH2 0xAD8 JUMPI PUSH2 0xAD7 PUSH2 0xA42 JUMP JUMPDEST JUMPDEST PUSH2 0xAE1 DUP3 PUSH2 0x95B JUMP JUMPDEST SWAP1 POP PUSH1 0x20 DUP2 ADD SWAP1 POP SWAP2 SWAP1 POP JUMP JUMPDEST DUP3 DUP2 DUP4 CALLDATACOPY PUSH1 0x0 DUP4 DUP4 ADD MSTORE POP POP POP JUMP JUMPDEST PUSH1 0x0 PUSH2 0xB10 PUSH2 0xB0B DUP5 PUSH2 0xABD JUMP JUMPDEST PUSH2 0xAA2 JUMP JUMPDEST SWAP1 POP DUP3 DUP2 MSTORE PUSH1 0x20 DUP2 ADD DUP5 DUP5 DUP5 ADD GT ISZERO PUSH2 0xB2C JUMPI PUSH2 0xB2B PUSH2 0xA3D JUMP JUMPDEST JUMPDEST PUSH2 0xB37 DUP5 DUP3 DUP6 PUSH2 0xAEE JUMP JUMPDEST POP SWAP4 SWAP3 POP POP POP JUMP JUMPDEST PUSH1 0x0 DUP3 PUSH1 0x1F DUP4 ADD SLT PUSH2 0xB54 JUMPI PUSH2 0xB53 PUSH2 0xA38 JUMP JUMPDEST JUMPDEST DUP2 CALLDATALOAD PUSH2 0xB64 DUP5 DUP3 PUSH1 0x20 DUP7 ADD PUSH2 0xAFD JUMP JUMPDEST SWAP2 POP POP SWAP3 SWAP2 POP POP JUMP JUMPDEST PUSH1 0x0 DUP1 PUSH1 0x40 DUP4 DUP6 SUB SLT ISZERO PUSH2 0xB84 JUMPI PUSH2 0xB83 PUSH2 0x89F JUMP JUMPDEST JUMPDEST PUSH1 0x0 DUP4 ADD CALLDATALOAD PUSH8 0xFFFFFFFFFFFFFFFF DUP2 GT ISZERO PUSH2 0xBA2 JUMPI PUSH2 0xBA1 PUSH2 0x8A4 JUMP JUMPDEST JUMPDEST PUSH2 0xBAE DUP6 DUP3 DUP7 ADD PUSH2 0xB3F JUMP JUMPDEST SWAP3 POP POP PUSH1 0x20 DUP4 ADD CALLDATALOAD PUSH8 0xFFFFFFFFFFFFFFFF DUP2 GT ISZERO PUSH2 0xBCF JUMPI PUSH2 0xBCE PUSH2 0x8A4 JUMP JUMPDEST JUMPDEST PUSH2 0xBDB DUP6 DUP3 DUP7 ADD PUSH2 0xB3F JUMP JUMPDEST SWAP2 POP POP SWAP3 POP SWAP3 SWAP1 POP JUMP JUMPDEST PUSH1 0x0 PUSH1 0x20 DUP3 ADD SWAP1 POP DUP2 DUP2 SUB PUSH1 0x0 DUP4 ADD MSTORE PUSH2 0xBFF DUP2 DUP5 PUSH2 0x96C JUMP JUMPDEST SWAP1 POP SWAP3 SWAP2 POP POP JUMP JUMPDEST PUSH1 0x0 DUP2 MLOAD SWAP1 POP SWAP2 SWAP1 POP JUMP JUMPDEST PUSH1 0x0 DUP3 DUP3 MSTORE PUSH1 0x20 DUP3 ADD SWAP1 POP SWAP3 SWAP2 POP POP JUMP JUMPDEST PUSH1 0x0 DUP2 SWAP1 POP PUSH1 0x20 DUP3 ADD SWAP1 POP SWAP2 SWAP1 POP JUMP JUMPDEST PUSH2 0xC3C DUP2 PUSH2 0x9FC JUMP JUMPDEST DUP3 MSTORE POP POP JUMP JUMPDEST PUSH1 0x0 PUSH2 0xC4E DUP4 DUP4 PUSH2 0xC33 JUMP JUMPDEST PUSH1 0x20 DUP4 ADD SWAP1 POP SWAP3 SWAP2 POP POP JUMP JUMPDEST PUSH1 0x0 PUSH1 0x20 DUP3 ADD SWAP1 POP SWAP2 SWAP1 POP JUMP JUMPDEST PUSH1 0x0 PUSH2 0xC72 DUP3 PUSH2 0xC07 JUMP JUMPDEST PUSH2 0xC7C DUP2 DUP6 PUSH2 0xC12 JUMP JUMPDEST SWAP4 POP PUSH2 0xC87 DUP4 PUSH2 0xC23 JUMP JUMPDEST DUP1 PUSH1 0x0 JUMPDEST DUP4 DUP2 LT ISZERO PUSH2 0xCB8 JUMPI DUP2 MLOAD PUSH2 0xC9F DUP9 DUP3 PUSH2 0xC42 JUMP JUMPDEST SWAP8 POP PUSH2 0xCAA DUP4 PUSH2 0xC5A JUMP JUMPDEST SWAP3 POP POP PUSH1 0x1 DUP2 ADD SWAP1 POP PUSH2 0xC8B JUMP JUMPDEST POP DUP6 SWAP4 POP POP POP POP SWAP3 SWAP2 POP POP JUMP JUMPDEST PUSH1 0x0 PUSH1 0x20 DUP3 ADD SWAP1 POP DUP2 DUP2 SUB PUSH1 0x0 DUP4 ADD MSTORE PUSH2 0xCDF DUP2 DUP5 PUSH2 0xC67 JUMP JUMPDEST SWAP1 POP SWAP3 SWAP2 POP POP JUMP JUMPDEST PUSH2 0xCF0 DUP2 PUSH2 0x9FC JUMP JUMPDEST DUP2 EQ PUSH2 0xCFB JUMPI PUSH1 0x0 DUP1 REVERT JUMPDEST POP JUMP JUMPDEST PUSH1 0x0 DUP2 CALLDATALOAD SWAP1 POP PUSH2 0xD0D DUP2 PUSH2 0xCE7 JUMP JUMPDEST SWAP3 SWAP2 POP POP JUMP JUMPDEST PUSH1 0x0 PUSH1 0x20 DUP3 DUP5 SUB SLT ISZERO PUSH2 0xD29 JUMPI PUSH2 0xD28 PUSH2 0x89F JUMP JUMPDEST JUMPDEST PUSH1 0x0 PUSH2 0xD37 DUP5 DUP3 DUP6 ADD PUSH2 0xCFE JUMP JUMPDEST SWAP2 POP POP SWAP3 SWAP2 POP POP JUMP JUMPDEST PUSH32 0x4E487B7100000000000000000000000000000000000000000000000000000000 PUSH1 0x0 MSTORE PUSH1 0x22 PUSH1 0x4 MSTORE PUSH1 0x24 PUSH1 0x0 REVERT JUMPDEST PUSH1 0x0 PUSH1 0x2 DUP3 DIV SWAP1 POP PUSH1 0x1 DUP3 AND DUP1 PUSH2 0xD87 JUMPI PUSH1 0x7F DUP3 AND SWAP2 POP JUMPDEST PUSH1 0x20 DUP3 LT DUP2 SUB PUSH2 0xD9A JUMPI PUSH2 0xD99 PUSH2 0xD40 JUMP JUMPDEST JUMPDEST POP SWAP2 SWAP1 POP JUMP JUMPDEST PUSH32 0x4E487B7100000000000000000000000000000000000000000000000000000000 PUSH1 0x0 MSTORE PUSH1 0x32 PUSH1 0x4 MSTORE PUSH1 0x24 PUSH1 0x0 REVERT JUMPDEST PUSH32 0x4E487B7100000000000000000000000000000000000000000000000000000000 PUSH1 0x0 MSTORE PUSH1 0x11 PUSH1 0x4 MSTORE PUSH1 0x24 PUSH1 0x0 REVERT JUMPDEST PUSH1 0x0 PUSH2 0xE09 DUP3 PUSH2 0x8A9 JUMP JUMPDEST SWAP2 POP PUSH2 0xE14 DUP4 PUSH2 0x8A9 JUMP JUMPDEST SWAP3 POP DUP3 DUP3 LT ISZERO PUSH2 0xE27 JUMPI PUSH2 0xE26 PUSH2 0xDCF JUMP JUMPDEST JUMPDEST DUP3 DUP3 SUB SWAP1 POP SWAP3 SWAP2 POP POP JUMP JUMPDEST PUSH32 0x4E487B7100000000000000000000000000000000000000000000000000000000 PUSH1 0x0 MSTORE PUSH1 0x31 PUSH1 0x4 MSTORE PUSH1 0x24 PUSH1 0x0 REVERT JUMPDEST PUSH1 0x0 PUSH2 0xE6C DUP3 PUSH2 0x8A9 JUMP JUMPDEST SWAP2 POP PUSH32 0xFFFFFFFFFFFFFFFFFFFFFFFFFFFFFFFFFFFFFFFFFFFFFFFFFFFFFFFFFFFFFFFF DUP3 SUB PUSH2 0xE9E JUMPI PUSH2 0xE9D PUSH2 0xDCF JUMP JUMPDEST JUMPDEST PUSH1 0x1 DUP3 ADD SWAP1 POP SWAP2 SWAP1 POP JUMP INVALID LOG2 PUSH5 0x6970667358 0x22 SLT KECCAK256 BYTE 0xDB DUP14 DELEGATECALL GAS 0xE 0x49 PUSH28 0xA17430C5283A7582E8AC3AA2495AACB09926EB1A87F90CBD64736F6C PUSH4 0x4300080D STOP CALLER LOG2 PUSH5 0x6970667358 0x22 SLT KECCAK256 DUP12 0x4B BALANCE 0xAE 0xEE 0xD4 DUP9 PUSH7 0xB02F35AB1DD805 CALLVALUE 0xA7 PUSH13 0xC4A48DC2D02166A76CF9EDBA7C DUP4 PUSH5 0x736F6C6343 STOP ADDMOD 0xD STOP CALLER "
    },
    "gasEstimates": {
      "creation": {
        "codeDepositCost": "1698400",
        "executionCost": "1785",
        "totalCost": "1700185"
      },
      "external": {
        "deleteOwnerFromDocument(address,address)": "infinite",
        "getContractsByOwner(address)": "infinite",
        "getListOfDocuments(address)": "infinite",
        "owners(address,uint256)": "infinite",
        "uploadDocument(string,address,string)": "infinite"
      }
    },
    "methodIdentifiers": {
      "deleteOwnerFromDocument(address,address)": "1e3bb6ae",
      "getContractsByOwner(address)": "1cea013a",
      "getListOfDocuments(address)": "dfc9f2ea",
      "owners(address,uint256)": "9b3e2787",
      "uploadDocument(string,address,string)": "42b67595"
    }
  },
  "storageLayout": {
    "storage": [
      {
        "astId": 141,
        "contract": "MasterContract.sol:MasterContract",
        "label": "owners",
        "offset": 0,
        "slot": "0",
        "type": "t_mapping(t_address,t_array(t_address)dyn_storage)"
      }
    ],
    "types": {
      "t_address": {
        "encoding": "inplace",
        "label": "address",
        "numberOfBytes": "20"
      },
      "t_array(t_address)dyn_storage": {
        "base": "t_address",
        "encoding": "dynamic_array",
        "label": "address[]",
        "numberOfBytes": "32"
      },
      "t_mapping(t_address,t_array(t_address)dyn_storage)": {
        "encoding": "mapping",
        "key": "t_address",
        "label": "mapping(address => address[])",
        "numberOfBytes": "32",
        "value": "t_array(t_address)dyn_storage"
      }
    }
  },
  "userdoc": {
    "kind": "user",
    "methods": {},
    "version": 1
  }
}